:1020000000800020C15E0000A95E0000A95E000003
:1020100000000000000000000000000000000000C0
:10202000000000000000000000000000A95E0000A9
:102030000000000000000000A95E00003D5F0000FD
:10204000A95E0000A95E0000A95E0000A95E000074
:10205000A95E0000A95E0000A95E0000AD5E000060
:10206000A95E0000753A0000A95E0000A95E0000AC
:10207000A95E0000A95E0000A95E0000A95E000044
:10208000A95E0000A95E000099210000A95E000081
:1020900000000000A95E0000A95E0000A95E00002B
:1020A000A95E0000A95E0000A95E0000A95E000014
:1020B0000000000010B5064C2378002B07D1054B1B
:1020C000002B02D0044800E000BF0123237010BDA4
:1020D000400100200000000068B00000044B10B573
:1020E000002B03D00349044800E000BF10BDC046E8
:1020F000000000004401002068B000001D4B70B5D6
:102100001B68002B1DD01C4D1C4A2B681268934283
:1021100001DB00232B601A4C1A49226809688A42A5
:1021200001DB0022226018489900405A17490881B3
:1021300017490968002913D1013301322B6022604D
:1021400070BD124A13810C4A13600D4A1360104B84
:102150001B68002BF4D000210A2004F09BF9EFE764
:102160000C4B9200D1580A2004F094F92B68226895
:10217000E2E7C04670010020844500200C000020EA
:102180008045002008000020740100200048004223
:10219000744100207421002010B5032001F0D2FB0F
:1021A00010BDC04600233A4A10B51370537EDB09B8
:1021B000FCD1FF21374B1868374B1C688306400160
:1021C000E40E5B0F014021431B020B4313859388F0
:1021D0003249194080239B000B4393802C4A537E45
:1021E000DB09FCD1302193888B4310210B43938072
:1021F000274A537EDB09FCD10F2193788B439370E0
:10220000937861318B4310210B433F219370D37836
:102210008B4302210B430121D37093888B4393801E
:102220001B4A537EDB09FCD11F201D492833C95CA2
:102230001369014083430B431361154A537EDB0945
:10224000FCD1136917491940C0235B010B4313618B
:102250000F4A537EDB09FCD10F2153788B430221B7
:102260000B4353707F2351780B405370F023116957
:102270001B050B431361064A537EDB09FCD1022187
:1022800013780B431370024A537EDB09FCD110BD57
:10229000004000422460800020608000FFF8FFFFC3
:1022A00028AB0000FFE0FFFF70B506000D1E0DDD3E
:1022B0000024022A15D0012A09D0A30001340021EC
:1022C0009859E4B204F0F2F9A542F6DC70BDA3001F
:1022D000013401219859E4B204F0E8F9A542F6DC92
:1022E000F4E7A300013402219859E4B204F0DEF9C6
:1022F000AC42F6DBEAE7C046F0B54E464546DE4660
:1023000057469E4BE0B51E689D4B85B01B68F21A80
:102310009946D343DB171A4080239046DB009A424C
:1023200001DB984B98464B46F318DF43FF171F40DD
:102330008023DB009F4200DB924F934B1B689A4641
:102340004346F81A08F038F90022904B06F0FAFEDE
:10235000040050460D0008F02FF900228C4B07F0C6
:10236000F7FA0B0002002900200007F0F1FA08F04C
:1023700053F9884B051C18609B46874B1B68012B43
:1023800000D191E0022B42D0844B1968002937DD3F
:1023900083484A1E4307DB0F052A00D8EBE0002BD9
:1023A00000D1E6E001250660CC1A62089B00C31844
:1023B000D200D2181E605E6008339342FAD1012227
:1023C000230093435D199C421AD0AA0086506A1CD0
:1023D000914215DD92008650AA1C8A4210DA9200C2
:1023E0008650EA1C8A420BDA920086502A1D9142DE
:1023F00006DD92006B1D8650994201DD9B00C650A0
:1024000005B03CBC90469946A246AB46F0BD634B36
:102410001C68002CF4DD4046A40006F0E3FAA24656
:1024200000235F4EB84681463700B244041C009337
:102430000AE00021201C05F06BFE0023002800D1DB
:1024400090E008C7574529D04846211C05F05AFEA0
:10245000002874D1404606F0C5FA211C061C05F080
:1024600051FE00286BD1291C201C05F079FE041CAC
:10247000011C484605F060FE00286CD1211C301C70
:1024800005F046FE002872D14649201C05F054FE96
:102490000028CED03B4B08C75745D5D1009B002B19
:1024A000AED05B461D60ABE73C4B1B689846002BEB
:1024B000A6DD5346580008F07FF83B4B3B4A07F037
:1024C00047FA040030000D0008F076F80600484690
:1024D0000F0008F071F800900191404608F06CF888
:1024E0002F4B029003919A46002399468023DB00EC
:1024F0009B46484608F060F822002B0007F028FAB7
:10250000029A039B06F01EFE04F0A4FA009A019BB7
:1025100007F01EFA3B00320006F0AAFA08F016F89F
:10252000C343DB171840584500DB1648534601C328
:102530009A4601239C46E144C845DAD160E78023EE
:10254000291C1B06201CEE1806F064F80123041C4D
:10255000351C009398E74C461249201C05F0ECFD11
:10256000002897D1201C06F01DFA030069E7341CEF
:10257000F2E7002518E7002527E7C0468845002038
:1025800064010020FF0300007841002000F88F4024
:102590000000E03F5C010020985D00200C0000205E
:1025A0007401002000C07F44FB210940182D4454D1
:1025B0007047C04610B50321014800F075FF10BDFB
:1025C0009C5D0020F0B5DE4657464E464546E0B5D8
:1025D000DA4B8DB01800DA49994601F015FE012159
:1025E0000D2004F063F801210D2004F0A3F801236D
:1025F0000024D44A1360D44A07331360D34AED331E
:10260000FF331360D24A0C331360D24B1C60FFF7C8
:1026100073FED14B00219B460B235A461360CF4AD1
:102620000E3313600AA8082208F0DDF806220723FB
:10263000069207930923082206210892099306A807
:102640000022FFF731FE0021C54801F057F9202391
:1026500000220021C248009401F042F89622002195
:10266000BF48D20001F01AF9BE4B02220121BC483A
:1026700001F070F80A2003F0C5FE0021002003F0ED
:1026800009FFFFF78FFD9623DB000593B64B9A46B3
:10269000484601F0F9FC0028FAD0484601F016FD42
:1026A000FF23184030384428F2D8B04B80001B5824
:1026B0009F4601220021484601F0A8FCAC4B18605F
:1026C0000028E5D05B461860E2E7484601F0FEFCD2
:1026D000C0B26F2801D100F0B8FE00210A2003F03B
:1026E000D9FED5E701220021484601F08FFCA14B1D
:1026F0001860A14B0A201B681900039303F0CAFE5F
:10270000C6E701220021484601F080FC9A4B0100F7
:1027100018600A2003F0BEFEBAE7012200214846F5
:1027200001F074FC80231B01984201DA00F04AFE9C
:10273000924B934A1360484601F0C8FCC0B244284B
:1027400001D100F04CFE00238E4A13608C4A8E4962
:102750001268039292008B509AE7012200214846AA
:1027600001F054FC53461860884B1B6898428FDD7B
:10277000524613608CE7484601F0A8FCC0B26F28AF
:1027800001D000F0F3FD0122814B1A6080E748463A
:1027900001F09CFCC0B26F2801D100F031FE002393
:1027A0007C4A136074E701220021484601F02EFCA8
:1027B000644B1860FFF7A0FD6AE70122002148463C
:1027C00001F024FC624B1860FFF796FD60E70122E0
:1027D0000021484601F01AFC6F4B18606B4B1B68D8
:1027E000984200DC54E76C4A136051E70122002153
:1027F000484601F00BFC694B1860002800D147E700
:10280000564B002118603023584383B21A005448B5
:10281000059301F043F83BE701220021484601F00F
:10282000F5FB5F4B1860594B1B68984200DC2FE7A3
:102830005B4A13602CE7574B1B680393002B07DDA3
:102840000023584A1360584A1360A033013BFDD15E
:1028500003F088FB0023039353461B6880460490D3
:10286000002B44DD514F1F223B6993431E3A134313
:1028700002223B613B7B13433B737B7EDB09FCD134
:10288000C046C046C0463B7EDB07FCD5039A798B29
:102890009446474B0AB2634412121A7052460025FE
:1028A0000024126806AE9954306803F071FF0028C6
:1028B00003D00123A340ED18ADB201340436062C39
:1028C000F2D13F23039A1D403A4B9D545B461B684F
:1028D0009C46E044444603F045FBA042FBD35246ED
:1028E000039B12680133A04603939A42BBDC03F0BA
:1028F00039FB049BC41A00210D2003F01BFF2E4955
:10290000484601F00FF90A222100484601F0D4F9A7
:10291000802227491201484601F0C2FB8022484626
:10292000D200244901F0BCFB4846244901F026F9B5
:1029300001210D2003F0FEFEAAE6C046346100200E
:1029400080841E00985D00207841002064010020F2
:1029500088450020700100208C5D00206801002067
:102960009C5D0020FD20000004000020F0A9000074
:10297000905D00201400002010000020FF070000E0
:10298000600100207C410020742100200000002014
:1029900074410020945D00200C0000206C01002098
:1029A00008000020844500208045002000400042AF
:1029B0008C45002080410020E4A90000ECA9000023
:1029C000AA4B1B680393002B07DD0023A84A136062
:1029D000A84A1360A033013BFDD103F0C3FA53466C
:1029E0001B68050000260390002B2FDD1F23052701
:1029F0009846A14C42462369934302223B432361FC
:102A0000237B13432373637EDB09FCD1C046C0469E
:102A1000C046237EDB07FCD5618B984B0AB29B191D
:102A200012121A705246126899540022944B9B1944
:102A30001A705B461B689C46654403F093FAA842F3
:102A4000FBD353461B680136B342D3DC03F08AFA4A
:102A5000039B0021C41A0D2003F06CFE89494846EF
:102A600001F060F80A222100484601F025F9802291
:102A7000824912014FE77D4B1B680393002B07DD52
:102A800000237B4A13607B4A1360A033013BFDD1D6
:102A900003F068FA53461B68050000260390002BDC
:102AA0002FDD1F2304279846734C42462369934326
:102AB00002223B432361237B13432373637EDB09A1
:102AC000FCD1C046C046C046237EDB07FCD5618BE7
:102AD0006D4B0AB29B1912121A7052461268995421
:102AE0000022674B9B191A705B461B689C46654425
:102AF00003F038FAA842FBD353461B680136B342B1
:102B0000D3DC03F02FFA039B0021C41A0D2003F03D
:102B100011FE5C49484601F005F80A2221004846AA
:102B200001F0CAF8802258491201F4E64F4B1B68A5
:102B30000393002B07DD00234D4A13604D4A1360B9
:102B4000A033013BFDD103F00DFA53461B6805008D
:102B500000260490002B00DC6AE002239846464CD5
:102B60001F22236993431E3A134342462361237B6A
:102B700013432373637EDB09FCD1C046C046C046C5
:102B8000237EDB07FCD51F21628B93B2039323695D
:102B900012B28B431B390B4341462361237B0B430A
:102BA0002373637EDB09FCD1C046C046C046237E4A
:102BB000DB07FCD51F27638B216998B2B9431A3F05
:102BC000394347462161217B1BB239432173617E22
:102BD000C909FCD1C046C046C046217EC907FCD504
:102BE0002A4F1212618BBA5552468C4612680399CD
:102BF000B218B95424491B128B55634688541BB232
:102C00001E491B128B550B006146995400221C4B28
:102C10009B191A705B461B689C46654403F0A2F939
:102C2000A842FBD353461B680136B34200DD97E749
:102C300003F098F9049B0021C41A0D2003F07AFDDB
:102C40001049484600F06EFF0A222100484601F074
:102C500033F8802248460D49120101F021FA802202
:102C600048460949120101F01BFA00E7945D002073
:102C70008445002080450020004000428C55002003
:102C800080410020E4A900008C4D00208C450020EC
:102C9000814B1B680393002B07DD00237F4A1360E1
:102CA0007F4A1360A033013BFDD103F05BF953462B
:102CB0001B68050000260390002B49DD1F23022717
:102CC0009846784C42462369934304221343236178
:102CD000237B3B432373637EDB09FCD1C046C046A4
:102CE000C046237EDB07FCD54046628B236991B248
:102CF0008343052003432361237B12B23B432373A9
:102D0000637EDB09FCD1C046C046C046237EDB079C
:102D1000FCD5654B1212608B9A5553461B68624A6C
:102D2000F318D154614902B212128A550022C854D4
:102D30005F4B9B191A705B461B689C46654403F009
:102D400011F9A842FBD353461B680136B342B9DCE4
:102D500003F008F9039B0021C41A0D2003F0EAFCDC
:102D60004846544900F0DEFE0A222100484600F0A1
:102D7000A3FF74E7484B1B680393002B07DD002378
:102D8000464A1360464A1360A033013BFDD103F06D
:102D9000E9F853461B68050000260390002B49DD27
:102DA0001F23022798463F4C424623699343012242
:102DB00013432361237B3B432373637EDB09FCD1F5
:102DC000C046C046C046237EDB07FCD54046628B2A
:102DD000236991B28343052003432361237B12B20D
:102DE0003B432373637EDB09FCD1C046C046C0462B
:102DF000237EDB07FCD5304B1212608B9A5553466D
:102E00001B682D4AF318D154284902B212128A5570
:102E10000022C854264B9B191A705B461B689C46BF
:102E2000654403F09FF8A842FBD353461B68013664
:102E3000B342B9DC03F096F8039B0021C41A0D20BD
:102E400003F078FC48461B4900F06CFE21000A2282
:102E5000484600F031FF802248461749120101F030
:102E60001FF9802248461149120101F019F9802208
:102E70004846D2000E4901F013F948460F4900F0C8
:102E80007DFE01210D2003F055FC48460B4900F062
:102E900075FEFFF7FDFBC046945D002084450020D1
:102EA00080450020004000428C4D00208C550020C1
:102EB00080410020E4A900008C450020ECA900001E
:102EC0006C4B1B680393002B07DD00236A4A1360D9
:102ED0006A4A1360A033013BFDD103F043F8534627
:102EE0001B68050000260390002B49DD1F230227E5
:102EF0009846634C4246236993430122134323615E
:102F0000237B3B432373637EDB09FCD1C046C04671
:102F1000C046237EDB07FCD54046628B236991B215
:102F20008343042003432361237B12B23B43237377
:102F3000637EDB09FCD1C046C046C046237EDB076A
:102F4000FCD5504B1212608B9A5553461B684D4A64
:102F5000F318D1544C4902B212128A550022C854B7
:102F60004A4B9B191A705B461B689C46654402F0ED
:102F7000F9FFA842FBD353461B680136B342B9DCC4
:102F800002F0F0FF039BC41A00210D2003F0D2FBD6
:102F90003F49484600F0C6FD0A222100484600F09D
:102FA0008BFE802237491201484601F079F88022D1
:102FB00035491201AFE42F4B1B680393002B07DD4B
:102FC00000232D4A13602D4A1360A033013BFDD12D
:102FD00002F0C8FF53461B68804605000026002B00
:102FE0002DDD1F27264C01222369BB4313430222F8
:102FF0002361237B13432373637EDB09FCD1C0462B
:10300000C046C046237EDB07FCD5618B1D4B0AB250
:103010009B1912121A7052461268995400221B4BC7
:103020009B191A705B461B689C46654402F09AFF28
:10303000A842FBD353461B680136B342D3DC02F0EF
:1030400091FF4346FFF756FC01220021484600F05D
:10305000DDFF104B1860FFF74FF9FFF719FB012256
:103060000021484600F0D2FF0B4B1860FFF744F9EF
:10307000FFF70EFB945D0020844500208045002072
:10308000004000428C4500208C4D002080410020F3
:10309000E4A900007841002064010020B84B1B68BF
:1030A0000393002B07DD0023B64A1360B64A136072
:1030B000A033013BFDD102F055FF0023039353469B
:1030C0001B6880460490002B00DCB1E5AF4C1F224A
:1030D000236993431E3A13432361237B0132134335
:1030E0002373637EDB09FCD1C046C046C046237E05
:1030F000DB07FCD5039A618B9446A54B0AB2634467
:1031000012121A705246126899541F22236993436F
:103110001B3A13432361237B023A13432373637ED9
:10312000DB09FCD1C046C046C046237EDB07FCD588
:10313000039A618B9446974B0AB2634412121A7039
:103140005246126899541F22236993431A3A134333
:103150002361237B033A13432373637EDB09FCD192
:10316000C046C046C046237EDB07FCD5039A618B70
:103170009446894B0AB2634412121A7052460026D2
:103180000025126806AF9954386803F001FB002847
:1031900003D00123AB40F618B6B201350437062D33
:1031A000F2D13F23039A1E407C4B9E545B461B6822
:1031B0009C46E044454602F0D5FEA842FBD3524669
:1031C000039B12680133A84603939A4200DD7EE711
:1031D0002EE56B4B1B680393002B07DD0023694A28
:1031E0001360694A1360A033013BFDD102F0BAFEBF
:1031F0000023039353461B6880460490002B62DD36
:10320000624C1F22236993431E3A13430222236117
:10321000237B13432373637EDB09FCD1C046C04686
:10322000C046237EDB07FCD5039A618B9446584B3E
:103230000AB2634412121A705246126899541F223D
:10324000236993431B3A134302222361237B1343D5
:103250002373637EDB09FCD1C046C046C046237E93
:10326000DB07FCD5039A618B94464A4B0AB2634450
:1032700012121A70524600260025126806AF9954A1
:10328000386803F085FA002803D00123AB40F61814
:10329000B6B201350437062DF2D13F23039A1E4002
:1032A0003E4B9E545B461B689C46E044454602F0FC
:1032B00059FEA842FBD35246039B12680133A8462D
:1032C00003939A429DDC02F04DFE049B5BE6484668
:1032D000334900F053FCFFF7DBF9484600F0F6FEF7
:1032E000C0B26F2800D190E000232E4A00212E4862
:1032F000136000F003FBFFF7CBF9012200214846E1
:1033000000F084FE80231B01984213DB274B284AE0
:103310001360484600F0DAFEC0B2442816D00023FD
:10332000244A1360224A24491268039292008B5067
:10333000FFF7AEF9002800DB9EE000231C4A484658
:10334000136000F0C3FEC0B24428E8D1012200217E
:10335000484600F05BFE174A030010608022D2004E
:1033600090427BDB154B134A1360DBE70023144AC2
:1033700000210A20136003F08DF8FFF789F9C04699
:10338000945D0020844500208045002000400042DC
:103390008C4500208C4D00208C5500208041002061
:1033A000D4A90000700100209C5D0020FF070000F0
:1033B000600100207C41002074010020FF03000018
:1033C00074410020002853DA00232D4A4846136038
:1033D00000F07CFEC0B2442801D0FFF7B4F901220E
:1033E0000021484600F012FE264A030010608022A9
:1033F000D200904236DB244B224A1360FFF7A6F935
:103400000122224B1A60FFF743F90122204B0021D1
:103410001A6000231F4A20481360204A136000935B
:103420000022203300F05CF9059A00211A4800F0D0
:1034300035FA022201211A4B174800F08BF90121BD
:10344000154800F05BFAFFF723F9164B65381B6847
:103450001900039303F01EF8FFF71AF9002800DAA9
:103460005DE75FE7002801DAFFF76DF9FFF76EF916
:10347000034B1860FFF75FF9014B186049E7C0463E
:10348000600100207C410020FF030000945D0020CB
:1034900070010020844500209C5D002080450020B4
:1034A000FD2000001000002001707047F0B5574665
:1034B0004E464546DE46E0B5834B89B002AA057804
:1034C000040043CB43C205AE3200033DEDB283CBD3
:1034D00083C2690049194A00C80000217B4B571D6F
:1034E000C150501C82468000C150901C8146800013
:1034F000C150D01C80468000C150101D8446800001
:10350000C150B800C150013150460B0001978340B3
:103510004F460800B840474603430800B840674696
:1035200003430800B84003430800019FB840034329
:10353000080090400343664802689A430260654A67
:10354000106898431060A37A082B6BD063681A88C0
:10355000D2076AD4DA7BD20667D41B889B0764D46F
:103560002423E35C002B00D0A7E03023E35C002B96
:1035700000D09CE05849A80032580B6A13430B62F4
:10358000A27A082A00D18BE0802102AB1B5AC90124
:103590001943524B59805878C009FCD1E17A0A434B
:1035A000218911436268D37B5BB2002BFBDB118066
:1035B000617B6268D37B5BB2002BFBDBFF23137163
:1035C000002906D06268D37B5BB2002BFBDB0123B2
:1035D0005371217B6268D37B5BB2002BFBDB917163
:1035E0006268D37B5BB2002BFBDBA37A042B24D075
:1035F000082B3FD0002B19D1D37B5BB2002BFBDB18
:10360000E38A13826268D37B5BB2002BFBDB638AA5
:1036100013836268D37B5BB2002BFBDBA38A0120A0
:10362000538303E0EB1C194290D0002009B03CBC4E
:1036300090469946A246AB46F0BDD37B5BB2002BC9
:10364000FBDB637C13746268D37B5BB2002BFBDB18
:10365000237C13756268D37B5BB2002BFBDBA37BFF
:1036600013766268D37B5BB2002BFBDBE37B01202C
:103670005376DBE7D37B5BB2002BFBDB236A136162
:103680006268D37B5BB2002BFBDBA369936162684A
:10369000D37B5BB2002BFBDBE3690120D361C5E781
:1036A0000135AD000B6A75592B430B626CE7636BF8
:1036B000A06B59B203F088F85CE7A36AE06A59B2DC
:1036C00003F082F851E7C04604AB0000E05D002043
:1036D000DC5D0020D85D002000040040000C0040AC
:1036E000F0B54F464646D646C0B584B001AD2E0073
:1036F0000CAC99462378164C884618349A468ACCE6
:103700008AC60678052E1AD8002424230473C454CC
:103710000C33C4628462C45484634463448244614D
:10372000042A12D0434603814B46C3725346033EDC
:10373000B6004373AB5982724360FFF7B7FE04B023
:103740001CBC90469946A246F0BDFF340474E9E7DC
:1037500004AB0000F0B583B0002B32D00478033CFA
:10376000E4B200292FD0022A65D06100091949006E
:10377000032A3AD0012595408D40434F51183E68A9
:1037800089002E433E60414E37683D433560404DD1
:103790004B51404901AB1980142199701B57002BE4
:1037A0000ADB1F2119400123C0248B403A496400E1
:1037B0000B510B60032A2ED0012393404168DBB2EA
:1037C0004B7303B0F0BD022A5BD0032A27D001233C
:1037D00093404268D9B21173620014196400A34087
:1037E0002A490A689A430A60EBE720258D40264F54
:1037F00005313E6889002E433E60244E37683D43C4
:103800003560234D4B51234901AB19801421997028
:103810001B57002BC5DA202243685A73D1E743684F
:103820001D321A7363001C196400A24017490B680B
:1038300093430B60C5E710216200121952009140BA
:10384000114E0432356892000D4335600F4D2E68DD
:10385000314329600E4953500E4A01AB1A8014229D
:103860009A701B57002B08DB1F221A400123C0212E
:103870009340094A490053501360102243685A7319
:103880009FE743680E32CCE7DC5D0020D85D002066
:10389000E05D00201213000000E100E0030010B51D
:1038A000012918D8847A042C16D0002C17D0082CA3
:1038B00002D1881D8000C2505868C37B5BB2002BC8
:1038C000FBDB042C15D0082C0FD0002C03D10C31BD
:1038D00092B249000A5210BD40188273ECE708000A
:1038E0000830400018184280E6E7063189000A5087
:1038F000F1E7D2B240180276EDE7C0464268D37BCA
:103900005BB2002BFBDB13889B070FD500290CD182
:10391000D37B5BB2002BFBDB3B230221137342689A
:103920009373426813888B43138070470029FCD03F
:10393000D37B5BB2002BFBDB022113880B4313808C
:10394000F3E7C04670B5042804D0052832D0032818
:1039500019D070BD424B9A7B424B14001B689B09E7
:103960001C401A420BD001253F4E1836254201D08B
:1039700033689847AC4304366D00002CF6D13B22E7
:10398000374B9A73E5E7374A384B12689B7B140034
:103990001C401A420AD00125334E254201D033681B
:1039A0009847AC4304366D00002CF6D13B222F4BD8
:1039B0009A73CEE72E4B9A7B2A4B14001B681B0B85
:1039C0001C401A4248D0E30702D5274B1B6B98478F
:1039D000012322009A433FD0A30702D5224B5B6B01
:1039E0009847032322009A4336D0630702D51E4B23
:1039F0009B6B9847072322009A432DD0230702D5BB
:103A0000194BDB6B98470F2322009A4324D0E3061F
:103A100002D5154B1B6C98471F2322009A431BD0DD
:103A2000A30602D5104B5B6C98473F2322009A43B4
:103A300012D0630602D50C4B9B6C98477F239C43A6
:103A40000AD08025084E254201D0F36C9847AC433C
:103A500004366D00002CF6D13B22054B9A7378E7B3
:103A600000300042D85D0020E05D0020002C0042C4
:103A70000034004210B5024802F00EF910BDC046F5
:103A8000285E002010B501210C2002F00FFE01215C
:103A90000C2002F04FFE10BD10B50F4C82B020007C
:103AA0000E4900F03BF90E490E4800F037F90E4977
:103AB0000E4800F033F90E490E4800F02FF90123AB
:103AC0000193023300930722210003330A4802F0D6
:103AD00093F802B010BDC0462461002000080042E7
:103AE000000C004228610020001000422C610020E0
:103AF0000014004230610020285E0020F8B5050067
:103B00000F0016000024002A03D109E00134A64268
:103B100006D02B682800395D1B6898470028F5D12E
:103B20002000F8BDF0B5C64605000E0000B500291E
:103B30001AD00768080006F019FF7C680E4B804613
:103B40009C4213D10024002804D109E00134A0458F
:103B500006D02F682800315D3B6898470028F5D1D2
:103B6000200004BC9046F0BD0024F9E702003100BB
:103B70002800A0470400F3E7FD3A0000F0B54646F0
:103B80004F46D646C0B50668040073680F1E9846B7
:103B900035D0080006F0EAFE1E4B8246994698454D
:103BA00031D10025002804D10CE001352668AA4552
:103BB00006D02000795D336898470028F5D1266843
:103BC00073689846C84514D10D2120003368984782
:103BD000002808D023680A211B6820009847431E4C
:103BE00098414019451C28001CBC90469946A246A5
:103BF000F0BD022220000849C0472D18F3E7054B0D
:103C000000259946DEE7020039002000C0472668FB
:103C10000500D5E7FD3A000020AD0000F0B54746AD
:103C2000CE460D002023002180B58BB0160001AADE
:103C30000700D154012E35D909AC05E03033DBB291
:103C4000013C237096420ED82800310004F020F980
:103C50002A00CBB205000929F0D93733DBB2013C89
:103C600023709642F0D9200006F080FE3E68114B8A
:103C70007568804681469D4216D100280CD00025EB
:103C800003E00135A94507D03E683800615D33681F
:103C900098470028F5D1A84640460BB00CBC90468A
:103CA0009946F0BD0A26C7E7020021003800A84760
:103CB0008046F1E7FD3A000070B50400002A1AD1F1
:103CC0000368C9B21B6898472368124A5E680500FA
:103CD000964219D10D2120001B689847002808D072
:103CE00023680A211B6820009847431E9841401909
:103CF000451C280070BDD2B2FFF790FF2368054A2B
:103D00005E6805009642E5D0022220000249B047D5
:103D10002D18EEE7FD3A000020AD0000016070476D
:103D20009446F0B505009C1E621E9441624605A8AB
:103D3000067828689207076824063A43144304600B
:103D400007202C680840B60162683043022B04D07B
:103D50005B03024313436360F0BD0023F9E7C046F1
:103D600030B5C0250468AD03236812052A401A4304
:103D7000C02309049B0219400A432260026851686B
:103D80000B43536030BDC0460121026813680B43EA
:103D9000136002681368DB07FCD4D369DB07F9D42E
:103DA0007047C0460221026813680B431360026823
:103DB000D3699B07FCD470470268137EDB0702D4EB
:103DC000137E9B07FCD57047002203685A83704717
:103DD0000368187E4007C00F7047C0460368187E0E
:103DE000C0097047802302685B42117E0B43137643
:103DF0007047C0460368588B8007C00F7047C046A5
:103E000002210268538B0B43538370470368187E6B
:103E1000C007C00F7047C0460368188DC0B2704716
:103E20000268137EDB07FCD589B20120118570473B
:103E3000012203689A757047012203681A7570475A
:103E40000368204AF0B5934209D01F4A934221D01B
:103E50001E4A934226D01E4A93422BD0F0BD8024A6
:103E6000C02602231B4F1C4DA40036021B49C02054
:103E70008C4640009B000C50634400181A583A408E
:103E800032431A50164A0C60558053785BB2002BAF
:103E9000FBDBE3E78024C0260223124F124DE4002F
:103EA0003604E3E78024C0260223104F104D24017E
:103EB0003606DBE780240323C0260E4F0E4D640137
:103EC000D4E7C04600080042000C00420010004247
:103ED00000140042FF00FFFF1440000000E100E07A
:103EE000000C0040FFFF00FF15400000FFFFFF0037
:103EF0001640000000FFFFFF17400000F8B5CE4657
:103F00004746060080B5884617009946FFF798FF98
:103F10000121326813680B43136035682C68E3078E
:103F2000FCD4EC69E307F9D443461C229B001A40F9
:103F30007B071B0C1A4384232A603268937543461F
:103F4000012B1ED1013F7942794107334942194083
:103F50000E4B083118684B46C000594303F012FF5E
:103F60000722316802408B895203DB04DB0C1343C8
:103F70008B81326800049389C00C5B0B5B03184390
:103F800090810CBC90469946F8BDC046AC0000201C
:103F90000123F0B5C64604000D001600984600B592
:103FA000194F01F0D9FFE06008E002F0A9F801F034
:103FB000D3FFE368C01AA36898421AD2236820008E
:103FC0009B6998470028F0DB2D2814D00300303B74
:103FD000092B10D9002E01D02E280CD0012D08D08D
:103FE000022D0BD10938172803D8434683403B42A2
:103FF00004D10120404204BC9046F0BD236820005B
:104000005B699847CDE7C04613008000F8B51500FE
:1040100000220400FFF7BCFF002600282DDB00274C
:10402000A8420AD02D282AD00300303B092B04D8FF
:10403000B3009E1976003618303E236820005B6975
:10404000984701F089FFE06008E002F059F801F0BC
:1040500083FFE368C01AA36898420BD2236820004C
:104060009B6998470028F0DB0300303B092BD7D928
:104070008542D5D0002F00D076423000F8BD012710
:10408000DBE7C0463F20704710B50221006900F011
:1040900079FE10BD10B50321006900F0BDFD10BD13
:1040A00010B5094B0400DB79002B03D1012300205C
:1040B000636010BD130000690A00032100F0B6FF21
:1040C0000028F3D0F5E7C04634000020074A03007B
:1040D000106810B5411C03D001235B42136010BD72
:1040E0000221186900F092FEF9E7C0468000002026
:1040F00010B50A4C03002068421C09D11A6808490F
:1041000052698A4205D10221186900F07FFE2060C1
:1041100010BD180090472060FAE7C04680000020DC
:10412000CD40000010B582B004006B46D81D236856
:104130000D4A5B680170934211D10C4BDB79002B67
:1041400004D101230020636002B010BD02000123EE
:104150000321206900F06AFF0028F5D1F1E7010092
:10416000012220009847EFE7A14000003400002022
:1041700010B503784222023303700249024800F06E
:10418000E5FF10BD3C0000205061002010B5027812
:10419000030041780020A12A0CD0212A00D010BDB4
:1041A00020291FD022290ED02329F8D15A88134B59
:1041B0001A60F4E72129F2D1114912489A3A00F025
:1041C000C5FF0120EBE79B780D4CE3719623226835
:1041D000DB009A4202D1E379DB070AD502F05CFBEF
:1041E0000020DCE7064C1A3A2100064800F068FD82
:1041F000ECE7FA2002F04AFB0020D0E73000002074
:1042000034000020506100207047C046FA2200218F
:10421000054B92009A60054A08321A60044A5960B8
:104220001A6119767047C0463461002024AD000041
:10423000506100207047C04603000069F0B50028B7
:104240000CD1EFF3108472B624255D5D002D11D1E1
:10425000002C0DD162B6BFF36F8FF0BDEFF3108469
:10426000200072B634255D5D002D27D1002CF1D0E1
:104270000020F2E7002C74D0002A0AD181E0651CEE
:10428000DD619D69AC46644424780C54013082425F
:1042900071D0DC691D6AAC42F1D31A6AA242DCD14A
:1042A00000220121DA611961EFF3108C72B623311B
:1042B0005A5411315C5C002C23D146E0002C4CD0C8
:1042C0000020002A0AD150E0651CDD629D6AAC46E0
:1042D000644424780C540130824246D0DC6A1D6B61
:1042E000AC42F1D31A6BA242B7D10022DA621A6152
:1042F000EFF3108C72B634215A5401315C5C002CFF
:1043000023D001255A5459681A7A0C685201A6180C
:104310000936FF3677788A182F43DD6877709668FC
:10432000AF04194D3F092E403E4396601A7A520160
:1043300089188A68920B92038A6040211B7A08339D
:104340005B01E3181A790A431A716346002B00D007
:1043500083E762B6BFF36F8F7FE762B6BFF36F8FFD
:10436000AEE762B6BFF36F8F86E7DC6A1A6BA242D4
:1043700000D072E7B9E7DC691A6AA24200D06CE7A4
:104380008EE70020DC6988E7FF3F00F010B50400ED
:10439000806906F015FAA06A06F012FA200010BD36
:1043A00010B50400806906F00BFAA06A06F008FA5E
:1043B000200001F0D9FE200010BDC0460369002B8B
:1043C0000ED1EFF3108272B62433C35CDBB2002A45
:1043D00002D162B6BFF36F8F002B12D1002070475D
:1043E000EFF3108272B63423C35CDBB2002A02D131
:1043F00062B6BFF36F8F002BF0D0036BC06A181A40
:10440000EDE7036AC069181AE9E7C046027AF0B519
:104410001300416808330C685B01E318DD79FF265F
:10442000ED0721D50125DD71436952018F18002B5D
:104430001BD1BB689B049B0C0362036A002B35D025
:10444000836A45617B60EFF3108272B62423C55402
:104450001033C35CD9B2002B1CD03523C554002ABD
:1044600002D162B6BFF36F8FF0BDBB689B049B0C9B
:104470000363036B002B19D00023436183697B60C6
:10448000EFF3108272B63423C554103BC35CD9B22B
:10449000002BE2D13523C154002A02D162B6BFF30A
:1044A0006F8F416882680C68324052010126A31860
:1044B0000933FF335D788A1835435D70C5689368AA
:1044C0000A4EAD042D0933402B439360037A5B0100
:1044D000CB1840219A68920B92039A60037A0833B2
:1044E0005B01E3181A790A431A71BDE7FF3F00F038
:1044F000F8B54746CE4680B50C00160000AF012A3D
:1045000036D9D31D6A46DB08DB00D31A9D46080066
:1045100006F02CFA6D4603230130400028706B70C2
:10452000022E54D00021013B0AE0581CC0B20134D5
:10453000EA5486421ED00233DBB229549E4202D98D
:104540002278002AF1D129491A00097800290BD1D3
:10455000274B1C78002C28D1002A12D1BD46200000
:104560000CBC90469946F8BD5A1E9341DCB2F5E763
:104570000024F3E733001D491A0009780029E7D029
:10458000F2E79404A40C1B4E2900300006F022F937
:10459000194A1A49566193690B40936193699B0BC1
:1045A0009B03234393610124D8E7140093B29946F7
:1045B000631E9C41E4B2124B124898461E882900A3
:1045C000301806F007F943464E441E80C6E7074BF5
:1045D0001C78002CC2D1064B1C78002C02D1022280
:1045E0000234D0E7022302229946E4E7FC6400206B
:1045F000006600207C6100200C660020FF3F00F078
:1046000002660020006500204D4BF0B547469846F5
:104610000123CE469946002643464A4680B585B0DA
:1046200001AC20001A700F002670FFF7A1FD0500F5
:1046300002F0B2F9210002F071F942462D18093555
:104640002378A671ADB21670092F44D04A46237163
:104650004B463C4F65803A703B4D3C4A6371A0230A
:1046600022802A00E3716E3B237203CC03C21370D5
:10467000374B994609234A4613806B46DC1C2000C1
:10468000DE70FFF775FD02F087F9210002F046F9B0
:1046900043461B783E70002B03D14B461C88002CF0
:1046A00005D1012005B00CBC90469946F0BD294EBD
:1046B00022002900300006F08DF8274A274956616C
:1046C0009369A4040B4093619369A40C9B0B9B0317
:1046D0001C439461E5E71B4A1278002A1AD1237122
:1046E0004B461A4A637122801A4AA0231100E371D3
:1046F00065806E3B237221CC21C10B70164B17498C
:104700005A619A690A409A619969890B89030F4332
:104710009F61C6E723714B460D4F0C4A3E880A48FD
:1047200063719F33E3716E3B2280301809222100B0
:1047300065802372093606F04DF83E80B1E7C04629
:10474000FC640020006600200065002009020000D3
:10475000026600207C6100200C660020FF3F00F014
:10476000F0B5CF7806000C0093B0022F1DD002F0F8
:1047700013F9210002F0E8F8002810D1012F1CD015
:104780000025032F0ED1A378002B41D1E488032C00
:1047900000D98CE104220423C749E4B214E0C51710
:1047A0002D1AED0F280013B0F0BDC988C348FFF7DC
:1047B0002BFF451EA841C5B2F4E7E488112C23D88D
:1047C00012221223BE49E4B2002C00D1A3E1220040
:1047D000BC4B1D78002DE5D1BB4B1D78002D00D0C2
:1047E00089E1BA4DA404280005F0F4FFB84AB9499C
:1047F00055619369A40C0B409361936901259B0B50
:104800009B031C439461CDE712221224AC49DFE7DD
:10481000022B00D178E1012B00D165E10500032BCB
:10482000C0D10F22AC4B1B681A4015001F09373549
:10483000092A01DC303215000F2001A93840CD7162
:1048400005001F0A3735092801DC303005000F222A
:104850003A408D7115001F0B3735092A01DC3032C3
:1048600015000F2038404D7105001F0C3735092801
:1048700001DC303005000F223A400D7115001F0D8C
:104880003735092A01DC303215000F203840CD7051
:1048900005001F0E3735092801DC303005000F22D6
:1048A0003A4010008D701B0F3730092A01DC30327E
:1048B00010001A0048703032092B01DD37331A001E
:1048C0000A700F22854B1B681A4015001F093735E7
:1048D000092A01DC303215000F203840CD73050065
:1048E0001F0A3735092801DC303005000F223A4015
:1048F0008D7315001F0B3735092A01DC3032150086
:104900000F2038404D7305001F0C3735092801DC96
:10491000303005000F223A400D7315001F0D37355A
:10492000092A01DC303215000F203840CD72050015
:104930001F0E3735092801DC303005000F223A40C0
:1049400010008D721B0F3730092A01DC3032100045
:104950001A0048723032092B01DD37331A000A720F
:104960000F225F4B1B681A4015001F093735092AB3
:1049700001DC303215000F203840CD7505001F0ACC
:104980003735092801DC303005000F223A408D759B
:1049900015001F0B3735092A01DC303215000F20B6
:1049A00038404D7505001F0C3735092801DC3030C3
:1049B00005000F223A400D7515001F0D3735092AE5
:1049C00001DC303215000F203840CD7405001F0E79
:1049D0003735092801DC303005000F223A4010003D
:1049E0008D741B0F3730092A01DC303210001A0099
:1049F00048743032092B01DD37331A000A740F2254
:104A0000384B1B681A4015001F093735092A01DC8D
:104A1000303215000F203840CD7705001F0A37359A
:104A2000092801DC303005000F223A408D7715004F
:104A30001F0B3735092A01DC303215000F203840B2
:104A40004D7705001F0C3735092801DC3030050093
:104A50000F223A400D7715001F0D3735092A01DC6A
:104A6000303215000F203840CD7605001F0E373547
:104A7000092801DC303005000F223A4010008D7605
:104A80001B0F3730092A01DC303210001A0048763B
:104A90003032092B01DD37331A000A762023002239
:104AA000CA543000A279FFF723FD05007AE60422FC
:104AB000042401498CE6C046A4AD000050610020EA
:104AC000B4AD0000FC640020006600207C61002082
:104AD0000C660020FF3F00F00CA0800040A080008A
:104AE00044A0800048A080003000A2790B49FFF765
:104AF000FFFC050056E60A4F0A483E883018341974
:104B000005F068FE3C804DE63000A2790649FFF7CB
:104B1000EFFC050046E61C005AE6C046A8AD0000C2
:104B2000026600200065002098AD0000202170B5CD
:104B30000126254A0400D36906200B43D361234B89
:104B400038315A5C32435A543C229D5C49398D437A
:104B50009D549D5C05439D545925585D30435855DF
:104B6000985C014060209954995C01439954184A1B
:104B7000184B53805378DB09FCD1174801F0E6F954
:104B8000164D280001F01CFF280001F02FFF7F22A6
:104B90002B68C120197880000A4004211A701A7805
:104BA0000A430C211A701A898A430D491A810A583E
:104BB0001202120A0A5080220A6002211A780A435D
:104BC0001A700123237070BD0004004000440041AE
:104BD000000C004006400000695800000C660020F0
:104BE00000E100E00078002810D00121084B1B688C
:104BF0001A898A4308211A811A8B0A4304211A83CD
:104C00001A8B0A431A830022024B1A607047C0466F
:104C10000C66002004660020264B8A00D05810B590
:104C20000C0000282AD00368234A9B6893423ED197
:104C30000369002B11D1EFF3108272B62433C35CE9
:104C4000DBB2002A02D162B6BFF36F8F002B03D014
:104C5000036AC069181A1BD110BDEFF3108272B637
:104C60003423C35CDBB2002A02D162B6BFF36F8F7C
:104C7000002BF1D0036BC06A181A07E0FF230F4A1C
:104C80000B405B01D31898688004800C0028E3D0A7
:104C9000FF210A4B0C401B68083464011C19802357
:104CA00062795B42134363710223E371D4E798474F
:104CB000ECE7C04654610020BD4300000C660020B4
:104CC000F0B54024A446822564462B4E6D0033681F
:104CD000585D2043294C58557460B76828483840BF
:104CE0008027BF020743B7606746B068800B800328
:104CF000B060585D384358550235585D4006FCD5C4
:104D00000825FF35585DC007FCD5B068C0B2904299
:104D100000D91000002A27D00725531E9D429B4131
:104D2000043D0D406E4275415B421D421DD0CB1CBF
:104D30001B1B062B19D900239508AD00E658CE5051
:104D40000433AB42FAD103251300AB4315420BD019
:104D5000E55CCD545D1CAA4206D9665D02334E5512
:104D60009A4201D9E25CCA54F0BD0023E55CCD54FF
:104D700001339A42FAD1F7E70C6600203C63002029
:104D8000FF3F00F01E4B8A00D05810B5002827D0F6
:104D900003681C4A9B6893422FD10369002B0ED1F4
:104DA000EFF3108272B62433C35CDBB2002A02D167
:104DB00062B6BFF36F8F002B1BD1002010BDEFF345
:104DC000108272B63423C35CDBB2002A02D162B611
:104DD000BFF36F8F002BF0D0036BC06A181AEDE79A
:104DE000FF231940084B4901591888688004800C3A
:104DF000E4E7036AC069181AE0E79847DEE7C046AF
:104E000054610020BD4300000C660020F0B5CE4682
:104E1000474680B57F4B83B01B68002B1AD07E4B72
:104E20008A00D358002B1CD01A6854687B4A9442DD
:104E300000D080E01C69002C56D1EFF3108172B6CF
:104E400024229A5C002A00D07CE0002902D162B6BC
:104E5000BFF36F8F0120404203B00CBC90469946CF
:104E6000F0BDFF266E4A0E4075015019836801247B
:104E70009B0402D18468A404A40C501983689B0489
:104E80009B0C3F2B4ED883689B0B9B03836053196D
:104E90001768012291464A467D190935FF35984623
:104EA0009B682B78890113432B705E4B2200C91835
:104EB0006B46D81D05F08EFC002CCBD043469B687A
:104EC0009B040CD1402208367601BF193B7913436D
:104ED0003B7101234A46FB716B7813436B70012CC5
:104EE000B8D16B46D879B7E7EFF3108172B63422A8
:104EF0009A5C002AA9D0002902D162B6BFF36F8F55
:104F0000DA6A196B8A4235D2986A511C8446D96292
:104F1000624410786A46C0B2D0711A6B91429BD13C
:104F200001242CE08768403B9B04BF0B9B0CBF0314
:104F30003B438360ABE76946012218000731A04775
:104F40000400CCE7002902D162B6BFF36F8FDA69A3
:104F5000196A8A424BD29869511C8446D9616244CD
:104F600010786A46C0B2D0711A6A914200D073E7D5
:104F7000012440E0196B00248A4200D06AE7002235
:104F8000DA621A61EFF3108C72B634215A5401318F
:104F9000585C002823D001255A5459681A7A0868A9
:104FA000520186180936FF3677788A182F43DD6854
:104FB00077709668AF041C4D3F092E403E439660C3
:104FC0001A7A52018A189168890B890391604022EC
:104FD0001B7A08335B01C0180379134303716346DE
:104FE000002B00D07BE762B6BFF36F8F77E7196ABB
:104FF0008A4200D02EE700220121DA611961EFF325
:10500000108C72B623315A541131585C0028C2D129
:10501000E5E7C046046600205461002039420000E4
:105020000C6600203C630020FF3F00F0F0B54E46C8
:105030004546DE465746E0B51E003D4B0D001B6859
:10504000914685B0002B6BD08023DB019E4267D850
:10505000002E69D0374B8A01D3180193364B0022BA
:105060009A46FF230B401C005B01029353461B68CA
:1050700093469C46B046083464016444E31D2F4FB8
:105080000393A379DB092CD1002346467B55402EA0
:1050900000D9402649463200019805F09BFB029B4F
:1050A000B1041A00019B524453619369890C9B0B14
:1050B0009B030B4393610223039AB34413706279F9
:1050C000823B1343637143469B1B9846B144002BBC
:1050D000D7D1584605B03CBC90469946A246AB464F
:1050E000F0BD174B1749186802F04CFE164B1721FC
:1050F000584302F047FE01E0013805D3E3799B07EE
:10510000C2D47B5D002BF7D001237B55029B534417
:105110009A69920B92039A6101235B429B46D8E7FE
:1051200001235B429B46D4E700239B46D1E7C04660
:10513000046600207C6100200C6600207461002061
:10514000AC00002040420F0070110100144B70B5FC
:105150001B781400002B05D1124B1B78002B15D1A6
:10516000002A01D1200070BD0F4D280005F032FB50
:105170000E4A0F49556193690B4093619369A104ED
:105180009B0B890C9B030B439361EBE7094E0A4889
:10519000358828182D1905F01DFB3580E2E7C0463B
:1051A000FC640020006600207C6100200C6600206A
:1051B000FF3F00F00266002000650020F0B5DE46EB
:1051C00057464E464546E0B54B780C0085B00B2B54
:1051D0001FD8D04A9B00D3589F460B7803AA002BB8
:1051E00000D1D4E000231380CB4B1B78013B594204
:1051F0004B4113701288C94B1A80C94A5361936995
:10520000C8490B400221936193699B0B9B030B439D
:105210009361012005B03CBC90469946A246AB463E
:10522000F0BD8A78C04B1A60BD4A012093699B0B80
:105230009B039361EEE78B78012B00D14DE10022B7
:10524000B54B1A70F0E78B78012B00D14AE10020B2
:10525000002BDFD10122B04B01301A70B04A9369A4
:105260009B0B9B039361D5E7AD4B8C789A691968CA
:10527000920B92039A61082202230620FF328B547C
:10528000FF300D5C823B2B430B548B5C9B07D80F8C
:10529000002BFADA7F25A54A2C40937AAB432343AF
:1052A00093728023917A5B420B439372B2E7FFF7CC
:1052B00057FAAFE70020ADE79D4B1A78974B994915
:1052C0001A70974A0120536193690B400121936141
:1052D00093699B0B9B030B4393619BE70B78002027
:1052E000DB0697D1934B99465B68002B00D10EE10A
:1052F0008B4A0125884614008F4F2CE0022B4CD09E
:10530000032B00D1C1E0822B1DD16B01E3189A69F8
:105310008A491140C02292050A4380499A618C460D
:10532000AA0162445A612B008022216808335B0184
:10533000C818067952423243027170205A5C824387
:10534000302002435A544A460135AB00D358043743
:10535000002B00D1A5E0832BD0D16B01E3189A6913
:10536000764970201140C02292050A436B499A6128
:10537000AA01521829005A610831226849018B5C40
:105380008343402003438B54DDE7674B95E7634934
:105390001380634A0B80516131E77E68002E0ED086
:1053A0003368674A5B69934200D0ADE0B06905F0AD
:1053B00007FAB06A05F004FA300000F0D5FE382094
:1053C00000F0CEFE5F4B2422036080235B00C360AD
:1053D0009A4600234460036203614361C3618560B0
:1053E00083541032C3620363835401328354060032
:1053F000504605F0DBF98346B061504605F0D6F91A
:105400006B01B062E21893684C481840C0239B05BA
:105410000343280093602368083040010100C05C0A
:1054200000938446072082466046534698430323F0
:105430009A46534618430300009801910B545B466B
:10544000844653606B01634419000931FF314B7886
:105450009C4601239A46604653461843314B487098
:105460001800916808408021C90301439160916848
:10547000890B89039160019A402194460098604409
:1054800002790A4302717E605DE77868002800D1E6
:1054900059E703682C4ADB68934200D153E79847E9
:1054A00051E7230044469846A278214B2A211A60EE
:1054B000434602201B68FF315A5C02435A544A217A
:1054C0000120FF315A5C02435A54434642469B69CD
:1054D00001209B0B9B0393619CE6002303AA13808E
:1054E0001A4B82E60021194A0E4813700B4A1170BC
:1054F0000B494A618A6902408A618A690120920BDC
:10550000920313438B6185E63000984757E7044BBD
:105510009846C9E748AD0000706100207C6100201A
:105520000C660020FF3F00F008660020005000419C
:10553000046600208400002054610020FFFFFF8FDC
:10554000A143000080AD0000354200007B610020D7
:10555000F0B55746DE464E464546E0B5B94F83B0F6
:105560003B689A8B120700D52EE19A8B520701D522
:1055700004229A830822FF32995CC90624D510219F
:1055800040249954F4315A5C22435A546022AE4C60
:1055900023781A4200D0E6E02100FFF70FFE002832
:1055A00000D008E106232021A84AFF33D1543B68EC
:1055B0000822FF32995C490606D5402140209954C3
:1055C000C8315A5C02435A541D8CFE231D40A04B27
:1055D000002498469F4B01269946002D50D02B0061
:1055E00023411E4249D023003A6808335B01D31897
:1055F000D979C90702D4DB799B073BD54146A30083
:105600005858002843D003681B684B4500D014E16C
:105610004368027A00931B689C46FF239A46130056
:1056200008335B016344D979C90723D5DE71436927
:105630005201002B3FD1009B9B189B469B689B040B
:105640009B0C0362036A002B5DD05B46826A466155
:105650005A60EFF3108272B62423C6541033C35C31
:10566000D9B2002B40D03523C654002A02D162B6ED
:10567000BFF36F8F3300A3409D430134092CACD19D
:1056800003B03CBC90469946A246AB46F0BDE3B29F
:10569000032C77D0012BEDD192214900505C813B46
:1056A0000343535428232339FF33FF39D1543300A4
:1056B000A3409D43E1E7009B9B189B469B689B048E
:1056C0009B0C0363036B002B1DD0002343615B46DF
:1056D00082695A60EFF3108272B63423C654103BCD
:1056E000C35CD9B2002BBED13523C154002A02D1EC
:1056F00062B6BFF36F8F5246436800931B689C46A7
:1057000083681A40520163469B180933FF33597866
:1057100001938A4601218B4651465B4619430B0093
:1057200001994B70009BC1689A468904090952444B
:105730008A46936848490B4051460B439360037A6D
:10574000009A5B01D1188B689B0B9B038B604021F7
:10575000037A08335B0163441A790A431A713300F0
:10576000A3409D4389E72379002B1BD001F014F956
:10577000210001F0FDF800281DD1BB699B0B9B03A4
:10578000BB610FE7B22180234900505C5B420343B9
:10579000535468236339FF33FF39D1543300A34096
:1057A0009D436AE72000FEF7F1FC002803D1BB69A6
:1057B0009B0B9B03BB61062180223B68FF31585C39
:1057C000524202435A54F3E6C02480210726BA68A5
:1057D000224DA4052A402243BA601B4A49007A6040
:1057E0005A5CB243012632435A54BA692A401443E0
:1057F000BC6170241A4A40257A615A5CA243102485
:1058000022435A54BA6814491140802252030A4371
:10581000BA60BA68920B9203BA600622FF32995CB2
:10582000294399540A21FF315A5C22435A540021DA
:105830000C4A116008229A8397E698473300A340E8
:105840009D431AE70C6600203C6300200050004195
:10585000546100200D440000FF3F00F0FFFFFF8F68
:105860007C61002004660020044B10B51B78002BDF
:1058700002D10348FFF76CFE10BDC0460066002051
:1058800050610020014B024A1A6070470C660020EC
:105890000050004101207047BA23BC225B00520037
:1058A000C3588058181A01D55F30FF307047C04682
:1058B000BC23BA225B005200C1588258914203D0E7
:1058C000C358C018007D704701204042FBE7C04626
:1058D000F0B5C646B9230F00082100B59B000400AF
:1058E000C05C434E43001B18DB00F318595682B0CE
:1058F000150000F069FF08213E4BE05C43001B18D7
:10590000DB00F318595600F05FFF3B4BE35C022BC2
:105910005AD0BA239B00E05C9846FF281CD0012196
:1059200000F0C4FE4346E35C34495A00D218D2006A
:10593000B356B618DB015818BB21890060503049B6
:1059400001228C46BC2163448900635071688A40FF
:10595000BD21890062501A603B00012120690122AB
:10596000FEF7CCFAF02180230901206929409B0031
:1059700099423BD00133FF33994235D00139FF3989
:105980004B4259410523494219400F232B40012B1B
:1059900028D0023B5A1E93410133F0221540303D7E
:1059A0006A42554101220095FEF7BAF9154B20696C
:1059B000E25C114BE15CFEF7D3F92069FEF7F2F9E6
:1059C00002B004BC9046F0BDBE239B00E05CFF2803
:1059D0009FD0082143001B18DB00F318595600F034
:1059E000F3FE96E70023D8E70721CEE70621CCE7B0
:1059F00028AB0000E5020000E70200001844004167
:105A000014440041E602000010B504000069FEF7EE
:105A1000BBF9BA2200235200A3500432A3506532CE
:105A2000FF32A2181360B8229200944664442360A7
:105A300010BDC046B7239B0010B5C4180433C1186D
:105A400023680A689B1A01D55F33FF33002BF7D117
:105A50000069FEF7B1F910BDB822B7239200944651
:105A60009B00C318604419680268914205DB1B68FB
:105A70000068C01A5E30FF30704700681B68C01AAB
:105A80000138F9E770B5BA23BC255B006D004259B7
:105A9000C35804009A422BD0AF2143594900C31880
:105AA00040591E7D013002F0F3F930006151BA23F4
:105AB0009B00E35CFF2B14D0BA22BC2152004900AA
:105AC000A55863589D420DDA6358A2589B1A013BB2
:105AD0000A2B06DDBC23BD229B009200E358A2588E
:105AE0001A6070BDA25863589B1A5E33FF33EFE70C
:105AF00001204042DBE7C046F0B50368364A1B6A26
:105B000004000E0083B0934263D1B92308219B00A7
:105B1000C05C324D43001B18DB00EB18595600F0F7
:105B200053FE08212E4BE05C43001B18DB00EB18F2
:105B3000595600F049FE2B4BE35C022B3BD0BA27B1
:105B4000BF00E05DFF2819D1330001220121206947
:105B5000FEF7D4F9002301220021206900930233CB
:105B6000FEF7DEF8204B2069E25C1E4BE15CFEF79D
:105B7000F7F82069FEF716F903B0F0BD012100F037
:105B800095FDE35D19495A00D218D200AB56AD1805
:105B9000DB015818BB2189006050154901228C4651
:105BA000BC2163448900635069688A40BD21890033
:105BB00062501A60C8E7BE239B00E05CFF28BED09D
:105BC000082143001B18DB00EB18595600F0FCFDC0
:105BD000B5E7084A9847CFE7D158000028AB000046
:105BE000E5020000E7020000E60200001844004160
:105BF0001444004113040000F8B5DE4657464E46F3
:105C00004546E0B51E000AAB1B78002799460BAB52
:105C10001B7804009846FA239B0083601D4B8A463C
:105C200008330360AF235B004760150000211A00B2
:105C300014309B4604F0D7FDBA2320005B00E750E8
:105C40007D3004335A46E7500021FF3004F0CBFD8D
:105C5000B7239B00E3181F60B8239B00E3181F6065
:105C6000534623614B4619044346360235431B060F
:105C70000D431D43B923FF229B00E5500433E2543A
:105C800010332000E2543CBC90469946A246AB46F5
:105C9000F8BDC046C8AD000070B504000069FEF74D
:105CA000A9F8002800D06AE02069FEF791F80028E2
:105CB00035D12069FEF7AAF800281ED0B723B821F5
:105CC0009B008900E2186518136829685B1A1AD4CA
:105CD0005CD029681368994262D0BE22AF212B683C
:105CE0002868E3185200013049009E5C02F0D0F8A9
:105CF000296031002069FEF793F82069FEF76EF8FD
:105D0000002805D170BD5F33FF33002BE1D13DE0AA
:105D10002069FEF767F82069FEF756F8F2E7BA2621
:105D20002069FEF779F8AF2176000500A0594900F7
:105D3000013002F0ADF8BC235B00E358994203D078
:105D4000A359E3181D75A151BA239B00E35CFF2BF7
:105D5000AFD0BA22BC2152004900A05863589842E3
:105D600018DA6358A2589B1A013B092BA1DCBB230C
:105D7000BD229B009200E358A2581A6099E720695F
:105D8000FEF74AF82069FEF73BF88DE72069FEF739
:105D900053F8B2E7A25863589B1A5E33FF33E4E727
:105DA000FF26A6E7F0B5D64646464F460500C0B5E5
:105DB00000698A46FEF72AF8B7239B00EE180028F0
:105DC00059D10433EF18AF213068490001303C68E5
:105DD00002F05EF8A14235D1012398462F4B994637
:105DE00008E0AF213068490001303C6802F050F80B
:105DF000A14227D1EFF3108342461A420FD14B46FE
:105E00005B68DB05DA0D002BEBD01300103B5AB2B8
:105E10001B060DD49208224BC0329200D358286939
:105E2000FDF7F4FF0028DCD02800FFF735FFD8E7A6
:105E30000F231A401B4B083A9C469208920062447A
:105E40001368ECE7AF2130684900013002F020F818
:105E50003B68994206D0BE22504633685200EB1888
:105E6000985431602869FDF7E3FF01201CBC90467F
:105E70009946A246F0BDB8229200AF1833683A683E
:105E80009B1A05D49FD151462869FDF7C9FFECE75D
:105E90005F33FF33002B96D1F5E7C04600ED00E0FD
:105EA00000E100E01CED00E0FEE7C046034B10B54A
:105EB0001B68002B00D0984710BDC046106700201B
:105EC000F8B5194D194FBD4211D0194EAE4225D02B
:105ED000BD4226D27B1E5B1B9B0801339C00220027
:105EE00031002800A61904F075FC2C1901E02C00E3
:105EF0000F4EBD420DD0A6420BD00E480E4A904226
:105F000007D2013A121A920801320021920004F0DD
:105F10006AFC00F02DF900F0F7F8FEE72C002E00E7
:105F2000E7E72C00E5E7C046000000204001002024
:105F30006CB00000400100204867002010B500F060
:105F4000E1F8002801D100F0D1F810BD014B186034
:105F50007047C04610670020014B18687047C04664
:105F600014670020F0B5184B184E194FC646B56897
:105F70009C4679681C6801234901984600B5C90F01
:105F800002E01400190005004246B0687B689B0ED1
:105F90001340624612689942F3D19442F1D185428E
:105FA000EFD3736809195B1B9D00ED182B01ED18E9
:105FB0004B015B1A28029B0028185918C900000DD4
:105FC000401804BC9046F0BD1467002010E000E0CB
:105FD00000ED00E0F0B5DE4657464E464546E0B5DA
:105FE00083B00190002806D103B03CBC904699468E
:105FF000A246AB46F0BD3A4B3A4A98469668596875
:106000000123394C4901944699462568C90F02E09D
:106010001500190006006346986843464A465B68C7
:106020009B0E134022688B42F2D1AA42F0D1B042BB
:1060300001D92A00ECE763465B6849199B1B9E0067
:10604000F6183301F6183302F6184B015B1A9B0061
:106050005918234B360D9846C900224D761800F08A
:106060004FF801214346A8685B6822689B0E914661
:106070000B4002E0D94613005046AA6892464246B9
:1060800052682768920EBB460A409A42F2D14F45A9
:10609000F0D1824501D9CB46ECE76A689944101AE1
:1060A00082001218100184464B464F46624410028B
:1060B00084465B01DB1B9B004B44DB0062449B1B63
:1060C000120D9A18FA239B009A42C8D3FA239B0018
:1060D0009C46019A6644013A0192002AC2D183E7A4
:1060E00000ED00E010E000E01467002010B5034A66
:1060F00013680133136000F0D7FB10BD1467002054
:106100007047C0460020704710B500F00BF904F04E
:1061100029FBFDF7B7FC0120FFF75CFF0E4C2000C8
:10612000FEF704FD2000FEF75DFDFCF74BFA0B4C7B
:10613000002C07D0FCF73CFAFFF7E2FF00E000BFBD
:10614000002CF7D1FCF734FAFFF7DAFFFCF730FA4E
:10615000FFF7D6FFF6E7C0465061002000000000C0
:1061600010B504F023FB10BD10B504F029FB10BDE1
:106170001E21594A53688B431C390B435360574ABD
:10618000063193690B439361FE22554BD2031B6882
:1061900004399B021340534A1343534A9361D36813
:1061A0001942FCD00123514A0121137003E05378B6
:1061B0005BB2002B02DA13781942F8D101234B4A63
:1061C000936053785BB2002BFBDB494B5360474A2B
:1061D00053785BB2002BFBDB8223DB015380434A05
:1061E00053785BB2002BFBDB022310213E4A9384E1
:1061F000D3681942FCD03F4B3B49D3621022CB6895
:106200001A42FCD0364B1A68920E3F2A00D1203A2F
:10621000354B3948996A920201400A439A629A6A58
:106220003649920A92020A439A62354AF039DA6292
:106230000022FF399A84DA681142FCD01021314AD9
:106240009A84294AD3681942FCD00221938C0B43CB
:10625000938410222449CB681A42FCD00023234A9D
:10626000936053785BB2002BFBDB274B53601F4AD4
:1062700053785BB2002BFBDB1B4B2448196A0140AF
:1062800080201962196A8143196203239360204BAD
:106290005360164A53785BB2002BFBDB00220F4B96
:1062A0001A725A729A72DA721A4B1B4A1A60FF22D9
:1062B0000B4B1968194B18688B0649010A4080215D
:1062C000C00E5B0F02431B021343154A1385024A9B
:1062D00053680B4353607047004000410004004086
:1062E000246080000606000000080040000C00400A
:1062F00001040100B905FF7DFF03FFFFFF0100005E
:1063000080BB0A1C2405000000070300FFFCFFFF00
:1063100003060100AC000020006CDC02206080005D
:1063200000400042FA212E4B10B51868890001F098
:1063300029FD802301385B04984200D3FEE72949F8
:10634000294A4860C020136A00061B021B0A034347
:10635000136200238B6007330B608021136A0906E8
:106360001B021B0A0B43FC211362204B1A6A0A43CF
:106370001A62FF22196A12020A431A62A022196ADB
:10638000D2020A431A621A4A53785BB2002BFBDB33
:10639000184B5380184B5A7ED209012AFBD0C822D1
:1063A00092009A800522DA70134B5A7ED209012A94
:1063B000FBD0C02252011A61002200209A7000F026
:1063C00027F80B4A53785BB2002BFBDB0B4B538057
:1063D0000B4AD379DB09012BFBD04123537010BD4D
:1063E000AC00002010E000E000ED00E00004004000
:1063F000000C00401E400000004000422140000010
:1064000000480042014B18607047C046B0000020B1
:106410001E4A537EDB09012BFBD00A281CD00ED864
:1064200001282AD0072822D1136919490B400F21CE
:10643000136153788B4301210B43537070470B2832
:1064400015D1136912490B400F21136153788B4307
:1064500003210B435370F1E713690D490B400F21E2
:10646000136153788B4302210B435370E6E7F0230B
:10647000064A1B0511690B43F1E7136904490B40F8
:106480000F21136153788B435370D7E700400042CC
:10649000FFFFFFF04300F0B57B4A1B18DB009B18A1
:1064A000DA6804000D0085B0910701D5002826D0D8
:1064B0000826164211D075490968102904D000D960
:1064C0007DE01020411A8D4012269E5FD30632D403
:1064D000930600D57BE005B0F0BD0121200000F05F
:1064E000E5F86A4B1B68082B02D065D8F61AB54050
:1064F0007F2D1BD80021200000F01CF9EBE7644A37
:10650000D379DB09012BFBD0AD05AD0D1581604AB8
:10651000D379DB09012BFBD0022113780B431370D5
:106520005B4AD379DB09012BFBD0D4E701212000A2
:1065300000F000F9CFE70421200000F045F9554BA9
:106540003112585CF2B200284BD1EC46644601305F
:106550005854514BC1CBC1C460461B6823604B00EB
:10656000185A8023DB0103434C4843804378DB09FE
:10657000012BFBD0022941D90220494B8900CB587D
:10658000198881431980D97BC909FCD14020198819
:1065900001431980D97BC909FCD10C32ADB252003C
:1065A000D552DA7BD209FCD102211A880A431A801B
:1065B000DA7BD209FCD18EE7083BDD4098E7103941
:1065C000CD4012269E5FD30600D481E7B3E70521B4
:1065D000200000F0F9F82F4B3112585CF2B200287D
:1065E000B3D0022934D92E4B8900C8580C32ADB231
:1065F00052001552C37BDB09FCD16CE70220284B0B
:106600008900CB581968814326481960996801426E
:10661000FCD10220D96B01432248D9639968014219
:10662000FCD1103292009A181E4955609A680A42AD
:10663000FCD11D4A1B491A649A680A42FCD1022106
:106640001A680A4317491A609A680A42FCD142E75D
:106650000220134B8900CB585979014311485971D5
:1066600099680142FCD11C3292000E49D5509A68BB
:106670000A42FCD102211A790A430A491A719A681E
:106680000A42FCD127E7C04628AB0000B00000203A
:106690000048004218670020FCAD0000000C0040DC
:1066A00018000020FF0F7F00FFFF000043001818B4
:1066B000082310B51D4CC0002218D356013311D049
:1066C0000357012052689040022923D00BD800299B
:1066D00016D01749DB018C46422163449A18403298
:1066E0001170986010BD0329FCD11149DB018C4663
:1066F000062163449A184032117058605861F1E7DE
:106700000B49DB018C46022163449A184032117018
:106710005860E7E70649DB018C46062163449A1876
:106720004032117058609861DCE7C04628AB000029
:1067300000440041082243001818F0B5124DC00073
:106740002B189A5601321CD0012426005F6843574B
:10675000BE400E4ADB019A18906806420BD10D002C
:10676000681E85412C400425D21940321078A400BF
:10677000A84304431470054A94466344002901D099
:106780009E61F0BD5E61FCE728AB00000044004163
:106790004300181808230A49C0000A18D3560133C9
:1067A0000BD043560749DB018C466344186A536893
:1067B000D84003000120184070470020FCE7C04685
:1067C00028AB0000004400410823420070B51218B5
:1067D0002C4CD200A518EB565E1C50D0072907DCC4
:1067E000002917DA01314C424C416442200070BD4F
:1067F0000B00083BDBB2032B0AD8092935D00A2944
:1068000038D000240B29F1D10A39FFF74FFFEDE70B
:106810000024EBE76868C30715D413571A4C0F25FB
:10682000A446DB01634442089A18303214781B18DE
:10683000AC430C43E4B21470412140331A78002475
:106840000A431A70D2E712570F4CD201A4460C012A
:106850000F2162444308D31830331D7812182940A1
:106860000C43E4B21C701300E6E70021FFF71EFFA3
:106870000024BBE70839FFF719FF0024B6E71C0026
:10688000B4E7C04628AB000000440041014B18604B
:106890007047C046B40000200122024B52421A60E9
:1068A0007047C046B4000020164A1368591C03D034
:1068B000013B1360002B00D0704772B68122124B4F
:1068C00092000433934213D30121104A107D0142F8
:1068D000FCD02021108BFF319B085B00014311830A
:1068E000D3610B4B13800123084A117D0B42FCD06E
:1068F000BFF34F8F074B084ADA60BFF34F8FC04694
:10690000FDE7C046B4000020002000000040004128
:1069100002A5FFFF00ED00E00400FA0570B5446831
:106920000E000025002C04D10CE0E4682D18002C8A
:1069300008D02368310020005B6898470028F4DA0B
:1069400001256D42280070BD70B544680D00002C13
:1069500003D10AE0E468002C07D023682900200056
:106960009B6898470028F5D070BD0020FCE7C04622
:1069700070B544680D00002C03D10AE0E468002CD7
:1069800007D02368290020001B6898470028F5D00D
:1069900070BD0020FCE7C046064901230A6810B517
:1069A000140005481C401A4203D1044A4460028086
:1069B0000B6010BD20670020246700200204000047
:1069C00070B50500012210CD002123782800134363
:1069D00080222370520003F006FFA378DB07FCD46B
:1069E000A3789B07F9D4656270BDC0461F22F0B53D
:1069F00017000726144B1B685D0B990CDB0D0F402D
:106A00001E402A401F2A00D105251F242C401F2F7D
:106A100000D11D211F250D40072E00D10323026840
:106A20000A49108DA4010840204310851F20118DB4
:106A30008143294311851838118D1840044B0003F8
:106A40000B4003431385F0BD246080003FF8FFFF37
:106A5000FF8FFFFFD0B5264A4B0086B05B089342FC
:106A600022DD244A934209DD02000B0003F0DCF929
:106A700002000B001000190006B0D0BD02AA00F001
:106A80003BF803231840049A059B012815D00228DF
:106A900023D0002818D00298039900F02DFA802303
:106AA0001B060200CB18E5E7002300220093002319
:106AB00000F09CFF02000B00DCE70298039900F055
:106AC0001BFA02000B00D5E70124029803990094F9
:106AD00000F08CFF02000B00CCE701240298039920
:106AE000009400F083FF80231B060200CB18C1E74F
:106AF000FB21E93FFFFFEF7FF0B54E465746DE46EC
:106B00004546E0B5DB4B4E00170089468FB076084E
:106B10009E4200DC84E0D84B9E4228DCD74A002904
:106B200000DC89E1D64B03F07FF9D54B04000D0062
:106B30009E4200D18AE0D34AD34B03F075F902009C
:106B40000B0020003A607B60290003F06DF9CE4B0A
:106B5000CC4A03F069F901239846B860F9604046D1
:106B60000FB03CBC90469946A246AB46F0BDC74B21
:106B70009E4200DC86E0C64B9E425CDCC549321575
:106B80008846904443461B05F51A2900040003F08B
:106B9000DDFC03F011FD02000B002000290008922B
:106BA000099303F041F90022BB4B02F0D1FE0D0026
:106BB000040003F0CBFC060003F0FEFC02000B0017
:106BC000200029000A920B9303F02EF90022B24B09
:106BD00002F0BEFE002200230C900D9101F058FA45
:106BE000002800D1FCE033005E1EB3410133AB4A04
:106BF00039000192022208A80092424600F094FA5D
:106C00004B468046002BAADA8022120694467B6807
:106C100063447B60FB686344FB60434298469EE7A5
:106C200002000B003A607B6000230022BA60FB6028
:106C30000023984693E70B00020003F0F5F80023C9
:106C4000B860F96098463860796088E7D3228E4B47
:106C5000520503F0E9F8924A924B04000D0003F04C
:106C6000E3F802000B0020003A607B60290003F08B
:106C7000DBF88C4B8A4A03F0D7F80123B860F9603F
:106C800098466CE700F06AFF874A884B04000D00C5
:106C900002F05EFE0022864B01F0EAFE03F056FC95
:106CA000804603F089FC754A754B0490059102F00B
:106CB0004FFE02000B002000290003F0B5F8724BD4
:106CC00002900391049805996E4A02F041FE4346F2
:106CD00004000D001F2B36DC764A013B9B009B58BD
:106CE000B34230D00298039922002B0003F09CF8A5
:106CF00082468B4652465B463A607B600298039917
:106D000052465B4603F090F822002B0003F08CF80B
:106D1000030008001A0019000300BA60FB604B462C
:106D2000002B00DB1BE7802380241B069C46434688
:106D3000554624065C4460445B4298463D607C6056
:106D4000B960F8600BE72B0002980399220003F06A
:106D50006BF84B0036155B0D82468B46F31A102BF1
:106D6000C8DD04980599D322474B520502F0F0FD87
:106D700004000D0002000B000298039903F054F880
:106D800002000B00029803990692079303F04CF857
:106D900022002B0003F048F804000D000498059928
:106DA0003F4A404B02F0D4FD22002B0003F03CF898
:106DB0000B00020004000D000698079903F034F858
:106DC0004B005B0D82468B46F61A312E0ADC020020
:106DD0000B003A607B60069A079B029203938DE753
:106DE000032304E7B822049805992E4B920502F07C
:106DF000AFFD04000D0002000B000698079903F098
:106E000013F802000B00069807990292039303F00F
:106E10000BF822002B0003F007F804000D00049883
:106E20000599254A254B02F093FD22002B0002F024
:106E3000FBFF04000D0055E7114B01F019FE104B4C
:106E400004000D009E423BD00E4A0F4B01F010FE95
:106E500002000B0020003A607B60290002F0E4FF92
:106E6000084A094B01F004FE01235B429846B860D2
:106E7000F96074E6FB21E93F7BD9024000004054F1
:106E8000FB21F93F3163621A61B4D03DFB213941E6
:106E9000FFFFEF7FEAFBFFFF000070418CAE0000B8
:106EA0007370032E8A19A33B83C8C96D305FE43F1A
:106EB0000000E03F0CAE0000C14920259A837B39D9
:106EC000D3220A4B520501F0D3FD094A094B0400B5
:106ED0000D0001F0CDFD02000B0020003A607B6048
:106EE000290002F0A1FF024A024BBBE761B4D03D8A
:106EF0007370032E8A19A33BF0B54746CE4680B582
:106F000087B000920193F9234F00814688467F089D
:106F10009B059F4263DA03F019FB002800D1DAE0F9
:106F20004A4643464846414602F012FD04000D0021
:106F30006A4A6B4B02F00CFD6A4A6B4B01F098FDFC
:106F400022002B0002F004FD684A694B02F06CFF3E
:106F500022002B0002F0FCFC664A674B01F088FD22
:106F600022002B0002F0F4FC644A654B02F05CFF47
:106F700022002B0002F0ECFC624A634B01F078FD2A
:106F800022002B0002F0E4FC02900391002220007A
:106F900029005E4B02F0DCFC029A039B06000F0006
:106FA0002000290002F0D4FC009A019B04000D008F
:106FB0004846414602F0CCFC02000B0020002900AC
:106FC00002F032FF02000B003000390002F02CFF0B
:106FD00002000B0000204E4902F026FF70E0020084
:106FE0000B0002F0B5FC04000D003C4A3C4B02F0E3
:106FF000AFFC3C4A3C4B01F03BFD22002B0002F071
:10700000A7FC3A4A3A4B02F00FFF22002B0002F095
:107010009FFC384A384B01F02BFD22002B0002F078
:1070200097FC364A364B02F0FFFE22002B0002F09E
:107030008FFC344A344B01F01BFD2B00220002F080
:1070400087FC344B029003919F429FDD324B00221C
:107050009F423ADC314900207B182D4916001F0061
:1070600002F0E2FE04900591002220002900274B47
:1070700002F06EFC32003B0002F0D6FE029A039B47
:1070800006000F002000290002F062FC009A019B1C
:1070900004000D004846414602F05AFC02000B0075
:1070A0002000290002F0C0FE02000B003000390071
:1070B00002F0BAFE02000B000498059902F0B4FE3B
:1070C00007B00CBC90469946F0BD154B00260492C3
:1070D0000593144FC8E700200D49F1E7D43888BE66
:1070E000E9FAA8BDC4B1B4BD9EEE213EAD529C806C
:1070F0004F7E923E9015CB19A001FA3E7751C116F2
:107100006CC1563F4C5555555555A53F0000E03FC5
:107110000000F03F3233D33F0000E93F0000E0FFC2
:107120000000E73F0000D23FF0B5DE4657464E462E
:107130004546E0B5DD4CA5440D9119001400A49A14
:107140000A93DB4B9200D2580B00013B04932300BF
:1071500006900892143300DAA1E31821E01E00F033
:107160009BFE030001339A009B1A0590DB00E31895
:10717000059A0793049BD41A089AD61814D401369A
:10718000A59F22AD361907E0A300F85803F014FAC2
:10719000013403C5B44207D0002CF5DA00200021E9
:1071A000013403C5B442F7D1089B002B01DA00F08B
:1071B000FDFB0A9922AA8C469346089A72AB624458
:1071C0000392069A994690460093049B9A46DB00E8
:1071D0009B4408339844049B00240025002B13DBB8
:1071E0005F4600240025069E3A687B6803CE02F0C5
:1071F000AFFB02000B002000290001F039FC083F22
:1072000004000D004645EFD14B4630C39946082394
:107210009C46073BE3449C46039BE2449A45DAD1F3
:107220000EA80422844652426244944608998B0078
:107230009C4462468446083B63440B93059B0C9236
:10724000A59A980094460300634405930A9B8846D8
:10725000DA00069B083B9B469344DA464346009976
:10726000DA0094460B0063441E685F684346099247
:10727000002B32DD89468F4B4344DB0099440EAB33
:107280009B4600228C4B3000390002F061FB03F07A
:107290005DF903F091F90022884B04000D0002F023
:1072A00057FB02000B003000390002F0BDFD03F077
:1072B0004DF95B4601C39B464B4620001A685B684C
:1072C000290001F0D5FB0822524294464B46009A11
:1072D00006000F00E1449A42D3D1079B30001A0008
:1072E00039009B4600F0D2FCFF2300229B050400DE
:1072F0000D0002F02DFB00F035FC0022704B02F077
:1073000027FB02000B002000290002F08DFD040085
:107310000D0003F01BF9814603F04EF902000B004B
:107320002000290002F080FD5C4606000F00002CC2
:1073300000DC86E04346591E89000EAB5B581820DE
:107340001A00001B0241914482409D1A0EAB5D5011
:1073500017231B1B1D41002D00DD7FE000220023B1
:107360003000390000F094FE002800D1EAE04346E6
:10737000591E089B8B420FDC0EAA94460022514BEB
:107380000C9843449B0063441C68043B22438342A3
:10739000FAD1002A00D024E1089B0EAA013B9B00F1
:1073A000D15801220B9B002900D015E11968043B3C
:1073B00001320029FAD0012343449B461300434481
:1073C00003930A9B22AA43449046009ADB0094460A
:1073D0009844099B634499465B46059A9B00D058A4
:1073E00003F0EAF8434618605960049B002B25DB44
:1073F000474600240025069E02E008363868796872
:107400003268736802F0A4FA02000B002000290021
:1074100001F02EFB083F04000D005645EDD14B4610
:107420009C60DD6001239C460733E3449C46039B3C
:10743000E044E1449B45CFDD98460FE7002400255A
:10744000EDE7079B002B00D0BDE04346013B9B00CE
:107450000EAAD558ED15002D00DC7FE701239C46D0
:107460004346E144002B00DC2FE20E9C002C00D0B0
:107470009FE04346012B2FD0012241460FAB1C68F1
:10748000002C00D198E08846531C802149040C1B35
:1074900092000EA98C5098451DDD9B008C46CA5861
:1074A0004146890008486344614410E094FDFFFFB1
:1074B000D8AF0000FFFFFF1F0000703E00007041CA
:1074C00000002040FFFFFF3FFFFFFF001A68821A05
:1074D00004C38B42FAD10124079B002B0EDD012B44
:1074E00000D1D1E1022B09D143465A1E92000EABC6
:1074F0009B580EA903939B029B0A8B50022D00D030
:107500002CE732003B000020934902F08DFC06007E
:107510000F00002C00D121E7079A00208E4900F0CF
:10752000B5FB02000B003000390002F07DFC0600C4
:107530000F00002200233000390000F0A9FD0028D0
:1075400000D014E74B460693079B30005A4239009F
:10755000049500F09BFB0022804B04000D0000F01E
:10756000BBFD002800D1EFE17D4B00222000290067
:1075700002F0EEF902F0EAFF42460600970003F03F
:107580001BF80022754B02F0E3F902000B0020000B
:10759000290002F049FC02F0D9FF0EAAD051424660
:1075A000079B013218330392079393000EAAD6501B
:1075B00032E00123002268E7013204338A4200D01E
:1075C0005DE7884688E70022664B00F085FD0028CD
:1075D00000D069E10025C1E6012343449B460393A3
:1075E000EFE64B460A000693079B0391183B1900F0
:1075F00007930EA89300C3580495002B0CD1844622
:10760000594B43449B0063441868043B013A1839C2
:107610000028F9D0039207910020079A4E4900F004
:1076200035FB039B04000D00002B00DAC1E10EAA1C
:107630009446009A9E00DB00110066449C4661441B
:107640000F008B4690460593306802F0B5FF22008C
:107650002B0002F07DF9424B386079600022200057
:10766000290002F075F9043E3B0004000D00083FBC
:107670009845E9D1002399464AAB0093089B9A4666
:10768000534600240025002B21DB8020374B5F462A
:1076900098460024002500263549C00508E0082347
:1076A0009C460837E044B14511DB434618685968E9
:1076B0003A687B6802F04CF902000B0020002900B8
:1076C00001F0D6F9013604000D00B245E7DA009A60
:1076D0004B4694460822DB006344524294461C60A9
:1076E0005D604B46039A0133E344914501D09946CE
:1076F000C6E7009B9A46A49B022B3BDC002B00DDD7
:10770000E5E01DD1059B002553441E00002457468B
:10771000326873682800210001F0AAF933000500DF
:107720000C00083E9F42F3D1049B002B03D0802322
:107730001B069C4664442A0023000D990A604B6096
:107740000720069B18409B239B009D443CBC904611
:107750009946A246AB46F0BD0000F03F00007041E4
:107760000000703E0000E03FFEFFFF3F98AF0000CA
:10777000FB21F93FA49B032BE2D1039B002B00D1FB
:107780002DE1984A059B944653441C685D68039B11
:1077900063449B46DB0053449846434620001E68E2
:1077A0005F68290032003B000094019501F060F908
:1077B00002000B0004000D003000390002F034FB21
:1077C000009A019B01F054F943469860D9601C600F
:1077D0005D6008235B42C1469C46E044CA45DCD15B
:1077E000039B012B00DCFAE0059BD14653441E6845
:1077F0005F685B46DB009846C1444B4630001C681E
:107800005D68390022002B000096019701F030F9E5
:1078100002000B0006000F002000290002F004FB0C
:10782000009A019B01F024F94B469860D9601E60D4
:107830005F6008235B424C469946A144CA45DCD1AF
:107840004546002700260835554438002A686B68ED
:10785000310001F00DF9083D07000E00AC42F4D1F3
:10786000049B002B7BD14A9B4B9C0D993A000B60EB
:107870004C605346DC689B68009301948B60CC603D
:1078800033000A614B615BE743465A1E92000EAB20
:107890009B580EA903935B025B0A8B502EE61823BC
:1078A00000225B42059262E401239C464346022586
:1078B000E144002B00DDD8E532003B0000204A49BE
:1078C00002F0B2FA06000F0048E5002404E6059B2A
:1078D000002553441E000024574632687368280070
:1078E000210001F0C5F8330005000C00083E9F425E
:1078F000F3D1049B002B47D123002A000D990A6085
:107900004B604A984B9902F08FFA039B07000E00D8
:10791000002B13DD01244CAD38000CCD310001F0FB
:10792000A7F8039B013407000E00A342F4DA049B7E
:10793000002B03D080231B069C4666443A0033008C
:107940000D998A60CB60FBE64346200029009E002B
:1079500002F0FCFD0EAB9851434603935CE6802198
:107960000D9A4A9B0906136053468C465B68664431
:107970006344536053469B68176193605346DB68CA
:1079800056616344D360DBE680234A984B990D9A95
:107990001B06E3185360156023002A0002F044FA26
:1079A000039B07000E00002BB4DCC3E772AB00930F
:1079B00036E4A49B022B06DC002B0DDC00D0BFE6D6
:1079C00000250024B0E6A49B032B00D0B8E64AAB08
:1079D000002700269A4643E70025002489E7002770
:1079E0003E003DE7FFFFFF1F0000F03FF0B5CE4631
:1079F000474680B587B000920193F9224B0081463B
:107A000088465B089205934206DA4846414602F0F2
:107A10009DFD002800D184E04A4643464846414641
:107A200001F096FF04000D0002000B00484641469D
:107A300001F08EFF3C4A3D4B06000F00200029005C
:107A400001F086FF3A4A3B4B02F0EEF922002B0090
:107A500001F07EFF384A394B01F00AF822002B0072
:107A600001F076FF364A374B02F0DEF922002B0098
:107A700001F06EFF344B354A00F0FAFF0E9B029086
:107A80000391002B38D0009801990022304B01F06F
:107A90005FFF029A039B049005913000390001F0CA
:107AA00057FF02000B000498059902F0BDF922006F
:107AB0002B0001F04DFF009A019B02F0B5F9254A19
:107AC00004000D00244B3000390001F041FF02009A
:107AD0000B002000290000F0CBFF02000B004846FD
