:1020000000800020B95E0000A15E0000A15E00001B
:1020100000000000000000000000000000000000C0
:10202000000000000000000000000000A15E0000B1
:102030000000000000000000A15E0000355F00000D
:10204000A15E0000A15E0000A15E0000A15E000094
:10205000A15E0000A15E0000A15E0000A55E000080
:10206000A15E00006D3A0000A15E0000A15E0000CC
:10207000A15E0000A15E0000A15E0000A15E000064
:10208000A15E0000A15E0000A1210000A15E000091
:1020900000000000A15E0000A15E0000A15E000043
:1020A000A15E0000A15E0000A15E0000A15E000034
:1020B0000000000010B5064C2378002B07D1054B1B
:1020C000002B02D0044800E000BF0123237010BDA4
:1020D0005001002000000000DC710000044B10B52E
:1020E000002B03D00349044800E000BF10BDC046E8
:1020F0000000000054010020DC7100001E4B002293
:102100009B5E002B23D01D4A0021535E1C49098889
:102110008B422ADA591C09B21A485B00185A1A4B2A
:1021200018811A4B118000229B5E002B0ED0184A9A
:102130000021535E174909888B4219DA591C09B2EC
:1021400015485B00185A154BD867118070470E4A26
:1021500013810A4A13800E4A13800C4A0021525EF2
:10216000002AF3D00D4AD367F0E701210023D3E71B
:1021700001210023E4E7C0467801002082210020ED
:10218000100000207C010020004800427C2100203B
:10219000802100200E0000207C1100200020004241
:1021A00010B5032001F0CAFB10BDC04600233B4A16
:1021B00010B51370537EDB09FCD1FF21384B186832
:1021C000384B1C6883064001E40E5B0F014021433D
:1021D0001B020B43138593883349194080239B00CE
:1021E0000B4393802D4A537EDB09FCD13021938829
:1021F0008B4310210B439380284A537EDB09FCD18B
:102200000F2193783F208B439370937861318B43F8
:1022100010210B439370254B1988D37801408343D9
:102220000B430121D37093888B4393801B4A537EC9
:10223000DB09FCD11F201E492833C95C136901400A
:1022400083430B431361154A537EDB09FCD11369A9
:1022500018491940C0235B010B4313610F4A537E99
:10226000DB09FCD10F2153788B4302210B435370C0
:102270007F2351780B405370F02311691B050B43EA
:102280001361064A537EDB09FCD1022113780B430C
:102290001370024A537EDB09FCD110BD004000429E
:1022A0002460800020608000FFF8FFFF0400002011
:1022B000F86E0000FFE0FFFF8223184A5B00936086
:1022C000174B53605378DB09FCD151210120154B8A
:1022D0005380154B5A5C024350205A5419395A5CAA
:1022E00002435A540223114AD36393685B06FCD419
:1022F0000F4B13640D4A93681B06D90F002BFADBB2
:1023000011650A4A93681B05FCD4022113680B432C
:102310001360064A93689B07FCD47047000C00408A
:10232000040703001A44000000440041002000425A
:10233000FF7601007047C04610B50321014801F047
:10234000AFF810BD94610020F0B5DE4657464E460A
:1023500045460024E0B5DB4991B0DB4801F050FF71
:1023600001210D2004F09EF901210D2004F0DEF979
:10237000D64B00211C80D64BD6489B460B235A4691
:102380001360D54A0E33136001F0B4FA2023002203
:102390000021D048009401F09FF996220021CD48F9
:1023A000D20001F077FACD4B02220121C94801F099
:1023B000CDF90A2004F022F80021002004F066F88C
:1023C000FFF7F4FEFFF778FF0021012004F06AF91F
:1023D0000021022004F066F90021032004F062F9D4
:1023E0000021042004F05EF90021052004F05AF9D0
:1023F0000021062004F056F90021072004F052F9CC
:102400000021082004F04EF90021092004F04AF9C7
:102410009623DB000F9306230E93013B0C93013BA5
:102420000B93AF4F033B0A93A74801F029FE002806
:10243000FAD0A54801F046FEFF2318403038462860
:10244000F2D8A84B80001B589F46012200219E48CD
:1024500001F0D8FDA44BC0B21870002801D000F0E4
:102460006FFF0F227B7893437B70DDE70122002111
:10247000954801F0C7FD9D4B18600028D4D05B46FD
:102480001860D1E7012200218F4801F0BBFD984B75
:102490009849186002230A004B7193685B07FCD4CB
:1024A000944AC86693685B03FCD4934B1B68029301
:1024B000D367904A93685B02FCD4022313718D4A60
:1024C00093685B07FCD4AFE7012200217E4801F04E
:1024D00099FD894B8749186002230A004B71936864
:1024E0005B07FCD4824B834A1B680293CB669368DC
:1024F0005B03FCD4D0677F4A93685B02FCD4022361
:1025000013717C4A93685B07FCD48DE76E4801F039
:10251000D9FDC0B26F2801D100F066FF75480223D3
:10252000010043718B685B07DA0F002BFADBC2678F
:10253000704A93685B02FCD4022313716D4A93685E
:102540005B07FCD470E7012200215F4801F05AFDCF
:10255000802300B21B01984201DA00F0D1FE674BE4
:10256000674A1380584801F0ADFDC0B2442801D13C
:1025700000F0D4FE0023634A1380614A0021525EBA
:10258000614952008B524FE7012200214E4801F071
:1025900039FD0F225D4B5E4918703B6902401206FF
:1025A0000B4013433B617B7EDB09FCD13CE70122FE
:1025B0000021454801F026FD3F22564B1880FB784C
:1025C000104093431843F8702EE7012200213E4843
:1025D00001F018FD504A83B21380504A0021525E28
:1025E000934202DD93B24C4A13804D495A000A804F
:1025F0004C499A184C480A80990001804B48591858
:1026000001804B4952000A80DA004A49D31A0B80F4
:10261000494B1A8008E7012200212B4801F0F2FC07
:10262000464B1860002800D1FEE62B4B00211860B5
:102630003023584383B21A0026480F9301F02AF939
:10264000F2E6214801F03EFDC0B26F2801D100F052
:10265000A1FE00233A4A274913800A0002334B7136
:1026600093685B07FCD48023224A9B00CB66936867
:102670005B03D90F002BFADBD1671E4A93685B021C
:10268000FCD4022313711B4A93685B07FCD4CBE68E
:10269000012200210C4801F0B5FC2A4B1880C3E64A
:1026A00001220021084801F0ADFC274B18801B4B8C
:1026B00080B200229B5E984200DCB5E6224A13807D
:1026C000B2E6C04680841E002C6500207801002000
:1026D000886100209461002070010020FD2000002E
:1026E00000400042B86D0000240000208C610020F2
:1026F000180000200020004214000020FF07000006
:102700006C0100207E2100207C1100200C000020A4
:10271000FFFFFFF004000020020000200000002066
:10272000200000201C0000200800002022000020C3
:102730001E000020060000200A0000207401002076
:102740007C21002090610020100000200122002147
:10275000A34801F057FCA34B1880A34B80B2002282
:102760009B5E984200DC5FE69E4A13805CE6012295
:1027700000219B4801F046FC802300B21B019842D7
:1027800001DA00F09DFD994B994A1380944801F0BD
:1027900099FCC0B2442801D100F0A0FD0023954A65
:1027A0001380934A0021525E934952008B523BE6BC
:1027B00092498B4801F0DEF936E6894801F082FC47
:1027C000C0B26F2801D100F0C5FD00238C4A002162
:1027D0008C48138001F08EF826E68B4B00229B5E1E
:1027E000002B0EDD894A58000021525E8849C0182E
:1027F0000A80884900010A80032104F00BF901389E
:10280000FDD103F0ABFB844B0D901B88002B00D156
:10281000A5E0002292461F230400D0461F329146B5
:102820000A9A1A4007920B9A1A4008920C9A1A4078
:1028300009924A463B699343079A134302223B613C
:102840003B7B13433B737B7EDB09FCD1C046C04618
:10285000C0463B7EDB07FCD57B8B9AB206924A468C
:102860001BB29A463B699343089A134302223B6189
:102870003B7B13433B737B7EDB09FCD1C046C046E8
:10288000C0463B7EDB07FCD54A46798B8BB205936D
:102890003B6909B29343099A134302223B613B7B94
:1028A00013433B737B7EDB09FCD1C046C046C04668
:1028B0003B7EDB07FCD57B8B584A9C46584B091264
:1028C0001E68156812686D0902921A681B680392E7
:1028D00052460493534B1212434418001A704E4A46
:1028E000069B12888354504A049B128881544F4A95
:1028F0001188059A42544E4A12889246624611B295
:102900005246091281544B4A82461188624642540B
:102910000221494A0D401288029994464A0904212D
:102920000A40AA1810251D40039B5519580A524603
:10293000634608402D18B003C00F2D18D5545B46D0
:102940001B689C46644403F009FBA042FBD30123AF
:102950009C46314BE0441B88434500DD69E703F0AA
:10296000FDFA0D9B0021C41A0D2003F0DFFE334950
:102970001B4801F0D3F80A222100194801F098F908
:102980002F4B1A882749164801F086FB2D49144819
:1029900001F0F0F801210D2003F0C8FE44E501220A
:1029A00000210F4801F02EFB03B20E933CE50122FB
:1029B00000210B4801F026FB03B20C9334E5012201
:1029C0000021074801F01EFB03B20B932CE5012206
:1029D0000021034801F016FB03B20A9324E5C04628
:1029E0002C6500200E00002000000020FF070000E2
:1029F0006C0100207E2100207C0100209C6D0000E5
:102A00007801002094610020906100208421002042
:102A1000822100208021002002000020A0440041EB
:102A20002044004188210020200000201C000020BC
:102A300008000020220000201E000020AC6D0000D5
:102A400006000020B46D0000924B00229B5E002B1C
:102A50000EDD914A58000021525E9049C0180A804C
:102A60008F4900010A80032103F0D4FF0138FDD112
:102A700003F074FA8B4B05901B88002B00D177E094
:102A80001F221F2391460A9A04001A400292022232
:102A9000002590460B9A1A4003920C9A1A40049211
:102AA0004A463B699343029A134342463B613B7B50
:102AB00013433B737B7EDB09FCD1C046C046C04656
:102AC0003B7EDB07FCD54A46798B8BB29A463B6945
:102AD00009B29343039A134342463B613B7B134342
:102AE0003B737B7EDB09FCD1C046C046C0463B7EC3
:102AF000DB07FCD548467A8B93B29C463B6912B201
:102B000083430498034340463B613B7B03433B7351
:102B10007B7EDB09FCD1C046C046C0463B7EDB075E
:102B2000FCD55646604B09125B19788B19705D49CC
:102B3000121209885E545D4909885A5461465C4AFC
:102B4000128899545B4A118802B212125A545A4A96
:102B5000128898545B461B689C46644403F0FEF957
:102B6000A042FBD34F4B01351B88AB4200DD97E7FA
:102B700003F0F4F9059B0021C41A0D2003F0D6FDE3
:102B80004E494F4800F0CAFF0A2221004C4801F08C
:102B90008FF84C4BF5E63F4B00229B5E002B0EDD81
:102BA0003D4A58000021525E3C49C0180A803C4909
:102BB00000010A80032103F02DFF0138FDD103F04D
:102BC000CDF9384B06001B88002B50D01F230B9AE1
:102BD00004001A4092461F2290460A9A00251A4085
:102BE000914642463B6993434A46134302223B6166
:102BF0003B7B13433B737B7EDB09FCD1C046C04665
:102C0000C0463B7EDB07FCD540467A8B3B6991B2E0
:102C100083435046034302203B613B7B12B2034394
:102C20003B737B7EDB09FCD1C046C046C0463B7E81
:102C3000DB07FCD51C4B12125B19788B1A70194AF2
:102C400012889954194A118802B212125A54184A19
:102C5000128898545B461B689C46644403F07EF9D6
:102C6000A042FBD30F4B01351B88AB42B9DC03F00C
:102C700075F90021841B0D2003F058FD0F49104801
:102C800000F04CFF0A2221000D4801F011F8094B19
:102C900077E6C04690610020842100208221002038
:102CA0008021002002000020882100202000002038
:102CB0001C0000200800002022000020AC6D000055
:102CC0002C6500201E000020A34B00229B5E002BE1
:102CD0000EDDA24A58000021525EA149C0180A80A8
:102CE000A04900010A80032103F094FE0138FDD1C0
:102CF00003F034F99C4B82461B88002B30D01F23F5
:102D0000984642460A9B04001340002599464246D5
:102D10003B6993434A46134302223B613B7B134387
:102D20003B737B7EDB09FCD1C046C046C0463B7E80
:102D3000DB07FCD5798B8D4B0AB25B1912121A7026
:102D4000894A128899545B461B689C46644403F088
:102D500005F9A042FBD3844B01351B88AB42D6DC7E
:102D600003F0FCF853460021C41A0D2003F0DEFCEA
:102D70007F49804800F0D2FE0A2221007D4800F001
:102D800097FF7D4BFDE5744B00229B5E002B0CDD15
:102D90000022734958000A807249C0180A80000155
:102DA000032103F037FE0138FDD103F0D7F86E4B55
:102DB00004001B8800250390002B33D06F4B9846EE
:102DC0006F4B9946434640461A6846464B4619683B
:102DD0001B68006836684909B44602260E40042183
:102DE000B24610265B090B405344B2460293664636
:102DF00053461E40B446029B400A6344014092037E
:102E0000D20F5B189B18594A53555B461B689C466A
:102E1000644403F0A3F8A042FBD3534B01351B8855
:102E2000AB42CFDC03F09AF8039B0021C41A0D20BB
:102E300003F07CFC4E494F4800F070FE0A2221004E
:102E40004C4800F035FF484B9BE5434B00229B5E0E
:102E5000002B0EDD414A58000021525E4049C01847
:102E60000A80404900010A80032103F0D3FD0138A4
:102E7000FDD103F073F83C4B04901B88002B58D015
:102E80001F22040000250A9B134003931F223B6965
:102E90009343039A134302223B613B7B13433B73EF
:102EA0007B7EDB09FCD1C046C046C0463B7EDB07CB
:102EB000FCD57B8B314A99464E46314B11681868D8
:102EC0001B68844602934B461068126836B29246DD
:102ED000264A361252191670234E400A3688890344
:102EE0009355254BC90F1B88984663465B099C4642
:102EF000022366461E40B4460426029BB1465B0987
:102F000033409C445646102333404E466344304081
:102F10001B1859184346D1545B461B689C466444B1
:102F200003F01CF8A042FBD30F4B01351B88AB42CA
:102F3000ACDC03F013F8049B0021C41A0D2003F04D
:102F4000F5FB0B490B4800F0E9FD0A222100094876
:102F500000F0AEFE0B4B14E59061002084210020B0
:102F600082210020802100200200002088210020F2
:102F7000AC6D00002C6500202000002020440041A2
:102F8000A04400411C000020BC4B00229B5E002B93
:102F90000EDDBB4A58000021525EBA49C0180A80B3
:102FA000B94900010A80032103F034FD0138FDD145
:102FB00002F0D4FFB54B09901B88002B00D19DE097
:102FC0001F230E9A04001A4005921F2291460A9A66
:102FD00000251A400692022290460B9A1A40079248
:102FE0000C9A1A4008924A463B699343069A134347
:102FF00042463B613B7B13433B737B7EDB09FCD149
:10300000C046C046C0463B7EDB07FCD57B8B9AB2F0
:1030100003924A461BB29A463B699343079A13436D
:1030200042463B613B7B13433B737B7EDB09FCD118
:10303000C046C046C0463B7EDB07FCD54A46798B7E
:103040008BB202933B6909B29343089A13434246F9
:103050003B613B7B13433B737B7EDB09FCD1C0466A
:10306000C046C0463B7EDB07FCD548467A8B93B210
:103070009C463B6912B283430598034340463B613B
:103080003B7B03433B737B7EDB09FCD1C046C046E0
:10309000C0463B7EDB07FCD556467D4B36125B199E
:1030A000788B1E70794E04903688039809129855D3
:1030B00078481212008819547749029809885854A0
:1030C0007649049809885A546146754A1288995479
:1030D000744A118802B212125A54734A12889854D0
:1030E0005B461B689C46644402F038FFA042FBD359
:1030F000664B01351B88AB4200DD74E702F02EFF02
:10310000099B0021C41A0D2003F010FB6749684891
:1031100000F004FD0A222100654800F0C9FD654B5E
:10312000FFF72FFC554B00229B5E002B0EDD544A0F
:1031300058000021525E5349C0180A8052490001CC
:103140000A80032103F066FC0138FDD102F006FF7E
:103150004E4B05901B88002B00D17AE01F230B9A61
:1031600004001A40039200229246D1460A9A1A405D
:1031700004921F223B699343049A134302223B614A
:103180003B7B13433B737B7EDB09FCD1C046C046CF
:10319000C0463B7EDB07FCD51F22798B8BB29A465B
:1031A0003B6909B29343039A134302223B613B7B81
:1031B00013433B737B7EDB09FCD1C046C046C0464F
:1031C0003B7EDB07FCD550467B8B091298463A4B79
:1031D0001A680292394A15681268AC461D681E6862
:1031E0002B4B52094B44197028496D0A09885854D1
:1031F000284909888A464146504609B2091219549D
:10320000404625490988585424490220098888469F
:10321000614649090140023002408A1810213140BC
:103220005118029A0540900342464919C00F0918E7
:1032300099545B461B689C46644402F08FFEA04292
:10324000FBD301239C46114BE1441B884B4500DD19
:103250008FE702F083FE059B0021C41A0D2003F0C6
:1032600065FA1249124800F059FC0A222100104860
:1032700000F01EFD0A4BFFF784FBC0469061002062
:1032800084210020822100208021002002000020D3
:1032900088210020200000201C00002008000020C1
:1032A000220000201E00002006000020AC6D00005F
:1032B0002C6500200A00002020440041A044004169
:1032C000002800DBCDE00023684A6948138000F045
:1032D000F9FEC0B2442801D0FFF760FA01220021B4
:1032E000634800F08FFE634902B20A808021C90062
:1032F0008A4200DAA3E0604B5E4A1380FFF751FA7E
:10330000002800DBA9E00023584A5948138000F048
:10331000D9FEC0B2442801D0FFF72CF901220021C8
:10332000534800F06FFE534902B20A808021C90061
:103330008A4200DA8AE0504B4E4A1380FFF71DF9AB
:10334000012847D10F227B789343012213437B70DE
:10335000FFF76AF80123494A002113800023484AF5
:1033600048481380484A138000930022203300F01D
:10337000B3F90F9A0021434800F08CFA0222012190
:10338000424B404800F0E2F901213E4800F0B2FA19
:10339000FFF74AF801233E4A3E4913800A000133F1
:1033A0004B7193685B07FCD480233A4A9B00CB6641
:1033B00093685B03D90F002BFADBD167354A93681A
:1033C0005B02FCD402231371324A93685B07FCD47E
:1033D000FFF72AF8022826D10F227B789343022296
:1033E00013437B70FFF720F82A4902230A004B7130
:1033F00093685B07FCD4284B264A1B680293CB6674
:1034000093685B03FCD4254B1B680293D367214A66
:1034100093685B02FCD4022313711E4A93685B0716
:10342000FCD4FFF701F8032801D0FEF7FDFF0F22BF
:103430007B789343032213437B70FEF7F5FF83B23F
:10344000002A01DAFFF7AAF9FFF7ABF983B2002AE5
:1034500001DAFFF78FF8FFF790F8044B1880FFF7B9
:1034600081F8024B1880FFF791F9C0466C010020EB
:103470002C6500207E210020FF0300007801002041
:10348000822100209461002080210020FD20000086
:103490007C210020002000421800002014000020A1
:1034A00001707047F0B557464E464546DE46E0B5DA
:1034B000834B89B002AA0578040043CB43C205AE12
:1034C0003200033DEDB283CB83C2690049194A0043
:1034D000C80000217B4B571DC150501C8246800004
:1034E000C150901C81468000C150D01C8046800095
:1034F000C150101D84468000C150B800C150013138
:1035000050460B00019783404F460800B84047469D
:1035100003430800B840674603430800B84003432C
:103520000800019FB84003430800904003436648E9
:1035300002689A430260654A106898431060A37A53
:10354000082B6BD063681A88D2076AD4DA7BD2065C
:1035500067D41B889B0764D42423E35C002B00D032
:10356000A7E03023E35C002B00D09CE05849A80082
:1035700032580B6A13430B62A27A082A00D18BE0FF
:10358000802102AB1B5AC9011943524B598058780C
:10359000C009FCD1E17A0A43218911436268D37BD7
:1035A0005BB2002BFBDB1180617B6268D37B5BB27B
:1035B000002BFBDBFF231371002906D06268D37B4D
:1035C0005BB2002BFBDB01235371217B6268D37B51
:1035D0005BB2002BFBDB91716268D37B5BB2002B8B
:1035E000FBDBA37A042B24D0082B3FD0002B19D16E
:1035F000D37B5BB2002BFBDBE38A13826268D37B55
:103600005BB2002BFBDB638A13836268D37B5BB204
:10361000002BFBDBA38A0120538303E0EB1C194240
:1036200090D0002009B03CBC90469946A246AB46DB
:10363000F0BDD37B5BB2002BFBDB637C1374626851
:10364000D37B5BB2002BFBDB237C13756268D37BDF
:103650005BB2002BFBDBA37B13766268D37B5BB290
:10366000002BFBDBE37B01205376DBE7D37B5BB2F4
:10367000002BFBDB236A13616268D37B5BB2002BF8
:10368000FBDBA36993616268D37B5BB2002BFBDB3E
:10369000E3690120D361C5E70135AD000B6A7559B7
:1036A0002B430B626CE7636BA06B59B203F06CF8B1
:1036B0005CE7A36AE06A59B203F066F851E7C046D6
:1036C000D46E0000D8610020D4610020D0610020B9
:1036D00000040040000C0040F0B54F464646D64678
:1036E000C0B584B001AD2E000CAC99462378164CC1
:1036F000884618349A468ACC8AC60678052E1AD887
:10370000002424230473C4540C33C4628462C4545C
:103710008463446344824461042A12D04346038193
:103720004B46C3725346033EB6004373AB59827295
:103730004360FFF7B7FE04B01CBC90469946A24612
:10374000F0BDFF340474E9E7D46E0000F0B583B037
:10375000002B32D00478033CE4B200292FD0022A97
:1037600065D0610009194900032A3AD00125954026
:103770008D40434F51183E6889002E433E60414EB4
:1037800037683D433560404D4B51404901AB19808E
:10379000142199701B57002B0ADB1F2119400123AC
:1037A000C0248B403A4964000B510B60032A2ED091
:1037B000012393404168DBB24B7303B0F0BD022A92
:1037C0005BD0032A27D0012393404268D9B21173FA
:1037D000620014196400A3402A490A689A430A60E7
:1037E000EBE720258D40264F05313E6889002E43AA
:1037F0003E60244E37683D433560234D4B5123498D
:1038000001AB1980142199701B57002BC5DA2022B7
:1038100043685A73D1E743681D321A7363001C1959
:103820006400A24017490B6893430B60C5E7102161
:103830006200121952009140114E04323568920014
:103840000D4335600F4D2E68314329600E495350AA
:103850000E4A01AB1A8014229A701B57002B08DB0A
:103860001F221A400123C0219340094A49005350A6
:103870001360102243685A739FE743680E32CCE707
:10388000D4610020D0610020D86100201213000014
:1038900000E100E0030010B5012918D8847A042C57
:1038A00016D0002C17D0082C02D1881D8000C250E1
:1038B0005868C37B5BB2002BFBDB042C15D0082CB3
:1038C0000FD0002C03D10C3192B249000A5210BD26
:1038D00040188273ECE70800083040001818428056
:1038E000E6E7063189000A50F1E7D2B240180276C5
:1038F000EDE7C0464268D37B5BB2002BFBDB13884D
:103900009B070FD500290CD1D37B5BB2002BFBDBCF
:103910003B230221137342689373426813888B43DD
:10392000138070470029FCD0D37B5BB2002BFBDBFC
:10393000022113880B431380F3E7C04670B50428B7
:1039400004D0052832D0032819D070BD424B9A7B91
:10395000424B14001B689B091C401A420BD00125E6
:103960003F4E1836254201D033689847AC430436A1
:103970006D00002CF6D13B22374B9A73E5E7374AAE
:10398000384B12689B7B14001C401A420AD0012558
:10399000334E254201D033689847AC4304366D005E
:1039A000002CF6D13B222F4B9A73CEE72E4B9A7BFD
:1039B0002A4B14001B681B0B1C401A4248D0E3071B
:1039C00002D5274B1B6B9847012322009A433FD017
:1039D000A30702D5224B5B6B9847032322009A432F
:1039E00036D0630702D51E4B9B6B984707232200F6
:1039F0009A432DD0230702D5194BDB6B98470F2331
:103A000022009A4324D0E30602D5154B1B6C98473D
:103A10001F2322009A431BD0A30602D5104B5B6CD8
:103A200098473F2322009A4312D0630602D50C4BDD
:103A30009B6C98477F239C430AD08025084E2542E3
:103A400001D0F36C9847AC4304366D00002CF6D1DE
:103A50003B22054B9A7378E700300042D06100208A
:103A6000D8610020002C00420034004210B502480A
:103A700002F00EF910BDC0462062002010B50121F1
:103A80000C2002F00FFE01210C2002F04FFE10BDB1
:103A900010B50F4C82B020000E4900F03BF90E49E2
:103AA0000E4800F037F90E490E4800F033F90E4980
:103AB0000E4800F02FF901230193023300930722EF
:103AC000210003330A4802F093F802B010BDC0464B
:103AD0001C65002000080042000C00422065002008
:103AE00000100042246500200014004228650020D8
:103AF00020620020F8B505000F0016000024002AFF
:103B000003D109E00134A64206D02B682800395DB4
:103B10001B6898470028F5D12000F8BDF0B5C646CF
:103B200005000E0000B500291AD00768080003F050
:103B300001F97C680E4B80469C4213D1002400287A
:103B400004D109E00134A04506D02F682800315D7A
:103B50003B6898470028F5D1200004BC9046F0BD92
:103B60000024F9E7020031002800A0470400F3E731
:103B7000F53A0000F0B546464F46D646C0B5066851
:103B8000040073680F1E984635D0080003F0D2F881
:103B90001E4B82469946984531D10025002804D114
:103BA0000CE001352668AA4506D02000795D33680F
:103BB00098470028F5D1266873689846C84514D1FF
:103BC0000D21200033689847002808D023680A2177
:103BD0001B6820009847431E98414019451C280047
:103BE0001CBC90469946A246F0BD0222200008491E
:103BF000C0472D18F3E7054B00259946DEE7020084
:103C000039002000C04726680500D5E7F53A0000D6
:103C1000F0700000F0B54746CE460D00202300218D
:103C200080B58BB0160001AA0700D154012E35D9FA
:103C300009AC05E03033DBB2013C237096420ED86C
:103C40002800310002F06CFF2A00CBB205000929E0
:103C5000F0D93733DBB2013C23709642F0D9200013
:103C600003F068F83E68114B7568804681469D42B6
:103C700016D100280CD0002503E00135A94507D056
:103C80003E683800615D336898470028F5D1A84642
:103C900040460BB00CBC90469946F0BD0A26C7E7DB
:103CA000020021003800A8478046F1E7F53A0000FD
:103CB00070B50400002A1AD10368C9B21B6898477E
:103CC0002368124A5E680500964219D10D21200032
:103CD0001B689847002808D023680A211B68200029
:103CE0009847431E98414019451C280070BDD2B228
:103CF000FFF790FF2368054A5E6805009642E5D00D
:103D0000022220000249B0472D18EEE7F53A0000E4
:103D1000F0700000016070479446F0B505009C1EED
:103D2000621E9441624605A80678286892070768D3
:103D300024063A431443046007202C680840B60167
:103D400062683043022B04D05B0302431343636079
:103D5000F0BD0023F9E7C04630B5C0250468AD03C7
:103D6000236812052A401A43C02309049B02194004
:103D70000A432260026851680B43536030BDC0465D
:103D80000121026813680B43136002681368DB07A4
:103D9000FCD4D369DB07F9D47047C046022102681E
:103DA00013680B4313600268D3699B07FCD4704708
:103DB0000268137EDB0702D4137E9B07FCD5704795
:103DC000002203685A8370470368187E4007C00FBB
:103DD0007047C0460368187EC00970478023026898
:103DE0005B42117E0B4313767047C0460368588BC5
:103DF0008007C00F7047C04602210268538B0B43F7
:103E0000538370470368187EC007C00F7047C046D1
:103E10000368188DC0B270470268137EDB07FCD5BB
:103E200089B2012011857047012203689A75704795
:103E3000012203681A7570470368204AF0B593425F
:103E400009D01F4A934221D01E4A934226D01E4ACF
:103E500093422BD0F0BD8024C02602231B4F1C4D63
:103E6000A40036021B49C0208C4640009B000C5029
:103E7000634400181A583A4032431A50164A0C60EC
:103E8000558053785BB2002BFBDBE3E78024C02630
:103E90000223124F124DE4003604E3E78024C026CB
:103EA0000223104F104D24013606DBE78024032344
:103EB000C0260E4F0E4D6401D4E7C04600080042F4
:103EC000000C00420010004200140042FF00FFFFFF
:103ED0001440000000E100E0000C0040FFFF00FF84
:103EE00015400000FFFFFF001640000000FFFFFF2D
:103EF00017400000F8B5CE464746060080B5884614
:103F000017009946FFF798FF0121326813680B43A9
:103F1000136035682C68E307FCD4EC69E307F9D437
:103F200043461C229B001A407B071B0C1A43842328
:103F30002A60326893754346012B1ED1013F7942B6
:103F400079410733494219400E4B083118684B46F6
:103F5000C000594302F05EFD0722316802408B89A0
:103F60005203DB04DB0C13438B813268000493891A
:103F7000C00C5B0B5B03184390810CBC90469946C8
:103F8000F8BDC046BC0000200123F0B5C6460400C1
:103F90000D001600984600B5194F01F0D9FFE060FA
:103FA00008E002F0A9F801F0D3FFE368C01AA368A3
:103FB00098421AD2236820009B6998470028F0DBBA
:103FC0002D2814D00300303B092B10D9002E01D02E
:103FD0002E280CD0012D08D0022D0BD1093817281E
:103FE00003D8434683403B4204D10120404204BCF5
:103FF0009046F0BD236820005B699847CDE7C04636
:1040000013008000F8B5150000220400FFF7BCFF84
:10401000002600282DDB0027A8420AD02D282AD010
:104020000300303B092B04D8B3009E1976003618E4
:10403000303E236820005B69984701F089FFE0600B
:1040400008E002F059F801F083FFE368C01AA368A2
:1040500098420BD2236820009B6998470028F0DB28
:104060000300303B092BD7D98542D5D0002F00D093
:1040700076423000F8BD0127DBE7C0463F2070479D
:1040800010B50221006900F079FE10BD10B50321C2
:10409000006900F0BDFD10BD10B5094B0400DB79CF
:1040A000002B03D101230020636010BD13000069C1
:1040B0000A00032100F0B6FF0028F3D0F5E7C04660
:1040C00044000020074A0300106810B5411C03D0CB
:1040D00001235B42136010BD0221186900F092FEBB
:1040E000F9E7C0469000002010B50A4C0300206894
:1040F000421C09D11A68084952698A4205D1022135
:10410000186900F07FFE206010BD18009047206005
:10411000FAE7C04690000020C540000010B582B00C
:1041200004006B46D81D23680D4A5B6801709342FA
:1041300011D10C4BDB79002B04D1012300206360EB
:1041400002B010BD020001230321206900F06AFFC4
:104150000028F5D1F1E70100012220009847EFE7A0
:10416000994000004400002010B503784222023339
:1041700003700249024800F0E5FF10BD4C0000202A
:104180004865002010B50278030041780020A12A7C
:104190000CD0212A00D010BD20291FD022290ED0FA
:1041A0002329F8D15A88134B1A60F4E72129F2D158
:1041B000114912489A3A00F0C5FF0120EBE79B78BD
:1041C0000D4CE37196232268DB009A4202D1E37919
:1041D000DB070AD502F040FB0020DCE7064C1A3A68
:1041E0002100064800F068FDECE7FA2002F02EFB03
:1041F0000020D0E740000020440000204865002057
:104200007047C046FA220021054B92009A60054A89
:1042100008321A60044A59601A6119767047C0461C
:104220002C650020F4700000486500207047C046EF
:1042300003000069F0B500280CD1EFF3108472B6CA
:1042400024255D5D002D11D1002C0DD162B6BFF388
:104250006F8FF0BDEFF31084200072B634255D5DE2
:10426000002D27D1002CF1D00020F2E7002C74D0D3
:10427000002A0AD181E0651CDD619D69AC46644479
:1042800024780C540130824271D0DC691D6AAC4242
:10429000F1D31A6AA242DCD100220121DA6119614C
:1042A000EFF3108C72B623315A5411315C5C002C40
:1042B00023D146E0002C4CD00020002A0AD150E047
:1042C000651CDD629D6AAC46644424780C54013060
:1042D000824246D0DC6A1D6BAC42F1D31A6BA2421B
:1042E000B7D10022DA621A61EFF3108C72B6342172
:1042F0005A5401315C5C002C23D001255A54596872
:104300001A7A0C685201A6180936FF3677788A188F
:104310002F43DD6877709668AF04194D3F092E4032
:104320003E4396601A7A520189188A68920B92036A
:104330008A6040211B7A08335B01E3181A790A432B
:104340001A716346002B00D083E762B6BFF36F8F0C
:104350007FE762B6BFF36F8FAEE762B6BFF36F8FD2
:1043600086E7DC6A1A6BA24200D072E7B9E7DC6923
:104370001A6AA24200D06CE78EE70020DC6988E769
:10438000FF3F00F010B50400806902F0FDFBA06A59
:1043900002F0FAFB200010BD10B50400806902F0A5
:1043A000F3FBA06A02F0F0FB200001F0D9FE200030
:1043B00010BDC0460369002B0ED1EFF3108272B618
:1043C0002433C35CDBB2002A02D162B6BFF36F8F25
:1043D000002B12D100207047EFF3108272B6342305
:1043E000C35CDBB2002A02D162B6BFF36F8F002B31
:1043F000F0D0036BC06A181AEDE7036AC069181A97
:10440000E9E7C046027AF0B51300416808330C684A
:104410005B01E318DD79FF26ED0721D50125DD716C
:10442000436952018F18002B1BD1BB689B049B0C66
:104430000362036A002B35D0836A45617B60EFF32A
:10444000108272B62423C5541033C35CD9B2002B3A
:104450001CD03523C554002A02D162B6BFF36F8F3A
:10446000F0BDBB689B049B0C0363036B002B19D04E
:104470000023436183697B60EFF3108272B63423BB
:10448000C554103BC35CD9B2002BE2D13523C154D3
:10449000002A02D162B6BFF36F8F416882680C6850
:1044A000324052010126A3180933FF335D788A1880
:1044B00035435D70C56893680A4EAD042D093340DD
:1044C0002B439360037A5B01CB1840219A68920BCF
:1044D00092039A60037A08335B01E3181A790A435E
:1044E0001A71BDE7FF3F00F0F8B54746CE4680B5EC
:1044F0000C00160000AF012A36D9D31D6A46DB082E
:10450000DB00D31A9D46080002F014FC6D4603231D
:104510000130400028706B70022E54D00021013B06
:104520000AE0581CC0B20134EA5486421ED002335D
:10453000DBB229549E4202D92278002AF1D12949BE
:104540001A00097800290BD1274B1C78002C28D1A0
:10455000002A12D1BD4620000CBC90469946F8BDF9
:104560005A1E9341DCB2F5E70024F3E733001D49FE
:104570001A0009780029E7D0F2E79404A40C1B4E36
:104580002900300002F00AFB194A1A495661936962
:104590000B40936193699B0B9B032343936101241D
:1045A000D8E7140093B29946631E9C41E4B2124BC3
:1045B000124898461E882900301802F0EFFA434648
:1045C0004E441E80C6E7074B1C78002CC2D1064B18
:1045D0001C78002C02D102220234D0E702230222EE
:1045E0009946E4E7F4680020F8690020746500202B
:1045F000046A0020FF3F00F0FA690020F8680020FC
:104600004D4BF0B5474698460123CE4699460026C5
:1046100043464A4680B585B001AC20001A700F00B1
:104620002670FFF7A1FD050002F096F9210002F0C7
:1046300055F942462D1809352378A671ADB216708A
:10464000092F44D04A4623714B463C4F65803A704F
:104650003B4D3C4A6371A02322802A00E3716E3BEC
:10466000237203CC03C21370374B994609234A4681
:1046700013806B46DC1C2000DE70FFF775FD02F036
:104680006BF9210002F02AF943461B783E70002B9B
:1046900003D14B461C88002C05D1012005B00CBC71
:1046A00090469946F0BD294E22002900300002F0C4
:1046B00075FA274A274956619369A4040B40936110
:1046C0009369A40C9B0B9B031C439461E5E71B4A75
:1046D0001278002A1AD123714B461A4A637122803C
:1046E0001A4AA0231100E37165806E3B237221CC2E
:1046F00021C10B70164B17495A619A690A409A6199
:104700009969890B89030F439F61C6E723714B4663
:104710000D4F0C4A3E880A4863719F33E3716E3B2C
:10472000228030180922210065802372093602F0A8
:1047300035FA3E80B1E7C046F4680020F8690020F1
:10474000F868002009020000FA6900207465002062
:10475000046A0020FF3F00F0F0B5CF7806000C009F
:1047600093B0022F1DD002F0F7F8210002F0CCF830
:10477000002810D1012F1CD00025032F0ED1A378C3
:10478000002B41D1E488032C00D98CE104220423BE
:10479000C749E4B214E0C5172D1AED0F280013B075
:1047A000F0BDC988C348FFF72BFF451EA841C5B21D
:1047B000F4E7E488112C23D812221223BE49E4B274
:1047C000002C00D1A3E12200BC4B1D78002DE5D1C7
:1047D000BB4B1D78002D00D089E1BA4DA404280000
:1047E00002F0DCF9B84AB94955619369A40C0B4051
:1047F0009361936901259B0B9B031C439461CDE757
:1048000012221224AC49DFE7022B00D178E1012B00
:1048100000D165E10500032BC0D10F22AC4B1B6812
:104820001A4015001F093735092A01DC30321500FE
:104830000F2001A93840CD7105001F0A373509281E
:1048400001DC303005000F223A408D7115001F0B3E
:104850003735092A01DC303215000F2038404D7100
:1048600005001F0C3735092801DC303005000F2208
:104870003A400D7115001F0D3735092A01DC303221
:1048800015000F203840CD7005001F0E3735092860
:1048900001DC303005000F223A4010008D701B0FF4
:1048A0003730092A01DC303210001A0048703032EB
:1048B000092B01DD37331A000A700F22854B1B6864
:1048C0001A4015001F093735092A01DC303215005E
:1048D0000F203840CD7305001F0A3735092801DC49
:1048E000303005000F223A408D7315001F0B37350D
:1048F000092A01DC303215000F2038404D730500C5
:104900001F0C3735092801DC303005000F223A40F2
:104910000D7315001F0D3735092A01DC30321500E3
:104920000F203840CD7205001F0E3735092801DCF5
:10493000303005000F223A4010008D721B0F3730C7
:10494000092A01DC303210001A0048723032092B7B
:1049500001DD37331A000A720F225F4B1B681A40C1
:1049600015001F093735092A01DC303215000F20E8
:104970003840CD7505001F0A3735092801DC303075
:1049800005000F223A408D7515001F0B3735092A97
:1049900001DC303215000F2038404D7505001F0C2A
:1049A0003735092801DC303005000F223A400D75FB
:1049B00015001F0D3735092A01DC303215000F2094
:1049C0003840CD7405001F0E3735092801DC303022
:1049D00005000F223A4010008D741B0F3730092A52
:1049E00001DC303210001A0048743032092B01DD2E
:1049F00037331A000A740F22384B1B681A4015000F
:104A00001F093735092A01DC303215000F203840E4
:104A1000CD7705001F0A3735092801DC3030050045
:104A20000F223A408D7715001F0B3735092A01DC1C
:104A3000303215000F2038404D7705001F0C3735F8
:104A4000092801DC303005000F223A400D771500AF
:104A50001F0D3735092A01DC303215000F20384090
:104A6000CD7605001F0E3735092801DC30300500F2
:104A70000F223A4010008D761B0F3730092A01DCD7
:104A8000303210001A0048763032092B01DD3733FE
:104A90001A000A7620230022CA543000A279FFF7B8
:104AA00023FD05007AE60422042401498CE6C04671
:104AB000747100004865002084710000F4680020D3
:104AC000F869002074650020046A0020FF3F00F0B0
:104AD0000CA0800040A0800044A0800048A080007E
:104AE0003000A2790B49FFF7FFFC050056E60A4F9C
:104AF0000A483E883018341902F050F83C804DE6E0
:104B00003000A2790649FFF7EFFC050046E61C00DD
:104B10005AE6C04678710000FA690020F868002063
:104B200068710000202170B50126254A0400D36970
:104B300006200B43D361234B38315A5C32435A541D
:104B40003C229D5C49398D439D549D5C05439D5499
:104B50005925585D30435855985C01406020995460
:104B6000995C01439954184A184B53805378DB09D8
:104B7000FCD1174801F0E6F9164D280001F000FFBE
:104B8000280001F013FF7F222B68C12019788000D4
:104B90000A4004211A701A780A430C211A701A89E3
:104BA0008A430D491A810A581202120A0A508022B9
:104BB0000A6002211A780A431A700123237070BD1B
:104BC0000004004000440041000C0040064000008A
:104BD00061580000046A002000E100E0007800282D
:104BE00010D00121084B1B681A898A4308211A81B9
:104BF0001A8B0A4304211A831A8B0A431A83002250
:104C0000024B1A607047C046046A0020FC6900200D
:104C1000264B8A00D05810B50C0000282AD0036813
:104C2000234A9B6893423ED10369002B11D1EFF3D5
:104C3000108272B62433C35CDBB2002A02D162B6A2
:104C4000BFF36F8F002B03D0036AC069181A1BD102
:104C500010BDEFF3108272B63423C35CDBB2002ABE
:104C600002D162B6BFF36F8F002BF1D0036BC06A25
:104C7000181A07E0FF230F4A0B405B01D31898680E
:104C80008004800C0028E3D0FF210A4B0C401B68F5
:104C9000083464011C19802362795B4213436371F9
:104CA0000223E371D4E79847ECE7C0464C65002047
:104CB000B5430000046A0020F0B54024A4468225D4
:104CC00064462B4E6D003368585D2043294C58557F
:104CD0007460B768284838408027BF020743B76030
:104CE0006746B068800B8003B060585D3843585504
:104CF0000235585D4006FCD50825FF35585DC007D4
:104D0000FCD5B068C0B2904200D91000002A27D06C
:104D10000725531E9D429B41043D0D406E42754147
:104D20005B421D421DD0CB1C1B1B062B19D9002337
:104D30009508AD00E658CE500433AB42FAD10325B6
:104D40001300AB4315420BD0E55CCD545D1CAA4269
:104D500006D9665D02334E559A4201D9E25CCA54C7
:104D6000F0BD0023E55CCD5401339A42FAD1F7E758
:104D7000046A002034670020FF3F00F01E4B8A00C9
:104D8000D05810B5002827D003681C4A9B6893426E
:104D90002FD10369002B0ED1EFF3108272B62433AA
:104DA000C35CDBB2002A02D162B6BFF36F8F002B67
:104DB0001BD1002010BDEFF3108272B63423C35C08
:104DC000DBB2002A02D162B6BFF36F8F002BF0D0A6
:104DD000036BC06A181AEDE7FF231940084B49011D
:104DE000591888688004800CE4E7036AC069181ABF
:104DF000E0E79847DEE7C0464C650020B543000079
:104E0000046A0020F0B5CE46474680B57F4B83B09C
:104E10001B68002B1AD07E4B8A00D358002B1CD065
:104E20001A6854687B4A944200D080E01C69002CC8
:104E300056D1EFF3108172B624229A5C002A00D07A
:104E40007CE0002902D162B6BFF36F8F012040429F
:104E500003B00CBC90469946F0BDFF266E4A0E404A
:104E600075015019836801249B0402D18468A4044D
:104E7000A40C501983689B049B0C3F2B4ED883686D
:104E80009B0B9B03836053191768012291464A4686
:104E90007D190935FF3598469B682B7889011343A6
:104EA0002B705E4B2200C9186B46D81D01F076FEB0
:104EB000002CCBD043469B689B040CD14022083683
:104EC0007601BF193B7913433B7101234A46FB71BD
:104ED0006B7813436B70012CB8D16B46D879B7E768
:104EE000EFF3108172B634229A5C002AA9D000290F
:104EF00002D162B6BFF36F8FDA6A196B8A4235D27C
:104F0000986A511C8446D962624410786A46C0B2DD
:104F1000D0711A6B91429BD101242CE08768403BF1
:104F20009B04BF0B9B0CBF033B438360ABE769460D
:104F3000012218000731A0470400CCE7002902D164
:104F400062B6BFF36F8FDA69196A8A424BD29869E9
:104F5000511C8446D961624410786A46C0B2D0714F
:104F60001A6A914200D073E7012440E0196B0024D3
:104F70008A4200D06AE70022DA621A61EFF3108CED
:104F800072B634215A540131585C002823D00125CF
:104F90005A5459681A7A0868520186180936FF3639
:104FA00077788A182F43DD6877709668AF041C4DB8
:104FB0003F092E403E4396601A7A52018A18916842
:104FC000890B8903916040221B7A08335B01C0186A
:104FD0000379134303716346002B00D07BE762B66D
:104FE000BFF36F8F77E7196A8A4200D02EE700225D
:104FF0000121DA611961EFF3108C72B623315A5432
:105000001131585C0028C2D1E5E7C046FC69002098
:105010004C65002031420000046A00203467002003
:10502000FF3F00F0F0B54E464546DE465746E0B538
:105030001E003D4B0D001B68914685B0002B6BD0C8
:105040008023DB019E4267D8002E69D0374B8A014E
:10505000D3180193364B00229A46FF230B401C00C5
:105060005B01029353461B6893469C46B046083446
:1050700064016444E31D2F4F0393A379DB092CD112
:10508000002346467B55402E00D940264946320033
:10509000019801F083FD029BB1041A00019B524468
:1050A00053619369890C9B0B9B030B439361022310
:1050B000039AB34413706279823B1343637143468E
:1050C0009B1B9846B144002BD7D1584605B03CBC39
:1050D00090469946A246AB46F0BD174B1749186853
:1050E00001F098FC164B1721584301F093FC01E0A6
:1050F000013805D3E3799B07C2D47B5D002BF7D041
:1051000001237B55029B53449A69920B92039A6147
:1051100001235B429B46D8E701235B429B46D4E7D1
:1051200000239B46D1E7C046FC690020746500203F
:10513000046A00206C650020BC00002040420F0083
:1051400070110100144B70B51B781400002B05D1B1
:10515000124B1B78002B15D1002A01D1200070BD05
:105160000F4D280001F01AFD0E4A0F495561936951
:105170000B4093619369A1049B0B890C9B030B4328
:105180009361EBE7094E0A48358828182D1901F07C
:1051900005FD3580E2E7C046F4680020F86900208C
:1051A00074650020046A0020FF3F00F0FA690020C7
:1051B000F8680020F0B5DE4657464E464546E0B555
:1051C0004B780C0085B00B2B1FD8D04A9B00D358CE
:1051D0009F460B7803AA002B00D1D4E00023138054
:1051E000CB4B1B78013B59424B4113701288C94B82
:1051F0001A80C94A53619369C8490B4002219361DF
:1052000093699B0B9B030B439361012005B03CBC4E
:1052100090469946A246AB46F0BD8A78C04B1A60CC
:10522000BD4A012093699B0B9B039361EEE78B784A
:10523000012B00D14DE10022B54B1A70F0E78B78BD
:10524000012B00D14AE10020002BDFD10122B04B1D
:1052500001301A70B04A93699B0B9B039361D5E7A9
:10526000AD4B8C789A691968920B92039A61082267
:1052700002230620FF328B54FF300D5C823B2B4310
:105280000B548B5C9B07D80F002BFADA7F25A54ABD
:105290002C40937AAB43234393728023917A5B42F1
:1052A0000B439372B2E7FFF757FAAFE70020ADE781
:1052B0009D4B1A78974B99491A70974A0120536170
:1052C00093690B400121936193699B0B9B030B43F3
:1052D00093619BE70B780020DB0697D1934B9946AF
:1052E0005B68002B00D10EE18B4A01258846140033
:1052F0008F4F2CE0022B4CD0032B00D1C1E0822B2E
:105300001DD16B01E3189A698A491140C0229205A8
:105310000A4380499A618C46AA0162445A612B0073
:105320008022216808335B01C81806795242324353
:10533000027170205A5C8243302002435A544A461C
:105340000135AB00D3580437002B00D1A5E0832BE7
:10535000D0D16B01E3189A69764970201140C022C0
:1053600092050A436B499A61AA01521829005A61B1
:105370000831226849018B5C8343402003438B54EE
:10538000DDE7674B95E763491380634A0B80516102
:1053900031E77E68002E0ED03368674A5B6993421E
:1053A00000D0ADE0B06901F0EFFBB06A01F0ECFBBA
:1053B000300000F0D5FE382000F0CEFE5F4B2422F6
:1053C000036080235B00C3609A460023446003624D
:1053D00003614361C361856083541032C362036318
:1053E0008354013283540600504601F0C3FB8346C8
:1053F000B061504601F0BEFB6B01B062E2189368E9
:105400004C481840C0239B05034328009360236841
:10541000083040010100C05C0093844607208246AA
:1054200060465346984303239A4653461843030065
:10543000009801910B545B46844653606B016344B2
:1054400019000931FF314B789C4601239A4660468A
:1054500053461843314B487018009168084080212A
:10546000C903014391609168890B89039160019A96
:10547000402194460098604402790A4302717E609C
:105480005DE77868002800D159E703682C4ADB689B
:10549000934200D153E7984751E72300444698468A
:1054A000A278214B2A211A60434602201B68FF3153
:1054B0005A5C02435A544A210120FF315A5C02438C
:1054C0005A54434642469B6901209B0B9B039361C0
:1054D0009CE6002303AA13801A4B82E60021194A96
:1054E0000E4813700B4A11700B494A618A690240D9
:1054F0008A618A690120920B920313438B6185E6CE
:105500003000984757E7044B9846C9E718710000E8
:105510006865002074650020046A0020FF3F00F0E9
:10552000006A002000500041FC6900209400002027
:105530004C650020FFFFFF8F994300005071000071
:105540002D42000073650020F0B55746DE464E46FA
:105550004546E0B5B94F83B03B689A8B120700D53A
:105560002EE19A8B520701D504229A830822FF323A
:10557000995CC90624D5102140249954F4315A5C11
:1055800022435A546022AE4C23781A4200D0E6E0FF
:105590002100FFF70FFE002800D008E1062320219C
:1055A000A84AFF33D1543B680822FF32995C490670
:1055B00006D5402140209954C8315A5C02435A54C0
:1055C0001D8CFE231D40A04B002498469F4B0126B6
:1055D0009946002D50D02B0023411E4249D0230074
:1055E0003A6808335B01D318D979C90702D4DB794B
:1055F0009B073BD54146A3005858002843D0036879
:105600001B684B4500D014E14368027A00931B6885
:105610009C46FF239A46130008335B016344D97903
:10562000C90723D5DE7143695201002B3FD1009B8E
:105630009B189B469B689B049B0C0362036A002B90
:105640005DD05B46826A46615A60EFF3108272B6A3
:105650002423C6541033C35CD9B2002B40D0352369
:10566000C654002A02D162B6BFF36F8F3300A34045
:105670009D430134092CACD103B03CBC9046994603
:10568000A246AB46F0BDE3B2032C77D0012BEDD19F
:1056900092214900505C813B034353542823233912
:1056A000FF33FF39D1543300A3409D43E1E7009B12
:1056B0009B189B469B689B049B0C0363036B002B0E
:1056C0001DD0002343615B4682695A60EFF310826C
:1056D00072B63423C654103BC35CD9B2002BBED182
:1056E0003523C154002A02D162B6BFF36F8F5246F0
:1056F000436800931B689C4683681A4052016346C6
:105700009B180933FF33597801938A4601218B4650
:1057100051465B4619430B0001994B70009BC168D1
:105720009A468904090952448A46936848490B40BD
:1057300051460B439360037A009A5B01D1188B6842
:105740009B0B9B038B604021037A08335B0163440E
:105750001A790A431A713300A3409D4389E72379DC
:10576000002B1BD001F0F8F8210001F0E1F800282F
:105770001DD1BB699B0B9B03BB610FE7B22180234B
:105780004900505C5B420343535468236339FF3341
:10579000FF39D1543300A3409D436AE72000FEF750
:1057A000F1FC002803D1BB699B0B9B03BB61062165
:1057B00080223B68FF31585C524202435A54F3E660
:1057C000C02480210726BA68224DA4052A4022431E
:1057D000BA601B4A49007A605A5CB24301263243E0
:1057E0005A54BA692A401443BC6170241A4A4025AD
:1057F0007A615A5CA243102422435A54BA6814496D
:105800001140802252030A43BA60BA68920B920395
:10581000BA600622FF32995C294399540A21FF316C
:105820005A5C22435A5400210C4A116008229A8380
:1058300097E698473300A3409D431AE7046A002087
:1058400034670020005000414C65002005440000F2
:10585000FF3F00F0FFFFFF8F74650020FC69002010
:10586000044B10B51B78002B02D10348FFF76CFEE8
:1058700010BDC046F869002048650020014B024A6F
:105880001A607047046A00200050004101207047F0
:10589000BA23BC225B005200C3588058181A01D5A5
:1058A0005F30FF307047C046BC23BA225B00520015
:1058B000C1588258914203D0C358C018007D704728
:1058C00001204042FBE7C046F0B5C646B9230F00B1
:1058D000082100B59B000400C05C434E43001B1828
:1058E000DB00F318595682B0150000F04DFF082177
:1058F0003E4BE05C43001B18DB00F318595600F0E8
:1059000043FF3B4BE35C022B5AD0BA239B00E05C85
:105910009846FF281CD0012100F0C4FE4346E35CFA
:1059200034495A00D218D200B356B618DB015818C1
:10593000BB2189006050304901228C46BC21634460
:105940008900635071688A40BD21890062501A60E5
:105950003B00012120690122FEF7CCFAF0218023CF
:105960000901206929409B0099423BD00133FF3354
:10597000994235D00139FF394B42594105234942FB
:1059800019400F232B40012B28D0023B5A1E934174
:105990000133F0221540303D6A4255410122009505
:1059A000FEF7BAF9154B2069E25C114BE15CFEF79A
:1059B000D3F92069FEF7F2F902B004BC9046F0BDBD
:1059C000BE239B00E05CFF289FD0082143001B18EA
:1059D000DB00F318595600F0D7FE96E70023D8E70E
:1059E0000721CEE70621CCE7F86E0000E5020000B3
:1059F000E70200001844004114440041E6020000A0
:105A000010B504000069FEF7BBF9BA22002352006A
:105A1000A3500432A3506532FF32A2181360B8229B
:105A2000920094466444236010BDC046B7239B0097
:105A300010B5C4180433C11823680A689B1A01D52D
:105A40005F33FF33002BF7D10069FEF7B1F910BDCA
:105A5000B822B723920094469B00C318604419688B
:105A60000268914205DB1B680068C01A5E30FF3097
:105A7000704700681B68C01A0138F9E770B5BA238F
:105A8000BC255B006D004259C35804009A422BD0DC
:105A9000AF2143594900C31840591E7D013001F020
:105AA0003FF830006151BA239B00E35CFF2B14D018
:105AB000BA22BC2152004900A55863589D420DDA14
:105AC0006358A2589B1A013B0A2B06DDBC23BD225A
:105AD0009B009200E358A2581A6070BDA258635808
:105AE0009B1A5E33FF33EFE701204042DBE7C046FD
:105AF000F0B50368364A1B6A04000E0083B0934277
:105B000063D1B92308219B00C05C324D43001B18B0
:105B1000DB00EB18595600F037FE08212E4BE05CF5
:105B200043001B18DB00EB18595600F02DFE2B4BE1
:105B3000E35C022B3BD0BA27BF00E05DFF2819D100
:105B40003300012201212069FEF7D4F9002301224C
:105B50000021206900930233FEF7DEF8204B206914
:105B6000E25C1E4BE15CFEF7F7F82069FEF716F9E0
:105B700003B0F0BD012100F095FDE35D19495A0025
:105B8000D218D200AB56AD18DB015818BB218900E2
:105B90006050154901228C46BC2163448900635042
:105BA00069688A40BD21890062501A60C8E7BE2337
:105BB0009B00E05CFF28BED0082143001B18DB00DF
:105BC000EB18595600F0E0FDB5E7084A9847CFE7D3
:105BD000C9580000F86E0000E5020000E70200006E
:105BE000E602000018440041144400411304000080
:105BF000F8B5DE4657464E464546E0B51E000AABB0
:105C00001B78002799460BAB1B7804009846FA23B3
:105C10009B0083601D4B8A4608330360AF235B0003
:105C20004760150000211A0014309B4600F0BFFFAA
:105C3000BA2320005B00E7507D3004335A46E7501A
:105C40000021FF3000F0B3FFB7239B00E3181F6073
:105C5000B8239B00E3181F60534623614B46190489
:105C60004346360235431B060D431D43B923FF222D
:105C70009B00E5500433E25410332000E2543CBC56
:105C800090469946A246AB46F8BDC04698710000C2
:105C900070B504000069FEF7A9F8002800D06AE09A
:105CA0002069FEF791F8002835D12069FEF7AAF89F
:105CB00000281ED0B723B8219B008900E218651880
:105CC000136829685B1A1AD45CD029681368994252
:105CD00062D0BE22AF212B682868E3185200013041
:105CE00049009E5C00F01CFF296031002069FEF72E
:105CF00093F82069FEF76EF8002805D170BD5F3378
:105D0000FF33002BE1D13DE02069FEF767F8206901
:105D1000FEF756F8F2E7BA262069FEF779F8AF21C8
:105D200076000500A0594900013000F0F9FEBC23BF
:105D30005B00E358994203D0A359E3181D75A151A4
:105D4000BA239B00E35CFF2BAFD0BA22BC215200E8
:105D50004900A0586358984218DA6358A2589B1A11
:105D6000013B092BA1DCBB23BD229B009200E35821
:105D7000A2581A6099E72069FEF74AF82069FEF7F1
:105D80003BF88DE72069FEF753F8B2E7A258635855
:105D90009B1A5E33FF33E4E7FF26A6E7F0B5D6464D
:105DA00046464F460500C0B500698A46FEF72AF808
:105DB000B7239B00EE18002859D10433EF18AF2108
:105DC0003068490001303C6800F0AAFEA14235D19C
:105DD000012398462F4B994608E0AF2130684900CF
:105DE00001303C6800F09CFEA14227D1EFF3108304
:105DF00042461A420FD14B465B68DB05DA0D002B99
:105E0000EBD01300103B5AB21B060DD49208224B64
:105E1000C0329200D3582869FDF7F4FF0028DCD087
:105E20002800FFF735FFD8E70F231A401B4B083A2D
:105E30009C469208920062441368ECE7AF213068F8
:105E40004900013000F06CFE3B68994206D0BE224A
:105E5000504633685200EB18985431602869FDF7BA
:105E6000E3FF01201CBC90469946A246F0BDB82233
:105E70009200AF1833683A689B1A05D49FD15146F7
:105E80002869FDF7C9FFECE75F33FF33002B96D19C
:105E9000F5E7C04600ED00E000E100E01CED00E0A9
:105EA000FEE7C046034B10B51B68002B00D0984797
:105EB00010BDC046086B0020F8B5194D194FBD4202
:105EC00011D0194EAE4225D0BD4226D27B1E5B1B9F
:105ED0009B0801339C00220031002800A61900F025
:105EE0005DFE2C1901E02C000F4EBD420DD0A642E4
:105EF0000BD00E480E4A904207D2013A121A92086D
:105F000001320021920000F052FE00F02DF900F065
:105F1000F7F8FEE72C002E00E7E72C00E5E7C04687
:105F20000000002050010020E0710000500100201E
:105F3000406B002010B500F0E1F8002801D100F01E
:105F4000D1F810BD014B18607047C046086B0020A7
:105F5000014B18687047C0460C6B0020F0B5184B19
:105F6000184E194FC646B5689C4679681C680123CF
:105F70004901984600B5C90F02E014001900050058
:105F80004246B0687B689B0E134062461268994295
:105F9000F3D19442F1D18542EFD3736809195B1BA9
:105FA0009D00ED182B01ED184B015B1A28029B0098
:105FB00028185918C900000D401804BC9046F0BDBF
:105FC0000C6B002010E000E000ED00E0F0B5DE46D4
:105FD00057464E464546E0B583B00190002806D1AD
:105FE00003B03CBC90469946A246AB46F0BD3A4B46
:105FF0003A4A9846966859680123394C49019446B3
:1060000099462568C90F02E015001900060063468D
:10601000986843464A465B689B0E134022688B4251
:10602000F2D1AA42F0D1B04201D92A00ECE763468E
:106030005B6849199B1B9E00F6183301F618330262
:10604000F6184B015B1A9B005918234B360D9846E6
:10605000C900224D761800F04FF801214346A86888
:106060005B6822689B0E91460B4002E0D946130004
:106070005046AA689246424652682768920EBB462E
:106080000A409A42F2D14F45F0D1824501D9CB4620
:10609000ECE76A689944101A8200121810018446CD
:1060A0004B464F466244100284465B01DB1B9B005B
:1060B0004B44DB0062449B1B120D9A18FA239B0091
:1060C0009A42C8D3FA239B009C46019A6644013A3F
:1060D0000192002AC2D183E700ED00E010E000E069
:1060E0000C6B002010B5034A13680133136000F0F5
:1060F000BBFB10BD0C6B00207047C04600207047F2
:1061000010B500F00BF900F011FDFDF7B7FC012010
:10611000FFF75CFF0E4C2000FEF704FD2000FEF7A9
:106120005DFDFCF711F90B4C002C07D0FCF702F9D0
:10613000FFF7E2FF00E000BF002CF7D1FCF7FAF810
:10614000FFF7DAFFFCF7F6F8FFF7D6FFF6E7C046F1
:10615000486500200000000010B500F00BFD10BDE8
:1061600010B500F011FD10BD1E21594A53688B4334
:106170001C390B435360574A063193690B439361B3
:10618000FE22554BD2031B6804399B021340534A2D
:106190001343534A9361D3681942FCD00123514AF7
:1061A0000121137003E053785BB2002B02DA1378FD
:1061B0001942F8D101234B4A936053785BB2002B0C
:1061C000FBDB494B5360474A53785BB2002BFBDB48
:1061D0008223DB015380434A53785BB2002BFBDB05
:1061E000022310213E4A9384D3681942FCD03F4BCE
:1061F0003B49D3621022CB681A42FCD0364B1A6856
:10620000920E3F2A00D1203A354B3948996A9202C2
:1062100001400A439A629A6A3649920A92020A43F4
:106220009A62354AF039DA620022FF399A84DA68D4
:106230001142FCD01021314A9A84294AD36819426C
:10624000FCD00221938C0B43938410222449CB6809
:106250001A42FCD00023234A936053785BB2002B90
:10626000FBDB274B53601F4A53785BB2002BFBDBF1
:106270001B4B2448196A014080201962196A814326
:10628000196203239360204B5360164A53785BB224
:10629000002BFBDB00220F4B1A725A729A72DA72D1
:1062A0001A4B1B4A1A60FF220B4B1968194B1868CE
:1062B0008B0649010A408021C00E5B0F02431B027E
:1062C0001343154A1385024A53680B4353607047C2
:1062D00000400041000400402460800006060000E9
:1062E00000080040000C004001040100B905FF7DDA
:1062F000FF03FFFFFF01000080BB0A1C2405000014
:1063000000070300FFFCFFFF03060100BC000020A4
:10631000006CDC022060800000400042FA212E4B1D
:1063200010B51868890000F075FB802301385B0404
:10633000984200D3FEE72949294A4860C020136AE1
:1063400000061B021B0A0343136200238B60073302
:106350000B608021136A09061B021B0A0B43FC21F8
:106360001362204B1A6A0A431A62FF22196A120248
:106370000A431A62A022196AD2020A431A621A4A0E
:1063800053785BB2002BFBDB184B5380184B5A7EC3
:10639000D209012AFBD0C82292009A800522DA7025
:1063A000134B5A7ED209012AFBD0C02252011A6136
:1063B000002200209A7000F027F80B4A53785BB255
:1063C000002BFBDB0B4B53800B4AD379DB09012BF2
:1063D000FBD04123537010BDBC00002010E000E052
:1063E00000ED00E000040040000C00401E400000F2
:1063F000004000422140000000480042014B18606C
:106400007047C046C00000201E4A537EDB09012BA6
:10641000FBD00A281CD00ED801282AD0072822D168
:10642000136919490B400F21136153788B430121E4
:106430000B43537070470B2815D1136912490B4059
:106440000F21136153788B4303210B435370F1E702
:1064500013690D490B400F21136153788B430221BF
:106460000B435370E6E7F023064A1B0511690B4303
:10647000F1E7136904490B400F21136153788B43F3
:106480005370D7E700400042FFFFFFF04300F0B534
:106490007B4A1B18DB009B18DA6804000D0085B0EE
:1064A000910701D5002826D00826164211D075493B
:1064B0000968102904D000D97DE01020411A8D40D0
:1064C00012269E5FD30632D4930600D57BE005B03A
:1064D000F0BD0121200000F0E5F86A4B1B68082B95
:1064E00002D065D8F61AB5407F2D1BD800212000B8
:1064F00000F01CF9EBE7644AD379DB09012BFBD0F0
:10650000AD05AD0D1581604AD379DB09012BFBD0B8
:10651000022113780B4313705B4AD379DB09012BFB
:10652000FBD0D4E70121200000F000F9CFE70421DF
:10653000200000F029F9554B3112585CF2B20028C6
:106540004BD1EC46644601305854514BC1CBC1C4C9
:1065500060461B6823604B00185A8023DB0103430D
:106560004C4843804378DB09012BFBD0022941D9F9
:106570000220494B8900CB58198881431980D97B67
:10658000C909FCD14020198801431980D97BC90968
:10659000FCD10C32ADB25200D552DA7BD209FCD11B
:1065A00002211A880A431A80DA7BD209FCD18EE7CD
:1065B000083BDD4098E71039CD4012269E5FD30698
:1065C00000D481E7B3E70521200000F0DDF82F4B70
:1065D0003112585CF2B20028B3D0022934D92E4BC4
:1065E0008900C8580C32ADB252001552C37BDB098A
:1065F000FCD16CE70220284B8900CB5819688143F5
:106600002648196099680142FCD10220D96B0143E8
:106610002248D96399680142FCD1103292009A183D
:106620001E4955609A680A42FCD11D4A1B491A64EA
:106630009A680A42FCD102211A680A4317491A6073
:106640009A680A42FCD142E70220134B8900CB58DA
:10665000597901431148597199680142FCD11C32A2
:1066600092000E49D5509A680A42FCD102211A794B
:106670000A430A491A719A680A42FCD127E7C046C0
:10668000F86E0000C000002000480042106B00209F
:10669000CC710000000C004028000020FF0F7F009C
:1066A000FFFF000043001818082310B51D4CC00060
:1066B0002218D356013311D003570120526890405D
:1066C000022923D00BD8002916D01749DB018C46AC
:1066D000422163449A1840321170986010BD03291A
:1066E000FCD11149DB018C46062163449A184032E3
:1066F000117058605861F1E70B49DB018C460221AB
:1067000063449A18403211705860E7E70649DB018C
:106710008C46062163449A18403211705860986183
:10672000DCE7C046F86E0000004400410822430048
:106730001818F0B5124DC0002B189A5601321CD013
:10674000012426005F684357BE400E4ADB019A18B9
:10675000906806420BD10D00681E85412C4004252F
:10676000D21940321078A400A84304431470054A9B
:1067700094466344002901D09E61F0BD5E61FCE750
:10678000F86E0000004400410823420070B5121862
:106790002C4CD200A518EB565E1C50D0072907DC04
:1067A000002917DA01314C424C416442200070BD8F
:1067B0000B00083BDBB2032B0AD8092935D00A2984
:1067C00038D000240B29F1D10A39FFF76BFFEDE730
:1067D0000024EBE76868C30715D413571A4C0F253C
:1067E000A446DB01634442089A18303214781B181F
:1067F000AC430C43E4B21470412140331A780024B6
:106800000A431A70D2E712570F4CD201A4460C016A
:106810000F2162444308D31830331D7812182940E1
:106820000C43E4B21C701300E6E70021FFF73AFFC7
:106830000024BBE70839FFF735FF0024B6E71C004A
:10684000B4E7C046F86E000000440041014B1860F8
:106850007047C046C40000200122024B52421A6019
:106860007047C046C4000020164A1368591C03D064
:10687000013B1360002B00D0704772B68122124B8F
:1068800092000433934213D30121104A107D014238
:10689000FCD02021108BFF319B085B00014311834A
:1068A000D3610B4B13800123084A117D0B42FCD0AE
:1068B000BFF34F8F074B084ADA60BFF34F8FC046D4
:1068C000FDE7C046C4000020002000000040004159
:1068D00002A5FFFF00ED00E00400FA0570B5446872
:1068E0000E000025002C04D10CE0E4682D18002CCB
:1068F00008D02368310020005B6898470028F4DA4C
:1069000001256D42280070BD70B544680D00002C53
:1069100003D10AE0E468002C07D023682900200096
:106920009B6898470028F5D070BD0020FCE7C04662
:1069300070B544680D00002C03D10AE0E468002C17
:1069400007D02368290020001B6898470028F5D04D
:1069500070BD0020FCE7C046064901230A6810B557
:10696000140005481C401A4203D1044A44600280C6
:106970000B6010BD186B00201C6B0020020400008F
:1069800070B50500012210CD0021237828001343A3
:1069900080222370520000F00AF9A378DB07FCD4B0
:1069A000A3789B07F9D4656270BDC0461F22F0B57D
:1069B00017000726144B1B685D0B990CDB0D0F406D
:1069C0001E402A401F2A00D105251F242C401F2FBE
:1069D00000D11D211F250D40072E00D10323026881
:1069E0000A49108DA4010840204310851F20118DF5
:1069F0008143294311851838118D1840044B000339
:106A00000B4003431385F0BD246080003FF8FFFF77
:106A1000FF8FFFFF002243088B4274D303098B4290
:106A20005FD3030A8B4244D3030B8B4228D3030C5E
:106A30008B420DD3FF22090212BA030C8B4202D300
:106A40001212090265D0030B8B4219D300E0090A28
:106A5000C30B8B4201D3CB03C01A5241830B8B4231
:106A600001D38B03C01A5241430B8B4201D34B031A
:106A7000C01A5241030B8B4201D30B03C01A52417F
:106A8000C30A8B4201D3CB02C01A5241830A8B4204
:106A900001D38B02C01A5241430A8B4201D34B02ED
:106AA000C01A5241030A8B4201D30B02C01A524151
:106AB000CDD2C3098B4201D3CB01C01A5241830905
:106AC0008B4201D38B01C01A524143098B4201D33F
:106AD0004B01C01A524103098B4201D30B01C01A6A
:106AE0005241C3088B4201D3CB00C01A52418308E4
:106AF0008B4201D38B00C01A524143088B4201D311
:106B00004B00C01A5241411A00D201465241104670
:106B10007047FFE701B5002000F006F802BDC0464F
:106B20000029F7D076E770477047C04670B5002659
:106B30000C4D0D4C641BA410A64209D1002600F098
:106B400021F90A4D0A4C641BA410A64205D170BD60
:106B5000B300EB5898470136EEE7B300EB5898477F
:106B60000136F2E72C0100202C0100202C0100202E
:106B70004001002010B5034B0100186800F06AF8CE
:106B800010BDC046C800002010B5034B01001868B6
:106B900000F016F810BDC046C8000020002310B554
:106BA0009A4200D110BDCC5CC4540133F8E7030015
:106BB0008218934200D1704719700133F9E7000041
:106BC00070B50500002910D00C1F2368002B00DAD7
:106BD000E418280000F0B6F81D4A1368002B05D110
:106BE00063601460280000F0B5F870BDA34208D9B6
:106BF000216860188342F3D118685B6841182160EE
:106C0000EEE71A005B68002B01D0A342F9D91168A6
:106C10005018A0420BD12068091850181160834207
:106C2000E0D118685B68411811605360DAE7A04250
:106C300002D90C232B60D5E721686018834203D169
:106C400018685B684118216063605460CAE7C046F9
:106C5000246B0020F8B50323CD1C9D4308350600A6
:106C60000C2D1FD20C25A9421ED8300000F06AF866
:106C700025490A681400002C1AD1244F3B68002BC8
:106C800004D12100300000F043F8386029003000C2
:106C900000F03EF8431C2BD10C233000336000F091
:106CA00059F803E0002DDEDA0C2333600020F8BD34
:106CB00023685B1B19D40B2B03D92360E4182560D0
:106CC00003E06368A2420ED10B60300000F042F88E
:106CD000200007220B30231D9043C21A9842E6D0B1
:106CE0001B1AA350E3E75360EFE722006468C2E792
:106CF0000323C41C9C43A042E1D0211A300000F0C1
:106D000007F8431CDBD1C7E7246B0020286B002069
:106D1000002370B5064D040008002B6000F024F835
:106D2000431C03D12B68002B00D0236070BDC046EC
:106D3000306B00200023C25C0133002AFBD1581EB7
:106D40007047000010B5024800F00CF810BDC046B6
:106D5000386B002010B5024800F005F810BDC046A1
:106D6000386B002070477047044A03001068002801
:106D700002D0C318136070470148FAE72C6B00205B
:106D8000406B0020F8B5C046F8BC08BC9E46704772
:106D9000F8B5C046F8BC08BC9E4670475154205018
:106DA000792053636F706520342E30007374526500
:106DB000616C3D2000000000862D0000C82C000002
:106DC000962B0000482A0000882F00004A2E000061
:106DD00024310000DA2700002824000028240000C5
:106DE0002824000028240000282400002824000073
:106DF000282400002824000028240000CE290000B8
:106E0000BE290000AE2900009E29000028240000B1
:106E100028240000BA27000028240000B027000022
:106E200028240000282400006E2700004C270000C2
:106E3000A0260000282400002824000028240000A8
:106E4000902600004226000016260000282400009C
:106E50002824000028240000282400002824000002
:106E600028240000282400002824000028240000F2
:106E700028240000282400002824000028240000E2
:106E8000CA25000028240000AE25000028240000A8
:106E90002824000088250000282400002824000061
:106EA000282400002824000046250000C8240000F3
:106EB0002824000028240000842400002824000046
:106EC000282400000C2500006C2400002824000069
:106ED0004A2400001B0000001C0000001C000000F1
:106EE000000800000010000000200000002C0042FC
:106EF00000300042003400420000000002000000A8
:106F000001000000060000000000FFFFFFFF02007C
:106F10000000000003000000010000000600000067
:106F20000100FFFFFFFF030000000000040000005D
:106F3000010000001E00000004000000000004002A
:106F40000000000005000000010000001E0000001D
:106F50000500010001000500000000001000000015
:106F6000020000001C000000FF0000020002000000
:106F70000000000011000000020000001C000000E2
:106F8000FF000102010201000000000006000000F5
:106F9000030000001E0000000600000100010600C2
:106FA0000000000007000000030000001E000000B9
:106FB0000700010101010700000000000B000000B4
:106FC000030000002E0000001300030003000B006C
:106FD0000000000009000000030000002E00000077
:106FE0001100010101010900000000000A00000079
:106FF000030000002E0000001200020002000A0040
:107000000000000012000000080000000400000062
:10701000FF00FFFFFFFF0200000000000F00000064
:107020000800000004000000FF00FFFFFFFF0F004A
:10703000000000001B0000000B0000000400000026
:10704000FF00FFFFFFFFFF0000000000170000002F
:10705000020000002C000000FF00010001000700FA
:107060000000000013000000030000001C000000EE
:10707000FF000103010303000000000016000000F0
:10708000020000002C000000FF00000000000600CD
:107090000000000008000000030000002E000000B7
:1070A0001000000100011000000000001C000000A2
:1070B0000600000000000000FF00FFFFFFFFFF00D0
:1070C00000000000180000000600000000000000A2
:1070D000FF00FFFFFFFFFF0000000000190000009D
:1070E0000600000000000000FF00FFFFFFFFFF00A0
:1070F0000D0A000000000000000000001D4100001B
:10710000994000007D4000008D400000814000005B
:10711000C5400000E9400000D25100002E5200009E
:107120000A5200003E5200000A5200006052000065
:10713000A6520000AC520000B0520000D452000031
:10714000825300001A5200000000000000000000FE
:107150000544000031420000B54300002D4200000C
:1071600085430000994300005154205079204D3050
:1071700000000000040309044164616672756974CB
:107180000000000012010002EF0201409A23CB80B0
:1071900000010102030100000000000000000000E7
:1071A0009D5D0000F53A0000515A00002D5A000084
:1071B000915800007D5A0000A9580000F15A0000C3
:1071C000C9580000015A00008D5800001A001A002A
:1071D0001B001B001C001C001D001D000000000007
:1071E000000800040100001C001000200F00000433
:1071F00000040000F4010000F4010000000C00187D
:107200000008001401000000002000420024004299
:1072100000280042002C00420030004200340042AE
:10722000FFFFFFFF00C2010000000800080B000282
:10723000020200000904000001020200000524000F
:1072400010010424020605240600010524010101A1
:107250000705810310001009040100020A00000064
:1072600007050202400000070583024000000000FD
:10727000FFFFFFFF0000000083000000020000008D
:10728000820000000000000000000000000000007C
:1072900000000000000000000000000040420F005D
:1072A00008000000FFFFFFFFCC00002000000000EE
:1072B00000000000000000000000000000000000CE
:1072C00000000000000000000000000000000000BE
:1072D00000000000000000000000000000000000AE
:1072E000000000000000000000000000000000009E
:1072F000000000000000000000000000000000008E
:10730000000000000000000000000000DD20000080
:1073100039230000913A0000054200007D5800002A
:10732000B520000000000000000000000000000088
:0400000300005EB9E2
:00000001FF
