:1040000000000320318200001D8200001D8200009C
:104010001D8200001D8200001D82000000000000C3
:104020000000000000000000000000001D820000F1
:104030001D820000000000001D820000C5820000FB
:104040001D8200001D8200001D8200001D820000F4
:104050001D8200001D8200001D8200001D820000E4
:104060001D8200001D8200001D8200001D820000D4
:104070001D8200001D8200001D8200001D820000C4
:104080001D8200001D8200001D8200001D820000B4
:104090001D8200001D8200001D8200001D820000A4
:1040A0001D8200001D8200001D8200001D82000094
:1040B0001D8200001D8200001D8200001D82000084
:1040C0001D8200001D8200001D8200001D82000074
:1040D0001D8200001D8200001D8200001D82000064
:1040E0001D8200001D8200001D8200001D82000054
:1040F000000000001D8200001D8200001D820000E3
:104100001D8200001D8200001D8200001D82000033
:104110001D8200001D8200001D8200001D82000023
:104120001D8200001D820000495D0000555D0000F9
:10413000615D00006D5D00001D8200001D820000B9
:104140001D8200001D8200001D8200001D820000F3
:104150001D8200001D8200001D8200001D820000E3
:104160001D8200001D8200001D8200001D820000D3
:104170001D8200001D8200001D8200001D820000C3
:1041800021820000E9820000F9820000D98200004B
:104190001D8200001D8200001D8200001D820000A3
:1041A0001D8200001D8200001D8200001D82000093
:1041B0001D8200001D8200001D8200001D82000083
:1041C0001D8200001D8200001D8200001D82000073
:1041D0001D8200001D8200001D8200001D82000063
:1041E0001D8200001D8200001D8200001D82000053
:1041F0001D82000000000000414300001D820000FD
:104200001D8200001D8200001D8200001D82000032
:104210001D8200001D8200001D8200001D82000022
:104220001D8200001D8200001D8200001D82000012
:104230001D8200001D8200001D8200001D82000002
:104240001D8200001D8200001D8200001D820000F2
:104250001D8200001D8200001D8200001D820000E2
:104260001D82000010B5054C237833B9044B13B1FF
:104270000448AFF300800123237010BD40010020EB
:104280000000000008B6000008B5034B1BB103494D
:104290000348AFF3008008BD000000004401002087
:1042A00008B600001E4B10B51C683CB31D4C1E4ADE
:1042B000236812689342A8BF00231C4AA8BF23604A
:1042C00052F823100E2004F021FB236801332360F1
:1042D000174B1C68E4B1174C174A236812689342C5
:1042E000A8BF0023154AA8BF236052F823100F204F
:1042F00004F00CFB23680133236010BD21460E201F
:1043000004F004FB074B1C60094B1C68002CE2D135
:1043100021460F2004F0FAFA064B1C6010BD00BFC6
:104320007001002088450020100000207801002046
:1043300074010020844500200C000020782100201A
:10434000032001F08DBC00BF4B4A002330B4138022
:10435000136B9907FCD14FF080130324196846486A
:10436000C1F30223C1F342151B0143EA0523C1F344
:1043700082010B43A2F84830138864F30A231380A8
:10438000036BC3F30B03002BFAD1C3883A49012214
:1043900062F3C403C3800B6BC3F30B03002BFAD18E
:1043A000887A354A63F303008872136BC3F30B03F7
:1043B000002BFAD1937A3049012060F306139372EF
:1043C0000B6BC3F30B03002BFAD1C87A2A4A63F3B1
:1043D000C710C872136BC3F30B03002BFAD1D37A47
:1043E0002549042060F30503D3720B6BC3F30B0361
:1043F000002BFAD18888204A63F3C7108880136B9A
:10440000C3F30B03002BFAD11C49938891F8780170
:10441000194960F3040393800B6BC3F30B03002B68
:10442000FAD18B88144A182060F30C238B80136B0D
:10443000C3F30B03002BFAD1137A0F49032060F367
:10444000030313720B6BC3F30B03002BFAD1087A2F
:10445000094A63F3C7100872136BC3F30B03002BF5
:10446000FAD11388044943F0020313800B6B9B07B6
:10447000FCD130BC704700BF001C004390AF00006F
:104480002DE9F84F9E4A9F4B1568D3F800B09E4A1D
:10449000A5EB0B0840F2FF3428EAE87805EB0B03A4
:1044A00023EAE373A045A8BFA046A342A8BF2346C2
:1044B0002DED048BA3EB0800D2F800909A4606F08D
:1044C0006BF88BA3D3E9002306F0FAF906464846B9
:1044D0000F4606F061F88D4B002206F0C7F80B4638
:1044E00002463946304606F0C1F806F081FB884B9B
:1044F000884E1B683060012B00F08D80022B864BAC
:104500003ED01868002837DD844C421E052AC4F3CB
:10451000800340F2EA80002B00F0E5802560012155
:10452000C61A720804EB830303EBC202C3E9005509
:1045300008339342FAD126F00102964202EB0103BE
:104540001AD05A1C904244F8235015DD991C814220
:1045500044F8225010DADA1C824244F821500BDA77
:10456000191D884244F8225006DD0533984244F86C
:10457000215001DD44F82350BDEC048BBDE8F88FD9
:1045800019680029F8DD07EE908A644BDFED645A64
:10459000F8EEE76A07EE100A05EE10AAF0EE667A6A
:1045A00003EB810100200BE0F5EEC07AF1EE10FA8A
:1045B00048BF002240F18F8043F8042B8B4222D069
:1045C000F4EE676AF1EE10FA78D0B8EEC56AB4EE90
:1045D000676AF1EE10FA71D077EE877AF4EEE76A47
:1045E000F1EE10FA70DCB4EEE76AF1EE10FA77D46F
:1045F000F4EEE57AF1EE10FAD6DD40F2FF3243F840
:10460000042B8B42DCD10028B6D0BDEC048B86EDA8
:10461000007ABDE8F88F404BD3F800A0BAF1000F44
:10462000AADD4FEA490005F0B7FF33A3D3E9002321
:1046300006F01CF880462846894605F0ADFF064680
:1046400058460F4605F0A8FF02460B46504643EC7D
:10465000182B05F0A1FF314DA3460024234641EC61
:10466000190B2C4655469A46504605F095FF424692
:104670004B4605F0FBFF53EC192B06F021F941ECFA
:10468000100B04F061FC53EC182B51EC100B05F0EF
:10469000EDFF32463B4605F033FE06F081FA20EA94
:1046A000E07058450AF1010AA8BF5846554544F83C
:1046B000040BD9D1BDEC048BBDE8F88F77EEC77A37
:1046C0000120B1EE477A93E7F0EE667AF4EEE57AF0
:1046D000F1EE10FA91DCBDEEE76A16EE102A6BE7F8
:1046E000F0EE467AF2E719461AE7002329E700BF01
:1046F0000000000000F88F40182D4454FB210940B1
:104700008C450020640100207C4100200000E03F37
:10471000B85D00205C01002010000020780100201E
:1047200000C07F44704700BF10B5094C522320469B
:104730002F22012101F0B4FA0649074A204604F06D
:10474000FDFBBDE810400548032101F075B800BF2E
:1047500090450020FD5C000000000020BC5D0020B2
:104760002DE9F04F2DED028BCC49CD48CD4EDFF831
:104770008893DFF88883DFF828A3DFF884B389B053
:1047800001F094FF01210D2004F032FA00210D20E8
:1047900004F07CFAC44801F0BFFA0124C24801F0D9
:1047A000CDFA3460C14E08253560C14D4FF4FA7022
:1047B0002860C0484FF400720260BF4A00211160B7
:1047C000BE4A1160BE4A40F6FF731360FFF758FE01
:1047D0000B22C9F80020BB4ABB48192300211360F3
:1047E00001F01EFA002123460A46B748009101F065
:1047F0000BF9B54800214FF4966201F0DBF9B34B99
:10480000B1482146022201F03BF90C2003F0FEFFE3
:10481000FFF79AFD4FF4966308EE103A504601F008
:1048200089FE0028FAD0504601F0A0FEC0B2303810
:104830004428F3D801A353F820F000BFFF53000031
:10484000D5520000575100003D5000008B4E000033
:10485000B94D0000994C0000A74B00000F56000016
:10486000BD5400001D4800001D4800001D48000008
:104870001D4800001D4800001D4800001D480000A4
:10488000075700001D480000934B00001D48000022
:104890001D4800001D480000774B00001D48000027
:1048A0006D4B00001D4800001D480000334B000008
:1048B000194B0000814A00006D4A00001D480000AD
:1048C0001D480000574A00001D480000274A00000C
:1048D0001D4800001D480000054B00001D48000059
:1048E0001D4800001D4800001D4800001D48000034
:1048F0001D4800001D4800001D4800001D48000024
:104900001D4800000D4A00001D4800001D48000021
:104910001D4800001D480000F14900001D4800002E
:104920001D4800001D4800001D480000B749000058
:104930009F4900001D4800001D48000085490000F7
:104940001D4800001D4800006B490000514900004F
:1049500001220021504601F0AFFD5D4B1860002898
:104960003FF45CAFC9F8000058E7504601F0FEFD87
:10497000C3B26F2B0ABF574B00211968132003F0F5
:10498000C5FF4BE701220021504601F095FD514B38
:104990001968514B1860132003F0B8FF3EE701225D
:1049A0000021504601F088FD4A4B01461320196052
:1049B00003F0ACFF32E701220021504601F07CFDFC
:1049C000B0F5006FC0F2C986444A40F2FF7313602D
:1049D000504601F0CBFDC3B2442B00F0CA86404ADA
:1049E000002313603D4A3F49126841F8223015E721
:1049F000504601F0BBFDC3B26F2B00F001872F4B77
:104A000031480021196001F00BF907E7012200216C
:104A1000504601F051FD344B1B689842A8BF184620
:104A2000C8F80000FAE601220021504601F044FDDA
:104A30002E4A0346106000283FF4F0AE00EB40021F
:104A4000204C21482360120192B2002108EE102A66
:104A500001F0B0F8E2E6504601F088FDC3B26F2BDA
:104A6000234A0CBF012300231360D7E60122002153
:104A7000504601F021FD0F4B1860FFF701FDCDE618
:104A800001220021504601F017FD174B1B68984288
:104A9000A8BF1846174B1860C0E600BF80841E00F0
:104AA0008C610020B85D0020904500207C410020F2
:104AB000640100208C45002070010020740100205A
:104AC0007841002068010020BC5D0020A542000064
:104AD000AC5D0020140000201800002060010020C0
:104AE0008041002078210020040000206C0100207B
:104AF000B45D002010000020A85D00200800002008
:104B0000001C004301220021504601F0D5FC974BC8
:104B10001860FFF7B5FC81E601220021504601F044
:104B2000CBFC934B1B689842A8BF1846914B18606A
:104B300074E601220021504601F0BEFCB0F5006F82
:104B4000C0F2EC858C4A40F2FF731360504601F0CE
:104B50000DFDC3B2442B00F0ED85884A002313609D
:104B6000854A8749126841F8223057E68549504600
:104B700001F084F952E6504601F0F8FCC3B26F2B05
:104B800000F02086804B81480021196001F048F830
:104B900044E601220021504601F08EFC7C4B186057
:104BA000FFF76EFC3AE67B4B1B68002B07DD7A4A69
:104BB00000231360794A0A20136003F0E1FB03F03D
:104BC000AFFBD8F800300390002B37DD744F754EE3
:104BD00004460025BBF80430022262F30403ABF85C
:104BE00004309BF8143013438BF81430DBF830306A
:104BF000C3F30B03002BF9D100BF00BF00BF9BF82C
:104C00002E30DA07FBD5BBF84020D8F80010D9F8D1
:104C100000004FF0000306F8013B42F3072307F8BA
:104C2000013B5F4B2B4404445A5403F079FBA042F0
:104C3000FBD3D8F800300135AB42CBDC03F070FB7E
:104C4000039A03469B1AD8F80020B3FBF2F3564AA6
:104C5000012114460D20136004F018F85349504602
:104C600001F0DEF821680A22504601F09BF94C4918
:104C70004FF40062504601F065FC4FF480624949F0
:104C8000504601F05FFC4A49504601F0F7F8002118
:104C90000D2003F0FBFFC1E53E4B1B68002B07DD39
:104CA0003D4A002313603D4A0A20136003F068FB6D
:104CB00003F036FBD8F800300390002B38DD3D4F71
:104CC000384E04460025BBF80430042262F3040386
:104CD000ABF804309BF8143043F002038BF8143027
:104CE000DBF83030C3F30B03002BF9D100BF00BF5A
:104CF00000BF9BF82E30D907FBD5BBF84020D8F871
:104D00000010D9F800004FF0000306F8013B42F311
:104D1000072307F8013B274B2B4404445A5403F064
:104D2000FFFAA042FBD3D8F800300135AB42CADC11
:104D300003F0F6FA039A03469B1AD8F80020B3FB57
:104D4000F2F3194A012114460D20136003F09EFF6F
:104D50001649504601F064F821680A22504601F0D5
:104D600021F914494FF4006284E700BFB85D0020C8
:104D7000040000200C000020600100208041002081
:104D80007801002044AF000070010020BC5D0020CD
:104D90007C410020B45D002088450020844500202F
:104DA000A845002084410020B05D002058AF0000DD
:104DB00060AF0000A8550020974B1B68002B07DD53
:104DC000964A00231360964A0A20136003F0D8FA2B
:104DD00003F0A6FAD8F800300390002B38DD914F8D
:104DE000914E04460025BBF80430032262F304030D
:104DF000ABF804309BF8143043F002038BF8143006
:104E0000DBF83030C3F30B03002BF9D100BF00BF38
:104E100000BF9BF82E30D807FBD5BBF84020D8F850
:104E20000010D9F800004FF0000306F8013B42F3F0
:104E3000072307F8013B7B4B2B4404445A5403F0EF
:104E40006FFAA042FBD3D8F800300135AB42CADC80
:104E500003F066FA039A03469B1AD8F80020B3FBC6
:104E6000F2F3724A012114460D20136003F00EFF85
:104E70006F49504600F0D4FF21680A22504601F0E5
:104E800091F868494FF40062F4E6634B1B68002B0D
:104E900007DD624A00231360614A0A20136003F0B1
:104EA0006FFA03F03DFAD8F800300790002B40F37A
:104EB0008C805C4B03935F4E5F4B5B4F04930446C7
:104EC0000025BBF80430022262F30403ABF804307F
:104ED0009BF8143013438BF81430DBF83030C3F3F5
:104EE0000B03002BF9D100BF00BF00BF9BF82E3091
:104EF000DB07FBD5BBF84020BBF80430032161F38E
:104F00000403ABF804309BF8143043F002031FFA9B
:104F100082FC8BF8143012B2DBF83030C3F30B0391
:104F2000002BF9D100BF00BF00BF9BF82E30D8077F
:104F3000FBD5BBF84030BBF80410042060F304013B
:104F4000ABF804109BF8141041F002018BF8141018
:104F500099B205911BB2DBF83010C1F30B010029A7
:104F6000F9D100BF00BF00BF9BF82E10C907FBD5C9
:104F70001212BBF8400006F8012B039AD8F8001073
:104F80001B1202F8013B049B039240F3072E03F827
:104F900001EB0493D9F8003006932944264B58546A
:104FA000244B059803F801C01E4B00225854069B61
:104FB00007F8012B1C4403F0B3F9A042FBD3D8F847
:104FC00000300135AB423FF77CAF03F0A9F9079AF7
:104FD000034601210D209B1AD8F80020B3FBF2F301
:104FE000124A1446136003F051FE1149504600F076
:104FF00017FF21680A22504600F0D4FF0D494FF4F4
:105000000062504601F09EFA06494FF40062504695
:1050100001F098FAA5E600BFB45D002088450020A5
:1050200084450020A84D002084410020B05D002070
:1050300058AF0000A8450020A85500209B4B1B68D6
:10504000002B07DD9A4A002313609A4A0A20136056
:1050500003F096F903F064F9D8F800300490002BBF
:105060005FDD954B954F964E039304460025BBF8A4
:105070000430032262F30403ABF804309BF81430CD
:1050800043F002038BF81430DBF83030C3F30B032A
:10509000002BF9D100BF00BF00BF9BF82E30DB070B
:1050A000FBD5BBF84020BBF80430042161F30403B6
:1050B000ABF804309BF8143043F0020391B28BF844
:1050C000143012B2DBF83030C3F30B03002BF9D1EC
:1050D00000BF00BF00BF9BF82E30D807FBD5BBF840
:1050E0004000D8F80030121207F8012B40F30722D5
:1050F0002B4406F8012B724AD0547048D9F800208E
:10510000C154039B4FF0000C03F801CB14440393EC
:1051100003F006F9A042FBD3D8F800300135AB42CA
:10512000A5DC03F0FDF8049A03469B1AD8F800208A
:10513000B3FBF2F3634A012114460D20136003F020
:10514000A5FD6149504600F06BFE21680A225046D9
:1051500000F028FF58E7554B1B68002B07DD544A29
:1051600000231360534A0A20136003F009F903F087
:10517000D7F8D8F800300490002B5EDD4E4B534F2B
:105180004F4E039304460025BBF80430022262F31D
:105190000403ABF804309BF8143013438BF814303D
:1051A000DBF83030C3F30B03002BF9D100BF00BF95
:1051B00000BF9BF82E30DB07FBD5BBF84020BBF8C7
:1051C0000430042161F30403ABF804309BF814307D
:1051D00043F0020391B28BF8143012B2DBF8303096
:1051E000C3F30B03002BF9D100BF00BF00BF9BF836
:1051F0002E30D807FBD5BBF84000D8F8003012128B
:1052000007F8012B40F307222B4406F8012B2C4A08
:10521000D0542E48D9F80020C154039B4FF0000C05
:1052200003F801CB1444039303F07AF8A042FBD3B4
:10523000D8F800300135AB42A6DC03F071F8049ACF
:1052400003469B1AD8F80020B3FBF2F31D4A012154
:1052500014460D20136003F019FD1B49504600F061
:10526000DFFD21680A22504600F09CFE17494FF4EA
:105270000062504601F066F911494FF40062504651
:1052800001F060F94FF480620B49504601F05AF981
:105290000F49504600F0F2FD00210D2003F0F6FC0E
:1052A0000B49504600F0EAFDFFF7B8BAB45D0020A4
:1052B000884500208445002084410020A84D00201E
:1052C000A8550020B05D002058AF0000A845002080
:1052D00060AF0000714B1B68002B07DD704A002394
:1052E0001360704A0A20136003F04AF803F018F8BC
:1052F000D8F800300490002B5EDD6B4B6B4F6C4E8A
:10530000039304460025BBF80430022262F3040331
:10531000ABF804309BF8143013438BF81430DBF8EF
:105320003030C3F30B03002BF9D100BF00BF00BF27
:105330009BF82E30DB07FBD5BBF84020BBF80430D0
:10534000032161F30403ABF804309BF8143043F0FD
:10535000020391B28BF8143012B2DBF83030C3F391
:105360000B03002BF9D100BF00BF00BF9BF82E300C
:10537000D807FBD5BBF84000D8F80030121207F868
:10538000012B40F307222B4406F8012B484AD05446
:105390004648D9F80020C154039B4FF0000C03F895
:1053A00001CB1444039302F0BBFFA042FBD3D8F817
:1053B00000300135AB42A6DC02F0B2FF049A03468E
:1053C00001210D209B1AD8F80020B3FBF2F3394AD3
:1053D0001446136003F05AFC3749504600F020FD94
:1053E00021680A22504600F0DDFD30494FF400628A
:1053F000504601F0A7F82E494FF400623AE4274BDB
:105400001B68002B07DD264A00231360254A0A206B
:10541000136002F0B5FF02F083FFD8F8003003906C
:10542000002B7FF70BAC214F1F4E04460025BBF825
:105430000430022262F30403ABF804309BF814300A
:1054400013438BF81430DBF83030C3F30B03002B1D
:10545000F9D100BF00BF00BF9BF82E30DA07FBD5A3
:10546000BBF84020D8F80010D9F800004FF0000336
:1054700006F8013B42F3072307F8013B0B4B2B4493
:1054800004445A5402F04CFFA042FBD3D8F8003039
:105490000135AB42CBDCFFF7D1BB00BFB45D0020D0
:1054A000884500208445002084410020A845002034
:1054B000A84D0020B05D002058AF0000B64B1B681F
:1054C000002B07DDB54A00231360B54A0A2013609C
:1054D00002F056FF02F024FFD8F800300690002BAF
:1054E00040F38E80AF4B0393AF4FB04BB04E04935D
:1054F00004460025BBF80430022262F30403ABF833
:1055000004309BF8143013438BF81430DBF8303040
:10551000C3F30B03002BF9D100BF00BF00BF9BF802
:105520002E30D907FBD5BBF84020D8F800100591E4
:1055300004999E4B42F3072001F8010B2B44049180
:1055400005995A54BBF80430032262F30403ABF804
:1055500004309BF8143043F002038BF81430DBF86E
:105560003030C3F30B03002BF9D100BF00BF00BFE5
:105570009BF82E30DA07FBD5BBF84020D8F8001096
:1055800005910399874B42F3072001F8010B2B4447
:10559000039105995A54BBF80430042262F30403C2
:1055A000ABF804309BF8143043F002038BF814304E
:1055B000DBF83030C3F30B03002BF9D100BF00BF81
:1055C00000BF9BF82E30DB07FBD5BBF84020D9F895
:1055D0000000D8F8001042F3072307F8013B724B94
:1055E0002B44044400205A5406F8010B02F098FEA4
:1055F000A042FBD3D8F800300135AB423FF77AAF79
:1056000002F08EFE069A034601210D20E3E4624B70
:105610001B68002B07DD614A00231360604A0A20E3
:10562000136002F0ADFE02F07BFED8F8003005906A
:10563000002B61DD5D4B5B4F5D4E039304460025FF
:10564000BBF80430022262F30403ABF804309BF889
:10565000143013438BF81430DBF83030C3F30B03F2
:10566000002BF9D100BF00BF00BF9BF82E30DB0735
:10567000FBD5BBF84020D8F80010049103994B4BA0
:1056800042F3072001F8010B2B44039104995A546B
:10569000BBF80430032262F30403ABF804309BF838
:1056A000143043F002038BF81430DBF83030C3F3CE
:1056B0000B03002BF9D100BF00BF00BF9BF82E30B9
:1056C000D807FBD5BBF84020D9F80000D8F8001067
:1056D00042F3072307F8013B324B2B4404440020DC
:1056E0005A5406F8010B02F01BFEA042FBD3D8F877
:1056F00000300135AB42A3DC02F012FE059A0346EE
:1057000001210D205EE601220021504600F0D4FE6A
:10571000284B1860FEF7B4FEFFF780B800287BDA4C
:10572000254A00235046136000F020FFC3B2442BEB
:105730007FF413AA01220021504600F0BDFE1F4B4A
:105740001F491A68086090420346C4BF13460A60A6
:10575000002BBFF605AAFFF700BA002858DA164A50
:1057600000235046136000F001FFC3B2442B7FF4C6
:1057700036A901220021504600F09EFE0F4B104931
:105780001A68086090420346C4BF13460A60002BA3
:10579000BFF628A9FFF723B9B45D00208845002093
:1057A00084450020A84D0020A8550020A8450020D1
:1057B0008441002064010020600100207841002025
:1057C00080410020002101241548164D00912346F8
:1057D0000A462C60144D296000F016F918EE102AC4
:1057E0000F48002100F0E6F92146104B0C48022238
:1057F00000F046F90A48214600F012FAFFF70EB809
:105800000021012406480A4D009123460A46E0E79C
:10581000084B1860FFF7DCB8064B1860FFF796B925
:10582000BC5D00207001002088450020A5420000DA
:105830007401002060010020017070472DE9F84FCD
:105840000578DFF8BC81DFF8BCC1D8F80060033D03
:10585000E9B2012301EB4101994001EB030B01F196
:10586000020A01F10309044603FA0BF203FA0AF0F3
:1058700001F1040E024303FA09F04F1D024303FA3B
:105880000EF0024303FA07F002438B405A481A43D2
:10589000002340F82130DCF8001040F82B3026EAD5
:1058A000020621EA0202A17A40F82A30082940F8CB
:1058B0002930C8F8006040F82E30CCF8002040F8BD
:1058C000273058D06268136813F0010340F08580D8
:1058D000D07A10F0020051D113689B074FD494F88E
:1058E0002430002B40F0828094F83030002B77D1A8
:1058F000A17A2389414862684125C0F8E8501943DC
:105900001369002BFCD1116062681369002BFCD174
:10591000E37A1373617B62681369002BFCD1FF2368
:10592000137129B162681369002BFCD101235371F3
:10593000217B62681369002BFCD151736268106986
:105940000028FCD1A17A04291BD0082932D0B1B992
:105950001369002BFCD1E38A938262681369002BE0
:10596000FCD1638A938362681369002BFCD1A38AFC
:10597000D383012003E0EDB2EA07A3D41846BDE8C3
:10598000F88F1369002BFCD1637C1375626813696F
:10599000002BFCD1237CD37662681369002BFCD1E9
:1059A000A37B137762681369002BFCD1E37B5377E9
:1059B0000120E4E71369002BFCD1236A536162687C
:1059C0001369002BFCD1A369D36162681369002BB2
:1059D000FCD1E36913620120D1E70020BDE8F88F14
:1059E00094F93410A06B03F07FF981E794F9281043
:1059F000E06A03F079F977E7005E0020001C0040C0
:105A0000FC5D0020F85D00202DE9F0411B4D94461F
:105A1000044688461F4695E80F00267884B0654600
:105A2000052E0DF1100C0CE90F009DF828E021D88F
:105A3000042D04BFFF23237404AB03EB8606002070
:105A400056F8103C2073C4E90A00C4E90D0084F83C
:105A5000240084F83000608260612046A4F8088049
:105A60006360A572E77284F80DE004B0BDE8F04110
:105A7000FFF7E4BE04B0BDE8F08100BF64AF0000F2
:105A8000002B63D0F0B40478033CE4B209B3022ADB
:105A9000444E454D5BD0032A3FD0012104EB440422
:105AA0008C40424F40689140224401FA04F447F888
:105AB000223033682A683E4F23433360C9B24FF423
:105AC000804314432C60C7F88C31FB604172F0BCFA
:105AD0007047022A57D0032A11D0334D40682968F5
:105AE000012304EB440403FA02F29C4002FA04F49A
:105AF000D2B221EA040402722C60F0BC70472A4A38
:105B00004068136804EB44042021640001FA04F4A3
:105B100023EA040401721460D9E704EB44044768E3
:105B200022496400202000FA04F2053441F82430B0
:105B30002B6831681E4C11431A434FF48043316087
:105B40002A60C4F88C31E3607872C0E7704704EBD8
:105B500044046400102147681448326801FA04FCC8
:105B6000043442EA0C0240F824302B6810483260BA
:105B700043EA0C034FF480422B60C0F88C21C260D2
:105B80007972F0BC7047084A4068136804EB44041B
:105B90001021640001FA04F423EA04040172146081
:105BA000F0BC7047FC5D0020F85D0020005E002026
:105BB00000E100E0012908D810B4847A042C05D053
:105BC00094B900EB41035A8202E0704743189A737C
:105BD00040680369002BFCD1042C1AD0082C11D08A
:105BE00044B15DF8044B7047082C04BF8B1D40F88E
:105BF0002320EDE70C3100EB410092B282805DF88A
:105C0000044B7047063100EB810042605DF8044BA5
:105C100070470844D2B202775DF8044B704700BF6A
:105C2000426813699B07FCD413689B070DD559B9CB
:105C30001369002BFCD133231372426893724268BC
:105C4000136823F00203136070470029FCD0136926
:105C5000002BFCD1136843F002031360704700BFB0
:105C6000032800D0704770B50A4A0B4B947A1B6822
:105C70001C400BD0094E01252C4224EA050401D01A
:105C8000336898476D000436002CF5D1014B3B2258
:105C90009A7270BD00C00141F85D0020005E0020D6
:105CA00070B50446C3F38100C3F38116FF2B0D4684
:105CB0006074C3F3011103F00300A0748CBF0023D0
:105CC00001238E420CBF0320042015FB00F080B29C
:105CD00023700023E6742174A080637023726361D3
:105CE0000121164604F0D4FFE06018B16580E6801B
:105CF000204670BDC4F80200F9E700BF10B50446A5
:105D0000C06805F007F8B4F90600002802DB00219E
:105D100002F06EFF204610BD10B50446B0F9060033
:105D2000002807DB012102F063FFB4F9060000211F
:105D300002F0ACFF0123637010BD00BF8288C06811
:105D4000002104F0FDBF00BF014802F05FB900BFB1
:105D5000485E0020014802F059B900BF485E0020AB
:105D6000014802F053B900BF485E0020014802F02C
:105D70004DB900BF485E002010B512491248134CBF
:105D800082B000F041F91249124800F03DF9124981
:105D9000124800F039F91249204600F035F94FF069
:105DA0008641104800F030F90F49104800F02CF9F6
:105DB00000220123CDE9003221460D4802F0EAF825
:105DC00002B010BD00300040446100206861002036
:105DD0000034004050610020002001415C6100203F
:105DE00000400141746100200004004380610020F4
:105DF000485E0020F8B5174682B105460E460024DD
:105E000002E00134A74207D02B6816F8011B1B687B
:105E1000284698470028F4D12046F8BD1446FBE7F1
:105E20002DE9F0410C46D9B107688046084605F0D7
:105E300059F87B68104A9342064615D1D0B1002527
:105E400004E00135AE4208D0D8F800703B6814F881
:105E5000011B404698470028F3D12846BDE8F08151
:105E60000D462846BDE8F081024621464046BDE881
:105E7000F04118470546F0E7F55D00002DE9F047D1
:105E80000768DFF894A0D7F8049004460E4600296E
:105E90003AD0084605F026F8D145804622D10028A0
:105EA00036D0002503E00135A845276820D03B689F
:105EB00016F8011B204698470028F4D12768D7F828
:105EC0000490D14518D13B680D212046984730B148
:105ED000236820461B680A219847B8B10235284636
:105EE000BDE8F087024631462046C8472768054688
:105EF000D7F80490D145E6D0064920460222C8478B
:105F000005442846BDE8F0870D46DAE70135E6E7A7
:105F10000546D6E720B30000F55D00002DE9F0410D
:105F20008AB000230546012A98BF0A228DF8243042
:105F300009ACB1FBF2F602FB1610C3B209280F46FA
:105F400003F130008ABF3733C3B2DBB2BA4204F880
:105F5000013D3146EDD92F68204604F0C3FF7B6830
:105F60000F4A9342804612D168B1002603E0013601
:105F7000B04508D02F683B6814F8011B28469847A5
:105F80000028F4D1B04640460AB0BDE8F081024690
:105F9000214628469847804640460AB0BDE8F08131
:105FA000F55D000070B50446BAB90268C9B213685D
:105FB00098472368124A5E689642054616D11B68C8
:105FC0000D212046984730B1236820461B680A21DE
:105FD000984790B10235284670BDD2B2FFF79EFFB8
:105FE0002368074A5E6896420546E8D00549204680
:105FF0000222B0470544284670BD0135EBE700BFDB
:10600000F55D000020B300000122016002717047BD
:1060100070B405689DF80C602C68022B44EA82720B
:1060200014BF4FF08074002442EA04022A6004681E
:1060300001F00701626841EA861114BF580300208D
:1060400042EA01030343636070BC704710B4036805
:1060500012051C6802F440120904224301F4403185
:106060000A431A600268536843F4403353605DF892
:10607000044B70470268136843F001031360026821
:106080001368D907FCD4D369DB07F9D4704700BF84
:106090000268136843F0020313600268D3699B0728
:1060A000FCD470470268137ED90702D4137E9B0785
:1060B000FCD57047036800225A8370470368187E36
:1060C000C0F38000704700BF0368187EC0097047A6
:1060D0000268137E43F08003137670470368588B81
:1060E000C0F34000704700BF0268538B43F00203C7
:1060F000538370470368187E00F00100704700BFAB
:106100000368986AC0B270470268137EDB07FCD54B
:1061100091620120704700BF036801229A757047A1
:10612000036801221A7570479A4A03689342F0B4D3
:1061300000F01C8102F58062934200F01981964ABA
:10614000934200F0178102F50052934200F01B8148
:10615000B3F1864F06D0914A934208BF052502D07D
:10616000F0BC704704258E4C04EB05132D01B3F9E8
:106170000630002BC0F2A2805E098A4903F01F0797
:1061800006F1600C0122BA4041F82C20CF18012200
:1061900003F01F0302FA03F34FF0C00C87F800C3AB
:1061A00041F826306319B3F90830002BC0F2928011
:1061B0005E097C4903F01F0706F1600C0122BA401A
:1061C00041F82C20CF18012203F01F0302FA03F339
:1061D0004FF0C00C87F800C341F826306319B3F9BB
:1061E0000A30002BC0F282805E096E4903F01F075F
:1061F00006F1600C0122BA4041F82C20CF18012290
:1062000003F01F0302FA03F34FF0C00C87F800C33A
:1062100041F826306319B3F90C30002B71DB5E09AD
:10622000604903F01F0706F1600C0122BA4041F8F3
:106230002C20CF18012203F01F034FF0C00C02FAEC
:1062400003F387F800C341F826300679052E87D07E
:106250006319554A1B792033114652F823706FF3A6
:10626000861742F8237051F823205706FBD4067195
:10627000002E4DD14D4A402741F8237082604A4993
:1062800051F823205006FBD52C444748637920332E
:1062900051F823206FF3861241F8232050F8232071
:1062A0005106FBD4002E41D1402240F823203E4924
:1062B00051F823205206FBD5F0BC70473C4A03F04E
:1062C0000F031A44C02313766319B3F90830002B67
:1062D000BFF66EAF364A03F00F031A44C02313769D
:1062E0006319B3F90A30002BBFF67EAF304A03F0D2
:1062F0000F031A44C02313766319B3F90C30002B33
:106300008DDA2B4A03F00F031A44C02313769CE75F
:10631000012E25D0022E15D0032E2DD0042EAED165
:10632000244A442741F823708260A8E7012E13D045
:10633000022E0DD0032E28D0042E04BF442240F894
:106340002320B4E71C4A422741F82370826096E775
:10635000422240F82320AAE7412240F82320A6E762
:10636000164A412741F82370826088E70025FAE643
:106370000125F8E60225F6E643274FF4004241F8EE
:10638000237082607BE70325EDE6432240F823205B
:106390008DE700BF003000400020014100040043B1
:1063A00024B3000000E100E0001C00400095BA0AA0
:1063B000FCEC00E0001BB70000E1F505006CDC021E
:1063C0002DE9F843064691461F468846FFF7ACFE86
:1063D0003268136843F00103136035682C68E207E4
:1063E000FCD4EC69E307F9D44FEA88004FEA49335B
:1063F0009BB200F01C001843286033688422B8F177
:10640000010F9A7515D131680B4B8889B9F1010FCD
:106410000CBF1022082202FB07F7B3FBF7F363F36C
:106420004F30888132689189C3F3CC0363F30C0148
:106430009181BDE8F88300BF0060E3162DE9F041CB
:106440001C4F80460C461546012601F063FFC8F834
:106450000C0008E002F018F801F05CFFD8E9023205
:10646000801A98421BD2D8F8003040469B69984762
:106470000028EFDB2D2814D0A0F13003092B10D910
:106480000DB12E280DD0012C09D0022C0BD1A0F17A
:106490000903172B03D806FA03F33B4203D14FF04D
:1064A000FF30BDE8F081D8F8003040465B6998477E
:1064B000CBE700BF13008000F8B515460022044664
:1064C000FFF7BCFF00284FF000072DDB3E46A84237
:1064D0000BD02D282AD0A0F13003092B05D807EBCB
:1064E000870300EB4303A3F13007236820465B6971
:1064F000984701F00FFFE06008E001F0C5FF01F0F0
:1065000009FFD4E90232801A98420BD22368204650
:106510009B6998470028F0DBA0F13003092BD6D9FE
:106520008542D4D006B17F423846F8BD0126DCE76B
:106530003F2070470069022100F068BE0069032116
:1065400000F0BEBD10B5084BDB7904461BB9012332
:106550006360002010BD134600690A46032100F065
:10656000A1FF0028F3D010BD3C000020064A1368AC
:10657000591C04D04FF0FF31116018467047006974
:10658000022100F07DBE00BF8800002010B50A4C3B
:1065900023685A1C0AD1036808495B698B4207D1FA
:1065A0000069022100F06CFE03462360184610BD0E
:1065B00098470346F9E700BF880000206D6500009A
:1065C00010B50368104A5B6882B093428DF80710DB
:1065D00013D10E4BDB79044623B9012300206360FD
:1065E00002B010BD006901230DF10702032100F084
:1065F00059FF0028F1D002B010BD01220DF10701B2
:10660000984702B010BD00BF456500003C00002067
:1066100010B404780449034602341C7003485DF842
:10662000044B422200F0CABF44000020A8610020B1
:1066300010B503784278A12B0ED0212B01D0002079
:1066400010BD202A20D0222A0FD0232AF7D1144BA4
:1066500042881A60002010BD212AF0D11149124849
:10666000072200F0ABFF012010BD0E4B8278DA71DB
:106670001A68B2F5966F03D1D87910F001040AD0E8
:1066800002F0A6FB002010BD06490748072200F0D3
:1066900061FD044BECE7FA2002F094FB204610BDAC
:1066A000380000203C000020A8610020704700BF97
:1066B000054B064A06491A604FF47A70002298602A
:1066C00019615A601A7670478C6100208CB3000003
:1066D000A8610020704700BF0369F0B55BB9EFF314
:1066E000108472B690F8245095B974B962B6BFF3AD
:1066F0006F8F1846F0BDEFF31084234672B690F802
:106700003450002D31D1002CF0D000231846F0BDBC
:10671000002C7DD0002A00F08B80013907E08569CC
:10672000C66101332C5D01F8014F9A4274D0C469EF
:10673000056AAC4204F10106F1D3026AA242D8D143
:106740004FF0000C0122C0F81CC00261EFF3108E64
:1067500072B680F824C090F835206ABBBEF1000FF5
:10676000C7D162B6BFF36F8FC3E7002C4CD0002AAD
:1067700061D00139002307E0856AC66201332C5DD0
:1067800001F8014F9A424DD0C46A056BAC4204F146
:106790000106F1D3026BA242ABD14FF0000CC0F85E
:1067A0002CC0C0F810C0EFF3108E72B680F834C061
:1067B00090F83520002AD1D04268047A116880F818
:1067C00035C001EB441502EB441495F80971C66815
:1067D00047F0010785F80971A56866F39B35A56048
:1067E000047A02EB441294686CF30D049460027A0C
:1067F000083201EB4212117941F040011171BEF1F2
:10680000000F7FF476AFACE762B6BFF36F8FAEE7F1
:1068100062B6BFF36F8F7DE7C469026AA2427FF45C
:1068200068AF8DE7C46A026BA2427FF462AFB4E73F
:10683000C469134681E7C46A1346ABE710B5044642
:10684000806904F067FAA06A04F064FA204610BD7B
:1068500010B50446806904F05DFAA06A04F05AFAA3
:10686000204601F043FE204610BD00BF036973B906
:10687000EFF3108272B690F82430DBB212B962B630
:10688000BFF36F8F73B1036AC069181A7047EFF3D3
:10689000108272B690F83430DBB212B962B6BFF330
:1068A0006F8F0BB900207047036BC06A181A7047CE
:1068B00070B44468017A266801F1080206EB4212BE
:1068C000D579EB0720D545690123D371F5B904EBE0
:1068D00041154901AA68C2F30D020262026A002A48
:1068E00036D0826A43616A60EFF3108172B680F835
:1068F000243090F8342002F0FF04FAB180F83530EB
:1069000011B962B6BFF36F8F70BC704704EB4115CD
:106910004901AA68C2F30D020263026BC2B1826927
:10692000002141616A60EFF3108172B680F8343063
:1069300090F8242002F0FF04002ADFD180F83540CF
:1069400011B962B6BFF36F8F4468017A26684901B6
:106950007318214493F80921C56842F0010283F8B5
:1069600009218B6865F39B338B60037A04EB431337
:106970009A686FF30D029A60037A083306EB4313AB
:1069800070BC1A7942F040021A7170472DE9F84341
:10699000012A00AF3AD9D31D03F4FC73ADEB030D0C
:1069A000084615460C4604F09DFA013040000323CA
:1069B000022D8DF800008DF801306E4659D0611E11
:1069C00002204FF0000C07E09D423454D0B222D098
:1069D000854206F803C006D911F8014F431C821CFA
:1069E000DBB2002CF0D1284B1B7802463BB9274B79
:1069F0001C786CBBB0B92046BD46BDE8F883041EC8
:106A000018BF01242046BD46BDE8F8830024204677
:106A1000BD46BDE8F8831C4B1B7828460246002B78
:106A2000E5D0ECE7C0F30D05194C3146204604F0E3
:106A300079F9184B5C619A696FF39B329A619A6994
:106A4000012465F30D0220469A61BD46BDE8F88336
:106A5000041E85B218BF0124DFF840900E48B9F833
:106A6000008031464044454404F05CF9A9F80050E8
:106A7000C1E7054B1C78002CBDD1044B1C782A467D
:106A8000002CD1D0E8E700BF5465002058660020F4
:106A9000D461002064660020586500205A660020FA
:106AA0002DE9F04385B0544F0DF1040900254FF056
:106AB000010848460E4687F800808DF80450FFF71D
:106AC000A7FD044602F0EAF9494602F0ADF9204478
:106AD0000930092E9DF804308DF80A5080B23D70BF
:106AE00047D040F20924A02132228DF80830ADF8B9
:106AF0000440ADF806008DF809808DF80B108DF874
:106B00000C2099E807003D4C3D4EDFF800918DF8D0
:106B1000035003C4092322700DF10300A9F80030CB
:106B200086F80080FFF774FD02F0B8F90DF103015B
:106B300002F07AF93F78357017B9B9F800501DB9ED
:106B4000012005B0BDE8F0832E4E2A46A4F10801CD
:106B5000304604F0E7F82C4B5E619A6967F39B328C
:106B60009A619A69012065F30D029A6105B0BDE84A
:106B7000F083234A17782FBB8DF8083040F20923A1
:106B8000ADF80430A0238DF80B301F4DADF8060092
:106B900032238DF80C308DF809801A4C6C6199E81D
:106BA0000700D5F818C0234667F39B3CC5F818C00A
:106BB00003C3A9691A7066F30D010120A96105B02C
:106BC000BDE8F083114C8DF8083040F20921A02275
:106BD0008DF80B20ADF806008DF80980ADF8041093
:106BE0002388064DB9E80300EA18E850093332203B
:106BF000516023801072A3E754650020586500207F
:106C000058660020D4610020646600205A66002087
:106C1000F0B5CD78022D93B00E4639D0074602F07C
:106C20003DF9314602F016F9041E2BD1012D39D061
:106C3000032D2AD1B378002B40D1F588032D4FF0D6
:106C4000040200F28381B649EDB21346002D00F034
:106C500097812A46B34B1C78BCB9B34B1C78002CE7
:106C600040F07E81B14E304604F05CF8B04B5E617E
:106C70009A6964F39B329A619A6965F30D029A618D
:106C8000012402E0CCBF01240024204613B0F0BD53
:106C9000C988A848FFF704FF041E18BF0124204636
:106CA00013B0F0BDF588112D4FF0120203D8A249A0
:106CB000EDB21346CAE7A0491546CBE7022B00F018
:106CC0005881012B00F04581032BDED19B4B1B68C3
:106CD00003F00F02092AD4BF30323732190901F00C
:106CE0000F018DF80B201A0A02F00F020929D4BFF8
:106CF00030313731092A8DF80A10D4BF303237329B
:106D0000190B01F00F018DF809201A0C02F00F0287
:106D10000929D4BF30313731092A8DF80810D4BF82
:106D200030323732190D01F00F018DF807201A0E9D
:106D300002F00F0209294FEA1373D4BF3031373103
:106D4000092AD4BF30323732092B8DF80520CCBF49
:106D5000373330337A4A8DF806108DF804301368D3
:106D600003F00F02092AD4BF30323732190901F07B
:106D70000F018DF813201A0A02F00F020929D4BF5F
:106D800030313731092A8DF81210D4BF3032373202
:106D9000190B01F00F018DF811201A0C02F00F02EF
:106DA0000929D4BF30313731092A8DF81010D4BFEA
:106DB00030323732190D01F00F018DF80F201A0E05
:106DC00002F00F0209294FEA1373D4BF3031373173
:106DD000092AD4BF30323732092B8DF80D20CCBFB1
:106DE00037333033574A8DF80E108DF80C30136856
:106DF00003F00F02092AD4BF30323732190901F0EB
:106E00000F018DF81B201A0A02F00F020929D4BFC6
:106E100030313731092A8DF81A10D4BF3032373269
:106E2000190B01F00F018DF819201A0C02F00F0256
:106E30000929D4BF30313731092A8DF81810D4BF51
:106E400030323732190D01F00F018DF817201A0E6C
:106E500002F00F0209294FEA1373D4BF30313731E2
:106E6000092AD4BF30323732092B8DF81520CCBF18
:106E700037333033344A8DF816108DF814301368D8
:106E800003F00F02092AD4BF30323732190901F05A
:106E90000F018DF823201A0A02F00F020929D4BF2E
:106EA00030313731092AD4BF303237328DF82210D1
:106EB000190B01F00F018DF821201A0C02F00F02BE
:106EC0000929D4BF30313731092AD4BF30323732A3
:106ED0008DF82010190D8DF81F2001F00F011A0EEA
:106EE00002F00F0209294FEA1373D4BF3031373152
:106EF000092AD4BF30323732092BCCBF3733303375
:106F00008DF81E108DF81D208DF81C30B2790023ED
:106F1000384601A98DF82430FFF738FD0446B4E661
:106F2000D8B300005465002058660020D4610020CA
:106F300064660020A8610020E8B30000FC618000C6
:106F40001060800014608000186080000D491546B4
:106F500080E6B2790C493846FFF718FD044694E6FE
:106F60000A4F0B483E883044354403F0DBFE3D8039
:106F70008BE6B27907493846FFF708FD044684E6F8
:106F80001D4667E6D8B30000DCB300005A66002057
:106F900058650020C8B30000354A364B364970B5F5
:106FA0009469364D44F001049461146944F480649A
:106FB000146193F8582042F0010283F8582093F8A6
:106FC0003C2002F0F00283F83C2093F83C2042F091
:106FD000070283F83C2093F8592042F0010283F81D
:106FE000592093F83C2002F00F0283F83C2093F8DC
:106FF0003C20412642F0700283F83C200446C1F850
:10700000A8601F4801F080F9284601F05FFF28467C
:1070100001F072FF2A681B4B11786FF3C7111170D2
:10702000117841F004011170108900216FF3830081
:1070300010814FF4803683F850134FF4003583F8F5
:1070400051134FF4802083F8521383F853134FF4F5
:1070500000219E609D6098609960137843F0020360
:10706000137093789B07FCD40123237070BD00BF7D
:107070000008004000800041001C004064660020C1
:10708000557C000000E100E00078A0B110B40A4B8C
:107090000A491B681A896FF300021A811A8B42F0A1
:1070A00008021A831A8B42F0040200241A830C602F
:1070B0005DF8044B70477047646600205C660020F2
:1070C000214B53F8210010B50C46002832D003683C
:1070D0001E4A9B68934235D10369DBB9EFF31082F6
:1070E00072B690F82430DBB212B962B6BFF36F8F7C
:1070F0007BB1036AC069181A58B1154BE1B21B681D
:10710000083103EB411102224B7943F080034B71AC
:10711000CA7110BDEFF3108272B690F83430DBB252
:1071200012B962B6BFF36F8F002BF2D0036BC06A47
:10713000181AE1E7064BCAB203EB42139868C0F392
:107140000D00D9E79847D7E7AC6100206D680000D3
:1071500064660020F0B42B4C2B4F236893F8040195
:1071600040F0400083F804016760A068082565F3DB
:107170009B30A060A0686FF30D00A06093F804013D
:1071800040F0400083F8040193F806014606FBD561
:1071900093F80701C507FBD5A068C0B2904228BF8D
:1071A000104612B3CC1CE41B062C02F1FF331ED98F
:1071B000072B1CD922F00306134C0E440B4654F83F
:1071C000045B43F8045BB342F9D1940722F0030354
:1071D0000BD0FC5CCC545C1CA24206D902333D5D52
:1071E0000D559A4201D9FA5CCA54F0BC7047064A60
:1071F0000B44013912F8014B01F8014F9942F9D1C2
:10720000F0BC70476466002094630020194B53F86B
:10721000210030B30368184A9B68934229D103695F
:1072200073B9EFF3108272B690F82430DBB212B962
:1072300062B6BFF36F8F93B1036AC069181A7047C3
:10724000EFF3108272B690F83430DBB212B962B646
:10725000BFF36F8F1BB1036BC06A181A7047002011
:107260007047064BC9B203EB41118868C0F30D00AB
:1072700070471847AC6100206D680000646600200C
:10728000834B1B68002B00F0AC802DE9F041814B53
:1072900053F8213082B0C3B119687F4A4C689442D8
:1072A00040F083801D69002D53D1EFF3108172B639
:1072B00093F82420002A7FD111B962B6BFF36F8FF3
:1072C0004FF0FF3002B0BDE8F081744CCEB204EB59
:1072D000461073018268C2F30D02002A57D0E018ED
:1072E00001258268C2F30D023F2A59D98768403AC6
:1072F00062F30D078760D4F800806948E7184344BB
:10730000BA6893F8082142F0010283F8082100EBE3
:1073100081112A460DF1070003F5847403F002FD84
:10732000002DCDD0BB68C3F30D035BB9083608EB65
:1073300046160122337943F040033371F2716378CA
:1073400013436370012DBBD19DF8070002B0BDE867
:10735000F081EFF3108172B693F83420002AABD09D
:1073600011B962B6BFF36F8FD96A1A6B91423BD2E3
:107370004A1C986ADA62405C196BC0B28A428DF886
:10738000070008BF012535D002B0BDE8F08185684F
:10739000E018C5F30D058268C2F30D023F2AA5D897
:1073A00082686FF30D028260A5E7184601220DF195
:1073B0000701A0470546C5E711B962B6BFF36F8F55
:1073C000D9691A6A91424ED24A1C9869DA61405CC6
:1073D000196AC0B28A428DF807007FF473AF0125A5
:1073E00045E04FF0FF3070471A6B914208BF00250F
:1073F0007FF466AF4FF0000CC3F82CC0C3F810C088
:10740000EFF3108E72B683F834C093F8352012B3C0
:1074100059681C7A0F6883F835C007EB441201EBFA
:10742000441492F80901DE6840F0010082F8090175
:10743000A26866F39B32A2601A7A01EB42118A6855
:107440006CF30D028A601B7A083307EB43131A7939
:1074500042F040021A71BEF1000F7FF473AF62B6C2
:10746000BFF36F8F6EE71A6A91427FF429AF4FF036
:10747000000C0122C3F81CC01A61EFF3108E72B623
:1074800083F824C093F83520002AC1D1E3E700BF78
:107490005C660020AC610020D966000064660020B4
:1074A000946300202DE9F04F3C48006883B0002829
:1074B0006BD0B3F5804F1F4667D8002B6BD0DFF839
:1074C000F880374BD8F80040364E5FFA81FA934681
:1074D0000AF108020D4604EB42144FEA4A1A03EB84
:1074E00081134FF00009A279D20927D1402F3A46E3
:1074F000594628BF40224FF0000C184606F805C038
:10750000019203F00FFC034608EB0A00019A436165
:1075100000F1100180694FF0020C62F30D008860E9
:1075200084F807C06179BF1A41F080019144934407
:107530006171D8D1484603B0BDE8F08F1A491B48A5
:1075400009681B4AA0FB0101890C02FB01F21949E1
:10755000A1FB0212120901E0511C07D0E179880752
:1075600002F1FF32C2D4715D0029F5D0D0444FF052
:10757000FF39D8F8183001226FF30D0348467255D1
:10758000C8F8183003B0BDE8F08F4FF0FF39484617
:1075900003B0BDE8F08F9946CCE700BF5C660020E1
:1075A000D4610020CC610020B400002083DE1B43A6
:1075B00070110100C94216B264660020124B1B789C
:1075C00070B514461BB9114B1D7895B90AB9204600
:1075D00070BD0F4E304603F0A5FB0E4B5E619A69FD
:1075E00065F39B329A619A6964F30D029A612046B1
:1075F00070BD094E094835882844254403F092FBA4
:107600003580204670BD00BF5465002058660020BC
:10761000D4610020646600205A660020586500206E
:107620002DE9F04F4B7885B00B2B2BD8DFE813F00A
:107630000C0039002A002E002A004700D500350032
:1076400068007A00C900CB000A78002A00F0CA80DE
:10765000B44B1A78B4480023012AADF80C3018BF97
:107660001A46B24B04BF8DF80C20BDF80C205861AF
:10767000996902806FF39B3199619A69022161F3E4
:107680000D029A61012005B0BDE8F08F8B78012BC7
:1076900000F05E81002B00F0AD80002005B0BDE859
:1076A000F08F8B78012B00F03A81A04A9D489169B8
:1076B000002363F30D01916103700120E3E79B4B0D
:1076C0008C7899691A686FF30D010220996182F82C
:1076D000070192F8053143F0800382F8053192F8F2
:1076E00007319907C3F34000F9D54FF082439A7AE6
:1076F00064F306029A729A7A42F080029A72C2E7A2
:107700008B4A8A4B8849107859619A6908706FF3DF
:107710009B329A619A69012060F30D029A6105B06B
:10772000BDE8F08F0B78DB06B7D1824EDFF8FC8125
:107730007368002B00F0DA80DFF8109201910836B0
:10774000012426E0022B5ED0032B00F0C180822BA7
:1077500019D108EB44170320BA6960F31E72BA61AD
:10776000D8F80010704A04F1080301EB431502EB4E
:1077700084127A612A795B0142F080022A71CA5C24
:1077800060F30612CA5456F8043B0134002B00F093
:10779000AC80832BD6D108EB44100321826961F3BE
:1077A0001E728261604AD8F8001004F1080302EBEF
:1077B00084125B014261CA5C042060F30612CA5461
:1077C000E1E75D4A9DE75C4A8978584B11609A6908
:1077D0006FF30D029A61012055E705B0BDE8F04F47
:1077E000FFF716BA514B504858619969028062F30D
:1077F0009B3141E74D4A4B4C9169012063F30D01E8
:10780000916120703FE759F8245075B12B684B4ABD
:107810005B69934240F0AD80A86903F07BFAA86AE7
:1078200003F078FA284600F061FE382000F05CFE94
:1078300005460027424BC0F804804FF4807B2F623E
:107840002B6085F82470AC602F632F6185F834704D
:107850006F61EF61EF6285F83570C5F80CB058467E
:1078600003F050FA8246C5F818A0584603F04AFAC9
:1078700008EB44134FF0030C9A68A8626CF31E7275
:107880009A6004F10802D8F8000049F824504FEA41
:10789000421E00EB421210F80E506CF3020500F885
:1078A0000E5000EB441CC3F804A09CF8091141F0F1
:1078B00001018CF8091199686BF39B319960996803
:1078C00067F30D019960137943F0400313715AE790
:1078D00059F8240000283FF456AF0368194ADB68C2
:1078E00093423FF450AF98474DE70199104AD8F8BA
:1078F00000308978116093F8292142F0020283F860
:10790000292193F8492142F0010283F84921D8F84E
:1079100018306FF30D03C8F818300120B3E60A4B96
:1079200097E600BFC8610020D46100206466002093
:107930005C6600208C00002060660020516800001A
:10794000B0B30000D5660000D3610020AC61002018
:10795000094A0A4850619169094D002464F39B313A
:1079600091619169047063F30D01916118462B7068
:1079700089E62846984758E764660020D4610020CD
:10798000D36100202DE9F047AC4E33689A8B120783
:1079900000F11A819A8B570744BF04229A8393F807
:1079A0000721D50627D51022A54C83F8072193F887
:1079B0000421217842F0400211F0600F83F8042185
:1079C00040F0D7802146FFF72BFE002840F0F480DE
:1079D0004FF08243202283F80521336893F8072172
:1079E000540608D5402283F8072193F8082142F075
:1079F000400283F808211D8CDFF85082DFF8509296
:107A000005F0FE0500240127002D51D045FA04F3AE
:107A1000D8074AD5326804F1080302EB4313D97939
:107A2000C90702D4DB799B073BD558F8240000280E
:107A300040D003681B684B4540F0FA804368027AE7
:107A4000D3F800C002F108010CEB411191F807E0F6
:107A50001EF0010F25D0D0F814E0CF71BEF1000F59
:107A60003BD103EB421E5201DEF80810C1F30D01B9
:107A70000162016A002955D0836A4761CEF804305B
:107A8000EFF3108272B680F8247090F8343003F06F
:107A9000FF01002B3BD080F8357012B962B6BFF3FE
:107AA0006F8F07FA04F325EA03050134092CABD1E3
:107AB000BDE8F087032CE3B268D0012BF1D192F836
:107AC000243143F0800382F82431022107FA04F3C1
:107AD00082F8271125EA0305E7E703EB421E52016E
:107AE000DEF80810C1F30D010163016BD1B18369A8
:107AF00000224261CEF80430EFF3108272B680F8B3
:107B0000347090F8243003F0FF01002BC3D180F8CB
:107B1000351012B962B6BFF36F8F4368027AD3F89B
:107B200000C052010CEB020E1A449EF80911D0F865
:107B30000CA041F001018EF8091191686AF39B31A4
:107B40009160027A03EB42130EF5847E9A686FF31C
:107B50000D029A60037A08330CEB431C9CF8043046
:107B600043F040038CF8043007FA04F325EA0305D8
:107B70009BE72379C3B101F091F9214601F07CF92B
:107B8000D0B9B36960F30D03B36121E792F86431B2
:107B900043F0800382F86431022107FA04F382F88B
:107BA000671125EA030580E72046FEF741FD18B975
:107BB000B36960F30D03B361336893F8052142F0B4
:107BC000800283F8052109E7B2681D491D4D032491
:107BD00064F31E72B260716093F80021012161F3B9
:107BE000020283F80021B26964F31E72B26175610A
:107BF00093F80021144C61F3061283F80021B26857
:107C0000402161F39B32B260B2686FF30D02B26043
:107C100093F805210A4383F8052193F809210025EB
:107C200042F01002082183F8092125609983B1E60A
:107C3000984707FA04F325EA030536E7646600204F
:107C400094630020D46100205C660020AC610020B9
:107C5000B1680000034B1B7813B90348FFF792BECD
:107C6000704700BF58660020A8610020024B4FF00B
:107C700082421A60704700BF64660020012070478E
:107C8000D0F87431D0F87801181A48BF00F5AF70F9
:107C9000704700BFD0F87821D0F874319A421DBFE8
:107CA000D0F87831C018007D4FF0FF30704700BF2A
:107CB000F0B5044690F8E4023E4E00EB400C06EBB3
:107CC000CC0C83B00F469CF90810154601F00CF857
:107CD00094F8E50200EB400306EBC30393F90810A8
:107CE00001F002F894F8E732022B50D094F8E80241
:107CF000FF2818D0012100F07BFF94F8E8322E4ACB
:107D00002E4803EB430306EBC30C16F93310DCF8E3
:107D10000460C9010A440123B3400844C4E9BC23F8
:107D2000C4F8EC021360012220693B461146FEF7BD
:107D300047FB05F47063B3F5007F206938D0B3F5D5
:107D4000407F33D0B3F5807F0CBF0521002105F0C3
:107D50000F03012B28D0022B0CBF0123022305F0B7
:107D6000F005A5F13005B5FA85F56D0900950122FC
:107D7000FEF74EF9206994F8E62294F8E712FEF730
:107D800065F9206903B0BDE8F040FEF781B994F8C9
:107D9000F802FF28AAD000EB400306EBC30393F9D7
:107DA000081000F0A1FFA1E70023D8E70721CEE7E4
:107DB0000621CCE790AF00001480004118800041FC
:107DC00010B504460069FEF755F90023C4F8743174
:107DD000C4F87831C4F8DC32C4F8E03210BD00BF1A
:107DE000D0F8DC32D0F8E0229B1A48BF03F5AF731D
:107DF000002BF5D10069FEF755B900BFD0F8DC22A1
:107E0000D0F8E0329A4208DBD0F8DC32D0F8E02239
:107E1000C3F5AE70013010447047D0F8E032D0F8AE
:107E2000DC02181A01387047D0F87811D0F87421A4
:107E3000914210B4034631D0D0F87801D3F87811CC
:107E4000184A0131A2FB01421844D2094FF4AF7421
:107E500004FB1212007DC3F8782193F8E822FF2A70
:107E600010D0D3F87411D3F8782191420DDAD3F8F9
:107E70007821D3F87411521A013A0A2AC4BFD3E9FF
:107E8000BC2313605DF8044B7047D3F87421D3F81A
:107E90007811C2F5AE7201320A44EEE74FF0FF30BE
:107EA000DBE700BF91739F5DF0B50368354A1E6A3A
:107EB000964283B05ED1044690F8E402324E00EB65
:107EC000400306EBC3030D4693F9081000F00CFFC6
:107ED00094F8E50200EB400306EBC30393F90810A6
:107EE00000F002FF94F8E732022B36D094F8E80253
:107EF000FF2819D1012220692B461146FEF760FAAE
:107F000000210091206902230122FEF781F82069F7
:107F100094F8E62294F8E712FEF798F8206903B087
:107F2000BDE8F040FEF7B4B8012100F061FE94F81E
:107F3000E832164A164803EB430306EBC30716F96B
:107F400033107E68C9010A440123B3400844C4E9E0
:107F5000BC23C4F8EC021360CCE794F8F802FF28C5
:107F6000C4D000EB400306EBC30393F9081000F004
:107F7000BBFEBBE740F21342334603B0BDE8F0401E
:107F8000184700BFB17C000090AF00001480004192
:107F9000188000412DE9F84F044600254FF4AF79D1
:107FA000194E9DF828B09DF82CA04FF47A77C0E9BF
:107FB0000157904640F8146B4A460E4629461F4624
:107FC00002F0BEFEC4F874514A46C4F8785104F574
:107FD000BE70294602F0B4FE284668F3070067F336
:107FE0000F206BF317406AF31F60FF23C4F8E4020D
:107FF00084F8E83284F8F832C4F8DC522661C4F818
:10800000E0522046BDE8F88F04B4000038B50446BD
:108010000069FEF763F8002869D12069FEF74EF881
:10802000A8BB2069FEF766F820B3D4F8DC32D4F898
:10803000E0229B1A48BF03F5AF73002B5ED0D4F843
:10804000E022D4F8DC329A4265D0D4F8E012D4F8B9
:10805000E022324B0132A3FB02032144DB094FF43F
:10806000AF7000FB132391F87C11C4F8E032206953
:10807000FEF74AF82069FEF727F800B938BD2069F5
:10808000FEF726F82069BDE83840FEF713B82069EE
:10809000FEF736F8D4F87421204BD4F87811013269
:1080A000A3FB0253DB094FF4AF7505FB13238B428F
:1080B00005D0D4F8742122441075C4F8743194F8B2
:1080C000E832FF2BADD0D4F87421D4F878319A423D
:1080D00018DAD4F87831D4F874219B1A013B092BB3
:1080E0009FDCD4F8EC32D4F8F4221A6099E72069C6
:1080F000FEF706F82069FDF7F7FF8EE72069FEF727
:108100000FF8B7E7D4F87431D4F87821C3F5AE731B
:1081100001331344E3E7FF21A9E700BF91739F5D9B
:108120002DE9F041804600690F46FDF7E3FF48B1B5
:10813000D8F8DC32D8F8E0229B1A48BF03F5AF73B9
:10814000002B5DD0D8F8DC22314CD8F8E012013297
:10815000A4FB0203DB094FF4AF7000FB13238B4237
:1081600031D12C4D2C4E0DE0D8F8DC22D8F8E0129D
:108170000132A4FB02C34FF4AF70DB0900FB1323F1
:108180008B4220D1EFF31083DB0712D46968C1F36F
:108190000801A1F110039AB20029E5D002F00F0204
:1081A000002BA2F1040233442A44ACBF93F80033FD
:1081B000137ED8F81000FDF79DFF0028D4D040466C
:1081C000FFF724FFD0E7D8F8DC22114BD8F8E012F3
:1081D0000132A3FB0203DB094FF4AF7000FB132352
:1081E0008B4206D0D8F8DC22424482F87C71C8F871
:1081F000DC32D8F81000FDF78FFF0120BDE8F081D8
:10820000D8F810003946FDF77FFF0120BDE8F08166
:1082100091739F5D00ED00E000E100E0FEE700BF2C
:10822000024B1B6803B11847704700BF6867002006
:10823000F8B51E4D1E4FBD4211D01E4EAE4230D07D
:10824000BD4231D27B1E5B1B23F003031C1D314654
:108250002246284602F066FD26442B1901E0154E01
:108260002B46BD420DD09E420BD01348134A90427C
:1082700007D2013A121A22F003020432002102F05E
:108280005FFD0F4AD2F8883043F47003C2F888309B
:10829000BFF34F8FBFF36F8F00F02AF900F0FAF8A9
:1082A000FEE72B462E46DCE72B46DAE700000020EF
:1082B000400100200CB6000040010020A46700200F
:1082C00000ED00E008B500F0E1F800B108BDBDE840
:1082D000084000F0D1B800BF024B1B6803B118473B
:1082E000704700BF68670020024B1B6803B1184746
:1082F000704700BF68670020024B1B6803B1184736
:10830000704700BF68670020014B1860704700BFCE
:1083100068670020014B1868704700BF6C67002039
:10832000F0B4144E144FB568DFF850C07868DCF82C
:108330000040C0F3806002E0144618460D46B16864
:108340007B68DCF80020C3F380639842F4D1944248
:10835000F2D18D42F0D372680319551B41F2C1600E
:108360004FF47A7200FB05F002FB03F303EB1050AD
:10837000F0BC704710E000E000ED00E06C6700200A
:1083800048B10549B42303FB00F24868143A4B682E
:108390001B1A9A42FBD87047001000E000B97047E2
:1083A0002DE9F84F314B324D324CD5F808C0074615
:1083B00058682668C0F380609E4602E0164618465C
:1083C0008C46A968DEF804302268C3F380638342D8
:1083D000F4D1B242F2D1614501D93246EEE76B6881
:1083E000DFF88880224DA3EB0C0C304441F2C163CE
:1083F0004FF47A7603FB0CF306FB00F000EB135608
:1084000000F042F84FF47A7041F2C161D5F808E00B
:10841000D8F80430D4F80090C3F3806302E0D1466A
:108420006346DE46D5F808B0D8F80420D4F800A09A
:10843000C2F3806C9C45F2D1CA45F0D1F34501D915
:10844000CA46ECE76A684B4400FB03F3A2EB0E025A
:108450009B1B01FB02F203EB1253B3F57A7FCFD3E0
:10846000013F06F57A76D1D1BDE8F88F00ED00E046
:1084700010E000E06C670020024A136801331360CB
:1084800000F0AEBC6C670020704700BF0020704752
:10849000704700BF08B500F027F902F00FFCFFF7A6
:1084A000F7FF0120FFF77AFF0D4C0E48FEF774FD31
:1084B0000C48FEF7E9FDFCF753F93CB1FCF732F943
:1084C000FFF7E2FFAFF30080002CF7D1FCF72AF9A9
:1084D000FFF7DAFFFCF726F9FFF7D6FFF6E700BF54
:1084E00000000000A861002002F00CBC02F012BCE9
:1084F0006D496E4A0B889BB2F0B40B80137843F041
:10850000010313705368DB07FCD44FF4827367498F
:10851000D3624B689F06FCD44FF48273634A0B62AC
:10852000536813F00403FBD1614962480B770A4694
:10853000886292F82C3013F01003FAD15C4982F86B
:10854000203091F82C305E07FBD40B7F584A43F063
:1085500002030B7792F82C309D07FBD4536A5449E1
:10856000536291F82C301C07FBD49823504A81F8B1
:1085700020301369D805FCD54C4A4F4B53635368E0
:108580001906FCD44A4B4521B320C2F88410194681
:108590005863CB6B5B07FCD44FF400600223444A62
:1085A000886381F83030136C9F07FCD5136CDE07AD
:1085B000F9D53E483E4945246323C0F8884093647A
:1085C0000B6D5D07FCD44FF400600223384AC86489
:1085D00081F84430536D9C07FCD5536DD807F9D50D
:1085E000324A40F20633536253681907FCD44FF401
:1085F00042732E4993624B68DA06FCD42F4B2B4A08
:108600000B6353685B06FCD440F2073327491362BF
:108610004B6813F00403FBD129482A490122427117
:10862000886963F38200886172B6274B9A6062B6EC
:108630002649274BCA681868264F274E274D284CD5
:108640004FF0801342F080721B68CA603A68C3F32F
:10865000022142F001023A600901C3F3421241EAE9
:108660000221C3F3820203F003071143C3F38252D2
:10867000B7841201C3F3C24642EA0622C3F302439F
:1086800000F01F061343C0F3441242EA8612C0F3FF
:10869000822042EA00324FF08240A5F84810A4F848
:1086A0004830F0BC0285704700400041001C00408B
:1086B0000010004000000104060130000603040021
:1086C000000800400018004000600041F0ED00E0AC
:1086D00084008000001000E000200042001C0043E5
:1086E0000020004300000000414A424B1268A3FBF7
:1086F00002329209013AB2F1807F74D23E493F487A
:108700003F4BF0B54A60C02600250724802280F840
:1087100023608D600C6080F823205A69394842F448
:1087200070425A619A6942F4FC429A61DA6942F0F5
:108730007802DA611A6A2CA5D5E900456FEA92221F
:1087400083B041266FEA82221A626946C0F820612E
:1087500002AFC0F824614FF0020CCDE900450426B9
:1087600005254FF4C05451F8043B1A8866F30A22D9
:108770001A80DA886CF3C402DA801A6B1007FCD412
:10878000DD721A6B5206FCD49C801A6B12F0040244
:10879000FBD19A72186B10F02000FBD1B942E2D1E4
:1087A00000F03AF8174B4422C3F82821D3F82821C7
:1087B0005006FBD5144A9368D907FCD41178124BA4
:1087C00041F0010111709A68D207FCD400225A705E
:1087D0009A89022161F30B229A81DA8961F30B22D3
:1087E000DA8103B0F0BDFEE7001C00430020004327
:1087F000B4000020D34D621010E000E000ED00E076
:1088000000080040001C004000240043014B186099
:10881000704700BFB800002010B4394A136BD90666
:10882000FCD4384A136BDB06FCD401380A2815D86F
:10883000DFE800F0192F373D434E14545A6006000C
:108840002F48304A037A042161F303030372137A39
:108850005DF8044B61F30303137270472848294AFB
:10886000037A0321F0E7284B2548DA6925496FF39D
:108870001342DA61DA6942F00402DA61037A5DF8E0
:10888000044B6FF3030303720B7A6FF303030B7252
:1088900070471D4B1A48DA691A49012464F31342E0
:1088A000E7E7194B1648DA6916490224F6E7164B32
:1088B0001348DA6913490324F0E7134B1048DA69C7
:1088C0001049042464F31342DA61DA692243D4E7DD
:1088D0000D4B0B48DA690B490524DFE70A4B0848C2
:1088E000DA6908490624D9E7074B0548DA690549DA
:1088F0000724D3E70248034A037A0221A4E700BF12
:10890000001C00430020004300180040F8B58B4BCA
:1089100000EB400203EBC2030546DA6896070C46FB
:1089200003D5A0F10E01012969D912F4427F4BD081
:10893000B3F9126093F913701007F6B200F1A98031
:10894000D10500F19280930500F14A817C4BDA5DFC
:10895000002A40F08F807B4A7B4952F82720012073
:108960002032D855402341F82230784B53F8273035
:10897000022F1A6840F2AE8002431A601A6912F0A0
:108980000102FBD1196862F3410119601A6990076D
:10899000FCD440F20461022219601A731A6951066C
:1089A000FCD41E44E4B234771A695206FCD4FF2288
:1089B000DA761A699706FCD41A6842F002021A6045
:1089C0001A699607FCD4F8BD0121284600F010F979
:1089D0005F4B1B68082B05D08BBF083BC3F1080316
:1089E000DC409C407F2C284604D8BDE8F84000219C
:1089F00000F04CB9BDE8F840012100F047B9544BF4
:108A00001B680C2B05D08BBF0C3BC3F10C03DC4067
:108A10009C400121284600F067F9B5F10E064D4B48
:108A200018BF01269A5D002A00F09880A4B204368F
:108A3000720002F1864202F5105293889907FCD524
:108A40000E2D454A08D0D3799E07FCD5424A93683B
:108A50001D07FCD45482F8BDD379DB07FCD53E4A10
:108A600093685F07FCD41482F8BD2846052100F006
:108A70003BF96BE7022F354B10D953F827201644EA
:108A8000E4B2347713695806FCD413691906F9D493
:108A9000F8BD2846042100F027F957E753F827309E
:108AA0009A685207FCD49A68D705FCD49A68950551
:108AB000F9D41C3643F826409A68D005FCD49A684D
:108AC0009105F9D41A7942F002021A719A68520794
:108AD000FCD4F8BD42F001021A609A6812F001025B
:108AE000FBD1196862F3410119609A689507FCD4BB
:108AF0004FF4C06102221960DA639A685006FCD410
:108B00009A68D105FCD49A689205F9D406F110024E
:108B100003EB820254609A68D705FCD49A689605E4
:108B2000F9D4FF221A649A681506FCD41A6842F038
:108B300002021A609A689407FCD4F8BD90AF000056
:108B40007467002074AF0000001C00401C0000206F
:108B5000B8000020706700200024004301229A55CD
:108B600022498B689807FCD48B6813F00103F8D175
:108B700008781E4A63F34100087093689907FCD493
:108B80009368DB07F9D4043602EB46021749938851
:108B900043F0020393808B689F07FCD48B68D8074F
:108BA000F9D40B78114A43F002030E2D0B700DD04F
:108BB000D3799F07FCD50D4A93681807FCD4A4B25B
:108BC000548242F21070FFF7DBFB31E7D379D9070B
:108BD000FCD5064A93685B07FCD4A4B21482F0E784
:108BE0002846062100F080F8B0E600BF00240043CC
:108BF000254B00EB400003EBC00210B492F9084093
:108C0000013414D0C00052681B5601209040032943
:108C10000DD8DFE801F01D022A0FDB0103F18243CA
:108C200003F500431A44422182F8401098605DF831
:108C3000044B7047DB0103F1824303F500431A4400
:108C4000062182F840105DF8044B58605861704767
:108C5000DB0103F1824303F500431A44022182F849
:108C600040105DF8044B58607047DB0103F182430C
:108C700003F500431A44062182F840105DF8044BC6
:108C800058609861704700BF90AF0000154B00EB33
:108C9000400003EBC00230B492F9084001341CD00C
:108CA000C00054681B56DB0103F1824202F500420A
:108CB00001209568A040054209D122440D1E92F87A
:108CC000404018BF012565F3820482F8404003F15B
:108CD000824303F5004311B1986130BC704730BC4A
:108CE0005861704790AF000038B5354C00EB400339
:108CF00004EBC30595F90820B2F1FF3F5DD00D29C3
:108D000007DC002912DA01314FF0FF3018BF0020D4
:108D100038BDA1F10E03DBB2032B05D80F293DD0DE
:108D2000102945D011293ED0002038BD6D6815F0BE
:108D300001004FEAC30319D0E256D20102F1824288
:108D400002F5004202EB55032A4493F8300000F08C
:108D50000F0040EA0111C9B283F8301092F8403098
:108D600043F0410382F84030002038BDE356DB0178
:108D700003F1824303F5004303EB55042B4494F8BD
:108D8000302002F0F0021143C9B284F8301093F899
:108D9000402042F0410283F8402038BD0021FFF717
:108DA00027FF002038BD0121FFF722FF002038BD3A
:108DB0000221FFF71DFF002038BD104638BD00BF5F
:108DC00090AF0000014B1860704700BFBC0000204E
:108DD000024B4FF0FF321A60704700BFBC0000200A
:108DE0000C4A1368591C02D0013B136003B1704751
:108DF00072B6094B094A1A60BFF34F8F0849094BF5
:108E0000CA6802F4E0621343CB60BFF34F8F00BF28
:108E1000FDE700BFBC000020FCFF0220EF6916F058
:108E200000ED00E00400FA0570B5446884B10E4618
:108E3000002502E0E468054444B1236831465B68DC
:108E4000204698470028F5DA4FF0FF35284670BDD8
:108E50002546FBE738B544685CB10D4601E0E4689F
:108E60003CB1236829469B68204698470028F6D0E5
:108E700038BD002038BD00BF38B544685CB10D4630
:108E800001E0E4683CB1236829461B682046984706
:108E90000028F6D038BD002038BD00BF094A13684D
:108EA00013F001030BD1084910B440F20244012031
:108EB0000C8010605DF8044B03484B60704702481B
:108EC000704700BF7C6700208067002038B50546EA
:108ED0004FF4807255F8044B237843F0010323705C
:108EE0002846002101F02CFFA378DA07FCD4A378F0
:108EF0009B07F9D4656238BD0F4B02681B68108D63
:108F000003F01F011F2908BF052161F38A10108596
:108F1000C3F34411108D1F2908BF1D2161F3040004
:108F2000C3F382231085118D072B08BF032363F33E
:108F30000E311185704700BF840080000B4601464A
:108F4000184601F0ADBE000000B551EC100B284AE8
:108F500021F00043934285B025DD264A934209DD86
:108F600010EE102A0B4601F0C9F941EC100B05B0C8
:108F70005DF804FB684600F03FF800F003000128AC
:108F800019D0022826D0E8B19DED021B9DED000B03
:108F900000F06AFA53EC102B03F1004300EE903A14
:108FA00005B05DF804FB9FED101B002000F0C4FF2E
:108FB00005B05DF804FB9DED021B9DED000B00F07C
:108FC00053FAD4E79DED021B9DED000B012000F04C
:108FD000B3FFCCE79DED021B9DED000B012000F0DF
:108FE000ABFFD7E7AFF300800000000000000000F7
:108FF000FB21E93FFFFFEF7F2DE9F04F53EC102BF2
:109000002DED048B924923F000458D4289B0044632
:1090100040F38F808F498D429B462DDCBBF1000FC2
:10902000194610EE100A80A3D3E9002340F3C7814C
:1090300001F064F9884B9D4206460F4600F091808E
:109040007BA3D3E9002301F059F902460B46C4E99A
:1090500000233046394601F051F975A3D3E90023C6
:1090600001F04CF9C4E902014FF0010A504609B081
:10907000BDEC048BBDE8F08F78498D4240F39480BD
:1090800077498D4210EE100A61DC4FEA255AAAF2A8
:10909000164AA5EB0A5116460F4601F081FD01F074
:1090A0007BFA804689463046394642464B46CDE9F2
:1090B000028901F023F96B4B002201F0D7FA0F4629
:1090C000064601F06DFD054601F066FA02460B46C4
:1090D00030463946CDE9042301F010F9614B0022F6
:1090E00001F0C4FA02460B46CDE906230022002314
:1090F00001F024FD002800F06081002D0CBF012349
:109100000223594A019202215246009102A82146A7
:1091100000F0EAFABBF1000F8246A7DA6268E36862
:1091200002F1004203F10043C0F1000A6260E36013
:109130009CE7002000214FF0000AC4E902015046DC
:1091400084ED000B09B0BDEC048BBDE8F08F19462F
:1091500001F0D4F84FF0000AC4E90201C4E90001AB
:1091600084E735A3D3E9002301F0C8F834A3D3E999
:10917000002306460F4601F0C1F802460B46C4E93B
:1091800000233046394601F0B9F82DA3D3E9002376
:1091900001F0B4F84FF0010AC4E90201504609B0E9
:1091A000BDEC048BBDE8F08F00F084FF57EC106B32
:1091B00010EE100A24A3D3E90023394601F056FA31
:1091C0002A4B002201F09CF801F0EAFC824601F0F3
:1091D000E3F915A3D3E900238046894601F046FA56
:1091E00002460B463046394601F088F810A3D3E911
:1091F000002306460F464046494601F037FABAF1C9
:109200001F0F49EC198B47EC186B8046894631DCFF
:10921000174B0AF1FF3253F82230AB422AD00246F4
:109220000B4630463946A4E000004054FB21F93F8C
:109230003163621A61B4D03D0000601A61B4D03D60
:109240007370032E8A19A33B83C8C96D305FE43F56
:10925000FB21E93F7BD90240FB21F93FFB2139414A
:10926000FFFFEF7F00007041B0B400000000E03F5E
:1092700030B4000042464B4651EC180B01F03EF86A
:109280000A46C2F30A53C3EB1553102B0146064698
:1092900017464FEA255573DD69A3D3E9002351EC46
:1092A000190B01F0E3F959EC188B06460F463246CC
:1092B0003B4618EE100A494601F020F841EC180B25
:1092C000404653EC182B494601F018F832463B460D
:1092D00001F014F85CA3D3E9002306460F4651ECD5
:1092E000190B01F0C3F932463B4601F007F88046FE
:1092F000894642464B4651EC180B00F0FFFF0A46E8
:10930000C2F30A53ED1A312D01460646174637DDE2
:1093100050A3D3E9002351EC190B01F0A7F956EC47
:10932000185B8046894642464B4618EE100A314685
:1093300000F0E4FF41EC180B314653EC182B2846A3
:1093400000F0DCFF42464B4600F0D8FF43A3D3E9D0
:10935000002306460F4651EC190B01F087F93246FF
:109360003B4600F0CBFF8046894651EC180B424645
:109370004B4600F0C3FFC4E9000106460F4601E07A
:10938000C4E9001232463B4651EC180B00F0B6FF20
:1093900042464B4600F0B2FFBBF1000FC4E90201A8
:1093A000BFF664AE07F1004501F10043C4E9006572
:1093B000C4E90203CAF1000A58E60323A1E600F05B
:1093C0009FFF234B9D4206460F4616D01AA3D3E9B2
:1093D000002300F095FF02460B46C4E90023304607
:1093E000394600F08BFF14A3D3E9002300F088FF77
:1093F0004FF0FF3AC4E9020138E611A3D3E9002394
:1094000000F07EFF10A3D3E9002306460F4600F0CC
:1094100077FF02460B46C4E900233046394600F088
:109420006DFF09A3D3E9002300F06AFF4FF0FF3A74
:10943000C4E902011AE600BF3163621A61B4D03D8B
:109440000000601A61B4D03D7370032E8A19A33BEB
:10945000FB21F93F0000002E8A19A33BC1492025BA
:109460009A837B39000000002DE9F84F57EC106B10
:1094700027F00049B9F1795F2DED048B5BEC11AB5E
:1094800071DA10EE100A394601F08AFB002800F06C
:10949000F68032463B463046394601F0E7F87CA379
:1094A000D3E9002304460D4601F0E0F87AA3D3E99E
:1094B000002300F025FF22462B4601F0D7F878A3C1
:1094C000D3E9002300F01AFF22462B4601F0CEF824
:1094D00075A3D3E9002300F013FF22462B4601F0C9
:1094E000C5F873A3D3E9002300F008FF22462B46FA
:1094F00001F0BCF870A3D3E9002300F001FF22467D
:109500002B4601F0B3F841EC180B714B00222046BA
:10951000294601F0ABF853EC182B804689462046CB
:10952000294601F0A3F852465B4604460D463046F4
:10953000394601F09BF802460B462046294600F0CA
:10954000DDFE02460B464046494600F0D7FE024685
:109550000B4600205F4900F0D1FEBDEC048B41ECCE
:10956000100BBDE8F88F10EE102A10EE100A3B46E3
:10957000394601F07BF846A3D3E9002304460D46A3
:1095800001F074F844A3D3E9002300F0B9FE2246A9
:109590002B4601F06BF842A3D3E9002300F0AEFEA6
:1095A00022462B4601F062F83FA3D3E9002300F0E6
:1095B000A7FE22462B4601F059F83DA3D3E900232C
:1095C00000F09CFE22462B4601F050F83AA3D3E966
:1095D000002300F095FE2B46224601F047F83E4B53
:1095E000994541EC180B90DD3C4B99453CDC002241
:1095F000A9F50013374900209046994600F07EFEF9
:1096000041EC190B324B00222046294601F02EF87E
:1096100042464B4600F072FE53EC182B80468946BA
:109620002046294601F022F852465B4604460D4684
:109630003046394601F01AF802460B4620462946C4
:1096400000F05CFE02460B464046494600F056FEDE
:1096500002460B4651EC190B00F050FEBDEC048B9A
:1096600041EC100BBDE8F88F9FED157BDFF8709093
:10967000B0EE479AF0EE679A4FF00008C2E7BDECF3
:10968000048B9FED110BBDE8F88F00BFAFF3008096
:10969000D43888BEE9FAA8BDC4B1B4BD9EEE213E5F
:1096A000AD529C804F7E923E9015CB19A001FA3EA0
:1096B0007751C1166CC1563F4C5555555555A53F70
:1096C000000000000000E73F000000000000F03F45
:1096D0000000E03F0000F03F3233D33F0000E93F9D
:1096E0000000D23F000000002DE9F04FADF5197DDC
:1096F000BB4CA29D089354F825400594013B12F100
:10970000140F04900B910393C0F22683B549D31E26
:1097100081FB0301DB17C3EBA10307930133A3EB29
:109720008303DB00D3180693079A039BD41A059A88
:10973000D6181AD40136A39F4FF000084FF0000945
:10974000264420AD08E057F8240000F025FF01343E
:10975000B442E5E8020108D0002CF4DA01344046B6
:109760004946B442E5E80201F6D1059B002BC0F260
:10977000C883089BDDF80C90DA000292059A1A441F
:109780000192049A20A901EBC30A0DF5E07B02EBDC
:10979000C308039B002B4FF000044FF0000511DBC2
:1097A000049E574677E90223F6E8020100F05EFFC7
:1097B00002460B462046294600F0A2FD46450446D7
:1097C0000D46EFD1019B09F101099945EBE80245EE
:1097D0000AF1080ADDD1059A04980CA901EB82036D
:1097E00002990144083B8B460BA90993134601EBF0
:1097F00082020A920193019A98A901EBC203002AFE
:1098000053E928452ADD0DF5E07909EBC2080DF191
:10981000300A754B00222046294600F027FF01F050
:10982000BFF900F0B9FE714B002206460F4600F06A
:109830001DFF02460B462046294600F05FFD01F061
:10984000AFF9044678E902234AF8044B304639461A
:1098500000F056FDC84504460D46DAD1DDF81890F3
:1098600045EC104B484600F0B3FC55EC104B002281
:109870004FF07F5310EE100A294600F0F7FE41EC3E
:10988000100B00F021FC5A4B51EC100B002200F0A1
:10989000EDFE02460B462046294600F02FFD0D4600
:1098A000044601F07DF9804600F076FE0B46024644
:1098B0002946204600F022FD4B46002B06460F4667
:1098C00040F39880019A0CA9013AC9F1180351F8A4
:1098D000225045FA03F101FA03F3EB1AC9F1170517
:1098E0000CA843FA05F5002D40F82230884400F317
:1098F0008B80002200233046394601F01FF90028F2
:1099000000F05682019B059A03F1FF3A524510DCA4
:1099100003F180430CAA013B0A9802EB8303002267
:1099200053F80419834242EA0102F9D1002A40F0B7
:10993000DC80059B0CAA013B52F82330002B40F041
:10994000CF80099A012352F8041901330029FAD073
:1099500001994A1CCB1802939146079B089902EB88
:10996000030A019B0B44984620AB0AF1804A03EBA3
:10997000C808A39B0AF1FF3A03EB8A0A70AB03EB1A
:10998000C20301935AF8040F00F006FE0B46039938
:1099900002460029C8E9002347464FF0000408F1B9
:1099A00008084FF0000511DB049E01E077E902236F
:1099B000F6E8020100F05AFE02460B462046294610
:1099C00000F09EFC5E4504460D46EFD1019BE3E8A6
:1099D00002450193029B09F101099945D2DD09E78E
:1099E000F8B50000ABAAAA2A0000703E0000704142
:1099F000000020406BD1019B0CAA013B52F8235080
:109A0000ED15002D7FF775AF019B002B08F10108C4
:109A100040F3CC810C9C002C51D1019B012B20D018
:109A20000CAB012253F8044F002C4BD0531C0CA953
:109A3000C4F1807441F822400199994210DD0CAACA
:109A40000CA852F8232000EB830300EB81006FF099
:109A50007F4100E01A688A1A43F8042B8342F9D147
:109A60000124069B002B0EDD012B00F06A81022BE6
:109A700009D1019B5A1E0CAB0CA953F82230C3F339
:109A8000150341F82230022D7FF433AF32463B46B6
:109A9000B949002000F032FC06460F46002C3FF486
:109AA00028AF06989FEDB00B00F092FB3046394688
:109AB00053EC102B00F022FC06460F4619E7012359
:109AC0000022B4E7019901328A42ABD1C9E7AB4B1E
:109AD000002201F051F8002840F05681054608E7C1
