:1040000000000320FD6B0000EB6B0000EB6B000079
:10401000EB6B0000EB6B0000EB6B0000000000009E
:10402000000000000000000000000000EB6B00003A
:10403000EB6B000000000000EB6B00007D6C0000EB
:10404000EB6B0000EB6B0000EB6B0000EB6B000018
:10405000EB6B0000EB6B0000EB6B0000EB6B000008
:10406000EB6B0000EB6B0000EB6B0000EB6B0000F8
:10407000EB6B0000EB6B0000EB6B0000EB6B0000E8
:10408000EB6B0000EB6B0000EB6B0000EB6B0000D8
:10409000EB6B0000EB6B0000EB6B0000EB6B0000C8
:1040A000EB6B0000EB6B0000EB6B0000EB6B0000B8
:1040B000EB6B0000EB6B0000EB6B0000EB6B0000A8
:1040C000EB6B0000EB6B0000EB6B0000EB6B000098
:1040D000EB6B0000EB6B0000EB6B0000EB6B000088
:1040E000EB6B0000EB6B0000EB6B0000EB6B000078
:1040F00000000000EB6B0000EB6B0000EB6B0000BE
:10410000EB6B0000EB6B0000EB6B0000EB6B000057
:10411000EB6B0000EB6B0000EB6B0000EB6B000047
:10412000EB6B0000EB6B0000AD520000B9520000D9
:10413000BD520000C1520000EB6B0000EB6B0000B1
:10414000EB6B0000EB6B0000EB6B0000EB6B000017
:10415000EB6B0000EB6B0000EB6B0000EB6B000007
:10416000EB6B0000EB6B0000EB6B0000EB6B0000F7
:10417000EB6B0000EB6B0000EB6B0000EB6B0000E7
:10418000ED6B00008F6C0000936C0000976C0000DA
:10419000EB6B0000EB6B0000EB6B0000EB6B0000C7
:1041A000EB6B0000EB6B0000EB6B0000EB6B0000B7
:1041B000EB6B0000EB6B0000EB6B0000EB6B0000A7
:1041C000EB6B0000EB6B0000EB6B0000EB6B000097
:1041D000EB6B0000EB6B0000EB6B0000EB6B000087
:1041E000EB6B0000EB6B0000EB6B0000EB6B000077
:1041F000EB6B00000000000049430000EB6B000087
:10420000EB6B0000EB6B0000EB6B0000EB6B000056
:10421000EB6B0000EB6B0000EB6B0000EB6B000046
:10422000EB6B0000EB6B0000EB6B0000EB6B000036
:10423000EB6B0000EB6B0000EB6B0000EB6B000026
:10424000EB6B0000EB6B0000EB6B0000EB6B000016
:10425000EB6B0000EB6B0000EB6B0000EB6B000006
:10426000EB6B000010B5054C237833B9044B13B148
:104270000448AFF300800123237010BD50010020DB
:10428000000000008C7E000008B5034B1BB1034901
:104290000348AFF3008008BD000000005401002077
:1042A0008C7E00001B4BB3F900201B4B10B542B3B2
:1042B0001A4AB3F9001012889142A4BF00221A8052
:1042C000B3F90020164931F812001649013208826C
:1042D0001A80154A154BB2F90010B3F90040144882
:1042E0001A4689B1134B0F491B88A342DCBF002338
:1042F0001380B2F9003030F8130048820133138084
:1043000010BD08490A82E3E7064A30F814005082DB
:104310001980F5E778010020822100201400002098
:104320007C010020002400437A010020802100202D
:104330007C11002012000020024A136B0342FCD1C2
:10434000704700BF001C0043032000F0F7BE0000D0
:104350003F4938B500240C800320FFF7EDFF4FF0F4
:10436000801301251A68C2F30223C2F342101B0115
:1043700043EA0023C2F382021343A1F848300B88BA
:10438000022262F30A230B8040F6FF70FFF7D4FF8E
:10439000CB8865F3C403CB8040F6FF70FFF7CCFFFA
:1043A0008B7A64F303038B7240F6FF70FFF7C4FF50
:1043B0008B7A65F306138B7240F6FF70FFF7BCFF34
:1043C000CB7A64F3C713CB7240F6FF70FFF7B4FFEC
:1043D000204B1A78CB7A62F30503CB7240F6FF705C
:1043E000FFF7AAFF8B8864F3C7138B8040F6FF703A
:1043F000FFF7A2FF184B93F878218B8862F3040330
:104400008B8040F6FF70FFF797FF8B88182262F3CE
:104410000C238B8040F6FF70FFF78EFF0B7A03258D
:1044200065F303030B7240F6FF70FFF785FF0B7A0D
:1044300064F3C7130B7240F6FF70FFF77DFF0B8824
:1044400043F002030B802846BDE83840FFF774BFF5
:10445000001C004308000020F079000008B50C495A
:104460008B8860F304038B800B7D43F002030B7594
:1044700040F6FF70FFF760FF00BF00BF00BF91F87C
:104480002E30DB07FBD5B1F8400000B208BD00BFFD
:10449000001C00437047000010B5094C52232F2226
:1044A0000121204600F0E6FE0649074A204603F0B7
:1044B00033F9BDE810400548032100F0B8BC00BF47
:1044C000842100207951000000000020AC61002010
:1044D0002DE9F04F2DED048BCE49CF48CF4E87B05C
:1044E00001F028FA01210D2002F0A0FF00210D208B
:1044F00002F0E0FFCA4800F04DFEC94800F0D0FECF
:10450000C84BC94800241C80C84B1C80C84B40F6CF
:10451000FF721A80C74A0A231360C74A21461360F4
:1045200000F0EDFD012322462146BF48009400F033
:1045300041FD2146BC484FF4966200F0DBFDBF4BC5
:10454000B9480222012100F06BFD2146022002F051
:104550006DFF2146032002F069FF2146042002F08E
:1045600065FF2146062002F061FF0C2002F0A2FD4B
:1045700021460E2002F008FE21460F2002F004FE24
:10458000FFF7E6FE4FF4966308EE103A0623039316
:10459000042309EE103A032308EE903A9E4C0225BC
:1045A000204601F046F90028FAD0204601F06CF9C7
:1045B000C0B231384528F3D801A353F820F000BF2A
:1045C0003D4A0000514B0000F54B0000BD4C00007F
:1045D000A1450000A1450000A1450000A145000043
:1045E000A1450000A1450000A1450000A145000033
:1045F000A1450000A1450000A1450000A145000023
:10460000FB490000094A00001B4A00002D4A000037
:10461000A1450000A145000041490000A14500005E
:10462000D9460000A1450000A14500004147000017
:104630003347000013470000A1450000A1450000DA
:10464000A14500009B490000A1450000E346000091
:10465000A1450000A1450000A1450000A1450000C2
:10466000A1450000A1450000A1450000A1450000B2
:10467000A1450000A1450000A1450000A1450000A2
:10468000A14500007F480000A1450000C948000086
:10469000A1450000A145000087490000E348000053
:1046A000A1450000A1450000A1450000AD47000064
:1046B000E9490000A1450000A1450000D3490000E0
:1046C000A1450000AB490000B94900006548000061
:1046D000A1450000FB4800005949204600F060FE5B
:1046E0005EE701220021204601F068F8554B186072
:1046F00000283FF455AF504B186000EB400000011C
:1047000083B21A464848002108EE103A00F0F2FC45
:1047100046E701220021204601F050F84A4B4B4A5F
:104720001880B2F9002080B28242BFF639AF1A80F9
:1047300036E701220021204601F040F8444BEEE725
:1047400001220021204601F039F800B2B0F5006FD7
:10475000404F03DB40F2FF733B8002E0002823DB85
:104760003880204601F090F8C0B24428DFF8F0808D
:104770000FD101220021204601F020F82C4BB3F983
:10478000003000B29842A8BF18460028A8F80000E0
:1047900002DA0023A8F80030B7F90020B8F80010BA
:1047A0002D4B23F81210FBE60023D5E70122002150
:1047B000204601F003F800B2B0F5006F254F03DB8F
:1047C00040F2FF733B8002E0002821DB3880204666
:1047D00001F05AF8C0B24428DFF884800FD10122DA
:1047E0000021204600F0EAFF114BB3F9003000B27F
:1047F0009842A8BF18460028A8F8000002DA002353
:10480000A8F80030B7F90020B8F80010134BC8E73B
:104810000023D7E780841E007C6500209E210020B5
:104820008421002078010020AC6100207A01002062
:104830007C210020A061002070010020A542000022
:10484000A87900007401002014000020040000205A
:10485000120000206C0100207C0100207C1100204F
:104860007E21002001220021204600F0A7FF9C4B62
:10487000186000283FF494AE9A4B186090E601222D
:104880000021204600F09AFF974A984BB2F9002089
:10489000188080B28242B8BF1A801B88944995481C
:1048A0005A000A8094491A440A809900018093486A
:1048B00019440180924952000A809249DA00C3EB00
:1048C000C3030B80904B32E701220021204600F009
:1048D00075FF8E4B8E4A1880D37A60F30503D3722E
:1048E0005EE601220021204600F068FF894B187027
:1048F00040F6FF70FFF720FD52E60122002120461E
:1049000000F05CFF844BC0B2187030B9804A137A53
:10491000012161F30303137242E6012808D0022843
:104920000AD003287FF43CAE794A0421137AF0E7D9
:10493000774A0221137AECE7754A0321137AE8E7F4
:10494000204600F0A1FF754BC0B26F2822D101278D
:104950001F80734B7348002119800A463B46009123
:1049600000F028FB18EE102A6E48002100F0C2FB70
:1049700039466D4B6B48022200F052FB39466948BC
:1049800000F0BDFB0CE6204600F07EFFC0B2674B96
:104990006F28DBE700211980F1E701220021204682
:1049A00000F00CFF624B1880FAE50122002120463E
:1049B00000F004FF5F4BF6E7204600F065FFC0B251
:1049C0006F2806BF5C4B19680021142002F0DCFB45
:1049D000E6E500210122204600F0F0FE574B18606A
:1049E000554B19681320F1E700210122204600F001
:1049F000E5FE514B01461860F4E7012200212046F4
:104A000000F0DCFE05B2CBE501220021204600F0DB
:104A1000D5FE03B208EE903AC2E5012200212046FD
:104A200000F0CCFE03B209EE103AB9E501220021F4
:104A3000204600F0C3FE03B20393B1E53C4BB3F94B
:104A40000000002808DD3B4B354AB3F900301380E5
:104A50003B4A138002F05AF902F02CF9DFF8E480A7
:104A6000DFF880A0074681464FF0000B1F4B1988E6
:104A7000594516DD2846FFF7F1FC1C4B011208F8DA
:104A8000011B19882F4B03EB0B0C0CF80100DAF813
:104A90000010894402F00EF94845FBD30BF1010BDD
:104AA000E4E702F007F90121C71B0D2002F002FD27
:104AB0002549204600F067FC0A223946204600F0CE
:104AC000A4FC0B4B1A883146204600F0BBFE1F4960
:104AD000204600F065FC00210D2002F0EBFC5FE5B4
:104AE000A4610020A0610020040000200600002036
:104AF000240000200C0000202000002026000020C0
:104B0000220000200A0000200E00002008000020E3
:104B1000001C004310000020280000207801002025
:104B200082210020AC610020A54200007A01002013
:104B3000A86100209C210020180000201C000020FB
:104B4000802100209E210020BB790000827D000092
:104B5000934BB3F90000002808DD924B924AB3F959
:104B600000301380914A138002F0D0F802F0A2F8CE
:104B7000DFF84092074683464FF000088C4B1A88B6
:104B8000424525DD2846FFF769FC824618EE900A6B
:104B9000FFF764FC864B1988864B4FEA2A2209F8F6
:104BA000012B03EB0802844B02F801A01988834B08
:104BB0004FEA202C02F801C019885054804A12682C
:104BC000934402F077F85845FBD308F10108D5E784
:104BD00002F070F80121C71B0D2002F06BFC79492F
:104BE000204600F0D0FB0A223946204600F00DFC9A
:104BF000754B67E76A4BB3F90000002808DD694B85
:104C0000694AB3F900301380684A138002F07EF8D5
:104C100002F050F8DFF89C91DFF894A10746834634
:104C20004FF00008BAF80030434535DD2846FFF75D
:104C300015FC059018EE900AFFF710FC049019EE91
:104C4000100AFFF70BFC059ABAF800E05A4B4FEA3E
:104C5000222C09F801CB06EB080C0CF80E201A8860
:104C6000049B4FEA232E0CF802E0544A12880CF8F9
:104C70000230554B1B8802120CF80320534B1B8843
:104C80000CF803004E4B1B689B4402F013F8584588
:104C9000FBD308F10108C5E702F00CF80121C71B9E
:104CA0000D2002F007FC4749204600F06CFB0A2269
:104CB0003946204600F0A9FB454B03E7384BB3F9D2
:104CC0000000002808DD374B374AB3F90030138065
:104CD000364A138002F01AF801F0ECFF354B0493CA
:104CE000074682464FF00008314B1B88434544DDA0
:104CF0002846FFF7B3FB059018EE900AFFF7AEFBCE
:104D0000834619EE100AFFF7A9FB81460398FFF7C7
:104D1000A5FB059B049A191202F8011B0492244A70
:104D200006EB0801B2F800C001F80C30224B1B88DA
:104D30004FEA2B2C01F803C0204B1B8801F803B06D
:104D4000214B1B884FEA292C01F803C01F4B1B88FD
:104D500001F803901E4B1B884FEA202C01F803C07A
:104D60001C4B1B88C854164B1B689A4401F0A2FFC9
:104D70005045FBD308F10108B6E701F09BFF012184
:104D8000C71B0D2002F096FB0E49204600F0FBFAEF
:104D90000A223946204600F038FB0F4B92E600BF4E
:104DA000A86100209C210020822100208021002079
:104DB000060000209E21002024000020200000206A
:104DC000A0610020BB7900000C000020260000201C
:104DD000220000200A0000200E00002010B5847A76
:104DE000042C10D143189A73436818690028FCD129
:104DF000042C13D0082C15D09CB90C3103EB4101C5
:104E000092B28A800DE01CB900EB41035A82EBE7B5
:104E1000082C04BF8B1D40F82320E5E71944D2B2CB
:104E20000A7710BD063103EB81014A60F9E7017092
:104E300070470000F8B503785A4F033B0622DBB2F7
:104E4000044613FB02F112FB0320002294460126C4
:104E500006FA01F547F821C00131884242EA05020D
:104E6000F6D15148016821EA020101604F4801680A
:104E700021EA02020260A27A082A02D1DA0740F18E
:104E80008C8061680A6812F0010240F08680CB7A5B
:104E900013F0020040F083800B689B073FD494F826
:104EA000243023B194F92810E06A02F02DFB94F825
:104EB000303023B194F93410A06B02F025FB3C4B49
:104EC0004122C3F8E8202289A37A1343626811695A
:104ED0000029FCD1136063681A69002AFCD1E27AC8
:104EE0001A73627B636819690029FCD1FF2119716B
:104EF0002AB163681A69002AFCD101225A71227B07
:104F0000636819690029FCD15A736368186900281D
:104F1000FCD1A27A042A03D0082A2CD0CAB1F8BD49
:104F20001A69002AFCD1627C1A7563681A69002A22
:104F3000FCD1227CDA7663681A69002AFCD1A27B54
:104F40001A7763681A69002AFCD1E27B5A7701203C
:104F5000E5E71A69002AFCD1E28A9A8263681A6935
:104F6000002AFCD1628A9A8363681A69002AFCD1FC
:104F7000A28ADA83EBE71A69002AFCD1226A5A6115
:104F800063681A69002AFCD1A269DA6163681A6948
:104F9000002AFCD1E2691A62D9E70020BFE7104677
:104FA000BDE700BFF0610020EC610020E861002057
:104FB000001C0040F0B51646184A04468C461F46B1
:104FC0000FCA85B004AD05E90F0025789DF828E0EB
:104FD000052D21D8042E04BFFF23237404AB03EB5B
:104FE0008505002055F8103C2073C4E90A00C4E987
:104FF0000D0084F8240084F830006082606120464F
:10500000A4F808C0A672E77284F80DE0636005B0EA
:10501000BDE8F040FFF70EBF05B0F0BDC479000059
:10502000F0B533B3466800782E4F0338C0B200EBBA
:1050300040003D68400000293BD0DFF8B0E0DFF8D9
:10504000B0C0DEF80010022A14D11024844021439D
:105050002C43CEF800103C6004304CF82030224B3A
:105060004FF48041022AC3F88C11D96017D1102364
:105070007372F0BD032A08D12024844021432C43BD
:10508000CEF800103C600530E7E7012494408440EE
:1050900021432C43CEF800103C601044DDE7032A86
:1050A00001D12023E4E7012000FA02F2D2B27272A9
:1050B000DFE7022A06D110243472844025EA040472
:1050C0003C60D6E7032A01D12024F5E7012303FA47
:1050D00002F202FA00F0D3B225EA0000337238601F
:1050E000C7E700BFE861002000E100E0EC610020BC
:1050F000F0610020012901D8FFF770BE70474368B6
:105100001A699207FCD41A68920708D4A1B11A69E7
:10511000002AFCD11A6842F002021A60704759B99D
:105120001A69002AFCD133221A7243689A724268C3
:10513000136823F00203136070470000032870B562
:1051400013D10A4B0A4E9C7A0A4B1B6801251C405E
:1051500044B12C4201D03368984724EA0504043650
:105160006D00F5E7014B3B229A7270BD00C0014112
:10517000F0610020E861002010B50446C06802F02C
:105180000BFBB4F90600002802DB002102F04EF907
:10519000204610BD10B50446B0F90600002807DB14
:1051A000012102F043F9B4F90600002102F082F96E
:1051B0000123637010BD37B50446C0680D4602F088
:1051C000EBFAE27C237C9A420CBF0322042212FBFE
:1051D00005F292B2A2801046019202F0D5FAE06088
:1051E00030B1019A002102F0EDFA658003B030BDC4
:1051F000A0806080FAE7F0B4FF29C1F38107C1F312
:105200008112C1F30115477401F003078CBF00211F
:1052100001210170C168C47C067CC2740574877466
:1052200061B1A41B6142A2EB050561416A426A417A
:10523000914203D0F0BC4188FFF7BDBFF0BC70477E
:1052400038B5437804460D4633B1B0F9060000285E
:1052500002DB002102F0EAF86378E5804BB12846D2
:10526000012102F0E3F828460021BDE8384002F0B1
:1052700021B938BDF8B5002504460F4645701946DA
:105280000572C56045611646FFF7B5FF39462046F1
:10529000FFF791FF20463146FFF7D2FF2046F8BDC9
:1052A0008288C068002102F08DBA0000014801F038
:1052B000A7BB00BF38620020FFF7F8BFFFF7F6BFBB
:1052C000FFF7F4BF13B512491248134C00F0A7F8CA
:1052D0001249134800F0A3F81249134800F09FF850
:1052E0001249204600F09BF84FF08641104800F02C
:1052F00096F81049104800F092F801230022CDE9F9
:10530000003221460D4801F019FB02B010BD00BF6C
:105310000030004034650020586500200034004013
:1053200040650020002001414C6500200040014103
:10533000646500200004004370650020386200208E
:10534000F8B505460E4617460024BC4207D02B6828
:10535000315D1B682846984708B10134F5E72046BF
:10536000F8BD13B50446084659B1019102F0ECFAB4
:10537000236801995B680246204602B0BDE81040F0
:10538000184702B010BD08B5FFF7EBFF08BD0000DD
:1053900008B50249FFF7E5FF08BD00BF807D0000AA
:1053A00038B50546FFF7DDFF04462846FFF7F0FF56
:1053B000204438BDF0B58BB000238DF82430012A8D
:1053C00098BF0A2209ACB1FBF2F602FB1615EBB24C
:1053D000092D0F4694BF30333733DBB2BA4204F89D
:1053E000013D3146EFD92146FFF7BBFF0BB0F0BDC1
:1053F00010B42AB902685DF8044B1268C9B21047AC
:105400005DF8044BD2B2FFF7D5BF38B50546FFF7BC
:10541000EFFF04462846FFF7BBFF204438BD0122BA
:1054200001600271704770B506683568022B45EA65
:10543000827214BF4FF08074002444EA0204346086
:1054400000689DF81040426801F0070141EA8411AC
:1054500014BF5B0300230A431343436070BD10B5C0
:10546000036812051C6802F440120904224301F487
:1054700040310A431A600268536843F44033536072
:1054800010BD0268136843F00103136003681A68D3
:10549000D107FCD4DA69D207F9D4704702681368DF
:1054A00043F0020313600268D3699B07FCD4704782
:1054B00003681A7E12F0010F03D11A7E12F0020F58
:1054C000FAE77047036800225A8370470368187E22
:1054D000C0F3800070470368187EC00970470268F7
:1054E000137E43F08003137670470368588BC0F334
:1054F000400070470268538B43F0020353837047A8
:105500000368187E00F0010070470368986AC0B213
:10551000704703681A7ED207FCD599620120704754
:10552000036801229A757047036801221A75704753
:105530000368124A934213D002F58062934211D05D
:105540000F4A934210D002F5005293420ED0B3F1AD
:10555000864F0DD00B4A93420CD1052040B27047C4
:105560000020FBE70120F9E70220F7E70320F5E739
:105570000420F3E74FF0FF30704700BF00300040D9
:105580000020014100040043052A30B51FD0244CFF
:1055900009010C44E3B12179224C203154F8215007
:1055A0006FF3861544F8215054F821506D06FBD452
:1055B00003B102711B4C6AB9402244F821200BB19F
:1055C000194B8360174A52F821305B06FBD530BD7A
:1055D0006179E1E7012A06D1412244F82120002B1C
:1055E000F0D0124BEDE7022A06D1422244F82120E6
:1055F000002BE7D00E4BE4E7032A07D1432244F8FF
:105600002120002BDED04FF40043DAE7042AD9D161
:10561000442244F82120002BD4D0064BD1E700BF10
:10562000847D0000001C0040000E2707006CDC0297
:1056300000E1F505001BB7002DE9F3410546FFF732
:1056400077FF011E3DDB1022062312FB01331E4AA9
:105650001E4EDFF87CC01A440424C020012732F912
:10566000028BB8F1000F1FFA88F324DB4FEA581EB3
:105670004FEA8E0E0EF1604E0EF5614E03F01F03E1
:10568000E04407FA03F3CEF8803188F80003CEF83F
:105690000030013C14F0FF04E1D12A79019101238B
:1056A0002846FFF771FF2A790199234602B0BDE829
:1056B000F041FFF769BF03F00F03043B3344187652
:1056C000E7E702B0BDE8F081847D000000ED00E076
:1056D00000E100E0F8B504460F4616461D46FFF708
:1056E000ABFF2046FFF7CDFEBB007103226803F03D
:1056F0001C0389B20B43136023688422012F9A751F
:1057000013D1012E0CBF10230823084A6B43B2FBB0
:10571000F3F32268918963F34F3191812268918973
:10572000C3F3CC0363F30C019181F8BD0060E31671
:1057300010B5044601F0B8FAE060236820469B6982
:10574000984700280ADA01F00BFB01F0ADFAE36894
:10575000C01AA3689842F0D34FF0FF3010BD00008C
:105760002DE9F041144F80460C461546012640466F
:10577000FFF7DEFF00281CDB2D281AD0A0F1300334
:10578000092B16D90DB12E2813D0012C0FD0022CC5
:1057900007D1A0F10903172B09D806FA03F33B42FE
:1057A00005D0D8F8003040465B699847DFE74FF0F6
:1057B000FF30BDE8F08100BF130080002DE9F0410B
:1057C000164600220546FFF7CBFF00284FF00004E5
:1057D0001CDB27464FF00A08864208D02D2818D037
:1057E000A0F13003092B02D808FB0404303C2B68DD
:1057F00028465B6998472846FFF79AFFA0F13003D7
:10580000092BE9D98642F2D007B164422046BDE8AF
:10581000F0810127EBE73F20704707B503688DF85B
:1058200007105B6801220DF10701984703B05DF88E
:1058300004FB0069022100F0E1BB0069032100F0D4
:10584000F1BB000010B51346074AD27904461AB9D5
:1058500001236360002010BD0A460069032100F0A7
:10586000CDFC0028F4D0F6E74C00002010B5054C24
:105870002368591C04D103685B699847034620607C
:10588000184610BD98000020064A1368591C03D121
:105890000069022100F0A2BC4FF0FF3111601846F0
:1058A000704700BF9800002003780349023303705B
:1058B0004222024800F03CBD5400002098650020C0
:1058C00010B502784378A12A08D1212B1BD11649A3
:1058D0001648072200F02CFD012010BD212A12D10C
:1058E000202B12D110491148072200F0DBFB0E4B90
:1058F0001A68B2F5966F0ED1D87910F001040AD16A
:10590000FA2001F05BFE0020E7E7222B06D1064BD0
:105910008278DA71EBE701F057FEF4E7232BF2D13E
:10592000034B42881A60EEE74C0000209865002087
:105930004800002070470000054B00224FF47A71A8
:10594000C3E9012103491960034919611A767047B7
:105950007C650020EC7D000098650020704710B544
:1059600001F1080400F00F02D3B2092ACCBF37338B
:10597000303304F8013DA1424FEA1010F2D110BDBE
:1059800010B50446806901F007FFA06A01F004FF2A
:10599000204610BD10B50446FFF7F2FF204601F087
:1059A00005FA204610BD00000329F0B407D12C4BA6
:1059B00053F82000F8B10368F0BCDB68184782296F
:1059C0001BD12849284AC3B201EB43150324AE6911
:1059D00064F31E76AE6102EB80100A6868610833DA
:1059E000580102EB4313197941F080011971135CDE
:1059F00064F306131354F0BC70470029FBD1194D12
:105A0000C2B205EB421303279C6867F31E749C60C7
:105A1000164C083204EB8010586054012868055D6C
:105A2000012666F302050555D3F818C00E4D67F33D
:105A30001E7CC3F818C05D61055D66F3061505554B
:105A400000EB42129868402464F39B309860986899
:105A500061F30D009860537923435371CBE700BF86
:105A60009C650020506A0020C465002084670020E7
:105A7000EFF3108202600122426072B67047036841
:105A800013B962B6BFF36F8F704737B50569044627
:105A90006846A5B9FFF7ECFF019B013B03D394F8DF
:105AA0002450EDB2F9E768460193FFF7E8FF15B916
:105AB000002003B030BD206AE369C01AF9E7FFF7A0
:105AC000D7FF019B0025013B03D394F83450EDB27E
:105AD000F9E768460193FFF7D2FF002DE8D0206B6D
:105AE000E36AEAE74368017A1A6830B502EB4114C9
:105AF00003EB411194F8095145F0010584F809516F
:105B00008C68C56865F39B348C60017A03EB4113A4
:105B100099686FF30D019960037A083302EB431320
:105B20001A7942F040021A7130BDF7B50569044692
:105B30000E4617466846002D41D1FFF799FF019B9D
:105B4000013B5A1C0CD094F82420591E32B96846E7
:105B50000193FFF794FF284603B0F0BD0B46F0E732
:105B600068460193FFF78BFFAF42E36909D0226AD1
:105B70009A4206D9A269591CE161D35C735501357B
:105B8000F2E7226A9A42E6D100260123E661236108
:105B90006846FFF76DFF3746019B013B581CD6D086
:105BA00084F8246094F83520591E32B184F8357099
:105BB00020460193FFF796FFEEE70B46EEE7FFF76F
:105BC00057FF019B013B591C08D094F83420591E03
:105BD00002F0FF05002ABAD00B46F4E768460193AD
:105BE000FFF74DFF0025BD42E36A02D0226B9A42C7
:105BF0001AD8226B9A42AED10026E6622661684628
:105C0000FFF736FF3746019B013B5A1C9FD084F8B3
:105C1000346094F83520591E6AB184F835702046F6
:105C20000193FFF75FFFEEE7A26A591CE162D35CC4
:105C300073550135D7E70B46E7E7436837B5027A76
:105C40001968044602F1080001EB4011C879C00749
:105C500024D5520101251344CD719A686169C2F3BC
:105C60000D0209BB2262226A002A3CD0A26A656149
:105C700068465A60FFF7FCFE019B013B591C2ED081
:105C800084F8245094F83420591E02F0FF003AB1F1
:105C900084F8355068460193FFF7F1FE03B030BD3C
:105CA00084F835000B46E9E72263226BDAB1002263
:105CB0006261A2695A606846FFF7DAFE019B013B08
:105CC0005A1C0CD084F8345094F82420591E02F049
:105CD000FF00002ADCD184F835000B46F0E7684667
:105CE0000193FFF7CCFE2046FFF7FCFED6E713B585
:105CF00000230C460DF107008DF80730FFF7D4FDA7
:105D000023681844206001F0BBFC0DF1070101F08D
:105D100087FC2368184420609DF8070002B010BD7E
:105D200003290BD10C4B1B6893F8642142F08002CD
:105D300083F86421022283F86721704701290AD180
:105D4000054B1B6893F8242142F0800283F824213C
:105D5000022283F827217047506A002038B5354B5E
:105D6000354D9A6942F001029A611A6942F48062E3
:105D70001A61324B93F8582042F0010283F8582000
:105D800093F83C2002F0F00283F83C2093F83C208A
:105D900042F0070283F83C2093F8592042F00102B8
:105DA00083F8592093F83C2002F00F0283F83C203E
:105DB00093F83C2042F0700283F83C20204B4122B3
:105DC000C3F8A82004461F4800F068FF284601F0E9
:105DD00069FC284601F07EFC2B681A786FF3C71225
:105DE0001A701A7842F004021A701A896FF383024B
:105DF0001A81154A002182F8501382F8511382F853
:105E0000521382F853134FF4803191604FF40031F4
:105E100091604FF4802191604FF4002191601A78D5
:105E200042F002021A709A789207FCD40123237080
:105E300038BD00BF00080040506A002000800041CB
:105E4000001C0040A567000000E100E0007880B180
:105E5000084B1B681A896FF300021A811A8B42F0F3
:105E600008021A831A8B42F004021A83024B0022A2
:105E70001A607047506A0020486A00200E4B9A69E9
:105E80006FF30D029A611B68022283F8072193F8D1
:105E9000052142F0800283F8052193F8072192073B
:105EA000FBD54FF082439A7A61F306029A729A7A8E
:105EB00042F080029A727047506A00200B7907B551
:105EC0006BB90846FFF7FCFC18B1012003B05DF880
:105ED00004FB0A4B9A6960F30D029A61F5E70191A0
:105EE00001F0CEFB019901F0BCFB0028EDD1034B82
:105EF0009A6960F30D029A61E8E700BF506A0020DA
:105F0000832A2DE9F8430D46114616D12F4A304910
:105F1000EBB202EB43100326846966F31E748461BE
:105F2000083301EB85155B0111684561CA5C0420EB
:105F300060F30612CA54BDE8F883022A41D1254E07
:105F400056F8250010B103685B699847382000F0C7
:105F50002BFFDFF87880204B03604FF4807900231B
:105F60000362044680F82430C0E90393036343616D
:105F700080F83430C361C36280F83530C0E90185F0
:105F8000484601F001FC0746A061484601F0FCFBD1
:105F9000EBB208EB4311A0628A684FF0030C6CF37C
:105FA0001E728A600833D8F800005B01C25C6CF393
:105FB0000202C2544F602046FFF794FD46F8254088
:105FC000B9E72846BDE8F843FFF7EEBC506A002069
:105FD000C46500209C650020107E000070B5064D51
:105FE0000646012455F824202AB121463046FFF701
:105FF00087FF0134F6E770BD9C000020074B53F883
:10600000210010B103689B681847054BC9B203EB28
:1060100041118868C0F30D00704700BF9C650020E7
:10602000506A002010B50C46FFF7E8FF58B1064B48
:10603000E4B21B68083403EB4414637943F0800333
:1060400063710223E37110BD506A0020134B30B519
:10605000CAB203EB8111124B03EB421008244160DA
:10606000816864F39B31816081686FF30D01816009
:1060700018685501224400EB42110C7944F04004A9
:106080000C718C796406FCD500EB4212D179C907FA
:10609000FCD52B449868C0B230BD00BF8467002097
:1060A000506A002038B50D4B15461A6892F8043135
:1060B00043F040030C4682F804310021FFF7C6FF8D
:1060C000074BA84228BF284621462544A94204D0B0
:1060D00013F8012B01F8012BF8E738BD506A0020B6
:1060E0008467002010B50C4BC9B24C0103EB411181
:1060F00023448A68C2F30D023F2A89BF88688A68F0
:10610000403A62F30D0096BF6FF30D0288608A601B
:106110009868C0B210BD00BF506A00202DE9F0475A
:106120001C462A4B1B6807460E469146002B4AD058
:10613000274B53F8213043B11A6855684946224627
:1061400018462B46BDE8F0471847FFF757FF844233
:1061500004D931463846FFF751FF0446DFF878A0EE
:1061600031463846FFF7BEFFDAF800301949F5B27C
:1061700003EB451301EB861193F8082142F001026D
:1061800083F80821484622464FEA451801F00CFBE7
:10619000B4B131463846FFF731FF88B9DAF800303C
:1061A000083503EB451543442A7942F040022A7131
:1061B0000122EA7193F8092142F0010283F80921D2
:1061C0002046BDE8F0874FF0FF34F9E7486A002029
:1061D0009C65002084670020506A002007B50123D9
:1061E0000DF10702FFF79AFF01280CBF9DF8070089
:1061F0004FF0FF3003B05DF804FB00002DE9F74FCE
:106200001D46344B1B680F461146002B39D0B5F59F
:10621000804F36D8304B5FFA87FA0AF1080903EB52
:1062200087134FF000084FEA491B65B32B4C2C48ED
:10623000266806EB0B029279D20928D0294ADFF8AA
:10624000ACC01268B2FBFCFC274A02FB0CF24FF018
:10625000170CB2FBFCF206EB491C9CF807E01EF0A1
:10626000020F14D110F807E0BEF1000F01D1013A7E
:10627000F3D20123C35504EB4A14A3696FF30D0352
:10628000A3614FF0FF38404603B0BDE8F08F402DCA
:106290004FF00002C2552A46184628BF4022CDE9D9
:1062A000001201F081FA04EB4A14019A606103467E
:1062B000A06906EB491662F30D00A0610220F0719F
:1062C0007079009940F0800070719044AD1A1144CB
:1062D000ABE700BF486A0020C4650020506A002078
:1062E000B9650020C40000207011010040420F0079
:1062F00038B51D460C4B0C4603EB8413114618466B
:106300002A4601F051FA03460848E1B200EB411178
:1063100028464B618B696FF39B338B618B6965F307
:106320000D038B6138BD00BFC4650020506A00209A
:10633000114B1B782DE9F04107468846154653B9A5
:106340000E4B1C7854B10E4E0E48348820442C4419
:1063500001F02AFA34802846BDE8F0811646002E66
:10636000F9D0334608EB040200213846FFF7C0FF9E
:106370000444361AF3E700BF44690020456A002050
:10638000466A002045690020F0B5012A83B00D4619
:1063900000AF14462CD9D31D03F4FC73ADEB030DF1
:1063A00069462846796001F0CFFA013040000323A6
:1063B00079688DF800008DF80130013D0222002639
:1063C000A2420CD215F8010F48B1531CDBB29C421B
:1063D000885403D0CE54931CDAB2F1E72246054824
:1063E000FFF7A6FF003818BF01200C37BD46F0BDEF
:1063F0000020FAE7986500202DE9FF41DFF888804A
:1064000000250E46012769460446009588F800706D
:10641000FFF76DFC40F20923ADF80430A0238DF89E
:106420000B3032238DF80C30009B8DF80A50093365
:10643000092E8DF80970ADF806308DF8080088F83F
:10644000005008D1324601A92046FFF771FF012014
:1064500004B0BDE8F081DFF83480094E00950922D0
:1064600001A9204688F800703580FFF761FF694672
:106470002046FFF73CFC3288024988F80050E3E7E9
:10648000466A00204569002044690020456A0020D2
:10649000F0B5CD78022D93B006460F4608D1C988D5
:1064A0002C48FFF7A9FF003818BF012013B0F0BD3A
:1064B00001F0E6F8394601F0C6F8041E03D0CCBF5F
:1064C00001200020F2E7012D0AD1FA88112A3CD8D8
:1064D0002149D2B262B13046FFF72AFF0120E5E739
:1064E000032D34D1BB782BB9FA88032A2AD91B494A
:1064F0000A78F0E7022B05D1BA7919493046FFF73F
:1065000043FFD3E7012B02D1BA791649F6E7032BF3
:106510001DD1154B01A91868FFF721FA134B03A9E8
:106520001868FFF71CFA124B05A91868FFF717FA4D
:10653000104B07A91868FFF712FABA798DF82440B2
:1065400001A9DBE70549D2B2C4E70349D0E72046F9
:10655000ACE700BF98650020437E0000367E000057
:10656000287E00003A7E0000FC6180001060800000
:10657000146080001860800037B54B780C460B2BF8
:106580000FD8DFE803F0061E0E2F0E4448764B4E60
:106590006A6D097841B9ADF80410022301AAFFF72A
:1065A000A7FE012003B030BD0023ADF80430324B0C
:1065B0001B78012B08BF8DF8043001AA02230021AB
:1065C000EDE78B78012B4FF0000303D1ADF80430D9
:1065D0002A4BEDE7284A1370294A916963F30D01AC
:1065E0009161DEE78C78012C06D1244B00211C70D0
:1065F0008DF804102346D1E7002C3AD11E4B012020
:1066000018701F4B9A6964F30D029A61CAE7897882
:10661000FFF734FCC5E7FFF73BFFC3E7194A012347
:10662000CDE70B7813F01F0523D1FFF7D7FC154BEF
:10663000A2781A60124A136893F8291141F00201F6
:1066400083F8291193F8491141F0010183F84911A8
:10665000936965F30D039361A3E70B4A0123AEE74A
:10666000094B8A781A60064B9A696FF30D029A619A
:1066700097E7002096E700BFB8650020C0650020BE
:10668000506A0020486A00204C6A00202DE9F84337
:106690003F4B1C780746002C6BD13E4D2B689B8BE3
:1066A00019070ED521462046FFF77EF92B6893F88F
:1066B000092142F0100283F80921374A14600822A8
:1066C0009A832B689A8B520744BF04229A8393F8CB
:1066D0000721D60626D5102283F8072193F8042136
:1066E0002E4942F0400283F804210B7813F0600F2A
:1066F000384640D1FFF740FF2B6800283ED093F882
:10670000052142F0800283F8052193F80721540601
:1067100008D5402283F8072193F8082142F040026F
:1067200083F808212B68DFF878901E8C002406F08F
:10673000FE064FF00108E1B2DEB146FA04F3D807D5
:1067400014D52B6804F1080203EB4213DA79D2075F
:1067500002D4DB799B0705D559F82400A0B1036862
:106760001B68984708FA04F326EA03060134092C4B
:10677000E1D1BDE8F883FFF7A1FBBDE74FF082420E
:10678000202182F80511C0E73846FFF7C9FAE9E78A
:10679000456A0020506A0020486A00208467002073
:1067A0009C6500200148FFF771BF00BF986500207D
:1067B000024B4FF082421A60704700BF506A0020BF
:1067C00001207047036840F213421B6A1847D0F853
:1067D0007821D0F874319A421DBFD0F87831C018B2
:1067E000007D4FF0FF30704710B504460069FEF79A
:1067F00048FE0023C4F87431C4F87831C4F8DC32A0
:10680000C4F8E03210BD01F47061B1F5007F08D02A
:10681000B1F5407F07D0B1F5807F14BF002005207F
:106820007047062070470720704701F00F010129CB
:1068300004D0022914BF02200120704700207047B5
:106840002DE9F3410446334E90F8E402182707FB84
:106850000063884693F90810154600F055FE94F839
:10686000E50207FB006393F9081000F04DFE94F871
:10687000E732022B09D194F8F802FF2805D007FB74
:10688000006797F9081000F03FFE94F8E802FF282F
:1068900017D0012100F0CAFD94F8E82218235343D1
:1068A000F118F2561C4B4968D2011344C4F8EC327B
:1068B0001A4B134401228A40C4F8F032C4F8F4227F
:1068C0001A600122434611462069FEF703FF29465C
:1068D0002046FFF798FF2946064605F0F0052046BA
:1068E000FFF7A3FFA5F1300255425541034631465B
:1068F000206900950122FEF796FD206994F8E622B2
:1069000094F8E712FEF7ABFD206902B0BDE8F04154
:10691000FEF7C4BDF07900001880004114800041EA
:1069200010B54FF4AF720446002100F04BFF002376
:10693000C4F860312046C4F8643110BDF8B516467D
:106940001D4600224FF47A73C0E901230F4B044621
:1069500040F8143B0F46FFF7E3FF04F5BE70FFF766
:10696000DFFF9DF8183084F8E6329DF81C3084F87B
:10697000E732FF23276184F8E46284F8E55284F863
:10698000E83284F8F8322046F8BD00BF607E00008F
:10699000D0F86031D0F86401181A48BF00F5AF7024
:1069A000704738B5044600F5BE752846FFF7F0FF7E
:1069B0000028FAD12069BDE83840FEF779BD08B556
:1069C0001430FFF7E5FF08BDD0F86021D0F864313E
:1069D0009A4208DBD0F86031D0F86421C3F5AE707C
:1069E000013010447047D0F86431D0F86001181AB3
:1069F0000138704708B500F5BE70FFF7E5FF08BD28
:106A000010B504460069FEF770FD28B12069FEF755
:106A10007CFD2069FEF76EFD2069FEF757FD20B36F
:106A20002069FEF772FDD4F874214FF4AF71013282
:106A3000B2FBF1F301FB1323D4F8782193421FBF7B
:106A4000D4F8742112191075C4F8743194F8E8322E
:106A5000FF2B0AD004F11400FFF7B6FF0928DEBFB0
:106A6000D4F8EC32D4F8F4221A602069FEF748FD1D
:106A7000F0B104F5BE70FFF78BFF40B3D4F8E0220D
:106A8000D4F8DC329A421FD0D4F8E03223444FF4D9
:106A9000AF7093F87C11D4F8E0320133B3FBF0F21D
:106AA00000FB1233C4F8E0322069C9B2FEF731FDB1
:106AB0002069FEF710FD70B12069FEF710FD206916
:106AC000BDE81040FEF7FEBC4FF0FF31ECE7206957
:106AD000FEF72AFDECE710BD2DE9F0410446006900
:106AE0000D46FEF70DFD002846D1294E294F4FF4E3
:106AF000AF78D4F8DC32D4F8E0120133B3FBF8F20B
:106B000008FB12338B421ED1EFF31083DB0711D445
:106B10007368C3F30803002BEBD0103B9AB2002B31
:106B2000BBBF02F00F03043BDB199B19ACBF93F80A
:106B300000331B7E2069FEF7E3FC0028D9D02046F5
:106B4000FFF75EFFD5E7D4F8DC220132B2FBF8F3A1
:106B500008FB1323D4F8E02293421EBFD4F8DC22B2
:106B6000121982F87C51206918BFC4F8DC32FEF794
:106B7000D7FC0120BDE8F08104F5BE70FFF708FFE7
:106B80000028B2D120692946FEF7C3FCF1E700BF17
:106B900000ED00E000E100E038B5D0F87821D0F851
:106BA00074319A4204461DD0D0F8783103444FF432
:106BB000AF711D7DD0F878310133B3FBF1F201FBE9
:106BC0001233C0F8783194F8E832FF2B08D004F182
:106BD0001400FFF7F9FE0A28C4BFD4E9BC321A60DA
:106BE000284638BD4FF0FF35EDE7FEE7024B1B6846
:106BF00003B11847704700BF546B0020194B1A4867
:106C00001A4A834210B51DD09A421DD01446194627
:106C10008142224611D3834219D1154AD2F88830D5
:106C200043F47003C2F88830BFF34F8FBFF36F8F08
:106C300000F0BEF800F098F8FEE7126841F8042B67
:106C40000434E5E71946E6E719461A46E3E78A42BF
:106C5000E3D0084B084A002101E043F8041B9342AB
:106C6000FBD3DAE70000002050010020907E0000F6
:106C700000ED00E050010020906B002008B500F00E
:106C800070F818B9BDE8084000F062B808BDFFF719
:106C9000ADBFFFF7ABBFFFF7A9BF0000014B186006
:106CA000704700BF546B0020014B1868704700BF4D
:106CB000586B0020124A1349F0B5134D97684B6882
:106CC0002E68C3F3806390684C68D5F800C0C4F3A5
:106CD0008064A3420FD166450DD187420BD3526821
:106CE00042F22220D21B504333444FF47A72534372
:106CF00003EB1050F0BD664623460746E3E700BFAE
:106D000010E000E000ED00E0586B002040B1782377
:106D10005843044B596814385A68521A9042FBD8A9
:106D2000704700BF001000E038B5044670B1FFF7AF
:106D3000C1FF054600F014F8FFF7BCFF401BB0F59B
:106D40007A7FF7D3013C05F57A75F5D138BD00009F
:106D5000024A13680133136000F03EBC586B0020F8
:106D6000704700207047704708B500F015F900F033
:106D7000E7FCFFF7F8FF0120FFF7D6FF0848094CB2
:106D8000FEF7ECFF0648FFF761F8FDF7A1FBFDF702
:106D900081FBFFF7E5FF002CF9D0AFF30080F6E7A9
:106DA000986500200000000000F0EEBC00F0F4BC8C
:106DB0006B4A13889BB213806A4B1A7842F0010227
:106DC0001A705A68D207FCD44FF48272DA625A6899
:106DD0009006FCD44FF4827262491A624A6812F03B
:106DE0000402FBD1604B1A77604A9A6293F82C2018
:106DF00012F01002FAD183F820205B4B1A4693F868
:106E00002C104907FBD4197F41F00201197792F841
:106E10002C309807FBD4536A5362534B1A4693F8AD
:106E20002C100907FBD4982183F820101369D8058A
:106E3000FCD54C4B4E4A5A635A681106FCD4452285
:106E4000C3F88420484B77225A63DA6B5207FCD48C
:106E50004FF400629A63022283F83020424B1A6C8E
:106E60009007FCD51A6CD107F9D53E4A4521C2F8E6
:106E7000881063229A643C4B1A6D5207FCD44FF47D
:106E80000062DA64022283F84420374B5A6D90077F
:106E9000FCD55A6DD107F9D5324B40F206325A6211
:106EA0005A681207FCD44FF442729A625A68D006AC
:106EB000FCD4304A1A632B4B1A4659684906FCD455
:106EC00040F207311962536813F00403FBD12A49D9
:106ED00001224A7101F58051886963F3820088615B
:106EE00072B6264B9A6062B6254AD36843F0807327
:106EF000D360244A136843F0010313604FF08013FA
:106F0000214A1B6803F003019184C3F30222C3F3F7
:106F10004211120142EA0122C3F382010A431B49D2
:106F2000A1F84820C3F38252C3F3C241120142EADE
:106F30000122C3F302431343154AA2F84830154B0C
:106F40001A6802F01F01C2F3441343EA8113C2F32B
:106F5000822243EA02334FF082421385704700BF1A
:106F600000400041001C00400010004000000104EF
:106F700006013000060304000008004000600041E4
:106F8000F0ED00E0001000E000200042001C004393
:106F90000020004384008000404BF7B51B684FF48D
:106FA0007A72B3FBF2F3013BB3F1807F72D23C4AB9
:106FB00053603C4BC02183F82310072000219160CF
:106FC0001060802283F82320374B5A6942F47042C4
:106FD0005A619A6942F4FC429A61DA6942F0780295
:106FE000DA611A6A6FEA92226FEA82221A6203F564
:106FF000A0534122C3F82021C3F8242103F1407398
:10700000009303F5806301936C460425022605274F
:107010004FF4C05C54F8043B1A8865F30A221A80C6
:10702000DA8866F3C402DA801A6B1007FCD4DF72C8
:107030001A6B5206FCD4A3F804C01A6B12F00402B7
:10704000FBD19A72186B10F02000FBD119B300F03D
:1070500037F8164B4422C3F82821D3F828215006CC
:10706000FBD5134A13469168C907FCD4117841F047
:10707000010111709A68D207FCD400225A709A89D3
:10708000022161F30B229A81DA8961F30B22DA8102
:1070900003B0F0BDFEE70121BCE700BFC400002043
:1070A00010E000E000ED00E000080040001C00409F
:1070B00000240043014B1860704700BFC800002047
:1070C0002E4B1A46196BC906FCD42D490B6BDB06F7
:1070D000FCD401382A4B0A284CD8DFE800F0061B04
:1070E000212529324B363A483E00264BDA696FF3A8
:1070F0001342DA61DA6942F00402DA611F4A137A54
:107100006FF30303137292F808346FF3030382F8EA
:10711000083470471B4BDA69012161F31342E8E739
:10712000184B0221DA69F8E7164B0321DA69F4E714
:10713000144BDA69042161F31342DA61DA690A4314
:10714000DBE7104B0521DA69E7E70E4B0621DA6928
:10715000E3E70C4B0721DA69DFE7117A042060F3DB
:10716000030111721A7A60F303021A727047117ADE
:107170000220F4E7117A0320F1E700BF001C00436E
:107180000020004300180040F8B5934B182202FB82
:1071900000320546D36898070C4674D5A5F10E0158
:1071A000012970D88D4B1B680C2B05D08BBF0C3B75
:1071B000C3F10C03DC409C400121284600F0A4F9F7
:1071C000B5F10E06864B18BF01269A5D002A35D10F
:1071D00001229A55834B9A689107FCD4996811F063
:1071E0000101F8D11A7861F341021A707D4B9A6857
:1071F0009207FCD49A68D707F9D4321D03EB4203F7
:107200009A8842F002029A80764B9A689007FCD4E2
:107210009A68D107F9D41A780E2D42F002021A703A
:10722000704B1ED1DA79D207FCD59A685707FCD487
:10723000A2B21A8242F21070FFF768FD694B043661
:1072400003EB4606B2889207FCD50E2D654A11D194
:10725000D979CF07FCD593685E07FCD4A4B2148219
:10726000F8BDDA799007FCD59A681107FCD4A2B270
:107270005A82DFE7D9798D07FCD593681807FCD4CB
:10728000A4B25482ECE713F4427F00F0B5801907F2
:1072900092F91370967C40D50421284600F034F909
:1072A000514A524BD15D53F8273000296DD101214D
:1072B000D1554F4A4F4952F827202032402041F8FB
:1072C00022001A68022F42F001021A602DD91A69B1
:1072D00012F00102FBD1196862F3410119601A69C9
:1072E0009007FCD440F204621A6002221A731A69F1
:1072F0005106FCD41E44E4B234771A695206FCD419
:10730000FF22DA761A699706FCD41A6842F0020264
:107310001A601A699607FCD4A2E7DA0501D505219F
:10732000BBE79B05BCD50621B7E79A6812F00102BE
:10733000FBD1196862F3410119609A689507FCD482
:107340004FF4C0621A600222DA639A685006FCD4D5
:107350009A68D105FCD49A689205F9D4103603EBEB
:10736000860674609A68D705FCD49A689605F9D4A5
:10737000FF221A649A681506FCD41A6842F00202C9
:107380001A609A689407FCD46AE7022F09D91E4450
:10739000E4B234771A695006FCD41A691106F9D49C
:1073A0005EE79A685207FCD49A68D705FCD49A68BD
:1073B0009505F9D41C3643F826409A68D005FCD4CC
:1073C0009A689105F9D41A7942F002021A719A6802
:1073D0005207FCD444E700BFF0790000C800002049
:1073E0005C6B0020002400435E6B00202C0000201A
:1073F000D4790000001C00400121284600F016F856
:10740000094B1B68082B05D08BBF083BC3F1080351
:10741000DC409C407F2C284698BF0021BDE8F84006
:1074200088BF012100F046B8C8000020182310B51D
:107430001F4C5843221892F90830013313D0526878
:1074400023560120904003290DD8DFE801F00225E2
:107450000D19DB0103F1824303F500431A440221B5
:1074600082F84010586010BDDB0103F1824303F540
:1074700000431A44062182F8401058609861F2E7F0
:10748000DB0103F1824303F500431A44062182F82D
:10749000401058605861E6E7DB0103F1824303F5D1
:1074A00000431A44422182F840109860DBE700BF95
:1074B000F0790000182330B5114D58432B1893F97B
:1074C0000820013219D05C682B56D80100F18243A4
:1074D00003F5004301229D68A240154209D12344CF
:1074E0000D1E93F8404018BF012565F3820483F810
:1074F0004040044B034409B95A6130BD9A61FCE72E
:10750000F07900000080004138B51823294D03FBB5
:1075100000F2AC1894F90830B3F1FF3F48D00D29C0
:1075200007DC002919DA01314FF0FF3018BF0020C5
:1075300038BDA1F10E03DBB2032B04D80F2904D10F
:107540000021FFF773FF0020F2E7102901D102218B
:10755000F7E71129F7D10121F3E7AD566468164B1F
:10756000ED0162082B4414F00100C9B21A4410D096
:1075700092F8300000F00F0040EA01112344C9B234
:1075800082F8301093F8402042F0410283F8402006
:10759000D9E792F8305005F0F0052344294382F8EA
:1075A000301093F8402042F0410283F84020BFE7BA
:1075B0001846BDE7F079000000800041014B1860DB
:1075C000704700BFCC000020024B4FF0FF321A6022
:1075D000704700BFCC0000200C4A1368591C13D020
:1075E000013B136083B972B6094B0A4A1A60BFF3B4
:1075F0004F8F0949094BCA6802F4E0621343CB601C
:10760000BFF34F8F00BFFDE7704700BFCC000020E5
:10761000FCFF0220EF6916F000ED00E00400FA051F
:1076200070B544680E4600255CB1236831465B683E
:1076300020469847002802DBE4680544F4E74FF051
:10764000FF35284670BD38B544680D463CB1236807
:1076500029469B682046984710B9E468F6E720461B
:1076600038BD38B544680D463CB1236829461B68CF
:107670002046984710B9E468F6E7204638BD000078
:10768000064A136813F0010306D1054940F202408F
:107690004B6001230880136001487047686B00202D
:1076A0006C6B0020034610B553F8044B227842F06F
:1076B0000102227018464FF48072002100F082F817
:1076C0000346A278D107FCD4A2789207F9D463626A
:1076D00010BD000010B50F4B02681B68108D03F041
:1076E0001F041F2C08BF052464F38A10C3F3441140
:1076F0001085108D1F2908BF1D2161F30400C3F3FD
:1077000082231085118D072B08BF032363F30E31ED
:10771000118510BD840080000B460146184600F01C
:1077200001B8000010B5054C13462CB10A460146BD
:107730000220AFF3008010BD2046FCE700000000EF
:1077400070B50D4D0D4C641BA4100026A64209D146
:107750000B4D0C4C00F01CF9641BA4100026A64233
:1077600005D170BD55F8043B98470136EEE755F852
:10777000043B98470136F2E7340100203401002031
:107780003401002048010020024B0146186800F037
:1077900071B800BFD0000020024B0146186800F00D
:1077A00019B800BFD00000200A44914200F1FF3315
:1077B00000D1704710B511F8014B03F8014F914209
:1077C000F9D110BD02440346934200D1704703F83B
:1077D000011BF9E737B5002948D051F8043C019066
:1077E000002BA1F10404B8BFE41800F0B5F8204A5A
:1077F00001981368154633B96360146003B0BDE89F
:10780000304000F0AFB8A3420BD921686218934210
:1078100004BF1A685B68636004BF521822602C6062
:10782000ECE71A465B680BB1A342FAD91168551808
:10783000A5420BD1246821445418A3421160DDD124
:107840001C685B68536021441160D7E702D90C23A0
:107850000360D3E7256861198B4204BF19685B6830
:10786000636004BF491921605460C7E703B030BDAD
:10787000746B0020F8B5CD1C25F0030508350C2DE0
:1078800038BF0C25002D064601DBA94203D90C2385
:1078900033600020F8BD00F05FF821490A68144603
:1078A0009CB9204F3B6823B92146304600F03CF894
:1078B00038602946304600F037F8431C23D10C23AA
:1078C0003360304600F04EF8E3E723685B1B17D4C3
:1078D0000B2B03D923601C44256004E06368A2429B
:1078E0000CBF0B605360304600F03CF804F10B0015
:1078F000231D20F00700C21ACCD01B1AA350C9E7E1
:1079000022466468CCE7C41C24F00304A042E3D000
:10791000211A304600F008F80130DDD1CFE700BF72
:10792000746B0020786B002038B5064D00230446A8
:1079300008462B6000F01EF8431C02D12B6803B1EF
:10794000236038BD806B0020034613F8012B002A0A
:10795000FBD1181A01387047014800F009B800BF80
:10796000886B0020014800F004B800BF886B00203D
:1079700070477047044A05491368002B08BF0B463F
:1079800018441060184670477C6B0020906B0020F4
:10799000F8B500BFF8BC08BC9E467047F8B500BFFC
:1079A000F8BC08BC9E4670474269747379204D3418
:1079B0002053636F706520342E30007374526561FC
:1079C0006C3D200000380040003C004000A0014118
:1079D00000C0014119000000190000001D00000056
:1079E00009000000090000001A0000001A00000051
:1079F0000000000010000000030000000001000073
:107A0000FF00000100050000000000001100000060
:107A10000300000000010000FF000101010501005A
:107A20000000000007000000010000000A00000044
:107A30000700010401040700010000001600000017
:107A40000E00000004000000FF00FFFFFFFF060023
:107A5000000000000E0000000E0000000001000009
:107A6000FF00000200060E00000000000F000000F2
:107A70000E00000000010000FF00010201060F00DF
:107A800001000000020000000100000002000000F0
:107A90000E00FFFFFFFF02000000000012000000C8
:107AA0000E00000000010000FF00020100060200BD
:107AB00001000000030000000100000002000000BF
:107AC0000F00FFFFFFFF0300000000001300000095
:107AD0000E00000000010000FF000301010603008A
:107AE00000000000140000000E0000000002000072
:107AF000FF000000FFFF0400000000001500000070
:107B00000E00000000020000FF000100FFFF050062
:107B100000000000170000000E000000000200003E
:107B2000FF000300FFFF0700000000001600000038
:107B30000E00000000020000FF000200FFFF060030
:107B40000000000002000000010000000200000030
:107B50000000FFFFFFFF0200000000000500000022
:107B600001000000020000000500FFFFFFFF05000C
:107B700001000000080000000100000002000000F9
:107B80000200FFFFFFFF08000100000009000000E5
:107B900001000000020000000300FFFFFFFF0900DA
:107BA0000000000004000000010000000A000000C6
:107BB00004000003000304000000000006000000B1
:107BC000010000000A000000060000040004060096
:107BD0000000000007000000010000000A00000093
:107BE0000700010401040700000000000C00000071
:107BF0000200000004000000FF00FFFF00050C0071
:107C0000000000000D000000020000000400000061
:107C1000FF00FFFF01050D0001000000170000003C
:107C20000200000004000000FF00FFFFFFFF07004C
:107C30000000000001000000030000000800000038
:107C4000FF00010501050100000000000000000028
:107C50000300000008000000FF0000050005000010
:107C6000000000001B0000000700000000000000F2
:107C7000FF00FFFFFFFF0B000000000018000000E6
:107C80000700000000000000FF00FFFFFFFF0800EA
:107C900000000000190000000700000000000000C4
:107CA000FF00FFFFFFFF09000000000003000000CD
:107CB0000100000002000000FF00FFFFFFFF0300C3
:107CC00000000000020000000100000002000000AF
:107CD0001400FFFFFFFF020000000000050000008D
:107CE00001000000020000001500FFFFFFFF05007B
:107CF000010000000A000000070000000000000072
:107D0000FF00FFFFFFFF0A00010000000B00000062
:107D10000700000000000000FF00FFFFFFFF0B0056
:107D20000000000008000000070000000000000044
:107D3000FF00FFFFFFFF100000000000090000002F
:107D40000700000000000000FF00FFFFFFFF090028
:107D5000000000000A000000070000000000000012
:107D6000FF00FFFFFFFF0A00000000000B00000003
:107D70000700000000000000FF00FFFFFFFF0B00F6
:107D80000D0A00000030004007032E002F003000D5
:107D9000310000000034004008033200330034009A
:107DA000350000000020014117033600370038007D
:107DB000390000000040014118033A003B003C003C
:107DC0003D0000000000004322033E003F00400051
:107DD000410000000004004323034200430044002C
:107DE0004500000000000000000000001B580000DB
:107DF00045580000175800003B5800003358000059
:107E0000895800006D5800000000000000000000CC
:107E10003B5C00002B5B00008B5A00005D590000AA
:107E2000815900009559000049747379426974734F
:107E300079204D34000004030904416461667275C1
:107E400069740012010002EF0201409A232B8000A6
:107E5000010102030100000000000000000000001A
:107E6000D96A000041530000F5690000A3690000D1
:107E7000BF690000996B0000CF670000C567000074
:107E800041680000E9670000C167000000000000D1
:107E900000000000000800040400001C0010002086
:107EA0000F00000400040000F4010000F4010000D1
:107EB000000C0018000800140100000000600141DF
:107EC00000800141000C004200380040003C0040AE
:107ED00000A0014100C00141FFFFFFFF00C20100FF
:107EE00000000800080B0002020200000904000064
:107EF00001020200000524001001042402060524EA
:107F00000600010524010101070581031000100985
:107F1000040100020A0000000705020240000007F9
:107F20000583024000000000FFFFFFFF000000008B
:107F3000830000000200000082000000000000003A
:107F40000000000000000000000000000000000031
:107F500000000000000E27070C000000FFFFFFFFDD
:107F6000D40000200000000000000000000000001D
:107F70000000000000000000000000000000000001
:107F800000000000000000000000000000000000F1
:107F900000000000000000000000000000000000E1
:107FA00000000000000000000000000000000000D1
:107FB00000000000000000000000000000000000C1
:107FC000000000008942000099440000C5520000F2
:107FD00039590000B1670000654200000000000050
:0400000300006BFD91
:00000001FF
