:10200000008000201D6000000560000005600000E9
:1020100000000000000000000000000000000000C0
:10202000000000000000000000000000056000004B
:10203000000000000000000005600000716000006A
:1020400005600000056000000560000005600000FC
:1020500005600000056000000560000009600000E8
:1020600005600000056000000560000005600000DC
:10207000056000008531000005600000056000007B
:1020800005600000056000001D30000005600000D4
:102090000000000005600000056000000560000011
:1020A000056000000560000005600000056000009C
:1020B0000000000010B5064C2378002B07D1054B1B
:1020C000002B02D0044800E000BF0123237010BDA4
:1020D000A00200200000000000DA0000044B10B550
:1020E000002B03D00349044800E000BF10BDC046E8
:1020F00000000000A402002000DA0000024A537E23
:10210000DB09FCD17047C04600400042194B30B596
:102110001968194B194A1B681948002B20D0194B14
:1021200014681B689C4201DB002313601368164C83
:102130005D002C5B01330481136000290FD0134B29
:10214000134A19681268914201DB00221A601A686A
:1021500010495000405E1049013248641A6030BD99
:1021600003811360094A13600029F8D00A4A5364B6
:10217000F5E7C046D4220020D0020020E42A002047
:10218000004800420C000020D4020020E02A002079
:1021900008000020D412002000240042002370B563
:1021A000304C10262370FFF7A9FFFF202E4B2F4A3B
:1021B0001B68126859019B060140D20E5B0F0A434F
:1021C0001B0213432385A388294A0F251A40802325
:1021D0009B001343A380FFF791FF3022A388934312
:1021E0003343A380FFF78AFF7022A378AB43A37029
:1021F000A37893431E43A670E378313A93433E3A63
:102200001343E370A3889343A380FFF777FF1F2155
:10221000184B28331A7823690A408B4313432361F0
:10222000FFF76CFF2369144A1A40C0235B01134374
:102230002361FFF763FF7F226378AB430D3D2B43A0
:102240006370637813406370F02322691B051343A6
:102250002361FFF753FF23781D432570FFF74EFFDF
:1022600070BDC046004000422460800020608000B5
:10227000FFF8FFFFD8D10000FFE0FFFF1F2110B5DE
:102280000B4C020023690A408B43180002231043C1
:102290002061227B13432373FFF730FFC046C04603
:1022A000C046237EDB07FCD5608B00B210BDC04664
:1022B00000400042F8B506000F0015000024BC42A3
:1022C0000DDAA3009859022D01D1290002E0002166
:1022D000012DFAD0013404F0D1F9E4B2EFE7F8BDF2
:1022E000F7B500240600250001270191019B9C42BF
:1022F0000CDAA300985904F01DFA002803D03B0023
:10230000A340ED18ADB20134E4B2EFE7280000219C
:1023100003B0F0BDF7B5051C0800160005F0B8FACB
:10232000184F291C3B68041C019304F021FE00286F
:1023300008D1300005F0ACFA291C061C04F018FE88
:1023400000280BD08022019B12069B183B6001994C
:10235000281C05F0B9F8041C201CFEBD0199281C9E
:1023600004F052FE051C011C201C04F01BFE00287A
:10237000F2D1291C301C04F001FE341C0028EBD1E2
:102380002C1CE9E7BC0200205C4BF0B51D685C4BDF
:1023900085B01B68EA1A0293D343DB171A40594BE6
:1023A00000929A4200DD0093029BEA18D343DB17A8
:1023B0001A40544B01929A4200DD0193524B009A0D
:1023C0001C68019B981A06F0DFFF00224F4B05F0B6
:1023D000C5FD060020000F0006F0D6FF00224C4B82
:1023E00006F0C6F902000B003000390006F0C0F913
:1023F00007F036F8474B484F1860484B3A681B685F
:102400000392012B47D1630000240093039B9C425D
:1024100071DA009806F0B8FF414A424B06F0A8F97D
:10242000060020000F0006F0AFFF02000B00300096
:10243000390006F09DF9060003980F0006F0A4FF8E
:1024400002000B003000390005F088FD00F0E2FECC
:1024500006000F00029806F097FF32003B0006F0DE
:1024600087F9060028000F0006F08EFF02000B001F
:102470003000390005F056FA06F050FFC243D2177B
:10248000294910401F4A63005B18904200DD10008C
:1024900018800134BAE70024022B24D1009805F0FB
:1024A000F7F9051C3B68A34225DD0099281C019A19
:1024B000FFF730FF1D49051C04F074FD00280ED104
:1024C0000021281C04F05AFD00280AD1281C164BB4
:1024D0006600F61805F0BCF901343080E2E71348D5
:1024E000F5E70020F3E7039B9C4204DA0E4A630001
:1024F000D5520134F7E705B0F0BDC046E82A002008
:10250000C4020020FF030000D822002000F88F4002
:102510000000E03FBC0200200C000020F85A002020
:10252000182D4454FB210940D402002000C07F44F0
:1025300070470000F0B5C1498BB0C14802F0C6FA3F
:1025400001210D2004F09AF801210D2004F0C6F8B5
:1025500001220024BB4B1A60BB4B07321A60BB4BF5
:10256000ED32FF321A60BA4B0C321A60B94B1C6064
:10257000FFF70AFF0B22B84B04A81A6014230200CD
:10258000B64F3B60B64B62CB62C262CB62C22200E6
:102590000621FFF78FFEB34E3968300000F090FD42
:1025A000B149300000F0CEFD0A2003F03DFF2100CC
:1025B000200003F083FFFFF7F1FD2100012004F06C
:1025C0005DF82100022004F059F82100032004F0F6
:1025D00055F89B4C200002F0DBF90028F9D02000D0
:1025E00002F0FEF9FF23184030384428F1D804F0F7
:1025F000F5FAA101D3013A02A1021B038903BB032F
:10260000EC033704A704F0FFF0FFF0FFF0FFF0FF4A
:10261000F0FFF0FFF900F0FF0001F0FFF0FFF0FF26
:102620000E01F0FF4500F0FFF0FF76006F00620042
:102630000701F0FFF0FF5D0168014A00F0FFF0FFC5
:10264000EF00F0FFF0FFF0FFF0FFF0FFF0FFF0FF12
:10265000F0FFF0FFF0FFDE00F0FFF0FFF0FFF0FF13
:10266000F0FFF0FFF0FFF0FFF0FFA4009601F0FF95
:10267000F0FF8A01F0FFF0FF7B01D10020007B49D1
:1026800001F092FFA5E701220021200002F04AF9A3
:10269000774B186000289CD0724C704D2860200049
:1026A00000F05EFD2968200000F00AFD20006E4960
:1026B00000F048FD8DE701220021200002F032F9F0
:1026C0006C4B6D4A18601268904282DD1A6080E798
:1026D00001220021200002F025F9684BF1E70122D8
:1026E0000021200002F01EF9654B664E984220DC66
:1026F00030603368002B01DA00233360200002F0E1
:102700006FF9C0B2604D44280BD101220021200096
:1027100002F008F95D4B98420DDC28602B68002B15
:1027200001DA00232B6033682968594A5B0099520B
:102730004FE73360DDE72B60F0E701220021200046
:1027400002F0F0F84E4B4F4E98421FDC3060336879
:10275000002B01DA00233360200002F041F9C0B2FF
:10276000494D44280BD101220021200002F0DAF863
:10277000464B98420CDC28602B68002B01DA0023C2
:102780002B60336829685B00424AD0E73360DEE79C
:102790002B60F1E701220021200002F0C3F83E4B3C
:1027A0001860002800D114E72B4B186011E70122B4
:1027B0000021200002F0B6F82F4A384B126818604A
:1027C000904200DD1A601B68354A5B00136000E729
:1027D00001220021200002F0A5F81A4B1860FFF733
:1027E000D3FDF6E601220021200002F09BF8174BF2
:1027F000F4E701220021200002F094F8124BEDE7EB
:1028000001220021200002F08DF8114BE6E72000A4
:1028100002F0E6F8C3B20F4A12486F2B08D16E3BA4
:10282000136000231F4A104913601F4A13603FE7DB
:102830000023136000F094FCCBE6C04680841E00A9
:10284000545D0020F85A0020D8220020C402002045
:10285000E82A0020D0020020EC5A0020C802002004
:10286000A8D10000FC5A00200D210000C0D10000BA
:10287000CC0200200C0000200000002008000020F6
:10288000FF070000C0020020DC220020FF03000040
:10289000D4020020D4120020F05A002004000020AE
:1028A00018000020E42A0020E02A0020200002F086
:1028B00097F8C0B2CB4B01226F2800D106E7002267
:1028C00004E7200002F08CF88021C0B28900C64CD9
:1028D000C64B6F2803D101222260196479E60022D9
:1028E000226019645A6474E6200002F079F8C0B2DC
:1028F000BF4B00226F281BD1BE4A19681268653889
:1029000003F09CFF65E601220021200002F00AF896
:102910000100B74B1860B74B1A680A20F0E7012294
:102920000021200001F0FEFF0200B24B1860B04B06
:102930001968F2E7AB4B1B68002B07DD0023AE4A9A
:102940001360AE4A1360A033013BFDD103F0A4FB3A
:10295000002602900190AA4FAA4D3B68B34200DCCA
:1029600065E20420FFF78AFCAD1903122B703B6867
:10297000E854042003F0DEFE3F231840A24B019AE6
:102980009855A24B1B68D318019303F085FB019B5C
:102990009842FAD30136DEE7924B1B68002B07DD25
:1029A0000023954A1360954A1360A033013BFDD183
:1029B00003F072FB002507000190914E3368AB4293
:1029C00027DD0420FFF75AFC02901220FFF756FC87
:1029D0000390042003F0AEFE6946029B894A1B1255
:1029E00053553368097AEB18D1540399884A091270
:1029F00051556946097BD1543F231840824B5855A5
:102A0000824B1B68FF1803F047FBB842FBD301352C
:102A1000D3E703F041FB019B0021C51A0D2003F011
:102A20005DFE7C49200001F0B2FD29000A22200051
:102A300001F0F4FD784D73492A68200001F0E2FFAF
:102A40002A687349200001F0DDFF32686E492000DA
:102A500001F0D8FF2000714901F0A6FD01210D20F1
:102A600003F03CFEB5E55F4B1B68002B07DD002340
:102A7000614A1360614A1360A033013BFDD103F04A
:102A80000BFB0024060001905D4D2B68A34224DD62
:102A90000420FFF7F3FB07001320FFF7EFFB029082
:102AA000042003F047FE574A3B1213552B68029946
:102AB000E318D7545A4A091211556946097AD15474
:102AC0003F231840504B1855504B1B68F61803F025
:102AD000E3FAB042FBD30134D6E703F0DDFA019B01
:102AE0000021C41A0D2003F0F9FD4A494D4801F0B8
:102AF0004EFD21000A224B4801F090FD464C414911
:102B00002268484801F07EFF22684549454801F0A7
:102B100079FF2A683C49434801F074FF3F4C414823
:102B2000210001F041FD01210D2003F0D7FD21001E
:102B30003C48A5E52B4B1B68002B07DD00232E4AE4
:102B400013602E4A1360A033013BFDD103F0A4FAB9
:102B50000025070001902A4E3368AB4227DD122082
:102B6000FFF78CFB02901320FFF788FB03900420F3
:102B700003F0E0FD6946029B254A1B12535533685A
:102B8000097AEB18D1540399254A0912515569461F
:102B9000097BD1543F2318401B4B58551B4B1B68D6
:102BA000FF1803F079FAB842FBD30135D3E703F0FD
:102BB00073FA019B0021C51A0D2003F08FFD154902
:102BC000200001F0E4FC29000A22200001F026FD8B
:102BD000114D0F492A68200001F014FF2A6810499E
:102BE00030E7C046F45A0020D422002000240042DE
:102BF0001400002010000020E42A0020E02A002019
:102C000004000020EC2A0020E0220020EC5A0020E2
:102C1000EC3A0020CFD10000180000204AD5000077
:102C2000EC4A0020545D0020B84B1B68002B07DDE8
:102C30000023B74A1360B74A1360A033013BFDD1AC
:102C400003F02AFA002406000190B34D2B68A3423A
:102C50002FDD0420FFF712FB07001220FFF70EFB09
:102C600002901320FFF70AFB0390042003F062FD9B
:102C7000AA4A3B1213552B680299E318D754A84A65
:102C8000091211556946097AD1540399A54A0912C6
:102C900011556946097BD1543F231840A24B185562
:102CA000A24B1B68F61803F0F7F9B042FBD30134CE
:102CB000CBE703F0F1F9019B0021C41A0D2003F0CA
:102CC0000DFD9B499B4801F062FC21000A229948B6
:102CD00001F0A4FC984C91492268964801F092FEBC
:102CE00022688F49934801F08DFE22688D499148F2
:102CF00001F088FE8C492A688E4801F083FE8F49D6
:102D00008C48A9E6814B1B68002B07DD0023804A15
:102D10001360804A1360A033013BFDD103F0BCF97E
:102D20000026029001907C4F7D4D3B68B34200DC51
:102D30007DE01220FFF7A2FAAD1903122B703B6859
:102D4000E854042003F0F6FC3F231840764B019A28
:102D50009855764B1B68D318019303F09DF9019B9E
:102D60009842FAD30136DEE7684B1B68002B07DD7B
:102D70000023674A1360674A1360A033013BFDD10B
:102D800003F08AF9002602900190634F654D3B687D
:102D9000B3424CDD1320FFF771FAAD1903122B700B
:102DA0003B68E854042003F0C5FC3F2318405E4B09
:102DB000019A98555D4B1B68D318019303F06CF989
:102DC000019B9842FAD30136DFE7504B1B68002B7A
:102DD00007DD00234E4A13604E4A1360A033013BC7
:102DE000FDD103F059F90026029001904A4F4B4D56
:102DF0003B68B3421BDD0420FFF740FAAD19031214
:102E00002B703B680621E85404A8FFF769FA3F23BA
:102E10001840454B019A9855444B1B68D3180193B1
:102E200003F03AF9019B9842FAD30136DEE703F04A
:102E300033F9029B0021C61A0D2003F04FFC3C49D8
:102E4000200001F0A4FB0A223100200001F0E6FB83
:102E50002900394B1A68200001F0D4FD3A68F5E5E5
:102E60002A4B1B68002B07DD0023294A1360294ADF
:102E70001360A033013BFDD103F00EF90025029051
:102E80000190254F254E3B68AB4224DD0420FFF71F
:102E9000F5F97619031233703B68F0541220FFF7EE
:102EA000EDF91F4B0212EB181A703A68062198547C
:102EB00004A8FFF715FA3F2318401B4B019A5855F9
:102EC0001A4B1B68D318019303F0E6F8019B984254
:102ED000FAD30135D5E703F0DFF8029B0021C51ACC
:102EE0000D2003F0FBFB1249200001F050FB2900EC
:102EF0000A22200001F092FB0F4D31002A682000C9
:102F000001F080FD2A680649A5E7C046F45A002072
:102F1000E42A0020E02A002004000020EC2A0020FF
:102F2000EC3A0020EC4A0020E0220020EC5A00207D
:102F3000CFD10000545D0020180000204AD50000C9
:102F40002A4B1B68002B07DD0023294A1360294AFE
:102F50001360A033013BFDD103F09EF8002407006D
:102F60000190254D254E2B68A3422ADD0420FFF752
:102F700085F93619031233702B68F0541220FFF7CD
:102F80007DF91F4B0212E3181A702A689854132017
:102F9000FFF774F91B4B0212E3181A702A68062116
:102FA000985404A8FFF79CF93F231840164B185576
:102FB000164B1B68FF1803F06FF8B842FBD30134BF
:102FC000CFE703F069F8019B0021C41A0D2003F03C
:102FD00085FB0F490F4801F0DAFA21000A220D485B
:102FE00001F01CFB0C4C3100226876E6F45A0020FC
:102FF000E42A0020E02A002004000020EC2A00201F
:10300000EC3A0020EC4A0020E0220020EC5A00209C
:10301000CFD10000545D00201800002010B5064CF0
:10302000A37BDB0606D5054B1B6898471023A27BC4
:103030001343A37310BDC046002C0042FC5A00206D
:10304000302359431C4A914218D94B08934225D941
:103050008B08934225D9CB08934225D90B0993427B
:1030600024D98B09934223D90B0A934222D98B0A84
:10307000934200D91300E022D20001E00B000022AD
:103080000E49088802430A800A00D17BC909FCD195
:103090009BB21383D37BDB09FCD1704780225200A3
:1030A000EEE780229200EBE7C022FBE78022E3E715
:1030B000A022E1E7C022DFE7FEFF0000002C004273
:1030C0000E4A0F4B10B51A800E4A5378DB09FCD11B
:1030D00002240D4B1A88A2431A801A8892B21A80D1
:1030E000DA7BD209FCD11C88203222431A80DA7B99
:1030F000D209FCD1FFF7A4FF10BDC0461B40000061
:10310000020C0040000C0040002C004200220B4B3F
:103110005A73597B10320A435A738021084AC902F4
:103120001160022219880A431A80DA7BD209FCD185
:10313000597940320A435A717047C046002C004208
:1031400000E100E010B50160FFF7E0FF10BD0000F6
:103150008021024A53790B4353717047002C00427F
:103160008022074BD202191D10B5CA67BFF34F8FDB
:10317000BFF36F8FC02149005A50FFF7E9FF10BD20
:1031800000E100E010B5024802F07BFE10BDC04631
:10319000005B002013B51249124801F04BFA1249A6
:1031A000124801F047FA1249124801F043FA124955
:1031B000124801F03FFA124C1249200001F03AFA8D
:1031C0001149124801F036FA0023019301330093AC
:1031D0000722053321000E4802F0C2FD13BDC04690
:1031E000000800423C5D0020000C0042405D0020D1
:1031F00000100042445D002000140042485D0020A1
:103200004C5D002000180042001C0042505D002070
:10321000005B002030B5214A4B0087B05B08934229
:103220001EDD1F4A934205DD02000B0005F012FD72
:1032300007B030BD02AA00F035F803231840049A05
:10324000059B012813D002281DD0002814D0029815
:10325000039900F037FA80231B069C466144E7E798
:10326000002300220093002300F0A6FFE0E702986D
:10327000039900F027FADBE70124029803990094F0
:1032800000F09AFFD4E7012402980399009400F01B
:1032900093FF80231B069C466144C9E7FB21E93F5D
:1032A000FFFFEF7FF0B54E464546DE465746E0B598
:1032B000E14B4C008FB09046894664089C4200DC8C
:1032C00087E0DE4B9C4222DCDD4A002900DC92E0F4
:1032D000DC4B05F0BFFCDB4B06000F009C4200D12D
:1032E0007EE1D94AD94B05F0B5FC02000B004146FE
:1032F00030000A604B60390005F0ACFCD34BD24A79
:1033000005F0A8FC434601259860D9606BE0D04BDE
:103310009C4200DC8FE0CF4B9C4200DD55E1CE4A61
:10332000231592469A4451460905631A19001D0057
:10333000040005F0F3FF06F027F802000B00200060
:1033400029000892099305F085FC0022C34B05F083
:103350000FFA0F00060005F0E1FF06F015F8040073
:103360000D0002000B00300039000A940B9505F0A7
:1033700071FC0022B94B05F0FBF9002200230C90F0
:103380000D9103F0BBFD002800D192E10023002243
:103390002000290003F0B2FD434243410133B04A0B
:1033A00041460192022208A80092524600F0A4FA77
:1033B0004B460500002B16DA80224346120694463F
:1033C00042465B68454263445360D3686344D360BC
:1033D00009E00B00020041460A604B600022002316
:1033E00000258A60CB6028000FB03CBC904699460F
:1033F000A246AB46F0BD934B04F094FA914B060005
:103400000F009C4200D13DE18F4A904B04F08AFAB4
:1034100002000B00414630000A604B60390005F0A5
:1034200019FC894A894B04F07DFA012543466D4217
:103430009860D960D7E700F071FF8A4A8A4B06008E
:103440000F0005F095F90022884B04F06BFA05F0A7
:1034500065FF050005F098FF794A7A4B04900591C5
:1034600005F086F902000B003000390005F0F2FB90
:10347000754A06000F0004980599744B05F078F919
:10348000029003911F2D00DCC7E0029A039B3000DD
:10349000390005F0DFFB83468A4653465B0024155E
:1034A0005B0DE31A102B6CDD04980599D322674B52
:1034B000520505F05DF902000B0030003900029260
:1034C000039305F0C7FB0A00010013000691079261
:1034D00002003900300005F0BDFB029A039B05F0A5
:1034E000B9FB06000F0004980599614A614B05F08D
:1034F0003FF932003B0005F0ADFB069E079F0B0035
:103500000200390030000292039305F0A3FB4B0048
:103510005B0D83468A46E41A312C32DD0498059906
:10352000B822544B920505F023F903000C00020069
:10353000029303940B000698079905F08BFB020099
:103540000B0006000F000698079905F083FB029A0E
:10355000039B05F07FFB484A02900391049805996C
:10356000464B05F005F9029A039B05F073FB020038
:103570000B00300039000292039305F06BFB834689
:103580008A465A465346414630000A604B6039002D
:1035900005F060FB029A039B05F05CFB44460B00C0
:1035A0000200A260E3604B46002B00DB1BE75B469A
:1035B000236080231B065344636080231B069C46C4
:1035C0006144A060E1606D420DE70B00020005F070
:1035D00041FB434600259860D9601860596002E7B6
:1035E000D3221A4B520505F035FB214A214B0D0021
:1035F000040005F02FFB02000B00414620000A608A
:103600004B60290005F026FB1A4B194A05F022FBF6
:10361000434601259860D960E5E602000B003000C2
:10362000390005F017FB6B1E154A9B009B5883461B
:103630008A46A342A5D130E7FB21E93F7BD902406E
:1036400000004054FB21F93F3163621A61B4D03D60
:10365000FB213941FFFFEF7FEAFBFFFF00007041D4
:10366000F0D3000083C8C96D305FE43F0000E03F45
:103670007370032E8A19A33BC14920259A837B3995
:1036800070D30000D3220C4B520504F04BF90B4AC7
:103690000B4B04000D0004F045F902000B004146FD
:1036A00020000A604B60290005F0D4FA034A044B5D
:1036B000B9E6032373E6C04661B4D03D7370032EB0
:1036C0008A19A33BF0B54746CE4680B587B0009235
:1036D0000193754B4F00814688467F089F4263DC0B
:1036E00005F01CFE002800D1D4E04A464346484677
:1036F000414605F03DF804000D006C4A6C4B05F0A6
:1037000037F86C4A6C4B04F00DF922002B0005F0E1
:103710002FF86A4A6A4B05F09DFA22002B0005F04B
:1037200027F8684A684B04F0FDF822002B0005F0EA
:103730001FF8664A664B05F08DFA22002B0005F053
:1037400017F8644A644B04F0EDF822002B0005F0F2
:103750000FF8029003910022604B2000290005F031
:1037600007F8029A039B06000F002000290004F0CE
:10377000FFFF009A019B04000D004846414604F0FB
:10378000F7FF02000B002000290005F063FA020099
:103790000B003000390005F05DFA02000B0000203C
:1037A0004F4905F057FA70E002000B0004F0E0FF0B
:1037B00004000D003D4A3E4B04F0DAFF3D4A3E4B0B
:1037C00004F0B0F822002B0004F0D2FF3B4A3C4B3F
:1037D00005F040FA22002B0004F0CAFF394A3A4BA8
:1037E00004F0A0F822002B0004F0C2FF374A384B47
:1037F00005F030FA22002B0004F0BAFF354A364BB0
:1038000004F090F82B00220004F0B2FF354B029038
:1038100003919F429FDD344B00229F423DDC3349A0
:1038200000207B182E4916001F0005F013FA0490A3
:1038300005910022294B2000290004F099FF320055
:103840003B0005F007FA029A039B06000F002000D8
:10385000290004F08DFF009A019B04000D004846EA
:10386000414604F085FF02000B002000290005F00E
:10387000F1F902000B003000390005F0EBF902000D
:103880000B000498059905F0E5F907B00CBC9046CB
:103890009946F0BD00201249F7E7154B0026049227
:1038A0000593144FC5E7C046FFFF3F3ED43888BE9E
:1038B000E9FAA8BDC4B1B4BD9EEE213EAD529C80D4
:1038C0004F7E923E9015CB19A001FA3E7751C1165A
:1038D0006CC1563F4C5555555555A53F0000E03F2E
:1038E0000000F03F3233D33F0000E93F0000E0FF2B
:1038F0000000E73F0000D23FF0B5DE464E464546A9
:103900005746E0B5DC4CA5440D9114001900A49A6B
:103910000993DA4B9200D6584D1E03901821E01EF1
:103920000696029503F0EEF9C3430100DB17194038
:103930004B1C9A009B1ADB001B190B9105934C1B27
:10394000771918D4A59BA5009C463F1922AE654463
:10395000013707E0286805F017FD013403C6043578
:10396000BC4208D0002CF5DA00200021013403C647
:103970000435BC42F6D1069B002B01DA00F0FDFBBA
:10398000069B03990133DB009A46099BDA009446B3
:1039900000920022914672AA0492B94A6144934669
:1039A00088469AAB63449B44029B002B00DABCE13F
:1039B0005D4600260027039C4D442A686B6803CCB3
:1039C00004F0D6FE02000B003000390003F0AAFF1D
:1039D000083D06000F004445EFD1049B4B441E6098
:1039E0005F6008239C46E144D145DDD10EA8042147
:1039F0008446494261448C46069A93009C44614641
:103A000084460A910399083B63448C460C93009BBF
:103A1000009263449B46009A0498D10003008C46B0
:103A2000634408911E685F68002A33DD954980462B
:103A30008C466244D300984470AB9A460EAB9946CC
:103A40000022914B3000390004F092FE05F066FC34
:103A500005F09AFC00228D4B04000D0004F088FE56
:103A600002000B003000390005F0F4F805F056FCB8
:103A70004B4601C39946434620001A685B682900FB
:103A800003F050FF08235B429C46E04406000F0011
:103A9000D045D5D1059B30001A003900984600F07A
:103AA000DDFCFF2300229B0504000D0004F060FEF6
:103AB00000F038FC0022764B04F05AFE02000B00A6
:103AC0002000290005F0C6F80D00040005F026FCD2
:103AD000814605F059FC02000B002000290005F08A
:103AE000B9F8060040460F00002800DCEEE0009B1D
:103AF00018215A1E92000EAB9B58091A1D000D4149
:103B0000A9448D405D1B0EAB9D5017231B1A1D4110
:103B1000002D2DDD01239C46009BE144002B00DCA1
:103B20001CE20E9C0123002C00D0B5E0009A012A73
:103B300009D099000EAA54580133002C00D0ACE0F3
:103B4000009A9A42F5D1059B002B0EDD012B00D186
:103B5000A8E1022B09D1009B0EA95A1E92000EABC0
:103B60009B5807939B029B0A8B50022D00D1C1E00A
:103B7000002300223000390003F0C0F9009B002828
:103B800000D194E2069A591E8A4210DC414A0A98F2
:103B900094460EAA6344944600229B0063441C682A
:103BA000043B22438342FAD1002A00D0C0E0069BA6
:103BB0000EAA013B9B00D358002B00D0B3E001229A
:103BC0000C9B043B596801320029FAD0009B9C46AB
:103BD0006244110007921A0001338B4246DC0B98B5
:103BE00063468046A59C4344A046099C9B00A14691
:103BF0004A449844D30022AA9146049A9944944690
:103C0000089BA59A63448446614494469A468B0077
:103C1000634400934346586805F0B6FB4B46186072
:103C20005960029B002B24DB4D46039C0026002795
:103C300001E0286869680CCC04F09AFD02000B00D2
:103C40003000390003F06EFE083D06000F005C45B1
:103C5000EFD153469E60DF6004239C460433E0446A
:103C60009C46009BE144E2449845D3D1079B0093D6
:103C7000D1E600260027ECE794FDFFFF38D50000D1
:103C800018FEFFFFFFFFFF1F0000703E00007041A5
:103C900000002040FFFFFF3F002180225204141B40
:103CA0000EAA5450009999420EDD0EA884469B003E
:103CB0000EAA8900D25861446344CF4800E01A68D4
:103CC000821A04C38B42FAD101243CE7059B002BE6
:103CD00006D1009B0EAA013B9B00D558ED1517E7B6
:103CE0000022C64B300003F02DF9002800D024E15B
:103CF00000253DE732003B000020C14904F0AAFF47
:103D000006000F00002C00D132E7059A0020BC49C4
:103D100000F0A4FB02000B003000390004F09AFF11
:103D200006000F0024E7012250E70026002754E692
:103D30004B46059A079388468B000EA9CB58183A34
:103D400008950592002B0DD18C464146AD4B43445E
:103D50009B006344043B58680139183A0028F9D0A5
:103D600088460592059A0020A54900F077FB434656
:103D700004000D00002B00DA05E29E000EAB9C460D
:103D80004346DB0066449C46059370AB9946049F0E
:103D900067440097306805F0F7FA22002B0004F022
:103DA000E7FC002238607960974B2000290004F07E
:103DB000DFFC083F04000D00043EB945EAD14AABE0
:103DC00003939B4600239A46069B424699464346E8
:103DD0000132029204934B46002B00DAAAE08020C5
:103DE0008A4B009D9846C00589490026002700247B
:103DF00008E008239C460835E044544511DC43465E
:103E0000186859682A686B6804F0B2FC02000B005D
:103E10003000390003F086FD013406000F00A14593
:103E2000E7DA5B46C0C39B4601239C46009BE24405
:103E3000083B0093029B9A45CDD1049B9846A49BD6
:103E4000022B00DD8EE0002B37DC1FD1059B002705
:103E50001D00039B00249C461E006544083E2A6802
:103E60006B683800210003F05DFD083D07000C0081
:103E7000AE42F4D1089B002B03D080231B069C4646
:103E800064443A0023000D990A604B600720079BA9
:103E900018409B239B009D443CBC90469946A246FB
:103EA000AB46F0BD009B0EA95A1E92000EAB9B586C
:103EB00007935B025B0A8B5057E64346002B00DA00
:103EC00070E100200021DB004AAAD61848AF326812
:103ED0007368083E03F026FDB742F8D1089B002B1B
:103EE00000D025E10B0002004A984B990D9C2260FE
:103EF000636004F0AFFE434607000C00002B13DDA7
:103F000001254CAEB14638002E0021004C4601364A
:103F10000CCC03F007FDA146B045F7DA089B07007B
:103F20000C00002B00D015E13A0023000D998A60A7
:103F3000CB60ABE70026002773E701239C46009B7C
:103F4000E1440225002B00DDEBE532003B000020C0
:103F50002B4904F07FFE06000F0009E60024F2E57D
:103F60004AAB0393A49B032B00D08FE74346002B5F
:103F700000DC14E1039ADB009B46130091465B448E
:103F80001E685F68234B43440293DB00994448ABAF
:103F90009A464B465C681B681800210032003B00C3
:103FA0000090019103F0BEFC04000D0002000B0024
:103FB0000098019904F04EFE3B00320003F0B2FC81
:103FC0004B469860D9601C605D6008235B429C464C
:103FD000E14426002F00CA45DBD14346012B00DC1B
:103FE000E3E0039A13005B441E685F68029BDB00FA
:103FF00099464A44904610E0FFFFFF000000E03F72
:104000000000F03FFFFFFF3F0000703EF8D40000CB
:10401000FB21F93FFFFFFF1F984643465C681B6882
:104020001800210032003B000090019103F07AFC5F
:1040300004000D0002000B000098019904F00AFE34
:1040400032003B0003F06EFC4346039A9860D9604F
:104050001C605D60083B26002F009A42DCD14D4673
:104060009446002600244746083565442A686B6854
:104070003000210003F056FC083D06000C00AF4262
:10408000F4D1039B4A9F5D689968D868089B002B10
:1040900065D08022120694460D9B654460446444BA
:1040A0001F605D609960D8601E615C61EEE69A46B3
:1040B0004B460793059B30005A423900089500F0A3
:1040C000CDF900223A4B06000F0002F03BFF00281A
:1040D00024D0384B00223000390004F049FB05F0B1
:1040E0001DF952460400950005F04EF90022304BB0
:1040F00004F03EFB02000B003000390004F0AAFD82
:1041000005F00CF90EAA50510122059B52441833B8
:104110009046059393000EAAD45023E653463000F0
:1041200039009C0005F0FAF80EAB1851D04619E69C
:1041300080230D9A1B06CB18106053600B00020001
:104140004A984B9904F086FD434607000C00002B6B
:1041500000DDD5E680231B069C466444E4E62B0084
:104160003A000D9D2A606B600A000300AA60EB60B4
:10417000320023002A616B6188E6099BDB00009313
:1041800072AB049332E4A49B022B00DDE8E6002B23
:1041900000DD92E600D079E6002700246AE60026DA
:1041A00000246EE70020002198E60026340068E72E
:1041B000000070410000703EF0B5CE46474680B525
:1041C00087B000920193474A4B00814688465B08BE
:1041D000934207DC4146484605F0A0F84146031EDD
:1041E000484666D04A4643464846414604F0C0FA2F
:1041F00004000D0002000B004846414604F0B8FAE6
:10420000394A3A4B06000F002000290004F0B0FAAA
:10421000374A384B04F01EFD22002B0004F0A8FAA8
:10422000354A364B03F07EFB22002B0004F0A0FA47
:10423000334A344B04F00EFD22002B0004F098FAB0
:10424000314B324A03F06EFB0E9B02900391002B20
:1042500034D00098019900222D4B04F089FA029A7B
:10426000039B049005913000390004F081FA0200AC
:104270000B000498059904F0EDFC22002B0004F0DB
:1042800077FA009A019B04F0E5FC224A04000D0035
:10429000214B3000390004F06BFA02000B002000C3
:1042A000290003F03FFB02000B004846414604F0A2
:1042B000D1FC07B00CBC90469946F0BD02000B0043
:1042C0002000290004F054FA124A134B04F0C2FCF7
:1042D00032003B0004F04CFA4A46434603F022FB0E
:1042E000E7E7C046FFFF3F3E7CD5CF5A3AD9E53DD0
:1042F000EB9C2B8AE6E55A3E7DFEB157E31DC73E97
:10430000D561C119A0012A3F1111813FA6F81011F2
:104310000000E03F495555555555C53F49004B08EC
:1043200019007047474AF0B54F4691464B005B0D68
:1043300099444646D6464A46C0B505000C000E00D4
:1043400088460700132A27DC002A4BDB3E4B13412B
:104350009A460B0052461340034318D03B4A3C4B4D
:104360002800210003F0DEFA0022002302F0E0FD25
:10437000002847D0002C04DA80234A465B0313410F
:1043800098444646534600279E43380031001CBCE3
:1043900090469946A246F0BD332A08DD8023DB0013
:1043A0009945F4D102000B0003F0BCFAEFE7294A6B
:1043B0009446012263445242DA4092460242E6D0D9
:1043C000224A234B2800210003F0ACFA00220023EC
:1043D00002F0AEFD002815D0002C1EDB53464646E9
:1043E0009F430FE0194A1A4B2800210003F09AFA64
:1043F0000022002302F09CFD002803D0002C04DBE7
:104400000027002638003100C1E764006408254316
:104410000027002DF6D0104EF4E74B46142B0BD09E
:104420003422D21A012393405D19BD4208D20123E0
:104430009C462F00E044D1E7133B9C46E044CDE787
:104440002F00CBE701FCFFFFFFFF0F009C750088EA
:104450003CE4377EEDFBFFFF0000F0BF4B0070B582
:104460005B0D14000A00002B1AD14B005B080343BC
:1044700015D0234B002204F07BF9224B9C422DDB0C
:104480000A004B005B0D363B1F4DE318AB422ADCA4
:10449000002B0DDD1D4C1B0522401A43110070BD81
:1044A0001B4DAB42F0D102000B0003F03BFAF6E7E4
:1044B0001D00353519DA174B02009C4209DD0B004F
:1044C0001548164900F032F8134A144B04F050F91D
:1044D000E5E70B001248134900F028F8104A114B89
:1044E00004F046F9DBE70200E9E7084C36332240E6
:1044F0001B051343190000220B4B04F039F9CEE7DA
:1045000000005043B03CFFFFFE070000FFFF0F809C
:10451000FF07000050C300009C7500883CE4377E14
:1045200059F3F8C21F6EA5010000903C30B54A0057
:10453000DB0FDB0752081A43110030BDF7B5060048
:104540000D000C008B180193019B671B9C4207D048
:10455000336821781B683000984701340028F3D174
:104560003800FEBD70B5040008000D0005F0C6FF60
:104570002368020029005B682000984770BD10B5D1
:104580000B1E02D0FFF7EEFF0300180010BD10B5A0
:10459000FFF7F5FF10BD000010B50249FFF7E2FF7D
:1045A00010BDC04648D5000070B50400FFF7E7FF16
:1045B00005002000FFF7F0FF401970BDF0B58BB08B
:1045C0006B461500002205330600DA770800012D3E
:1045D00000D80A2509AC290002F090FBCAB21300EA
:1045E00037330700DBB2092902D813003033DBB2BE
:1045F000013C2370002FEED121003000FFF7BFFFF8
:104600000BB0F0BD10B5002A04D10368C9B21B6815
:10461000984710BDD2B2FFF7D1FFFAE770B5050099
:10462000FFF7F0FF04002800FFF7B6FF201870BD69
:1046300010007047016070479446F0B59E1E721ED0
:1046400096416246056892072F6836063A43324320
:104650002A60072505AC24780068A401294021437D
:1046600042680024022B00D05C03114321434160C7
:10467000F0BD30B5C0250368AD031C6812052A40A3
:104680002243C0240904A402214011431960036895
:104690005A6814435C6030BD0123026811680B4303
:1046A000136003681A68D207FCD4DA69D207F9D418
:1046B00070470223026811680B4313600268D369D4
:1046C0009B07FCD4704703681A7ED20702D41A7E77
:1046D0009207FCD57047002203685A83704703682D
:1046E000187E4007C00F70470368187EC0097047E6
:1046F000802302685B42117E0B4313767047036888
:10470000588B8007C00F704702230268518B0B4300
:10471000538370470368187EC007C00F7047036853
:10472000188DC0B2704703681A7ED207FCD589B2D3
:10473000012019857047012203689A75704701228C
:1047400003681A75704700000368104A934213D03B
:104750000F4A934212D00F4A934211D00E4A93420D
:1047600010D00E4A93420FD001200D4A404293428E
:1047700001D1063040B270470020FBE70120F9E785
:104780000220F7E70320F5E70420F3E700080042E2
:10479000000C0042001000420014004200180042C9
:1047A000001C0042F8B5FFF7CFFF00282CDBC30048
:1047B0001C48FF22C01805230479C3560320184063
:1047C000C0008240C021D2438140002B1DDB1F2549
:1047D00001201D40C026A840134D7600A851C026D8
:1047E0009B089B005B19B6009F593A4011439951B1
:1047F00028603F2323408024E4011C430B4B5C8052
:104800005A7852B2002AFBDBF8BD0F200340083B68
:1048100007489B089B001B18D86902401143D961C7
:10482000E7E7C0464CD5000000E100E0000C004086
:1048300000ED00E0F8B504000F0016001D00FFF7C2
:10484000B1FF2000FFF728FF1C21BB000B407107C0
:104850002268090C0B431360842322689375012F8F
:104860001AD11021012E00D008390C4B6943186869
:10487000C00002F0BDF90722216802408B89520373
:10488000DB04DB0C13438B81226803049089DB0C6F
:10489000400B400318439081F8BDC046B000002093
:1048A00010B5040001F0F2FBE060236820009B6972
:1048B000984700280ADA01F041FC01F0E7FBE368C1
:1048C000C01AA3689842F0D30120404210BD0000F6
:1048D000F8B504000D00160001272000FFF7E0FFE7
:1048E00000281CDB2D281AD00300303B092B16D9D9
:1048F000002E01D02E2812D0012D0ED0022D07D16E
:104900000938172809D83A008240054B1A4204D0CA
:10491000236820005B699847DFE701204042F8BD2B
:1049200013008000F8B51700002205000024FFF7EF
:10493000CFFFA0421CDB2600874209D02D2819D0CA
:104940000300303B092B03D80A235C432418303C76
:104950002B6828005B6998472800FFF7A1FF030038
:10496000303B092BE8D98742E6D0002E00D06442C4
:104970002000F8BD0126EBE73F20704713B56B46DA
:104980000268D9710733546819000122A04716BD87
:1049900010B50221006900F00BFD034B1B680133C9
:1049A0005A1E9341181810BD8400002010B5032131
:1049B000006900F013FD10BD10B50321006900F07F
:1049C000DBFC10BD10B5054C23685A1C04D10368EC
:1049D0005B69984703002060180010BD8400002028
:1049E000074B0200186810B5411C03D00122524247
:1049F0001A6010BD0221106900F0DAFDF9E7C04627
:104A00008400002010B51300094A0400D079C0B218
:104A1000002805D1627E002A02D00123636006E0EF
:104A20000A002069032100F0D1FD0028F5D010BD57
:104A30003800002010B50378422202330370024987
:104A4000024800F06FFE10BD40000020705D0020A5
:104A500010B50178020043780020A12908D1212B4C
:104A600005D107221649174800F05CFE012010BD51
:104A70002129FCD1202B13D107221149114800F024
:104A8000F1FC96220E4BD200196891420ED10124FE
:104A9000D87904400AD1FA2001F09EFF0020E6E711
:104AA000222B06D19278064BDA71EAE701F09AFFE1
:104AB000F4E7232BDBD15288034B1A60D7E7C046BB
:104AC00038000020705D0020340000200123437670
:104AD00070470000FA220021054B92009A60054AB7
:104AE000596008321A60044A19761A617047C04644
:104AF000545D00207CD50000705D00207047704739
:104B000070B50F26CB1D013902003240D5B22C0002
:104B100000093034092A00DD07341C70013B8B4248
:104B2000F2D170BDA02110B50400490002F047F891
:104B3000200010BDF8B5032908D1304B8000C058C3
:104B4000002802D003689B689847F8BD822919D1D4
:104B5000C3B22B4D5A01AA1891692A4C80010C400E
:104B6000C0218905214391612749083340187021EC
:104B7000506128685B011A5C8A43110030220A43A5
:104B80001A54E2E70029E0D1C026C1B21C4C4B0107
:104B9000E3189A681B4DB6052A4032439A601B4AB7
:104BA000800182185A600A000727246808325201DF
:104BB000115DB9430F000121394311559F69124915
:104BC0003D4040182E439E6158617020115D814325
:104BD000080010210143115599680D48A21808409A
:104BE00080214903014399609968890B8903996081
:104BF000402311790B431371A7E7C046745D002071
:104C000028620020FFFFFF8F9C5D00205C5F00207A
:104C1000FF3F00F0EFF3108303600123436072B69F
:104C200070470368002B02D162B6BFF36F8F7047E5
:104C3000F7B50500FC35EB690600002B18D1962767
:104C40007F00C45D6846FFF7E5FF019BE4B2013BCE
:104C500002D3F45DE4B2FAE768460193FFF7E1FF9F
:104C6000002C01D10020FEBDE86AAB6AC01AFAE749
:104C70006846FFF7CFFF9E220024019B5200013BB4
:104C800002D3B45CE4B2FAE768460193FFF7C9FFC8
:104C9000002CE7D0E86BAB6BE8E7000030B5446868
:104CA000FC3043698069DBB25A01A2189168094D52
:104CB0008004294000090143916091680833890B01
:104CC0008903916022685B01D318402219790A4355
:104CD0001A7130BDFF3F00F0F7B50500FF21FC352C
:104CE0006A6943680A401B68083252019A18D379EE
:104CF0000400DB0754D50126D6716B6962680B404E
:104D00005B01D318286A9A689204920C002822D179
:104D1000EA62EA6A002A40D06A6B2E6268465A60EC
:104D2000FFF778FF9E273E21019B7F00013BFF316B
:104D30005A1C2ED096225200A654E25D581ED2B2C2
:104D4000002A05D0665468460193FFF76AFFF7BD55
:104D500062540300ECE7EA63EA6B002A1DD00022EC
:104D60002A626A6A68465A60FFF754FF96273E2116
:104D7000019B7F00013BFF315A1C0AD09E2252004A
:104D8000A654E25D581ED2B2002ADBD16254030061
:104D9000F2E768460193FFF744FF2000FFF77EFF2C
:104DA00063681A686B69DBB208335B01D3187F2232
:104DB000DA71CCE7F7B5070068463C00FFF72AFF39
:104DC0000026FF22019BFC34013B0DD3E0682169E2
:104DD000884204DBE6682069961B3618F4E72669EA
:104DE000E168761A013EEFE768460193FFF719FF85
:104DF000E3696846002B52D1FFF70CFF9621019B17
:104E00004900013B5A1C0CD07D5C5A1EEDB2002DAE
:104E100005D168460193FFF704FF2800FEBD13008B
:104E2000F0E7684601930025FFF7FBFEFF21A36A28
:104E3000B54214D0E26A9A4211D95A1CA262626A3F
:104E4000D3181878E36822690133C0B20B4093424B
:104E500003D0E268BA181072E3600135E7E7E26A4E
:104E60009A42DAD10023A3620133E36168469624B3
:104E7000FFF7D0FE64003E220021019BFF32013B80
:104E8000581CC6D03955B85C5E1E002805D0B954F0
:104E900038000193FFF702FFEDE73300F0E7FFF77B
:104EA000B9FE9E21019B4900013B5A1C06D07D5C46
:104EB0005A1EEDB2002DACD01300F6E76846019300
:104EC0000025FFF7AEFEFF21A36BB54202D0E26BD7
:104ED0009A421DD8E26B9A429FD100236846A36391
:104EE000E3619E24FFF796FE64003E220021019BB1
:104EF000FF32013B581C00D18BE73955B85C5E1E70
:104F0000002817D0B95438000193FFF7C7FEECE72B
:104F10005A1CA263626BD3181878E36822690133C4
:104F2000C0B20B40934203D0E268BA181072E3603B
:104F30000135C9E73300DDE710B50400FFF73AFF9C
:104F40002300FC331969DA68914203D01B69E41825
:104F5000207A10BD01204042FBE710B50400FC346C
:104F6000FFF728FFE0682369C01A01D50130FF3040
:104F700010BDF0B585B0019200910500FFF71AFF52
:104F800002A8FFF747FE01200024FF26039B4042B2
:104F90005A1E531C1FD02B00FC3301998C4218D28F
:104FA000D9681F69C91B01D50131FF31002910D013
:104FB0001969DF688C460100BC4506D019691F6974
:104FC000691801373740097A1F61009F395501344C
:104FD000E3E7013ADDE702A80392FFF722FE200093
:104FE00005B0F0BD37B56B46DC1D00230D00200079
:104FF0002370FFF71FFD2B681818286001F07AFD59
:10500000210001F033FD2B681818286020783EBD80
:1050100002220B0010B593430C00012B0BD10D4B5A
:1050200008341B6864011C19802321795B420B43FF
:105030002371E27110BD01F05DFD210001F04AFD18
:105040000028F7D0034B08341B6864011C197F2328
:10505000E371EFE72862002070B50024374B01218F
:1050600005000B201C7001F009FB01210B2001F051
:1050700035FB334B01210C201C7001F0FFFA01219C
:105080000C2001F02BFB20232E4A0F20D1690B436B
:10509000D36101222C490B7813430B702B4B1978E9
:1050A0008143197006211C782143197028490C7816
:1050B00022430A701A7802401A70602219780A4353
:1050C0001A70244B244A5A805A78D209FCD12348BA
:1050D00000F0D6FF224C7F26200001F01DFD2000AD
:1050E00001F032FD0C2108232068C2788A43134363
:1050F0000322C3702068C3789343013A1343C370FB
:105100002068037833400370042320680678334313
:105110000370206803898B430381C12011498000FB
:105120000B581B021B0A0B5080230B602368197855
:105130000A431A7001232B7070BDC046915D002098
:10514000905D002000040040584400413C44004170
:1051500059440041000C004006400000955B0000EF
:105160002862002000E100E00078002810D0012132
:10517000084B1B681A898A431A810822198B0A4333
:105180001A830422198B0A431A830022024B1A60E5
:105190007047C046286200202062002010B50F4AE8
:1051A00093699B0B9B03936113680222FF331A726E
:1051B0009879823A02439A711A7A9207FCD57F2431
:1051C000074A2140937A0800A34319008023014332
:1051D0009172917A5B420B43937210BD286200205A
:1051E0000050004110B50B790C00002B0CD10800C9
:1051F000FFF72EFC002801D0012010BD094A936959
:105200009B0B9B039361F7E701F074FC210001F015
:1052100051FC0028F0D1034A93699B0B9B039361D7
:10522000EBE7C04628620020F8B50D00832A19D1AB
:10523000CBB2434C5A01A21891694248AD010840D3
:10524000C0218905014391613F4920686D18702193
:10525000083355615B011A5C8A43110040220A43FE
:105260001A54F8BD022A65D1384B8A00D05800285C
:1052700002D003689B699847A020400000F08EFF91
:1052800080270600324B7F0003602D4B00214360D6
:105290003A00083004F0F0F9340096220023FC3480
:1052A0005200E360A36223616561E361A761236249
:1052B000E362B3541032A363E363B3543E22380075
:1052C000FF32B35404F096F96062380004F092F9AA
:1052D0002B006063FF201A4903405A018A18916825
:1052E000184F08330F40C0218905394307279160C3
:1052F000134A5B011168AD005A5CBA4317000322E0
:105300003A435A5461697368014049015918636A04
:105310004B60736862691B68024052019B1801224E
:105320001B18997A30000A439A72FFF7B7FC074BB3
:10533000EE5096E711002800FFF7FCFB91E7C0460E
:1053400028620020FFFFFF8F9C5D0020745D00201D
:10535000ACD5000070B505000124064BA200D25860
:10536000002A06D0210028000134FFF75DFF0A2C37
:10537000F3D170BD880000200B4BCAB20B488901E5
:10538000C9185301C318596199690832890B8903F7
:105390009961036852019A180223D3715179823BB3
:1053A0000B4353717047C0469C5D0020286200206B
:1053B000084B8A00D05810B5002803D00368DB687A
:1053C000984710BDC9B2044B490159188868800438
:1053D000800CF6E7745D00202862002010B50C00F8
:1053E000FFF7E6FF00280CD0064BE4B21B68083438
:1053F00064011C19802362795B42134363710223A9
:10540000E37110BD2862002070B5CBB2124A134878
:105410005C0189018918021951609168104D0833A7
:105420000D40802189022943402591609168890BB4
:105430008903916001685A018A18167935431571FC
:1054400095796D06FCD55B01C918CB79DB07FCD5D6
:1054500000198068C0B270BD5C5F00202862002027
:10546000FF3F00F070B5140040220B4B0D001B688D
:10547000FF3359790A435A710021FFF7C5FFA04253
:1054800000D9200000230549A34203D0CA5CEA5496
:105490000133F9E770BDC046286200205C5F002040
:1054A00010B5C9B20B484901421893689B049B0C84
:1054B0003F2B0BD99468403B9B04A40B9B0CA4038B
:1054C0002343936041188868C0B210BD93689B0B5A
:1054D0009B03F6E728620020F0B51C002F4B85B037
:1054E0001B6806000D000192002B54D02C4F397818
:1054F000C9B2002902D10C2001F0F0F864233B70FE
:10550000284BAA00D058002808D0036822005B6806
:10551000019998470400200005B0F0BD2900300033
:10552000FFF746FF844204D929003000FFF740FF0F
:10553000040029003000FFF7B3FF0121EBB21A4F3E
:1055400003935B010293029A3B6801989B18FF3317
:105550005A7A0A435A72154BA901C918220004F05D
:105560006FF8002CD7D029003000FFF721FF00286A
:10557000D1D14021039B3A6808335B01D3181879D5
:10558000014319710121D971029BD318FF339A7A13
:105590000A439A72BFE701246442BCE720620020FC
:1055A000905D0020745D0020286200205C5F002078
:1055B00013B56B46DC1D22000123FFF78DFF012888
:1055C00001D1207816BD01204042FBE7F0B51E0056
:1055D0003A4B85B01B680F000192002B3FD080230F
:1055E000DB019E423BD8364C2178C9B2002902D15A
:1055F0000B2001F073F8642300252370314BBA01AE
:10560000D3180293002E2CD02F4B1B680393FF233B
:105610003B401C0000930834039B64011C19A379D0
:10562000DB0921D0294B2A49186801F0E1FA294BFE
:105630001721584301F0DCFA274BE279920713D483
:10564000DA5D002A01D10138F7D20122DA55009B38
:105650005A011D4B9B189A69920B92039A6101257E
:105660006D42280005B0F0BD00221B4B3400DA5516
:10567000402E00D9402422000199029803F0E0FF57
:10568000009BA1045A01104B890C9B18029A2D19FA
:105690005A619A69361B920B92030A439A61009BE6
:1056A000039A08335B01D3180222DA715979823ADE
:1056B0000A435A71019B1B190193A3E72062002042
:1056C000915D00209C5D002028620020B000002039
:1056D00040420F0070110100935D002070B50D0075
:1056E0001C000D4BAE01F61811003000220003F033
:1056F000A7FFEDB209496D014D196E61AB69084A0A
:1057000020001340AB61AB69A2049B0B920C9B037E
:105710001343AB6170BDC0469C5D00202862002031
:10572000FF3F00F0F7B5104B01901B780F001500FC
:10573000002B0CD10D4B16001C78002C09D00C4E00
:105740000C4834882018641903F07AFF348028004C
:10575000FEBD002EFBD03A19330000210198FFF75F
:10576000BDFF2418361AF4E71C6100201D620020DA
:105770001E6200201D610020F8B5002000AF0E0061
:105780001500012A27D9D31D6A46DB08DB00D31A8E
:105790009D46080004F0B2FE6C460323022200215D
:1057A0000130400020706370AA420DD2307800288A
:1057B0000AD0531CDBB20136A0549D4203D0023202
:1057C000E154D2B2F0E72A0021000448FFF7AAFF13
:1057D000431E9841C0B2BD46F8BDC046705D002072
:1057E000F0B50024012685B0184B0F0069461E70E5
:1057F00005000094FFF7F6FB154B01A90B806A3BEF
:10580000FF3BCB716E3B0B72009B8C7109334B805D
:105810000E4B4E7108711C703A00092F0FD00D4FBE
:1058200009223E700C4E280000943480FFF77AFF66
:1058300069462800FFF7D6FB328808493C702800EB
:10584000FFF770FF012005B0F0BDC0461C610020CD
:10585000090200001D6200201E6200201D61002060
:10586000F0B5CF7893B005000E00022F09D1C9889A
:105870002D48FFF7B5FF441EA041C4B2200013B06D
:10588000F0BD01F037F9310001F004F9002803D030
:10589000C417241AE40FF1E7012F0FD1F288082A68
:1058A0000AD02249112A13D8D2B2002A10D02800D7
:1058B000FFF738FF0124E1E71D49F5E70400032F56
:1058C000DCD1B378002B05D1F2881A49032AEBD931
:1058D0000A78ECE7022B06D1B27917492800FFF7C6
:1058E0004BFF0400CAE7012B02D1B2791349F5E757
:1058F000032BC3D1124B01A91868FFF701F9114B13
:1059000003A91868FFF7FCF80F4B05A91868FFF703
:10591000F7F80E4B07A91868FFF7F2F86B46053346
:10592000DC77B27901A9D9E7705D0020E4D50000E9
:10593000F6D50000DAD50000CCD50000DED5000099
:105940000CA0800040A0800044A0800048A08000FF
:1059500037B5040048780D000B2810D801F034F951
:10596000061B0F2B0F40456D494C6669097801AA4B
:10597000002906D1022311802000FFF7AFFE01208D
:105980003EBD002313802E4B1B78012B00D11370DA
:1059900002230021F0E78A780023012A03D101AA1B
:1059A0001380284BF0E7264A1370274A93699B0B14
:1059B0009B039361E3E78D78012D06D10021214BF4
:1059C00001AA1D7011702B00D6E70120002DD7D140
:1059D0001B4B1D4A187093699B0B9B039361CFE788
:1059E00089782000FFF7DAFBC9E72000FFF738FFCE
:1059F000C6E70123154ACCE70B780020DB06BFD1B0
:105A00002000FFF7A7FC2A20AA78104BFF301A606D
:105A100002230D4A11680C5C23434A240B54FF34C3
:105A20000B5D2938FF3803430B55D4E70123084A9F
:105A3000AFE78A78064B1A60B7E70020A0E7C046B8
:105A4000925D00209A5D00202862002020620020E4
:105A500024620020474BF7B51C780600002C7CD14F
:105A6000454D2B689B8B1B070ED521002000FFF7AF
:105A700061F82A6810231100FF31887A03438B7282
:105A80003E4B1C60082393832B689A8B52071FD5CB
:105A900004229A833A4A1378002B0AD01378013BE8
:105AA000DBB213701378002B03D101210B2000F01F
:105AB00015FE344A1378002B0AD01378013BDBB271
:105AC00013701378002B03D101210C2000F006FE87
:105AD0002B68FF331A7AD2061ED510221A72597912
:105AE00030320A435A716023274930000A781A423B
:105AF00034D1FFF72DFF2B68FF33002831D08022EF
:105B0000997952420A439A711A7A520604D5402270
:105B10001A72597A0A435A72012427002B681B8C87
:105B2000A343DBB20193019B23413B4212D02300EC
:105B30002A6808335B01D318DA79D20702D4DB79FB
:105B40009B0707D5114BA200D05800280DD0036841
:105B50001B6898470134082CE5D1F7BDFFF742FBDD
:105B6000C9E720210A4A9171CEE7E1B23000FFF780
:105B70004FFAEFE71D62002028620020206200201B
:105B8000915D0020905D00205C5F0020745D00202E
:105B9000FF50004110B50248FFF75CFF10BDC04642
:105BA000705D0020014B024A1A6070472862002095
:105BB000005000410120704710B50368014A1B6A7C
:105BC000984710BD130400000300FC33D9699A699B
:105BD000914203D0DB69C018007D7047012040422C
:105BE000FBE710B504000069FEF756FD2200002314
:105BF000FC329361D36186229200A4186360A36093
:105C000010BDF02001403039484248417047F02330
:105C10001B011940802306209B0099420AD00133C2
:105C2000FF330130994205D0802302385B0099424E
:105C300000D0002070470F2001400020012903D030
:105C40000239481E8141481C704700008923F0B585
:105C5000182685B002919B000400C05C3300082127
:105C60004343324D1700EB18595600F085FD304B79
:105C70000821E05C33004343EB18595600F07CFDEB
:105C80002C4BE25C0393022A09D11133E05CFF281C
:105C900005D008214643AE19715600F06DFD8A26E5
:105CA000B600A05DFF2819D0012100F0E7FC182202
:105CB000A35D21495A43AB56AD18DB0158188B211F
:105CC000890060501D4901225B188C2189006350B6
:105CD00069688A408D21890062501A600122029B06
:105CE00011002069FEF7A6FD39002000FFF78FFFA5
:105CF000390005002000FFF79EFF39000600200054
:105D0000FFF77FFF33000090290020690122FEF792
:105D100093FC0B4B2069E25C039BE15CFEF7A9FC62
:105D20002069FEF7C6FC05B0F0BDC046D8D1000022
:105D300025020000270200001844004114440041DD
:105D400026020000802210B504005200002103F05A
:105D500093FC23000022FC335A6020009A6010BD9F
:105D6000F7B51D0008AB1B780400009309AB1B7846
:105D70001600019300234360FA239B008360114BBC
:105D80000F00083303601430FFF7DCFF20001D30E4
:105D9000FF30FFF7D7FF89236A469B002761E6544F
:105DA000094B1278E554094B2000E2546A46084B2F
:105DB0001279E2548A22293BFF3B9200A35410320D
:105DC000A354FEBD08D600002502000026020000F4
:105DD000270200000300FC3359689A68914204DBF3
:105DE0005A689868801AFF30704798685B68C01AD4
:105DF0000138F9E710B51D30FF30FFF7EBFF10BD9C
:105E0000030070B5FC33D9699A69040091421AD035
:105E1000DA698218157DDA690132D2B2DA618A2331
:105E20009B00E35CFF2B0CD020001430FFF7D2FF67
:105E30000A2806DD8C238D229B009200E358A2588D
:105E40001A60280070BD01256D42E8E70300FC33AD
:105E500058689B68C01A01D50130FF30704710B5F3
:105E6000040020001D30FF30FFF7F0FF0028F8D1BC
:105E70002069FEF728FC10BD10B51430FFF7E6FFCF
:105E800010BD10B504000069FEF739FC002805D0EC
:105E90002069FEF744FC2069FEF736FC2069FEF716
:105EA0001EFC002820D02069FEF739FC2200FC32BD
:105EB0009369D1690133DBB28B4203D091696118D8
:105EC000087593618A239B00E35CFF2B0CD02000B4
:105ED0001430FFF77FFF092806DC8B238D229B00FF
:105EE0009200E358A2581A602069FEF713FC0028BC
:105EF0001AD020001D30FF30FFF7A8FF002822D065
:105F000086239B00E31899685A68914218D08E2125
:105F10009A684900A218515C9A680132D2B29A601C
:105F2000C9B22069FEF7FFFB2069FEF7DDFB002800
:105F300005D02069FEF7DCFB2069FEF7CCFB10BD25
:105F400001214942ECE72069FEF7F9FBECE700008C
:105F500070B5040000690D00FEF7DCFB00283ED19F
:105F6000FF2686239B00E3185A6899680132324065
:105F70008A4223D1EFF31083DB070DD41E4B5B68FD
:105F8000DB05DB0DEDD0103B5BB2002B0DDB9B087E
:105F9000C0331A4A9B009B582069FEF7BBFB0028C0
:105FA000DFD02000FFF76DFFDBE70F221340083B37
:105FB0009B08134A9B009B181B68EDE75A68013247
:105FC00016409A68964205D08E215A684900A21858
:105FD00055545E602069FEF7AEFB012070BD2000C5
:105FE0001D30FF30FFF732FF0028B9D129002069AA
:105FF000FEF799FBF1E7C04600ED00E000E100E0AC
:106000001CED00E0FEE70000034B10B51B68002B01
:1060100000D0984710BDC0462C63002070B50F49D2
:106020000F4CA14204D100F0DFF800F09FF8FEE72A
:106030000C4D00238D42F6D0CA18E818A24205D3B1
:10604000094B8242EFD00949002204E00068043382
:106050001060F1E704C38B42FCD3E4E700000020AA
:10606000A002002004DA0000A002002058630020F3
:1060700010B500F064F8002801D100F055F810BD0B
:10608000014B18607047C0462C630020014B186814
:106090007047C04630630020F7B51348012284469C
:1060A0001249134C8E68636805689B0E1340019279
:1060B00088686268019F920E3A4067463F68934243
:1060C0000ED1BD420CD186420AD35B19FA2548682D
:1060D000AD00861B07486B437043000DC018FEBD22
:1060E0003D0013000600E3E73063002010E000E00D
:1060F00000ED00E05555000070B5041E10D0FFF70C
:10610000CBFF050000F01AF8FFF7C6FF054B401B58
:106110009842F7D9FA23013C9B00ED18002CF3D1EB
:1061200070BDC046E703000010B5034A1368013391
:10613000136000F05FFC10BD30630020704700204A
:106140007047704710B5FCF7F5F9FCF7F1F9FFF768
:10615000F5FF034B002BF8D000E000BFF5E7C04689
:106160000000000010B5FFF7EDFF000010B500F0D3
:10617000EBF803F017FAFFF7E4FF0120FFF7BCFF8D
:10618000054C2000FEF768FF2000FEF7EDFFFFF74B
:10619000E9FF002010BDC046705D002010B503F07F
:1061A00029FA10BD10B503F02FFA10BD10B502008A
:1061B000EFF3108172B60A4B1868002801D1094824
:1061C000186018688218EFF30884A24204D21A609B
:1061D000002900D162B610BD01204042F8E7C04658
:1061E00034630020586300201E2270B5464847499A
:1061F000436893431C3A1343436008238C69234349
:106200008B61434C434B9C829C8A14439C82DC6888
:106210001442FCD00124404A14701578254203D062
:1062200055786DB2002DF8DB01249460547864B287
:10623000002CFBDB394C5460547864B2002CFBDB3F
:106240008224E4015480547864B2002CFBDB0224E5
:106250009C840E34DD682542FCD0314CDC62102475
:10626000DD682542FCD09D8C2E4C2C439C84102450
:10627000DD682542FCD002249D8C80262C439C8422
:106280004024DD683542FCD0DD682542F9D0102479
:10629000DD682542FCD000249460547864B2002C60
:1062A000FBDB214C5460547864B2002CFBDB1C6A8D
:1062B0001E4D2C4080251C621C6AAC431C620323CB
:1062C00093601B4B536053785BB2002BFBDB0023C6
:1062D000FF240B72174A4B728B72CB72164B1A60EB
:1062E000164B174A1B6811689A065B01C90E2340BA
:1062F000520F12020B431343124A13858023426844
:106300001343436070BDC04600400041000400409C
:106310000C06000000080040000C004001050100D0
:10632000B905FF7D040A000000070300FFFCFFFF22
:1063300003060100006CDC02B00000202460800035
:106340002060800000400042FA212D4B10B51868F3
:10635000890000F04DFC2B4B013898424FD82A4958
:106360002A4A4860C020136A00061B021B0A034326
:10637000136200238B6007330B608021136A0906C8
:106380001B021B0A0B431362FC22214B196A0A43AE
:106390001A62FF22196A12020A431A62A022196ABB
:1063A000D2020A431A621B4B1C005A7852B2002ACE
:1063B000FBDB194A5A80194B1A00597EC909012979
:1063C000FBD0C821890099800521D970537EDB0953
:1063D000012BFBD0C02300205B011361907000F003
:1063E00029F863785BB2002BFBDB0D4B0D4A638011
:1063F000D379DB09012BFBD04123537010BDFEE79D
:10640000B0000020FFFFFF0010E000E000ED00E022
:1064100000040040000C00401E400000004000420C
:106420002140000000480042014B18607047C04600
:10643000B40000201F4900B50B004A7ED209012A92
:10644000FBD001380A282FD800F0BEFB1B2E2E2EC1
:106450002E2E062E2E2411001A6917490A400F21EC
:106460001A615A788A43110001220A4310E01A691E
:1064700011490A400F211A615A788A4311000322F8
:10648000F3E71A690C490A400F211A615A788A43C6
:106490005A7000BD1A6908490A400F211A615A78DA
:1064A0008A4311000222E0E7F022196912050A432B
:1064B000F3E7C04600400042FFFFFFF018234343CC
:1064C000F0B5654A87B09B18DE6804000091B207FA
:1064D00019D5002817D1614A1300D179C9090129BA
:1064E000FBD000998D05AD0D1581DA79D209012A0D
:1064F000FBD0022219780A431A70DA79D209012AEC
:10650000FBD007B0F0BD082732003A400192544D4D
:1065100000D18FE02968102200981227DF5F00F079
:1065200021F904210500F30602D4B306E9D50521BB
:10653000200000F021F93E124A4BB200D4584A4BD9
:10654000FFB29A5D002A54D101329A5547490F3261
:1065500002A803F075F802AA73009B5A8022D201A8
:106560001A43434B5A805A78D209012AFBD002229F
:1065700096421BD9238893432380E37BDB09FCD11C
:106580002288403313432380E37BDB09FCD10C37A3
:10659000ADB27F003D53E37BDB09FCD1228802339F
:1065A00013432380E37BDB09FCD1AAE723689343F1
:1065B000304A23601300A1681142FCD10222E16B32
:1065C0000A43E263A2681A42FCD11037BF00E71900
:1065D0007D60A2681A42FCD1274A2264A2681A424E
:1065E000FCD1022221680A432260A2681A42FCD12F
:1065F00087E7022E07D90C37ADB27F003D53E37B0E
:10660000DB09FCD17DE70223627913436371194BE7
:106610001A00A1681942FCD11C37BF003D51A36884
:106620001342FCD1022321790B432371A368134247
:10663000FCD166E70121200000F020F829683A002B
:10664000009800F08FF801997F2800D901212000DF
:1066500000F044F855E7C046D8D100000048004299
:10666000B40000201C000020386300203CD600004D
:10667000000C0040FF0F7F00FFFF0000182310B543
:1066800008244343134AD0180457013412D001247C
:106690009A5643689C4003290CD808000E49D20141
:1066A0005218D318403300F08FFA0210060B022163
:1066B0001970546010BD0621197054609461F9E797
:1066C0000621197054605461F4E702211970946036
:1066D000F0E7C046D8D10000004400411823F0B5CF
:1066E00008245843114A13181C5701341BD00126A3
:1066F00035005F688356BD400D4ADB019A189068EB
:1067000005420BD10C00601E8441D2194032107832
:1067100034400336A400B04320431070044A9B1851
:10672000002901D15D61F0BD9D61FCE7D8D1000079
:1067300000440041182310B50824434307490020B2
:10674000CA181457013408D05B560549DB015B18A1
:10675000186A5368D8400123184010BDD8D10000F2
:1067600000440041914202D002D98A1AD0407047B9
:10677000521A9040FBE700001822424370B52D4E9C
:106780000300B218127A52B2140001320ED0481C23
:1067900000240C280AD800F017FA071F1F1F1F1F1C
:1067A0001F1F1F0B0B0B0B0001246442200070BD48
:1067B000092905D100211800FFF760FF0024F5E743
:1067C0000A2901D10839F6E700240B29EED10A394C
:1067D0001800FFF753FFE9E7182201205343F2188E
:1067E000F3565568144ADB016C089B18C9B228405F
:1067F0001C1900280ED00F203034227809010240E5
:1068000011434122C9B25B192170403319780A4300
:106810001A70D3E722000F26303214785B19B44384
:106820002143117041224033197804000A431A7041
:10683000BCE7C046D8D1000000440041F0B51824A0
:1068400044435B4B8BB0E418E668050005923307C0
:106850006FD5002900D10131564800F0C9F9431E17
:10686000039302210023544A039F97420ED91F002D
:106870008F43042F01D0082B01D10133DBB2070075
:106880000133DF40013F0397DBB2EDE7013B002717
:10689000092B01D8494AD75C1222A35E0421049334
:1068A000F30602D4B30644D505212800FFF764FFA0
:1068B00006AD049B1022424928001C1202F0C0FEC3
:1068C000802263005B5BD2011A433E4B5A805A78A8
:1068D000D209FCD16B461B7C3B4D0493A600022CD5
:1068E00029D910320A210598FFF73CFF0221AB5944
:1068F0001A888A431A80DA7BD209FCD1E0213A0255
:10690000C9000A4040211C8821430A431A80DA7BCF
:10691000D209FCD1049A80B20C325200D052DA7BF8
:10692000D209FCD1198802320A431A80DA7BD209D3
:10693000FCD10BB0F0BD039C244B9C4200D21C0048
:10694000002380221900D2000094059800F02CF951
:106950000221AB591A688A431A601D4A11009D68CA
:106960001542FCD107221D681A4E3A4012023540EA
:106970002A431A609A680A42FCD10222DD6B2A433C
:10698000DA639A680A42FCD1049A103292009A188B
:1069900050609A680A42FCD11C649A680A42FCD191
:1069A0000222186802431A609A680A42FCD1C0E7C2
:1069B000D8D10000006CDC02FFFF00005CD60000B4
:1069C0004CD60000000C00401C000020FF0300001B
:1069D000FF0F7F00FFF8FFFF014B18607047C046B4
:1069E000B80000200122024B52421A607047C04694
:1069F000B8000020164A10B51368591C26D0013B78
:106A00001360002B22D172B6124B134A0433934207
:106A100013D9124A01211000147D0C42FCD0202110
:106A2000148BFF319B085B0021431183D3610C4B16
:106A300013800123027D1A42FCD0BFF34F8F094B14
:106A4000094ADA60BFF34F8FC046FDE710BDC0466C
:106A5000B8000020002000000302000000400041B8
:106A600002A5FFFF00ED00E00400FA0570B50E007E
:106A700000254468002C0BD0236831005B6820009F
:106A80009847002802DB2D18E468F3E701256D42E2
:106A9000280070BD70B50D004468002C08D0236834
:106AA00029009B6820009847002802D1E468F4E799
:106AB000200070BD70B50D004468002C08D023681C
:106AC00029001B6820009847002802D1E468F4E7F9
:106AD000200070BD70B50D004468002C08D02368FC
:106AE0002900DB6820009847002802D1E468F4E719
:106AF000200070BD0121054A10B5136804480B4001
:106B000003D1044C43600480116010BD4063002039
:106B1000446300200204000070B50400012304CC8B
:106B20000500117820000B431370802200215200D1
:106B300002F0A2FD2B689A78D207FCD49A789207CB
:106B4000F9D45C6270BD00001F22144BF0B51B68C5
:106B5000590B9C0C9B01114014405B0F914200D1DA
:106B600005211F2C00D1023C072B00D1043B0268F9
:106B70008F01158D0A491F26294039431185056863
:106B80003440298D0A00B24322432A850068190344
:106B9000028D044B13400B430385F0BD246080003D
:106BA0003FF8FFFFFF8FFFFF10B51C00431A02984C
:106BB000511A001B584300F0A5F8001910BD10B57C
:106BC000FFF7F0FA10BD000002B471464908490011
:106BD000095C49008E4402BC7047C04603B471464C
:106BE000490840004900095E49008E4403BC7047D3
:106BF000002243088B4274D303098B425FD3030AFC
:106C00008B4244D3030B8B4228D3030C8B420DD30E
:106C1000FF22090212BA030C8B4202D3121209029C
:106C200065D0030B8B4219D300E0090AC30B8B42DA
:106C300001D3CB03C01A5241830B8B4201D38B0388
:106C4000C01A5241430B8B4201D34B03C01A52412D
:106C5000030B8B4201D30B03C01A5241C30A8B4270
:106C600001D3CB02C01A5241830A8B4201D38B025B
:106C7000C01A5241430A8B4201D34B02C01A5241FF
:106C8000030A8B4201D30B02C01A5241CDD2C30971
:106C90008B4201D3CB01C01A524183098B4201D3ED
:106CA0008B01C01A524143098B4201D34B01C01AD8
:106CB000524103098B4201D30B01C01A5241C30850
:106CC0008B4201D3CB00C01A524183088B4201D3BF
:106CD0008B00C01A524143088B4201D34B00C01AAB
:106CE0005241411A00D20146524110467047FFE717
:106CF00001B5002000F0F0F802BDC0460029F7D031
:106D000076E7704703460B437FD4002243088B424B
:106D100074D303098B425FD3030A8B4244D3030B22
:106D20008B4228D3030C8B420DD3FF22090212BAE7
:106D3000030C8B4202D31212090265D0030B8B4263
:106D400019D300E0090AC30B8B4201D3CB03C01A4D
:106D50005241830B8B4201D38B03C01A5241430B28
:106D60008B4201D34B03C01A5241030B8B4201D318
:106D70000B03C01A5241C30A8B4201D3CB02C01A83
:106D80005241830A8B4201D38B02C01A5241430AFB
:106D90008B4201D34B02C01A5241030A8B4201D3EA
:106DA0000B02C01A5241CDD2C3098B4201D3CB0191
:106DB000C01A524183098B4201D38B01C01A524140
:106DC00043098B4201D34B01C01A524103098B4244
:106DD00001D30B01C01A5241C3088B4201D3CB002F
:106DE000C01A524183088B4201D38B00C01A524112
:106DF00043088B4201D34B00C01A5241411A00D2C2
:106E000001465241104670475DE0CA0F00D049422A
:106E1000031000D34042534000229C4603098B429A
:106E20002DD3030A8B4212D3FC22890112BA030A22
:106E30008B420CD3890192118B4208D389019211A4
:106E40008B4204D389013AD0921100E08909C30929
:106E50008B4201D3CB01C01A524183098B4201D32B
:106E60008B01C01A524143098B4201D34B01C01A16
:106E7000524103098B4201D30B01C01A5241C3088E
:106E80008B4201D3CB00C01A524183088B4201D3FD
:106E90008B00C01A5241D9D243088B4201D34B0018
:106EA000C01A5241411A00D20146634652415B105A
:106EB000104601D34042002B00D54942704763463B
:106EC0005B1000D3404201B5002000F005F802BD80
:106ED0000029F8D016E770477047C0468446101C5A
:106EE00062468C46191C634600E0C0461FB501F09F
:106EF000D7FB002801D40021C8421FBD10B501F006
:106F00002FFB4042013010BD10B501F0C9FB002835
:106F100001DB002010BD012010BDC04610B501F0FE
:106F2000BFFB002801DD002010BD012010BDC046C0
:106F300010B501F051FB002801DC002010BD01203C
:106F400010BDC04610B501F047FB002801DA002053
:106F500010BD012010BDC0468446081C6146FFE7F5
:106F60001FB500F061FA002801D40021C8421FBDFE
:106F700010B500F0E3F94042013010BD10B500F04B
:106F800053FA002801DB002010BD012010BDC046CF
:106F900010B500F049FA002801DD002010BD0120E5
:106FA00010BDC04610B500F0F1F9002801DC00204A
:106FB00010BD012010BDC04610B500F0E7F9002853
:106FC00001DA002010BD012010BDC04670B50022BE
:106FD0000C4B04000D00FFF7B5FF002804D1200082
:106FE000290002F09BF970BD064B00222000290009
:106FF00001F030FE02F092F980231B069C466044AB
:10700000F1E7C0460000E041F8B54746CE464302EE
:107010005B0A4400C20F9C464800DD004B02240E70
:107020005B0A000E80B5984626009146C90FDB002A
:10703000271A8A4229D0002F15DD00284AD1002BBB
:1070400000D095E0ED08FF2C00D188E06B025B0AD0
:10705000E6B25B02F605580A3043D20710430CBC77
:1070600090469946F8BD002F00D087E0601CC0B262
:10707000012800DCB6E0EE1A720100D5C5E0002E52
:107080003DD1002200260023E3E7002F00DC96E03C
:1070900000285DD0FF2C60D08022D20413431B2F28
:1070A00000DDECE02022D21B18009340F8405A1E6D
:1070B00093410343ED186B017BD50134FF2C00D1C4
:1070C000B7E0012207262A406B089A4D1D40154360
:1070D0002E4029E0FF2CB5D08022D20413431B2F71
:1070E00000DDB2E02022D21B19009340F9405A1E65
:1070F00093410B43ED1A6B015BD5AD01AE09300036
:1071000002F032FA05388640844265DC041B330005
:1071100020200134E340041BA640751EAE413343DA
:1071200007261D0000241E4001224B461A40002E57
:1071300004D00F232B40042B00D004356B0100D466
:1071400080E70134E6B2FF2C2FD1FF26002380E731
:10715000002B52D1FF2C00D074E70A00ED08002D5F
:10716000F3D08023DB032B435B025B0AFF2670E72F
:10717000013F002FBED0FF2CB1D163E7002C47D0D8
:10718000FF2869D08024E4047A4225431B2A00DDCD
:10719000C5E02C002026D440B21A95406A1E9541C5
:1071A00025435D1B04008946A5E7AB015B0A50E758
:1071B000002401224B461A406B07BAD142E7002F48
:1071C0003BD10134E0B201284ADDFF2CBDD00726B7
:1071D000ED186D082E40A7E70723574D241A3540B8
:1071E0001E40A1E7002C1BD1002D6ED1002B00D139
:1071F0009AE00A001D003C0024E7013F002F00D167
:1072000058E7FF2C00D04AE7A7E75E1B894676E7E0
:10721000002D1CD10A00FF281FD004001D0011E71B
:10722000002D5DD1002B17D180230022DB03FF2628
:107230000FE70A00FF2600230BE7002C21D1002DC9
:1072400066D1FF28E9D11D0087E7012352E77A1CA8
:10725000A7D0FA43FF2899D10A001D00FF24F1E6C8
:10726000002E21D1002D4FD0002B4CD0ED186B01FA
:107270009ED5314B07362E4001241D4054E7012393
:1072800018E7FF28DFD08024E4047F4225431B2F2A
:107290004DDC2026F61B2C00B540FC406A1E9541B3
:1072A0002543ED18040006E7002DCCD0002B00D1BB
:1072B00053E780216046C903084203D04046084294
:1072C00000D11D000121114047E7002B00D1B9E694
:1072D000EA1A500125D507265D1B2E40894623E773
:1072E000FF24002B00D1ADE680226046D20310427D
:1072F00004D04046104201D11D00894601224B4670
:10730000FF241A409EE62B00DD080A0000249DE6BB
:107310007A1CC6D0FF43FF28B9D11D001DE7012507
:107320003FE7151E00D044E70022002391E6012527
:10733000B7E7C046FFFFFF7DFFFFFFFB70B54200D0
:107340004E024C0045026D0A120EC30F760A240E3F
:10735000C90FFF2A0FD0FF2C11D00120A24200D06C
:1073600070BDB542FCD18B420DD0002AF8D1280067
:10737000451EA841F4E70120002DF1D1EBE70120E3
:10738000002EEDD1E9E70020EAE7C04670B54A00DB
:107390004E02450244006D0A240EC30F760A120EF7
:1073A000C90FFF2C15D0FF2A0ED0002C15D1002AB2
:1073B00001D1002E1CD0002D14D08B4227D00220EA
:1073C000013B1840013870BD002EEED00220404233
:1073D000F9E7002DFAD1FF2A0ED0002A0ED1002E97
:1073E000EDD00BE001230139994308000130EAE7B1
:1073F0000020002DE7D0E2E7002EE7D18B42DED15E
:10740000944205DD0221581E08400138DBE70024C4
:10741000A24204DCB542D2D80020B542D3D2581ED5
:10742000012398430130CEE730B5420044024D02BB
:10743000C30F4800640A120E6D0A000EC90FFF2A1E
:1074400012D0FF280CD0002A12D1002819D1002D0B
:1074500017D1002C2BD00220013B1840013826E028
:10746000002DF0D0022022E0002CFBD1FF281FD0FD
:1074700000281FD1002D1DD10220013B18400138EA
:1074800015E0002C0ED08B42E5D10022904204DCA6
:10749000AC42E0D80020AC4209D2581E01239843E8
:1074A000013004E00123013999430800013030BD67
:1074B000002DD7D18B42CED18242E7DD0221581E6A
:1074C00008400138F3E7C046F8B54746CE464400C9
:1074D000C20F80B547024802400A8446664648000B
:1074E0007F0A240EF60025009046FB00000EC90F0F
:1074F000B146FF2800D185E001267140261A91424D
:1075000057D0002E43DD002800D07FE049460029F7
:1075100000D1AAE0013E002E00D0F7E05B1A5A012C
:1075200000D48BE09B019C09200002F01DF8053877
:107530008440854200DDD3E0451B23002020013537
:10754000EB40451BAC40621E9441234307240025B9
:107550001C40012241460A40002C04D00F21194052
:10756000042900D00433590100D480E00135ECB285
:10757000FF2D00D0A3E0FF2400235B02E405580A9E
:10758000D207204310430CBC90469946F8BD002E0C
:1075900074D1601CC0B2012800DCA7E04A469C1AE6
:1075A000620100D5B6E0002CBED1002200240023E9
:1075B000E3E7002E00DC85E0002846D0FF2C49D010
:1075C00080224846D2041043814601221B2E09DC4A
:1075D00020204C46801B84404A462000F240441E36
:1075E000A04102439B185A0128D50135FF2D00D137
:1075F000A8E00122072494491A405B080B4013437A
:107600001C40A6E7002E00D078E775E7FF2C54D089
:1076100080224946D2041143894601221B2E09DCEF
:1076200020214846891B88404A460100F240481EF6
:1076300081410A439B1A5A0100D573E70122414652
:107640000A40590700D089E711E04846002858D180
:10765000FF2C0CD1DB08002B00D18CE78020C0036D
:1076600003435B025B0AFF2487E7FF2C25D0DB087E
:10767000FF2DF0D05B025B0AECB27EE7002C4DD010
:10768000FF2818D08024E404724223431B2A00DD23
:10769000C4E01C002025D440AA1A93405A1E9341EE
:1076A00023434A460500D31A884638E7721CF8D0AF
:1076B000F243FF28EAD10A004B46FF25D7E79B019A
:1076C0005B0A5AE7002E41D1651CE9B2012945DD6C
:1076D000FF2D00D14FE707244B445B081C4038E7DF
:1076E00007225A4B2D1A2340144032E7002C1DD19B
:1076F000002B7AD14B46002B00D191E00A000025E7
:10770000B5E7013E002E19D14B446CE7FF2C84D124
:10771000FF25ACE74A468846D41A05E7002BC5D1B9
:107720000A00FF28C8D005004B46A0E7002B49D12E
:107730004B46002B77D00A00FF2598E7FF2C00D09E
:1077400043E787E70A00FF24002316E7002C15D142
:10775000002B57D1FF28E6D14B467BE7002C20D1E8
:10776000002B57D04946002953D04B445A0168D5C5
:107770000724364A1C4001251340EAE6FF28EBD0D7
:107780008022D204764213431B2E53DC2025AD1BEE
:107790001A00AB40F2405C1EA34113434B4405006A
:1077A00021E7002BD8D04946002900D152E780219B
:1077B000C9030F4200D14DE76046084200D049E7B7
:1077C0004B4647E74846FF25002800D14FE7802277
:1077D000D203174204D06046104201D14B4688467E
:1077E00001224146FF250A4041E7484600281FD0B4
:1077F0001A1A500120D54A460724D31A1C4088463D
:107800000025A6E6741CC9D0F643FF28BCD14B4620
:1078100020E799464B460025DB082BE7012340E78C
:1078200000220023A9E680230022DB03FF24A4E634
:1078300000251CE70123B1E7002AF1D01300002541
:10784000FCE60025FAE6C046FFFFFF7DFFFFFFFBD9
:1078500041024200C30F490A120E00207E2A0DD9B0
:107860009D2A0CD8802000040143952A0ADC96202A
:10787000821AD1404842002B00D108007047034AC9
:107880009818FBE7963A9140F4E7C046FFFFFF7F68
:1078900070B500283DD0C317C5185D40C40F28003F
:1078A00001F062FE9E22121A962A07DCD2B2082844
:1078B00033DD083885406802400A23E0992A0BDD51
:1078C000052329001B1AD94003001B339D402B00C0
:1078D0005D1EAB4119430D00052801DD431F9D408E
:1078E0002B000F490B406E0709D00F263540042DA1
:1078F00005D004335D0102D59F220B40121A9B0173
:10790000580AD2B24002D205400AE407104320438D
:1079100070BD002400220020F4E76802400AF1E76D
:10792000FFFFFFFBF0B54F464646D6460C00090365
:10793000C0B5490A470F5E0039431F03DB0F9C4661
:1079400065007B0A570F1F436D0DE40F760DA146AE
:10795000C000B846D200AB1B64457BD0002B5FDD76
:10796000002E00D0A4E03E00164300D112E15E1EBE
:10797000002E00D09EE1871A4346B842804101257F
:10798000C91A4042091A0B0200D431E149024E0AD9
:10799000002E00D16EE1300001F0E6FD0300083B4F
:1079A0001F2B00DD61E120223900D21A9E40D14018
:1079B0009F400E439D4200DD51E15D1B6B1C1F2B60
:1079C00000DD7CE12021C91A3D0030008F40884055
:1079D000DD40791E8F41310007222843D940002520
:1079E00007433A40002A09D00F233B40042B05D01F
:1079F0003B1DBB42BF417F42C9191F000B0200D48F
:107A000026E26A1CC64B55056D0D9A4200D106E16F
:107A1000C44AFF080A40530752023B43120B8EE050
:107A2000002B00D0B8E06B1C5B055B0D012B00DC6C
:107A300030E1871A4346B842B641CB1A76429E1BC4
:107A4000330200D54CE13B003343A1D10022002496
:107A5000002570E0002B00DCE5E0002E00D183E083
:107A6000AF4EB54260D0802636043743B846382B37
:107A700000DC3EE1434613431F007A1E97413F1846
:107A800087428041404209180B0200D4B0E0A44B69
:107A900001359D4200D1C3E0A24A7B080A40012182
:107AA0000F401F435108D30707221F433A4099E76D
:107AB0009B4EB54238D0802636043743B846382B23
:107AC00000DDDCE01F2B00DC30E11E004746203EDD
:107AD000F740BC46202B04D04026F31A46469E4071
