:1020000000800020E54B0000CD4B0000CD4B0000D0
:1020100000000000000000000000000000000000C0
:10202000000000000000000000000000CD4B000098
:102030000000000000000000CD4B0000394C000003
:10204000CD4B0000CD4B0000CD4B0000CD4B000030
:10205000CD4B0000CD4B0000CD4B0000D14B00001C
:10206000CD4B0000CD4B0000CD4B0000CD4B000010
:10207000CD4B000075300000CD4B0000CD4B000073
:10208000CD4B0000CD4B00000D2F0000CD4B0000CC
:1020900000000000CD4B0000CD4B0000CD4B0000F8
:1020A000CD4B0000CD4B0000CD4B0000CD4B0000D0
:1020B0000000000010B5064C2378002B07D1054B1B
:1020C000002B02D0044800E000BF0123237010BDA4
:1020D000AC0200200000000018BA0000044B10B54C
:1020E000002B03D00349044800E000BF10BDC046E8
:1020F00000000000B002002018BA0000024A537E1F
:10210000DB09FCD17047C046004000421C4B30B593
:102110000021595E1B4B1C4800229B5E1B4A002B72
:1021200024D00023D45E1A4B1B889C4201DB002381
:1021300013800024135F174C5D002C5B0133048176
:102140001380002911D0144B0022995E134A128883
:10215000914201DB00221A8000215A5E1049500092
:10216000405A1049013248641A8030BD03811380FF
:10217000094A13800029F8D00A4A5364F5E7C0469B
:10218000D6220020D402002000480042DC22002099
:1021900012000020D6020020DA22002010000020C9
:1021A000D612002000240042002370B5314C1026C6
:1021B0002370FFF7A3FFFF202F4B304A1B681268E4
:1021C00059019B060140D20E5B0F0A431B021343C9
:1021D0002385A3882A4A0F251A4080239B00134396
:1021E000A380FFF78BFF3022A38893433343A38060
:1021F000FFF784FF70223F21A378AB43A370A3783D
:1022000093431E431F4BA6701A88E3780A408B4302
:1022100013430122E370A3889343A380FFF76EFF6B
:102220001F21194B28331A7823690A408B43134323
:102230002361FFF763FF2369144A1A40C0235B013F
:1022400013432361FFF75AFF7F226378AB430D3DB1
:102250002B436370637813406370F02322691B057E
:1022600013432361FFF74AFF23781D432570FFF7CF
:1022700045FF70BD00400042246080002060800067
:10228000FFF8FFFF06000020C8B30000FFE0FFFFDB
:102290001F2110B50B4C020023690A408B43180024
:1022A000022310432061227B13432373FFF726FF91
:1022B000C046C046C046237EDB07FCD5608B00B21B
:1022C00010BDC0460040004270470000F0B5BC4958
:1022D0008BB0BC48002401F0DDF901210D2002F093
:1022E000B1FF01210D2002F0DDFF0B221421B64BBE
:1022F000B64D1C80B64B28001A60B64B196000F032
:1023000057FEB549280000F095FE0A2002F070FE45
:102310002100200002F0B6FEFFF746FF2100012059
:1023200002F090FF2100022002F08CFF2100032028
:1023300002F088FF2100042002F084FF2100052024
:1023400002F080FF2100062002F07CFF2100072020
:1023500002F078FF2100082002F074FF210009201C
:1023600002F070FF1023049303330293013B0193A7
:102370000E3B0093934C200001F0EEF80028F9D0BA
:10238000200001F011F9FF23184030384628F1D819
:1023900003F0F0F9330291020A035903B603210452
:1023A000AA041B05F0FFF0FFF0FFF0FFF0FFF0FFC5
:1023B000F0FFF0FFF0FF14021B0223022B02F0FFDC
:1023C000F0FF9001F0FF4700F0FFF0FF7B0074008A
:1023D0006400F0FFF0FFF0FFA601B5014C00F0FF34
:1023E000F0FFF0FFF0FFF0FFF0FFF0FFF0FFF0FF75
:1023F000F0FFF0FFF0FFF0FFED00F0FF4E01F0FF07
:10240000F0FF5F01F0FFF0FFF0FFF0FFAE00090208
:10241000F0FFF0FFF401F0FFAE01C801E000F0FFB3
:1024200072016E49200000F0A3FEA3E70122002103
:10243000200001F05BF86A4B186000289AD0634CCA
:10244000644D2860200000F003FE2968200000F0A1
:10245000AFFD2000604900F0EDFD8BE70122002177
:10246000200001F043F85F4B5F4A18800021525E64
:1024700080B2824200DB7DE71A807BE701220021E7
:10248000200001F033F8594BEEE701220021200033
:1024900001F02CF8564B00B2564E984224DC3080A6
:1024A0000022B35E002B01DA00233380200001F00C
:1024B0007BF8C0B2504D44280DD1012200212000EC
:1024C00001F014F84D4B00B298420FDC2880002236
:1024D000AB5E002B01DA00232B800022B35E29883B
:1024E000474A5B00995245E73380D9E72B80EEE7F6
:1024F00001220021200000F0F9FF3D4B00B23D4ECB
:10250000984223DC30800022B35E002B01DA0023E6
:102510003380200001F048F8C0B2374D44280DD177
:1025200001220021200000F0E1FF344B00B298426C
:102530000EDC28800022AB5E002B01DA00232B800A
:102540000022B35E29885B002E4ACBE73380DAE7AE
:102550002B80EFE701220021200000F0C7FF2A4B6B
:102560001860002800D105E7194B186002E7012226
:102570000021200000F0BAFF244A254B0021525EC2
:10258000188080B2824200DA1A801B88214A5900E2
:10259000118003225A4320490A80204A9900118061
:1025A00005225A431E490A8006225A431D490A80C1
:1025B00007225A431C49DB000A801C4A1380D9E6D3
:1025C00080841E0044650020D4020020EC620020BC
:1025D000E0620020CC0200200D210000B0B300001A
:1025E000D002002012000020000000201000002077
:1025F000FF070000C8020020D8220020FF030000CF
:10260000D6020020D6120020E46200200200002042
:1026100004000020200000201C0000200A000020F0
:10262000220000201E000020080000200C000020D6
:1026300001220021200000F059FF3F24BF4BC04A77
:102640001880D3780100A343180021400843D070BC
:1026500090E601220021200000F048FF0F21B94B35
:102660001870B74B08401A69B74900060A40104372
:102670001861FFF743FD7DE601220021200000F0F4
:1026800035FFB24BC0B21870002805D10F21AC4AFB
:1026900053788B4353706DE6012806D10F21A84A69
:1026A00053788B431843507064E60228F6D0032811
:1026B000F4D05FE6200000F077FFC3B2A44AA5483B
:1026C0006F2B08D16E3B13800023A34AA3491380CC
:1026D000A34A1380BFE60023138000F0B9FC49E64B
:1026E00001220021200000F001FF9E4B188041E6EE
:1026F00001220021200000F0F9FE9B4BF6E72000AC
:1027000000F052FF8021C0B2984C994B89006F288D
:1027100003D10122228019642CE600222280196450
:102720005A6427E6200000F03FFFC0B2914B924C64
:102730006F2811D1914A19681268653802F04AFE73
:10274000F022A256F4342368D2019B188C4A9B18BD
:10275000402219780A430FE0196800220A2002F08B
:1027600039FEF0224021A256F4342368D2019B188E
:10277000834A9B181A788A431A70FBE501220021CC
:10278000200000F0B3FE01007A4B18607B4B1A6802
:102790000A2002F01FFEF021774A5156F4321368E6
:1027A000C9015B18D2E701220021200000F09EFE43
:1027B000724B020018606F4B1968E9E70122002193
:1027C000200000F093FE03B2D3E501220021200097
:1027D00000F08CFE03B20193CCE501220021200021
:1027E00000F084FE03B20293C4E501220021200020
:1027F00000F07CFE03B20493BCE55A4B00229B5EC2
:10280000002B0BDD00223020534958430A805449E5
:102810000A80032102F0B8FF0138FDD102F020FA4E
:10282000002407000500574E3388A34224DD564E8E
:102830000222336855499C460B680868DB0913403F
:10284000C0099218316810401B181020D140624610
:1028500036689205064008389B190140D20F5B1874
:102860009B184B4A13554B4B1B68ED1802F0F8F9B7
:10287000A842FBD30134D6E702F0F2F90021C71BCE
:102880000D2002F00FFD444C4449200000F063FC91
:102890000A223900200000F0A5FC32883C492000C3
:1028A00000F094FE3E49200000F062FC01210D2062
:1028B00002F0F8FC5EE52B4B00229B5E002B0DDD49
:1028C0003020294A58430021525E23490A80244976
:1028D0000A80032102F058FF0138FDD102F0C0F94F
:1028E000002506000390274F3B88AB4211DD00987E
:1028F000FFF7CEFC264B0212EB181A703A88985458
:10290000244B1B68F61802F0ABF9B042FBD301353B
:10291000E9E702F0A5F9039B0021C51A0D2002F09A
:10292000C1FC1E49200000F016FC0A2229002000EC
:1029300000F058FC1B4B1A88B0E7C0460600002088
:10294000004000420E000020FFFFFFF024000020A6
:10295000D4020020EC620020DC2200200D210000C7
:10296000DA220020E8620020DE220020D6220020A9
:102970000024004218000020C8B30000140000200A
:10298000404400410400002020440041A044004194
:10299000E0220020E062002044650020BFB3000078
:1029A00062B5000020000020BD4B00229B5E002B82
:1029B0000DDD3020BB4A58430021525EBA490A80DF
:1029C000BA490A80032102F0DFFE0138FDD102F08E
:1029D00047F9002506000390B54F3B88AB421FDD49
:1029E0000098FFF755FC05900198FFF751FC6946E8
:1029F000B04B059AEB1812121A70097D3A88995457
:102A0000AD4A011212889954AC4A12889854AC4BC2
:102A10001B68F61802F024F9B042FBD30135DBE75E
:102A200002F01EF9039B0021C51A0D2002F03AFCAA
:102A3000A449200000F08FFB0A222900200000F0AA
:102A4000D1FBA14B77E7964B00229B5E002B0DDD5F
:102A50003020944A58430021525E93490A8093499A
:102A60000A80032102F090FE0138FDD102F0F8F84F
:102A70000024050006008E4F3B88A3422DDD009800
:102A8000FFF706FC03900198FFF702FC05900298FF
:102A9000FFF7FEFB6946874B039AE31812121A7080
:102AA000097B3A889954844A0599128809129954E5
:102AB0006946824A097D12889954834A0112128814
:102AC0009954824A128898547D4B1B68F61802F07C
:102AD000C7F8B042FBD30134CDE702F0C1F80021C2
:102AE000451B0D2002F0DEFB794C7649200000F0FA
:102AF00032FB0A222900200000F074FB754B1AE714
:102B0000674B00229B5E002B0DDD3020654A584349
:102B10000021525E64490A8064490A80032102F060
:102B200033FE0138FDD102F09BF8002405000600B9
:102B30005F4F3B88A3423BDD0098FFF7A9FB039062
:102B40000198FFF7A5FB05900298FFF7A1FB0690FF
:102B50000498FFF79DFB6946564B039AE31812123F
:102B60001A70097B3A889954534A059912880912B8
:102B700099546946514A097D12889954524A0699D6
:102B80001288091299546946504A097E128899544C
:102B9000504A0112128899544F4A12889854484B4F
:102BA0001B68F61802F05CF8B042FBD30134BFE7B3
:102BB00002F056F80021451B0D2002F073FB444C37
:102BC0004049200000F0C7FA0A222900200000F046
:102BD00009FB424BAFE6324B00229B5E002B0DDD22
:102BE0003020304A58430021525E2F490A802F4935
:102BF0000A80032102F0C8FD0138FDD102F030F84F
:102C00000024059003902A4D2B88A34234DD0098C0
:102C1000FFF73EFB324B274E1A682D880692314A49
:102C2000A619176811681A681B68FF090793031231
:102C30003370705504230225DA403D40CF09082146
:102C40001F400A40EF19BF181022079B1A485B0863
:102C50001340FF18069B00889A05194BD20FBF1826
:102C60001B68039A3754D318039301F0F9FF039BB1
:102C70009842FAD30134C6E701F0F2FF059B002128
:102C8000C51A0D2002F00EFB114C0E49200000F079
:102C900062FA0A222900200000F0A4FA074B4AE653
:102CA000E8620020DE220020DC220020DA22002060
:102CB00004000020E0220020200000201C00002052
:102CC000E0620020BFB300000A00002022000020C4
:102CD000446500201E000020080000200C00002099
:102CE00020440041A0440041774B00229B5E002B12
:102CF0000DDD3020754A58430021525E74490A8028
:102D000074490A80032102F03FFD0138FDD101F032
:102D1000A7FF0024059003906F4E3388A34240DD47
:102D20000098FFF7B5FA05000198FFF7B1FA6B4B71
:102D300036881A6806926A4A1768126819680792F4
:102D400008911968674B2A12E3181A709D55664D51
:102D500006122D88079A5E55644DFF092D88585537
:102D600002253D40D709042217400C321140089A31
:102D7000EF19150908221540069A5D487F1892053B
:102D8000D20F00887F19BF181F545A4B039A1B6833
:102D9000D318039301F064FF039B9842FAD30134E4
:102DA000BAE701F05DFF059B0021C51A0D2002F076
:102DB00079FA514C5149200000F0CDF90A2229003E
:102DC000200000F00FFA4E4BB5E53F4B00229B5E12
:102DD000002B0DDD30203D4A58430021525E3C4916
:102DE0000A803C490A80032102F0CEFC0138FDD163
:102DF00001F036FF002405900390374F3B88A34233
:102E00004EDD0098FFF744FA06000198FFF740FAFC
:102E100005000298FFF73CFA304B3F881A6806928B
:102E20002F4A11681268C90907921A681B6808922C
:102E300009932C4B3212E3181A70DE552A4E2F12CA
:102E40003688079A9F55294E36889D55284D06127B
:102E50002D885E5502260E40D1090422284D1140CE
:102E60002D88089A585515090822711815404919D6
:102E70001025099A23485608069A2E409505008881
:102E80008919ED0F491919541A4B039A1B68D31865
:102E9000039301F0E5FE039B9842FAD30134ACE7BB
:102EA00001F0DEFE059B0021C51A0D2002F0FAF9A3
:102EB000114C1249200000F04EF90A22290020008E
:102EC00000F090F9104B36E5E8620020DE22002089
:102ED000DC220020DA2200200400002020440041EF
:102EE000A0440041E0220020200000201C0000201F
:102EF0000A000020E062002044650020BFB300000B
:102F0000220000201E0000200800002010B5064C02
:102F1000A37BDB0606D5054B1B6898471023A27BD5
:102F20001343A37310BDC046002C0042EC62002086
:102F3000302359431C4A914218D94B08934225D952
:102F40008B08934225D9CB08934225D90B0993428C
:102F500024D98B09934223D90B0A934222D98B0A95
:102F6000934200D91300E022D20001E00B000022BE
:102F70000E49088802430A800A00D17BC909FCD1A6
:102F80009BB21383D37BDB09FCD1704780225200B4
:102F9000EEE780229200EBE7C022FBE78022E3E726
:102FA000A022E1E7C022DFE7FEFF0000002C004284
:102FB0000E4A0F4B10B51A800E4A5378DB09FCD12C
:102FC00002240D4B1A88A2431A801A8892B21A80E2
:102FD000DA7BD209FCD11C88203222431A80DA7BAA
:102FE000D209FCD1FFF7A4FF10BDC0461B40000072
:102FF000020C0040000C0040002C004200220B4B51
:103000005A73597B10320A435A738021084AC90205
:103010001160022219880A431A80DA7BD209FCD196
:10302000597940320A435A717047C046002C004219
:1030300000E100E010B50160FFF7E0FF10BD000007
:103040008021024A53790B4353717047002C004290
:103050008022074BD202191D10B5CA67BFF34F8FEC
:10306000BFF36F8FC02149005A50FFF7E9FF10BD31
:1030700000E100E010B5024801F0E7FC10BDC046D9
:10308000F062002013B51249124800F0B7F8124957
:10309000124800F0B3F81249124800F0AFF8124994
:1030A000124800F0ABF8124C1249200000F0A6F8CC
:1030B0001149124800F0A2F8002301930133009354
:1030C0000722053321000E4801F02EFC13BDC04637
:1030D000000800422C650020000C004230650020F2
:1030E00000100042346500200014004238650020C2
:1030F0003C65002000180042001C00424065002092
:10310000F0620020F7B506000D000C008B1801934B
:10311000019B671B9C4207D0336821781B683000F5
:10312000984701340028F3D13800FEBD70B5040083
:1031300008000D0005F0ACFA2368020029005B6866
:103140002000984770BD10B50B1E02D0FFF7EEFFB0
:103150000300180010BD10B5FFF7F5FF10BD00000B
:1031600010B50249FFF7E2FF10BDC04660B5000090
:1031700070B50400FFF7E7FF05002000FFF7F0FF40
:10318000401970BDF0B58BB06B46150000220533B9
:103190000600DA770800012D00D80A2509AC2900BD
:1031A00002F078FBCAB2130037330700DBB20929FB
:1031B00002D813003033DBB2013C2370002FEED174
:1031C00021003000FFF7BFFF0BB0F0BD10B5002AA3
:1031D00004D10368C9B21B68984710BDD2B2FFF78B
:1031E000D1FFFAE770B50500FFF7F0FF04002800F3
:1031F000FFF7B6FF201870BD1000704701607047E0
:103200009446F0B59E1E721E96416246056892076E
:103210002F6836063A4332432A60072505AC2478E6
:103220000068A4012940214342680024022B00D0F9
:103230005C03114321434160F0BD30B5C0250368F4
:10324000AD031C6812052A402243C0240904A402CD
:1032500021401143196003685A6814435C6030BD13
:103260000123026811680B43136003681A68D207D0
:10327000FCD4DA69D207F9D47047022302681168D6
:103280000B4313600268D3699B07FCD47047036843
:103290001A7ED20702D41A7E9207FCD5704700220C
:1032A00003685A8370470368187E4007C00F704751
:1032B0000368187EC0097047802302685B42117E54
:1032C0000B43137670470368588B8007C00F704715
:1032D00002230268518B0B43538370470368187EA7
:1032E000C007C00F70470368188DC0B270470368ED
:1032F0001A7ED207FCD589B20120198570470122B8
:1033000003689A757047012203681A7570470000B8
:103310000368104A934213D00F4A934212D00F4AC7
:10332000934211D00E4A934210D00E4A93420FD0CE
:1033300001200D4A4042934201D1063040B270470D
:103340000020FBE70120F9E70220F7E70320F5E77B
:103350000420F3E700080042000C00420010004285
:103360000014004200180042001C0042F8B5FFF7AC
:10337000CFFF00282CDBC3001C48FF22C018052308
:103380000479C35603201840C0008240C021D243B4
:103390008140002B1DDB1F2501201D40C026A840B9
:1033A000134D7600A851C0269B089B005B19B60000
:1033B0009F593A401143995128603F23234080246C
:1033C000E4011C430B4B5C805A7852B2002AFBDBB1
:1033D000F8BD0F200340083B07489B089B001B18C3
:1033E000D86902401143D961E7E7C04664B50000DF
:1033F00000E100E0000C004000ED00E0F8B5040042
:103400000F0016001D00FFF7B1FF2000FFF728FF97
:103410001C21BB000B4071072268090C0B43136091
:10342000842322689375012F1AD11021012E00D018
:1034300008390C4B69431868C00002F0A5F907224F
:10344000216802408B895203DB04DB0C13438B8120
:10345000226803049089DB0C400B400318439081E1
:10346000F8BDC046BC00002010B5040001F0F2FB1E
:10347000E060236820009B69984700280ADA01F081
:1034800041FC01F0E7FBE368C01AA3689842F0D35F
:103490000120404210BD0000F8B504000D001600E8
:1034A00001272000FFF7E0FF00281CDB2D281AD0A1
:1034B0000300303B092B16D9002E01D02E2812D044
:1034C000012D0ED0022D07D10938172809D83A004E
:1034D0008240054B1A4204D0236820005B6998475C
:1034E000DFE701204042F8BD13008000F8B5170067
:1034F000002205000024FFF7CFFFA0421CDB2600BE
:10350000874209D02D2819D00300303B092B03D85E
:103510000A235C432418303C2B6828005B699847D9
:103520002800FFF7A1FF0300303B092BE8D98742B1
:10353000E6D0002E00D064422000F8BD0126EBE763
:103540003F20704713B56B460268D9710733546842
:1035500019000122A04716BD10B50221006900F034
:103560000BFD034B1B6801335A1E9341181810BD05
:103570009000002010B50321006900F013FD10BD7C
:1035800010B50321006900F0DBFC10BD10B5054C3F
:1035900023685A1C04D103685B69984703002060C4
:1035A000180010BD90000020074B0200186810B5ED
:1035B000411C03D0012252421A6010BD0221106941
:1035C00000F0DAFDF9E7C0469000002010B51300C6
:1035D000094A0400D079C0B2002805D1627E002AD1
:1035E00002D00123636006E00A002069032100F095
:1035F000D1FD0028F5D010BD4400002010B503789F
:103600004222023303700249024800F06FFE10BDEF
:103610004C0000206065002010B50178020043785E
:103620000020A12908D1212B05D1072216491748CE
:1036300000F05CFE012010BD2129FCD1202B13D10C
:1036400007221149114800F0F1FC96220E4BD200DE
:10365000196891420ED10124D87904400AD1FA2088
:1036600001F086FF0020E6E7222B06D19278064B78
:10367000DA71EAE701F082FFF4E7232BDBD152880D
:10368000034B1A60D7E7C046440000206065002065
:10369000400000200123437670470000FA220021F9
:1036A000054B92009A60054A596008321A60044A34
:1036B00019761A617047C0464465002094B5000031
:1036C000606500207047704770B50F26CB1D01392B
:1036D00002003240D5B22C0000093034092A00DD46
:1036E00007341C70013B8B42F2D170BDA02110B594
:1036F0000400490002F02FF8200010BDF8B503299E
:1037000008D1304B8000C058002802D003689B6865
:103710009847F8BD822919D1C3B22B4D5A01AA1876
:1037200091692A4C80010C40C02189052143916197
:103730002749083340187021506128685B011A5CE2
:103740008A43110030220A431A54E2E70029E0D1EB
:10375000C026C1B21C4C4B01E3189A681B4DB6053C
:103760002A4032439A601B4A800182185A600A003C
:103770000727246808325201115DB9430F00012167
:10378000394311559F6912493D4040182E439E61AF
:1037900058617020115D81430800102101431155CB
:1037A00099680D48A2180840802149030143996097
:1037B0009968890B89039960402311790B43137130
:1037C000A7E7C04664650020186A0020FFFFFF8F4E
:1037D0008C6500204C670020FF3F00F0EFF3108362
:1037E00003600123436072B670470368002B02D167
:1037F00062B6BFF36F8F7047F7B50500FC35EB6914
:103800000600002B18D196277F00C45D6846FFF79D
:10381000E5FF019BE4B2013B02D3F45DE4B2FAE7B9
:1038200068460193FFF7E1FF002C01D10020FEBDA7
:10383000E86AAB6AC01AFAE76846FFF7CFFF9E2234
:103840000024019B5200013B02D3B45CE4B2FAE7CE
:1038500068460193FFF7C9FF002CE7D0E86BAB6B1C
:10386000E8E7000030B54468FC3043698069DBB2AA
:103870005A01A2189168094D8004294000090143AA
:10388000916091680833890B8903916022685B011C
:10389000D318402219790A431A7130BDFF3F00F056
:1038A000F7B50500FF21FC356A6943680A401B68CB
:1038B000083252019A18D3790400DB0754D5012647
:1038C000D6716B6962680B405B01D318286A9A68ED
:1038D0009204920C002822D1EA62EA6A002A40D0BF
:1038E0006A6B2E6268465A60FFF778FF9E273E217A
:1038F000019B7F00013BFF315A1C2ED096225200C3
:10390000A654E25D581ED2B2002A05D0665468461D
:103910000193FFF76AFFF7BD62540300ECE7EA6327
:10392000EA6B002A1DD000222A626A6A68465A6041
:10393000FFF754FF96273E21019B7F00013BFF319B
:103940005A1C0AD09E225200A654E25D581ED2B2E2
:10395000002ADBD162540300F2E768460193FFF7C7
:1039600044FF2000FFF77EFF63681A686B69DBB2D3
:1039700008335B01D3187F22DA71CCE7F7B5070073
:1039800068463C00FFF72AFF0026FF22019BFC341B
:10399000013B0DD3E0682169884204DBE6682069B9
:1039A000961B3618F4E72669E168761A013EEFE7C0
:1039B00068460193FFF719FFE3696846002B52D16F
:1039C000FFF70CFF9621019B4900013B5A1C0CD0CC
:1039D0007D5C5A1EEDB2002D05D168460193FFF7BC
:1039E00004FF2800FEBD1300F0E7684601930025A0
:1039F000FFF7FBFEFF21A36AB54214D0E26A9A42A8
:103A000011D95A1CA262626AD3181878E368226935
:103A10000133C0B20B40934203D0E268BA1810726F
:103A2000E3600135E7E7E26A9A42DAD10023A36254
:103A30000133E36168469624FFF7D0FE64003E221E
:103A40000021019BFF32013B581CC6D03955B85CA0
:103A50005E1E002805D0B95438000193FFF702FF1D
:103A6000EDE73300F0E7FFF7B9FE9E21019B490027
:103A7000013B5A1C06D07D5C5A1EEDB2002DACD025
:103A80001300F6E7684601930025FFF7AEFEFF211D
:103A9000A36BB54202D0E26B9A421DD8E26B9A4208
:103AA0009FD100236846A363E3619E24FFF796FE3F
:103AB00064003E220021019BFF32013B581C00D1D3
:103AC0008BE73955B85C5E1E002817D0B954380012
:103AD0000193FFF7C7FEECE75A1CA263626BD31891
:103AE0001878E36822690133C0B20B40934203D0D7
:103AF000E268BA181072E3600135C9E73300DDE708
:103B000010B50400FFF73AFF2300FC331969DA68A7
:103B1000914203D01B69E418207A10BD0120404275
:103B2000FBE710B50400FC34FFF728FFE0682369C9
:103B3000C01A01D50130FF3010BDF0B585B001923B
:103B400000910500FFF71AFF02A8FFF747FE0120CA
:103B50000024FF26039B40425A1E531C1FD02B00FB
:103B6000FC3301998C4218D2D9681F69C91B01D551
:103B70000131FF31002910D01969DF688C4601003E
:103B8000BC4506D019691F69691801373740097AA1
:103B90001F61009F39550134E3E7013ADDE702A8D0
:103BA0000392FFF722FE200005B0F0BD37B56B464B
:103BB000DC1D00230D0020002370FFF71FFD2B6884
:103BC0001818286001F062FD210001F01BFD2B6830
:103BD0001818286020783EBD02220B0010B59343D0
:103BE0000C00012B0BD10D4B08341B6864011C1910
:103BF000802321795B420B432371E27110BD01F0F8
:103C000045FD210001F032FD0028F7D0034B0834B8
:103C10001B6864011C197F23E371EFE7186A002019
:103C200070B50024374B012105000B201C7001F0FA
:103C300009FB01210B2001F035FB334B01210C2046
:103C40001C7001F0FFFA01210C2001F02BFB202356
:103C50002E4A0F20D1690B43D36101222C490B78E6
:103C600013430B702B4B19788143197006211C7874
:103C70002143197028490C7822430A701A780240AF
:103C80001A70602219780A431A70244B244A5A8009
:103C90005A78D209FCD1234800F0D6FF224C7F2667
:103CA000200001F005FD200001F01AFD0C21082381
:103CB0002068C2788A4313430322C3702068C37804
:103CC0009343013A1343C370206803783340037071
:103CD00004232068067833430370206803898B43EC
:103CE0000381C120114980000B581B021B0A0B5095
:103CF00080230B60236819780A431A7001232B7004
:103D000070BDC04681650020806500200004004031
:103D1000584400413C44004159440041000C0040DB
:103D2000064000005D470000186A002000E100E046
:103D30000078002810D00121084B1B681A898A439B
:103D40001A810822198B0A431A830422198B0A4309
:103D50001A830022024B1A607047C046186A00207E
:103D6000106A002010B50F4A93699B0B9B03936167
:103D700013680222FF331A729879823A02439A71C9
:103D80001A7A9207FCD57F24074A2140937A0800CB
:103D9000A3431900802301439172917A5B420B4344
:103DA000937210BD186A00200050004110B50B79C5
:103DB0000C00002B0CD10800FFF72EFC002801D0CE
:103DC000012010BD094A93699B0B9B039361F7E7A0
:103DD00001F05CFC210001F039FC0028F0D1034A1D
:103DE00093699B0B9B039361EBE7C046186A002025
:103DF000F8B50D00832A19D1CBB2434C5A01A21851
:103E000091694248AD010840C02189050143916193
:103E10003F4920686D187021083355615B011A5CB9
:103E20008A43110040220A431A54F8BD022A65D180
:103E3000384B8A00D058002802D003689B69984705
:103E4000A020400000F08EFF80270600324B7F004C
:103E500003602D4B002143603A00083003F0D6FC8C
:103E6000340096220023FC345200E360A3622361F5
:103E70006561E361A7612362E362B3541032A36317
:103E8000E363B3543E223800FF32B35403F07CFCAA
:103E90006062380003F078FC2B006063FF201A4951
:103EA00003405A018A189168184F08330F40C02107
:103EB0008905394307279160134A5B011168AD00FA
:103EC0005A5CBA43170003223A435A546169736833
:103ED000014049015918636A4B60736862691B6845
:103EE000024052019B1801221B18997A30000A43A4
:103EF0009A72FFF7B7FC074BEE5096E711002800C7
:103F0000FFF7FCFB91E7C046186A0020FFFFFF8F18
:103F10008C65002064650020C4B5000070B5050004
:103F20000124064BA200D258002A06D02100280006
:103F30000134FFF75DFF0A2CF3D170BD940000201F
:103F40000B4BCAB20B488901C9185301C3185961F8
:103F500099690832890B89039961036852019A189B
:103F60000223D3715179823B0B4353717047C04692
:103F70008C650020186A0020084B8A00D05810B5C4
:103F8000002803D00368DB68984710BDC9B2044B12
:103F90004901591888688004800CF6E764650020A0
:103FA000186A002010B50C00FFF7E6FF00280CD0BF
:103FB000064BE4B21B68083464011C198023627943
:103FC0005B42134363710223E37110BD186A002042
:103FD00070B5CBB2124A13485C01890189180219E5
:103FE00051609168104D08330D40802189022943AA
:103FF000402591609168890B8903916001685A019D
:104000008A1816793543157195796D06FCD55B01D3
:10401000C918CB79DB07FCD500198068C0B270BD28
:104020004C670020186A0020FF3F00F070B51400B4
:1040300040220B4B0D001B68FF3359790A435A711C
:104040000021FFF7C5FFA04200D920000023054949
:10405000A34203D0CA5CEA540133F9E770BDC046FD
:10406000186A00204C67002010B5C9B20B484901FE
:10407000421893689B049B0C3F2B0BD99468403BE0
:104080009B04A40B9B0CA4032343936041188868F2
:10409000C0B210BD93689B0B9B03F6E7186A002023
:1040A000F0B51C002F4B85B01B6806000D00019277
:1040B000002B54D02C4F3978C9B2002902D10C20E2
:1040C00001F0F0F864233B70284BAA00D058002878
:1040D00008D0036822005B6801999847040020001B
:1040E00005B0F0BD29003000FFF746FF844204D937
:1040F00029003000FFF740FF040029003000FFF7DF
:10410000B3FF0121EBB21A4F03935B010293029AB2
:104110003B6801989B18FF335A7A0A435A72154B31
:10412000A901C918220003F055FB002CD7D02900A3
:104130003000FFF721FF0028D1D14021039B3A68CE
:1041400008335B01D3181879014319710121D97122
:10415000029BD318FF339A7A0A439A72BFE701246D
:104160006442BCE7106A002080650020646500207E
:10417000186A00204C67002013B56B46DC1D220036
:104180000123FFF78DFF012801D1207816BD012002
:104190004042FBE7F0B51E003A4B85B01B680F00AC
:1041A0000192002B3FD08023DB019E423BD8364C4E
:1041B0002178C9B2002902D10B2001F073F86423E1
:1041C00000252370314BBA01D3180293002E2CD056
:1041D0002F4B1B680393FF233B401C0000930834C4
:1041E000039B64011C19A379DB0921D0294B2A49BF
:1041F000186801F0C9FA294B1721584301F0C4FA95
:10420000274BE279920713D4DA5D002A01D10138F5
:10421000F7D20122DA55009B5A011D4B9B189A696F
:10422000920B92039A6101256D42280005B0F0BD02
:1042300000221B4B3400DA55402E00D940242200C6
:104240000199029803F0C6FA009BA1045A01104B91
:10425000890C9B18029A2D195A619A69361B920B88
:1042600092030A439A61009B039A08335B01D318B7
:104270000222DA715979823A0A435A71019B1B1959
:104280000193A3E7106A0020816500208C6500205F
:10429000186A0020BC00002040420F00701101008D
:1042A0008365002070B50D001C000D4BAE01F618A3
:1042B00011003000220003F08DFAEDB209496D01C2
:1042C0004D196E61AB69084A20001340AB61AB69C0
:1042D000A2049B0B920C9B031343AB6170BDC046C1
:1042E0008C650020186A0020FF3F00F0F7B5104BE6
:1042F00001901B780F001500002B0CD10D4B160000
:104300001C78002C09D00C4E0C48348820186419F5
:1043100003F060FA34802800FEBD002EFBD03A196D
:10432000330000210198FFF7BDFF2418361AF4E787
:104330000C6900200D6A00200E6A00200D69002023
:10434000F8B5002000AF0E001500012A27D9D31DB3
:104350006A46DB08DB00D31A9D46080004F098F992
:104360006C4603230222002101304000207063705C
:10437000AA420DD2307800280AD0531CDBB2013695
:10438000A0549D4203D00232E154D2B2F0E72A0099
:1043900021000448FFF7AAFF431E9841C0B2BD4662
:1043A000F8BDC04660650020F0B50024012685B048
:1043B000184B0F0069461E7005000094FFF7F6FBCE
:1043C000154B01A90B806A3BFF3BCB716E3B0B7217
:1043D000009B8C7109334B800E4B4E7108711C7021
:1043E0003A00092F0FD00D4F09223E700C4E2800C5
:1043F00000943480FFF77AFF69462800FFF7D6FB68
:10440000328808493C702800FFF770FF012005B092
:10441000F0BDC0460C690020090200000D6A0020B2
:104420000E6A00200D690020F0B5CF7893B005002A
:104430000E00022F09D1C9882D48FFF7B5FF441E91
:10444000A041C4B2200013B0F0BD01F01FF931004B
:1044500001F0ECF8002803D0C417241AE40FF1E7A8
:10446000012F0FD1F288082A0AD02249112A13D825
:10447000D2B2002A10D02800FFF738FF0124E1E76C
:104480001D49F5E70400032FDCD1B378002B05D1DB
:10449000F2881A49032AEBD90A78ECE7022B06D1F5
:1044A000B27917492800FFF74BFF0400CAE7012B38
:1044B00002D1B2791349F5E7032BC3D1124B01A9FD
:1044C0001868FFF701F9114B03A91868FFF7FCF80A
:1044D0000F4B05A91868FFF7F7F80E4B07A91868E6
:1044E000FFF7F2F86B460533DC77B27901A9D9E71B
:1044F00060650020FCB500000EB60000F2B50000BB
:10450000E4B50000F6B500000CA0800040A08000DB
:1045100044A0800048A0800037B5040048780D0012
:104520000B2810D801F01CF9061B0F2B0F40456D0E
:10453000494C6669097801AA002906D10223118035
:104540002000FFF7AFFE01203EBD002313802E4B5D
:104550001B78012B00D1137002230021F0E78A7829
:104560000023012A03D101AA1380284BF0E7264A31
:104570001370274A93699B0B9B039361E3E78D7844
:10458000012D06D10021214B01AA1D7011702B00B5
:10459000D6E70120002DD7D11B4B1D4A1870936917
:1045A0009B0B9B039361CFE789782000FFF7DAFB31
:1045B000C9E72000FFF738FFC6E70123154ACCE71B
:1045C0000B780020DB06BFD12000FFF7A7FC2A20D4
:1045D000AA78104BFF301A6002230D4A11680C5C58
:1045E00023434A240B54FF340B5D2938FF3803431F
:1045F0000B55D4E70123084AAFE78A78064B1A60C7
:10460000B7E70020A0E7C046826500208A65002049
:10461000186A0020106A0020146A0020474BF7B582
:104620001C780600002C7CD1454D2B689B8B1B070A
:104630000ED521002000FFF761F82A681023110031
:10464000FF31887A03438B723E4B1C6008239383AF
:104650002B689A8B52071FD504229A833A4A137803
:10466000002B0AD01378013BDBB213701378002BB8
:1046700003D101210B2000F015FE344A1378002BE2
:104680000AD01378013BDBB213701378002B03D1EF
:1046900001210C2000F006FE2B68FF331A7AD206A7
:1046A0001ED510221A72597930320A435A7160238A
:1046B000274930000A781A4234D1FFF72DFF2B68C2
:1046C000FF33002831D08022997952420A439A71EF
:1046D0001A7A520604D540221A72597A0A435A723B
:1046E000012427002B681B8CA343DBB20193019BA1
:1046F00023413B4212D023002A6808335B01D318C0
:10470000DA79D20702D4DB799B0707D5114BA200D7
:10471000D05800280DD003681B6898470134082C36
:10472000E5D1F7BDFFF742FBC9E720210A4A9171A5
:10473000CEE7E1B23000FFF74FFAEFE70D6A002055
:10474000186A0020106A0020816500208065002022
:104750004C67002064650020FF50004110B50248FE
:10476000FFF75CFF10BDC04660650020014B024AA8
:104770001A607047186A00200050004101207047FD
:1047800010B50368014A1B6A984710BD1304000066
:104790000300FC33D9699A69914203D0DB69C018E0
:1047A000007D704701204042FBE710B5040000691E
:1047B000FEF756FD22000023FC329361D36186226E
:1047C0009200A4186360A36010BDF020014030394E
:1047D000484248417047F0231B01194080230620BE
:1047E0009B0099420AD00133FF330130994205D032
:1047F000802302385B00994200D0002070470F20D0
:1048000001400020012903D00239481E8141481C83
:10481000704700008923F0B5182685B002919B00EF
:104820000400C05C330008214343324D1700EB18ED
:10483000595600F06DFD304B0821E05C33004343D6
:10484000EB18595600F064FD2C4BE25C0393022AEE
:1048500009D11133E05CFF2805D008214643AE1989
:10486000715600F055FD8A26B600A05DFF2819D0CC
:10487000012100F0E7FC1822A35D21495A43AB5601
:10488000AD18DB0158188B21890060501D490122A9
:104890005B188C218900635069688A408D218900EA
:1048A00062501A600122029B11002069FEF7A6FDEA
:1048B00039002000FFF78FFF390005002000FFF7C7
:1048C0009EFF390006002000FFF77FFF33000090B5
:1048D000290020690122FEF793FC0B4B2069E25C62
:1048E000039BE15CFEF7A9FC2069FEF7C6FC05B05E
:1048F000F0BDC046C8B3000025020000270200003A
:10490000184400411444004126020000802210B5E2
:1049100004005200002102F079FF23000022FC3342
:104920005A6020009A6010BDF7B51D0008AB1B78D7
:104930000400009309AB1B78160001930023436029
:10494000FA239B008360114B0F000833036014307F
:10495000FFF7DCFF20001D30FF30FFF7D7FF892372
:104960006A469B002761E654094B1278E554094BCF
:104970002000E2546A46084B1279E2548A22293B0D
:10498000FF3B9200A3541032A354FEBD20B600009A
:104990002502000026020000270200000300FC336D
:1049A00059689A68914204DB5A689868801AFF3007
:1049B000704798685B68C01A0138F9E710B51D3078
:1049C000FF30FFF7EBFF10BD030070B5FC33D96972
:1049D0009A69040091421AD0DA698218157DDA6961
:1049E0000132D2B2DA618A239B00E35CFF2B0CD048
:1049F00020001430FFF7D2FF0A2806DD8C238D2219
:104A00009B009200E358A2581A60280070BD01254F
:104A10006D42E8E70300FC3358689B68C01A01D573
:104A20000130FF30704710B5040020001D30FF300A
:104A3000FFF7F0FF0028F8D12069FEF728FC10BD31
:104A400010B51430FFF7E6FF10BD10B50400006983
:104A5000FEF739FC002805D02069FEF744FC2069E8
:104A6000FEF736FC2069FEF71EFC002820D02069E6
:104A7000FEF739FC2200FC329369D1690133DBB2C5
:104A80008B4203D091696118087593618A239B005A
:104A9000E35CFF2B0CD020001430FFF77FFF0928C8
:104AA00006DC8B238D229B009200E358A2581A60EB
:104AB0002069FEF713FC00281AD020001D30FF30BB
:104AC000FFF7A8FF002822D086239B00E3189968EF
:104AD0005A68914218D08E219A684900A218515CF8
:104AE0009A680132D2B29A60C9B22069FEF7FFFB20
:104AF0002069FEF7DDFB002805D02069FEF7DCFB0E
:104B00002069FEF7CCFB10BD01214942ECE720698A
:104B1000FEF7F9FBECE7000070B5040000690D003A
:104B2000FEF7DCFB00283ED1FF2686239B00E3181E
:104B30005A689968013232408A4223D1EFF31083D8
:104B4000DB070DD41E4B5B68DB05DB0DEDD0103BA6
:104B50005BB2002B0DDB9B08C0331A4A9B009B58AD
:104B60002069FEF7BBFB0028DFD02000FFF76DFFB8
:104B7000DBE70F221340083B9B08134A9B009B185E
:104B80001B68EDE75A68013216409A68964205D0D4
:104B90008E215A684900A21855545E602069FEF7BC
:104BA000AEFB012070BD20001D30FF30FFF732FF4B
:104BB0000028B9D129002069FEF799FBF1E7C0462A
:104BC00000ED00E000E100E01CED00E0FEE7000089
:104BD000034B10B51B68002B00D0984710BDC04692
:104BE0001C6B002070B50F490F4CA14204D100F09E
:104BF000DFF800F09FF8FEE70C4D00238D42F6D061
:104C0000CA18E818A24205D3094B8242EFD00949DD
:104C1000002204E0006804331060F1E704C38B4213
:104C2000FCD3E4E700000020AC0200201CBA000026
:104C3000AC020020486B002010B500F064F800289A
:104C400001D100F055F810BD014B18607047C04607
:104C50001C6B0020014B18687047C046206B002079
:104C6000F7B51348012284461249134C8E686368D5
:104C700005689B0E1340019288686268019F920E3E
:104C80003A4067463F6893420ED1BD420CD18642FE
:104C90000AD35B19FA254868AD00861B07486B43A9
:104CA0007043000DC018FEBD3D0013000600E3E791
:104CB000206B002010E000E000ED00E05555000002
:104CC00070B5041E10D0FFF7CBFF050000F01AF8F6
:104CD000FFF7C6FF054B401B9842F7D9FA23013C6A
:104CE0009B00ED18002CF3D170BDC046E703000017
:104CF00010B5034A13680133136000F047FC10BD80
:104D0000206B0020704700207047704710B5FDF7FA
:104D1000DDFAFDF7D9FAFFF7F5FF034B002BF8D0CA
:104D200000E000BFF5E7C0460000000010B5FFF747
:104D3000EDFF000010B500F0EBF802F0FDFCFFF70E
:104D4000E4FF0120FFF7BCFF054C2000FEF768FFE1
:104D50002000FEF7EDFFFFF7E9FF002010BDC04681
:104D60006065002010B502F00FFD10BD10B502F017
:104D700015FD10BD10B50200EFF3108172B60A4B9D
:104D80001868002801D10948186018688218EFF3E4
:104D90000884A24204D21A60002900D162B610BD74
:104DA00001204042F8E7C046246B0020486B0020F9
:104DB0001E2270B546484749436893431C3A134343
:104DC000436008238C6923438B61434C434B9C8293
:104DD0009C8A14439C82DC681442FCD00124404A23
:104DE00014701578254203D055786DB2002DF8DB8C
:104DF00001249460547864B2002CFBDB394C54607D
:104E0000547864B2002CFBDB8224E4015480547893
:104E100064B2002CFBDB02249C840E34DD68254246
:104E2000FCD0314CDC621024DD682542FCD09D8C26
:104E30002E4C2C439C841024DD682542FCD0022497
:104E40009D8C80262C439C844024DD683542FCD018
:104E5000DD682542F9D01024DD682542FCD000240D
:104E60009460547864B2002CFBDB214C546054787D
:104E700064B2002CFBDB1C6A1E4D2C4080251C629A
:104E80001C6AAC431C62032393601B4B5360537832
:104E90005BB2002BFBDB0023FF240B72174A4B7223
:104EA0008B72CB72164B1A60164B174A1B6811682F
:104EB0009A065B01C90E2340520F12020B431343A3
:104EC000124A1385802342681343436070BDC04675
:104ED00000400041000400400C06000000080040B3
:104EE000000C004001050100B905FF7D040A000027
:104EF00000070300FFFCFFFF03060100006CDC025B
:104F0000BC0000202460800020608000004000423F
:104F1000FA212D4B10B51868890000F035FC2B4B99
:104F2000013898424FD82A492A4A4860C020136A5B
:104F300000061B021B0A0343136200238B60073326
:104F40000B608021136A09061B021B0A0B431362C4
:104F5000FC22214B196A0A431A62FF22196A1202C3
:104F60000A431A62A022196AD2020A431A621B4B30
:104F70001C005A7852B2002AFBDB194A5A80194B9E
:104F80001A00597EC9090129FBD0C82189009980DE
:104F90000521D970537EDB09012BFBD0C0230020F3
:104FA0005B011361907000F029F863785BB2002B0D
:104FB000FBDB0D4B0D4A6380D379DB09012BFBD062
:104FC0004123537010BDFEE7BC000020FFFFFF002F
:104FD00010E000E000ED00E000040040000C0040A4
:104FE0001E400000004000422140000000480042F6
:104FF000014B18607047C046C00000201F4900B533
:105000000B004A7ED209012AFBD001380A282FD88A
:1050100000F0A6FB1B2E2E2E2E2E062E2E24110067
:105020001A6917490A400F211A615A788A431100F8
:1050300001220A4310E01A6911490A400F211A613E
:105040005A788A4311000322F3E71A690C490A408F
:105050000F211A615A788A435A7000BD1A690849AB
:105060000A400F211A615A788A4311000222E0E7B0
:10507000F022196912050A43F3E7C04600400042D6
:10508000FFFFFFF018234343F0B5654A87B09B1834
:10509000DE6804000091B20719D5002817D1614AD3
:1050A0001300D179C9090129FBD000998D05AD0DF7
:1050B0001581DA79D209012AFBD0022219780A4334
:1050C0001A70DA79D209012AFBD007B0F0BD08279F
:1050D00032003A400192544D00D18FE029681022ED
:1050E00000981227DF5F00F009F904210500F3069C
:1050F00002D4B306E9D50521200000F009F93E12DB
:105100004A4BB200D4584A4BFFB29A5D002A54D1A0
:1051100001329A5547490F3202A802F05BFB02AAFE
:1051200073009B5A8022D2011A43434B5A805A780B
:10513000D209012AFBD0022296421BD9238893432D
:105140002380E37BDB09FCD1228840331343238097
:10515000E37BDB09FCD10C37ADB27F003D53E37B31
:10516000DB09FCD12288023313432380E37BDB0974
:10517000FCD1AAE723689343304A23601300A16857
:105180001142FCD10222E16B0A43E263A2681A4297
:10519000FCD11037BF00E7197D60A2681A42FCD12C
:1051A000274A2264A2681A42FCD1022221680A43DB
:1051B0002260A2681A42FCD187E7022E07D90C3779
:1051C000ADB27F003D53E37BDB09FCD17DE70223D9
:1051D000627913436371194B1A00A1681942FCD11B
:1051E0001C37BF003D51A3681342FCD10223217933
:1051F0000B432371A3681342FCD166E70121200011
:1052000000F020F829683A00009800F077F801993A
:105210007F2800D90121200000F044F855E7C0465E
:10522000C8B3000000480042C00000202800002051
:10523000286B002054B60000000C0040FF0F7F00D8
:10524000FFFF0000182310B508244343134AD01869
:105250000457013412D001249A5643689C40032914
:105260000CD808000E49D2015218D318403300F070
:1052700077FA0210060B02211970546010BD062146
:10528000197054609461F9E70621197054605461F3
:10529000F4E7022119709460F0E7C046C8B300003B
:1052A000004400411823F0B508245843114A13184C
:1052B0001C5701341BD0012635005F688356BD4062
:1052C0000D4ADB019A18906805420BD10C00601E54
:1052D0008441D2194032107834400336A400B043E0
:1052E00020431070044A9B18002901D15D61F0BD74
:1052F0009D61FCE7C8B3000000440041914202D028
:1053000002D98A1AD0407047521A9040FBE7000039
:105310001822424370B52D4E0300B218127A52B2D1
:10532000140001320ED0481C00240C280AD800F0CA
:1053300017FA071F1F1F1F1F1F1F1F0B0B0B0B0031
:1053400001246442200070BD092905D10021180004
:10535000FFF778FF0024F5E70A2901D10839F6E7BD
:1053600000240B29EED10A391800FFF76BFFE9E79B
:10537000182201205343F218F3565568144ADB01F2
:105380006C089B18C9B228401C1900280ED00F20A9
:10539000303422780901024011434122C9B25B191D
:1053A0002170403319780A431A70D3E722000F2680
:1053B000303214785B19B4432143117041224033D9
:1053C000197804000A431A70BCE7C046C8B300004D
:1053D00000440041F0B5182444435B4B8BB0E41803
:1053E000E6680500059233076FD5002900D1013129
:1053F000564800F0C9F9431E039302210023544A82
:10540000039F97420ED91F008F43042F01D0082B12
:1054100001D10133DBB207000133DF40013F0397C5
:10542000DBB2EDE7013B0027092B01D8494AD75CE5
:105430001222A35E04210493F30602D4B30644D5DA
:1054400005212800FFF764FF06AD049B10224249A6
:1054500028001C1202F0BEF9802263005B5BD201BF
:105460001A433E4B5A805A78D209FCD16B461B7CBA
:105470003B4D0493A600022C29D910320A2105982D
:10548000FFF73CFF0221AB591A888A431A80DA7B66
:10549000D209FCD1E0213A02C9000A4040211C880F
:1054A00021430A431A80DA7BD209FCD1049A80B2E4
:1054B0000C325200D052DA7BD209FCD11988023268
:1054C0000A431A80DA7BD209FCD10BB0F0BD039CF1
:1054D000244B9C4200D21C00002380221900D200E1
:1054E0000094059800F02CF90221AB591A688A4300
:1054F0001A601D4A11009D681542FCD107221D68E3
:105500001A4E3A40120235402A431A609A680A42FB
:10551000FCD10222DD6B2A43DA639A680A42FCD18D
:10552000049A103292009A1850609A680A42FCD18C
:105530001C649A680A42FCD10222186802431A606D
:105540009A680A42FCD1C0E7C8B30000006CDC02D4
:10555000FFFF000074B6000064B60000000C0040BD
:1055600028000020FF030000FF0F7F00FFF8FFFF6F
:10557000014B18607047C046C40000200122024B56
:1055800052421A607047C046C4000020164A10B547
:105590001368591C26D0013B1360002B22D172B630
:1055A000124B134A0433934213D9124A01211000BB
:1055B000147D0C42FCD02021148BFF319B085B0032
:1055C00021431183D3610C4B13800123027D1A42C6
:1055D000FCD0BFF34F8F094B094ADA60BFF34F8FFE
:1055E000C046FDE710BDC046C400002000200000FA
:1055F000030200000040004102A5FFFF00ED00E0B3
:105600000400FA0570B50E0000254468002C0BD08C
:10561000236831005B6820009847002802DB2D18C2
:10562000E468F3E701256D42280070BD70B50D00F8
:105630004468002C08D0236829009B682000984704
:10564000002802D1E468F4E7200070BD70B50D00B9
:105650004468002C08D0236829001B682000984764
:10566000002802D1E468F4E7200070BD70B50D0099
:105670004468002C08D023682900DB682000984784
:10568000002802D1E468F4E7200070BD0121054A3A
:1056900010B5136804480B4003D1044C43600480E8
:1056A000116010BD306B0020346B0020020400003C
:1056B00070B50400012304CC0500117820000B43D1
:1056C000137080220021520002F0A0F82B689A7813
:1056D000D207FCD49A789207F9D45C6270BD0000BE
:1056E0001F22144BF0B51B68590B9C0C9B011140F9
:1056F00014405B0F914200D105211F2C00D1023CC8
:10570000072B00D1043B02688F01158D0A491F2623
:1057100029403943118505683440298D0A00B24378
:1057200022432A8500681903028D044B13400B4362
:105730000385F0BD246080003FF8FFFFFF8FFFFF6F
:1057400010B51C00431A0298511A001B584300F070
:10575000A5F8001910BD10B5FFF708FB10BD00003B
:1057600002B4714649084900095C49008E4402BCF4
:105770007047C04603B47146490840004900095EBD
:1057800049008E4403BC7047002243088B4274D307
:1057900003098B425FD3030A8B4244D3030B8B4232
:1057A00028D3030C8B420DD3FF22090212BA030C3B
:1057B0008B4202D31212090265D0030B8B4219D31C
:1057C00000E0090AC30B8B4201D3CB03C01A52413C
:1057D000830B8B4201D38B03C01A5241430B8B4284
:1057E00001D34B03C01A5241030B8B4201D30B036D
:1057F000C01A5241C30A8B4201D3CB02C01A524194
:10580000830A8B4201D38B02C01A5241430A8B4256
:1058100001D34B02C01A5241030A8B4201D30B023F
:10582000C01A5241CDD2C3098B4201D3CB01C01A59
:10583000524183098B4201D38B01C01A5241430963
:105840008B4201D34B01C01A524103098B4201D351
:105850000B01C01A5241C3088B4201D3CB00C01ABE
:10586000524183088B4201D38B00C01A5241430836
:105870008B4201D34B00C01A5241411A00D201465B
:10588000524110467047FFE701B5002000F0F0F8E4
:1058900002BDC0460029F7D076E7704703460B43A8
:1058A0007FD4002243088B4274D303098B425FD319
:1058B000030A8B4244D3030B8B4228D3030C8B4245
:1058C0000DD3FF22090212BA030C8B4202D312122B
:1058D000090265D0030B8B4219D300E0090AC30B00
:1058E0008B4201D3CB03C01A5241830B8B4201D3AD
:1058F0008B03C01A5241430B8B4201D34B03C01A96
:105900005241030B8B4201D30B03C01A5241C30A0D
:105910008B4201D3CB02C01A5241830A8B4201D37E
:105920008B02C01A5241430A8B4201D34B02C01A68
:105930005241030A8B4201D30B02C01A5241CDD20D
:10594000C3098B4201D3CB01C01A524183098B4258
:1059500001D38B01C01A524143098B4201D34B0141
:10596000C01A524103098B4201D30B01C01A5241A4
:10597000C3088B4201D3CB00C01A524183088B422B
:1059800001D38B00C01A524143088B4201D34B0014
:10599000C01A5241411A00D2014652411046704786
:1059A0005DE0CA0F00D04942031000D3404253408B
:1059B00000229C4603098B422DD3030A8B4212D34B
:1059C000FC22890112BA030A8B420CD3890192117D
:1059D0008B4208D3890192118B4204D389013AD0BA
:1059E000921100E08909C3098B4201D3CB01C01A8F
:1059F000524183098B4201D38B01C01A52414309A2
:105A00008B4201D34B01C01A524103098B4201D38F
:105A10000B01C01A5241C3088B4201D3CB00C01AFC
:105A2000524183088B4201D38B00C01A5241D9D214
:105A300043088B4201D34B00C01A5241411A00D295
:105A40000146634652415B10104601D34042002B91
:105A500000D54942704763465B1000D3404201B510
:105A6000002000F005F802BD0029F8D016E77047C5
:105A70007047C0468446101C62468C46191C63461B
:105A800000E0C0461FB500F00FFF002801D4002140
:105A9000C8421FBD10B500F067FE4042013010BD86
:105AA00010B500F001FF002801DB002010BD01202F
:105AB00010BDC04610B500F0F7FE002801DD002043
:105AC00010BD012010BDC04610B500F089FE0028B1
:105AD00001DC002010BD012010BDC04610B500F053
:105AE0007FFE002801DA002010BD012010BDC04655
:105AF00070B500220C4B04000D00FFF7EFFF0028EB
:105B000004D12000290001F00DFD70BD064B0022DC
:105B10002000290001F0A2F901F004FD80231B06FA
:105B20009C466044F1E7C0460000E041F0B54F46B6
:105B30004646D6460C000903C0B5490A470F5E0029
:105B400039431F03DB0F9C4665007B0A570F1F4339
:105B50006D0DE40F760DA146C000B846D200AB1B18
:105B600064457BD0002B5FDD002E00D0A4E03E001A
:105B7000164300D112E15E1E002E00D09EE1871A6E
:105B80004346B84280410125C91A4042091A0B0216
:105B900000D431E149024E0A002E00D16EE13000FE
:105BA00001F0ACFD0300083B1F2B00DD61E120226A
:105BB0003900D21A9E40D1409F400E439D4200DDE5
:105BC00051E15D1B6B1C1F2B00DD7CE12021C91AFC
:105BD0003D0030008F408840DD40791E8F4131000C
:105BE00007222843D940002507433A40002A09D01C
:105BF0000F233B40042B05D03B1DBB42BF417F42DE
:105C0000C9191F000B0200D426E26A1CC64B5505B9
:105C10006D0D9A4200D106E1C44AFF080A405307BD
:105C200052023B43120B8EE0002B00D0B8E06B1CFD
:105C30005B055B0D012B00DC30E1871A4346B8425F
:105C4000B641CB1A76429E1B330200D54CE13B0095
:105C50003343A1D100220024002570E0002B00DC9A
:105C6000E5E0002E00D183E0AF4EB54260D0802643
:105C700036043743B846382B00DC3EE14346134335
:105C80001F007A1E97413F18874280414042091801
:105C90000B0200D4B0E0A44B01359D4200D1C3E01B
:105CA000A24A7B080A4001210F401F435108D30735
:105CB00007221F433A4099E79B4EB54238D08026D1
:105CC00036043743B846382B00DDDCE01F2B00DC00
:105CD00030E11E004746203EF740BC46202B04D052
:105CE0004026F31A46469E403243170063467A1E0A
:105CF00097411F43CCE0002B00D104E243461343FD
:105D000000D159E14B07C00818438023C9081B0381
:105D1000194208D04546ED081D4204D14346D0083B
:105D2000590708432900420FC9007F4D1143C000A5
:105D30004B07CA087C49C00803438D4268D0120350
:105D40006D05120B6D0D002112031800130B0A0DC7
:105D500012051A43764B2D0513402B435B00E407D5
:105D60005B08234319001CBC90469946A246F0BD2F
:105D70003E00164312D05E1E002E00D000E18718B0
:105D80008742804141444042091801250B0233D526
:105D9000022585E764463300414610001D00C7E731
:105DA000002D00D0DAE00C000443F3D05C1C00D1DD
:105DB0009FE15D4CA64200D12FE1DB43382B00DD93
:105DC00066E11F2B00DD83E120240500E41A0F00AB
:105DD000DD40D940A0404346A7405B1A441EA04185
:105DE00098462F433843171ABA42924143465242CB
:105DF000991A64463500CAE607223A40002A00D0C4
:105E0000F6E64B07CA084849FF083B438D4296D146
:105E10001900114300D19EE1802109030A431203B6
:105E2000120B414D8FE71500002200238BE7002B5A
:105E300000D0C7E06B1C5F057F0D012F00DCF1E097
:105E4000394DAB4200D1B9E085180A00854289413D
:105E50004244494251180722CF076D082F43490891
:105E60003A401D00C2E607223049ED1A31403A405F
:105E7000BCE63E002838864000279FE6380001F047
:105E80003DFC20308EE6434613431F007A1E9741A7
:105E9000C71BB84280414042091A78E60E003B0019
:105EA00006431343002D61D1002E00D0F4E0002BF7
:105EB00000D11BE164463900100039E71A4FBB429C
:105EC0007AD03300FFE630001F3DE840202B03D09E
:105ED0004021CB1A9E4037437B1E9F410722074338
:105EE0003A400021002589E7171A4346BA42B641D5
:105EF000591A76428E1B64464EE61F2B00DDADE03C
:105F000020264746F61AB740B9461700B246DF408A
:105F10004E463E4337005646B240561EB2411743E6
:105F20004246DA408918AEE6FF070000FFFF7FFF18
:105F3000FFFF0F8020264746F61AB740B9461700E4
:105F4000B246DF404E463E4337005646B240561EEC
:105F5000B24117434246DA40891A99E77F4CA6427C
:105F60005BD0802424045B42214327E7002E0CD120
:105F7000002B00D1CBE0644639001000774DD7E606
:105F8000764FBB4218D0330075E6002B14D04B0778
:105F9000C00818438023C9081B03194207D0FC0816
:105FA0001C4204D17907D0080843E14621004C4641
:105FB000420FC9001143C000684DB9E61D00002220
:105FC0000023C0E6002D5BD10D00054300D1E2E6C1
:105FD0005D1C00D1B0E0614DAE421FD0DB43382BD9
:105FE00071DC1F2B00DD96E020250F00ED1AAF407D
:105FF000B9460700AA46DF404D463D432F005546AF
:10600000A840D940451EA84188440743BF1897427D
:1060100092415142414435003AE6644635004146DA
:10602000100085E60B000343002D00D063E6002B33
:10603000F5D04346134300D17AE687188742804162
:1060400007224144404209183A400B0200D4D5E6E9
:10605000434B01351940C9E5380069E61E00474643
:10606000203EF740BC46202B04D04026F31A46467B
:106070009E403243170063467A1E97411F4302E653
:10608000364DAE42CAD080252D045B422943A6E797
:106090000843411E8841A6E6002B00D148E6871A36
:1060A0004346B842B641CB1A76429E1B33024BD5CB
:1060B000171A4346BA429241591A5242891A072284
:1060C00064463A4092E501430F00791E8F419DE7F7
:1060D0001C000F00203CE740202B03D04024E31A93
:1060E00099400843411E884138437CE60022002441
:1060F00025E6171A4346BA429241591A5242891A62
:106100006446350043E541461000144D10E68022F8
:106110000024120380E61D000F00203DEF40BC4626
:10612000202B03D04025EB1A994008430700634613
:10613000781E87411F4369E7871897429B41414476
:106140005B42C9183500A3E53B003343CED007229C
:1061500031003A4052E600231A00F4E5FF07000040
:10616000FFFF7FFFF0B55746DE464E464546E0B599
:10617000834607000E03480085B092461C00360B8C
:10618000400DCD0F002800D19DE0954B984239D0AD
:106190008023F6001B041E43924A7B0F334399462B
:1061A000944603006344009300230026FF000293FB
:1061B00023031B0B98466300E40F52465B0D0194CA
:1061C00000D1B3E086498B4200D19EE04246D10027
:1061D000802212040A435146490F11438B468149DC
:1061E00052468C4600996344CB1A0021D20000939A
:1061F0002B0063409A460F2E00D905E17A4BB6007A
:106200009B599F465B463343994600D0B8E0022332
:106210000826002700900293CAE7CB463A0002996D
:106220000195019B9A46022927D0032900D180E2DB
:10623000012944D06D49009B8C4663441C00002C0E
:1062400038DD530700D013E2D2085B46DB0109D5E5
:106250005946674B19408B468021C9008C46009BEC
:1062600063441C00634B9C4207DC5B4664055F078C
:106270005B0217431B0B620D02E000230027584A04
:1062800000211B031C0B0B0D1B05234314055A4A4D
:10629000380013401C4353466400DB0764081C436A
:1062A000210005B03CBC90469946A246AB46F0BDE5
:1062B0000122524201231B1B382B00DCADE10022DE
:1062C00000230027DCE75B46334399465ED0002E6F
:1062D00000D18AE1300001F011FA03000B3B1C2BC6
:1062E00000DD7BE11D22D31A5A460100DA4008394D
:1062F0008E4013005F46334399468F403F4B002644
:106300001B1A00930023029352E7414653460B4366
:106310003B499B468C46009B634400935B46002BA5
:106320003BD1022300221E43022161E7434613436F
:106330009B4637D04346002B00D162E1404601F036
:10634000DDF903000B3B1C2B00DD53E1020041464D
:10635000083A914088461D21CB1A5146D9400B007E
:1063600041460B439B46534693401A00009B2549E8
:106370009C46604403008C4663440093002137E749
:106380000323B14600900C26029311E700230093EB
:1063900001330426002702930AE70323C3461E4362
:1063A000032125E701331E430022012120E70023BA
:1063B0009A46802300271B03094A61E78023494648
:1063C0001B03194200D1E2E05946194200D0DEE039
:1063D0000B431B0317001B0BA246014A50E7C046A4
:1063E000FF07000001FCFFFF80B60000FF03000074
:1063F000FFFFFFFEFE070000FFFF0F800DFCFFFF09
:1064000001F8FFFFF3030000D94500D9CBE000D12C
:10641000C6E03C0048460027009B013B00935B46DA
:10642000160E1B021E431302984633041B0C99469A
:10643000310C0191FFF72EFA4A4642430B04210C1E
:10644000050019438A4207D98919013D8E4203D8B4
:106450008A4201D9851E8919881A0199FFF71AFA0B
:1064600009048C464A46210464464243090C030051
:1064700021438A4204D98919013B8E4200D8F1E0B8
:106480002D041D43AB464346891A4246280C12048C
:106490001D0C5B46140C22001B041B0C5A43039476
:1064A0006B434443029568431B19150CEB189C423F
:1064B00003D980246402A44660441C0C15041B0408
:1064C0002D0C20185D19814277D373D00C1AA24A83
:1064D0007D1BAF42BF419446009B7F426344E01B5B
:1064E0001C00864200D1DBE00199FFF7D3F94A4650
:1064F00042430B04290C070019438A4207D9891922
:10650000013F8E4203D88A4201D9871E8919881A11
:106510000199FFF7BFF909044A46894629044D4607
:106520004243090C030029438A4207D98919013BD8
:106530008E4203D88A4201D9831E89193F04891AE1
:106540003A00039F1A43380013041B0C584381463A
:106550000298150C6F43434345434846000C84465C
:10656000DB1963449F4203D980204002844665447E
:1065700048461F0C00041B04000C7D191818A94282
:1065800000D284E000D17FE001231A4357E6802344
:106590004A461B0313431B031B0BAA466F4A6FE6B5
:1065A000BA4200D935E74B46DC0758087B081C4344
:1065B000FF0734E70024AF4289D247444745A4414E
:1065C0005B466442A4196418013BA6421ED2A04255
:1065D0006DD800D1B6E0241A9B4678E703005A46EE
:1065E000283B9A400027914688E6584601F086F8F5
:1065F000203072E603005246283B9A409346002220
:10660000B4E6504601F07AF820309AE6A642E2D18C
:10661000B845DCD9341A9B4659E71F2B65DC504C32
:106620000099A4465C46614408008C4011008240F9
:10663000D940501E82410C4314435A46DA4013009D
:10664000620709D00F222240042A05D02200141D1F
:106650009442894149425B181A0262D50122002303
:1066600000270DE68A4200D80AE7831E891907E74A
:106670000F231340042B00D1E6E5171D97429241EA
:1066800053429B44FA08E0E5002800D1D7E5711891
:10669000531EB14227D3A94215D358D01A0073E72D
:1066A000002B00DC04E6012300229B44CDE50223FD
:1066B0004744474589415B429C46494289190C1928
:1066C000E344241A03E743465F0047459B41B8462D
:1066D0005B429E19023A8919A94200D054E740450D
:1066E00000D051E7ABE51A00F6E71F215F464942AB
:1066F0000C1BE740202B07D01A49009B8C466344B3
:1067000018005B4683401A43501E82413A430727D4
:106710000023174009D00F21002311401400042941
:1067200095D122005F075B021B0BD20817430022A2
:10673000A6E5802359461B030B431B0317001B0BC5
:10674000064A9DE5BD42B2D89B460024BFE680457F
:10675000B9D31A00C3E7C046FF030000FF070000DB
:106760001E0400003E040000F0B54F464646D646E3
:106770008446C0B58046194E18030F034D00000B28
:106780005C0082463F0B6D0DC90F9146640DDB0F17
:106790000120B5420AD0B44203D0A54201D15745E9
:1067A0000CD01CBC90469946A246F0BD66463E43BE
:1067B000F7D1AC42F5D154461443F2D10120C8457B
:1067C000EFD1994207D0002DEBD163461F4338002B
:1067D000471EB841E5E70020E3E7C046FF07000099
:1067E000F0B54F464646D6464D00C0B50E03C90F1C
:1067F0008A462C491F035C008046360B6D0D91467E
:106800003F0B640DDB0F8D421ED08C4216D0002D45
:106810001ED130438446002C01D13A4323D0624636
:10682000002A1AD09A4529D0514602200139084041
:1068300001381CBC90469946A246F0BD3900114370
:10684000E5D002204042F4E73043FAD1AC420FD009
:10685000002C0FD13A43E7D00CE00122013B9343D7
:1068600018000130E5E763460020002BE1D0DBE7AC
:106870003A43E6D19A45D7D1A542D5DCA54205DBFE
:10688000BE42D1D808D00020BE42D2D25046012309
:10689000013898430130CCE7C845C5D80020C84529
:1068A000F4D3C6E7FF070000F0B54F464646D6468C
:1068B0004D00C0B50E03C90F8A462E491F035C0068
:1068C0008046360B6D0D91463F0B640DDB0F8D42FC
:1068D00018D08C4211D0002D18D130438446002CA2
:1068E0001ED13A431CD163460020002B30D05146C4
:1068F00002200139084001382AE039001143EAD06A
:10690000022025E03043FBD1AC4226D0002C26D11A
:106910003A4324D15146022001390840013817E09A
:106920006246002A0FD09A45E1D1A54205DBBE425E
:10693000DDD819D00020BE420AD2504601230138CA
:106940009843013004E00122013B934318000130D9
:106950001CBC90469946A246F0BD3A43D0D19A4518
:10696000C5D1A542C3DCE0E7C845C0D80020C84572
:10697000E3D3EDE7FF070000F0B55746DE464E468D
:106980004546E0B5834606000F03480087B09246AF
:106990001D003F0B400DCC0F002800D16FE0DE4BF7
:1069A000984238D08023FF001B041F43730F3B43E2
:1069B0000193DA4B0027994600239B46F600814459
:1069C0002B0369001B0B52469846490DED0F002919
:1069D00000D185E0D04B994200D173E04346DA0004
:1069E00080231B0413435246CC48520F8446134362
:1069F000524600206144D200894421006940009140
:106A00008C46012149448A460F2F00D990E0C449A1
:106A1000BF00CF59BF465B463B43019300D06AE1BC
:106A200002230827002681469B46C9E732005846C4
:106A3000019B61460091022800D175E0032800D136
:106A4000FEE1012800D02CE10023002700260025CC
:106A50003F032A0D3F0BB34812053A4302401B0582
:106A60001343009A5B00D1075B080B433000190009
:106A700007B03CBC90469946A246AB46F0BD5B468B
:106A80003B43019300D12FE1002F00D1A5E1380055
:106A900000F034FE03000B3B1C2B00DD96E11D22B1
:106AA000D31A5A460100DA405E4608398F40130077
:106AB0008E403B4301939C4B00271B1A99460023B1
:106AC0009B467DE7414653460B4393498C46E14440
:106AD000002B00D01AE102220220174300228CE78B
:106AE000134300D10DE14346002B00D181E1404624
:106AF00000F004FE02000B3A1C2A00DD72E10100E6
:106B0000434608398B4098461D239A1A5346D34072
:106B10001A004346134352468A404946081A82499E
:106B200089468144002068E77B4B002700268EE7DA
:106B3000140C1204120C1100370C3604350C794376
:106B400028008C462E006043604483465643210053
:106B5000300C80465846794340440291844506D91A
:106B60008846802149028C46E04441460291360421
:106B7000010C360C00048B4681191E0C1B041B0CE7
:106B80000391190079438C46280075436544A84653
:106B90005843050C45447743A94203D98021490253
:106BA0008C466744290C8C4639000004000C2D04E7
:106BB0002D186144AB4405915946049101990F0485
:106BC0003F0C080C390051434243904602008C466A
:106BD000090C8B4662437C4344445C44A04503D982
:106BE0008021490288464244210C884661460904B6
:106BF000090C8C4639005943434370437E430F0CC4
:106C0000F6182404BE19644442448C46B34203D9A6
:106C100080235B0298464044029B61469846049B51
:106C2000370443449B46AB45AD416B420D04059987
:106C30002D0C8C467F196744FD18A8465D462D191A
:106C4000A542A44193466442A446C344DC448F4217
:106C5000BF4198459B4193459241A445A4415B4265
:106C60007F421F43360C52426442BF192243BF1871
:106C7000624638184302D20D039913436A020A434D
:106C8000501E82416146ED0D2A434E023243D90126
:106C900000D4B3E00126500832400243DE073243FD
:106CA0005B08224C5444002C62DD510709D00F20B0
:106CB0001040042805D0101D9042924152429B186A
:106CC0000200D90104D580241948E400034054444B
:106CD0001848844200DD27E75E075B02D2081F0BDD
:106CE000630516435B0DB2E6002399460133042782
:106CF00000269B4664E60323019781460C279B46AA
:106D00005EE6012201201743002276E603230320DA
:106D10001F43434671E6C046FF07000001FCFFFF2A
:106D2000C0B60000FFFF0F800DFCFFFFFF03000057
:106D3000FFFFFFFEFE0700000023802700933F03B4
:106D40000026434B83E6019B3200A446584670E67A
:106D5000AC466EE6802701993F0339422DD03B4275
:106D60002BD11F433F033F0B00951600384B6EE6B7
:106D700001252D1B382D00DD66E61F2D40DC354832
:106D80001C005044160082408440EE40501E824158
:106D900034431443EB40620709D00F222240042AF7
:106DA00005D02200141D9442804140421B181A0253
:106DB0003ED501230027002649E68027019B3F039B
:106DC0001F433F033F0B0094214B40E603005A460C
:106DD000283B9A40002601926DE6584600F08EFC52
:106DE000203057E603005246283B9A401300002209
:106DF00093E6504600F082FC20307BE6CA4650E71E
:106E00001F201E004042041BE640202D03D0124CE0
:106E10005444A3401A43501E8241324307260027A0
:106E2000164009D00F200023104014000428B9D1C7
:106E300022005E075B021F0BD2081643002306E602
:106E400080273F031F433F033F0B1600004BFEE527
:106E5000FF0700001E0400003E040000F8B557467E
:106E60004E464546DE460C000903E0B5490A460F8A
:106E70005F0031431E03DB0F760A9B46530F3343FB
:106E8000C84E6500C000E40FD2006D0DA2468146D9
:106E90007F0D9C469046B74200D1B9E05B46012683
:106EA00073409B46EE1BA34500D183E0002E63DDBB
:106EB000002F00D0B1E06346134300D123E1731EDD
:106EC000002B00D0BAE1861A6346B042804101250A
:106ED000C91A4042091A0B0200D447E149024B0A81
:106EE00098464346002B00D189E1404600F006FC5D
:106EF0000300083B1F2B00DD7CE120223000D21A6A
:106F00004146D040994002009E400A439D4200DD28
:106F10006AE15D1B6B1C1F2B00DD94E1202110003A
:106F20003500C91A8E40DA408840DD40711E8E411E
:106F3000110007222843002506433240002A09D0C9
:106F40000F233340042B05D0331DB342B6417642A4
:106F500089191E000B0200D43DE26A1C914B5505B5
:106F60006D0D9A4200D119E18F4AF6080A40570781
:106F700052023743120B9BE0002E00D0C5E06E1C7E
:106F80007605760D012E00DC48E16746861ACB1B9C
:106F9000B042BF417F42B8461F004346FF1A3B0044
:106FA000B8461B0200D55FE137439AD10022002486
:106FB000002579E0002E00DCFAE0002F00D18DE002
:106FC000784B9D4267D0802367461B041F43BC4615
:106FD000382E00DC52E1634613435A1E93411E18BB
:106FE00086428041404209180B0200D4BEE06D4B3E
:106FF00001359D4200D1D2E06B4A73080A4001215D
:107000000E401E435108D30707221E43324095E726
:107010001E00164300D045E740E7624B9D423AD040
:10702000802367461B041F43BC46382E00DDEBE07F
:107030001F2E00DC3AE133006746203BDF403B0077
:10704000202E05D04027BF1B6646BE4032439046E7
:107050004646721E96413343DAE0002B00D114E21B
:107060006346134300D168E180234E07C008C90876
:107070001B030643194208D06046C008184204D1D9
:1070800063460100D2085E071643F3009946C90023
:10709000720F444D11434B46DE08424B4F073743B6
:1070A000CA089D4200D16EE012036D05120B6D0DF2
:1070B00000211203130B0A0D12051A433B4B2D0539
:1070C00013402B435B00E4075B082343380019009F
:1070D0003CBC90469946A246AB46F8BD6346134376
:1070E00011D0731E002B00D007E186188642804124
:1070F00061444042091801250B0237D502257BE780
:107100003E00614691463500C5E75C46002D00D043
:10711000E1E00B000343F3D0731C00D1ACE1214B41
:107120009F4200D13AE1F343382B00DD6FE11F2B82
:1071300000DD8CE120250E00ED1AAE40B0460600C1
:10714000AA46DE40454635432E005546D940A84064
:107150006346451EA8415B1A9C463043161AB2424C
:10716000924163465242991A3D00B4E607223240EA
:10717000002A00D0E4E60B4BF6084F073743CA0855
:107180009D4200D090E73B00134300D1A6E180234D
:107190001B031A431203120B024D89E7150000224C
:1071A000002785E7FF070000FFFF7FFFFFFF0F803D
:1071B000002E00D0C7E06B1C5E05760D012E00DCB2
:1071C000F0E0C84DAB4200D1B9E085180A00854215
:1071D00089416244494251180722CE076D082E4367
:1071E000490832401D00A9E6BF49ED1A11400722A7
:1071F0003240A3E6320028388240002686E630007E
:1072000000F07CFA203073E6634613435A1E934124
:10721000C61AB04280414042091A5CE60E00674639
:1072200006431743002D5ED1002E00D0F3E0002F5F
:1072300000D11EE15C46614691462CE7A94FBE4253
:107240007BD01E00F1E610001F3DE840202B03D04C
:107250004021CB1A9A401643731E9E4107220643D3
:1072600032400021002583E7161A6346B24280416E
:10727000591A40420B1A98465C4632E61F2E00DD32
:10728000ABE02027BB1B9A4663465746BB40994656
:1072900013004F46F3401F433B005746BA40571E6A
:1072A000BA4113436246F240891898E62027BB1B77
:1072B0009A4663465746BB40994613004F46F340F3
:1072C0001F433B005746BA40571EBA41134362461C
:1072D000F240891A9CE7834B9F425FD080252D04A2
:1072E0007342294320E7002E0CD1002F00D1D0E0BB
:1072F0005C46614691467B4DCDE67A4FBE421CD03E
:107300001E0065E6002F18D0C0084E0706438020F7
:10731000C9080003014208D06346DC08044204D1D6
:107320002100DA46D2085E071643F300994601248D
:107330005346C900720F11431C406A4DABE61D0055
:1073400000220027B4E6002D59D10B00034300D1E1
:10735000D6E6731C00D1B2E0624B9F421ED0F343CD
:10736000382B6FDC1F2B00DD97E020250E00ED1A77
:10737000AE40B0460600AA46DE40454635432E00E4
:107380005546A840D940451EA8418C440643B6182E
:1073900096429241514261443D0025E63D006146DE
:1073A000914678E60B000343002D00D055E6002BF4
:1073B000F5D06346134300D16DE6861886428041BE
:1073C00061444042091800220B0200D4D0E6464B2B
:1073D00001351940B2E5B1465DE633006746203B12
:1073E000DF403B00202E05D04027BF1B6646BE4035
:1073F000324390464646721E96413343EFE5394B81
:107400009F42CBD080252D0473422943A8E708432F
:10741000411E8841A2E6002F00D13CE66346861A51
:10742000CF1AB0429B415B42FB1A98461B024ED5D5
:10743000161A6346B2429241591A5242891A5C4660
:1074400000227BE501430E00711E8E419FE71D0067
:107450000E00203DEE40B046202B04D04025EB1A14
:1074600099400843814648464346411E8841184397
:1074700074E60022002417E6161A6346B2429241CF
:10748000591A5242891A3D0025E561469146154D2B
:1074900001E680220024120379E61D000E00203D43
:1074A000EE40B046202B04D04025EB1A994008430B
:1074B00081464E464346711E8E411E4367E786183D
:1074C00096429B4161445B42C9183D008CE54746AA
:1074D0003743CED007224146324049E600273A00E2
:1074E000E6E5C046FF070000FFFF7FFF70B50C4ECA
:1074F0000D031C0349005B002D0B490D240B5B0D94
:10750000B14208D0064900208B4203D11443200029
:10751000441EA04170BD05430120002DFAD1F1E7C2
:10752000FF07000030B5144D0A034B00120B5B0D32
:10753000C90F0024AB4211DD104CA34210DC8024A3
:10754000640322430E4CE41A1F2C0CDD0D48C31AB1
:10755000DA4013005C42002900D11C00200030BD3D
:10756000094BCC18FAE7094DE040AC4663449A4019
:1075700013000343EEE7C046FE0300001D040000B5
:107580003304000013040000FFFFFF7FEDFBFFFF4B
:1075900010B5041E25D000F0B1F8144B1B1A5B0582
:1075A0005B0D0A2812DD0B38844000222403240BD3
:1075B0000021100024030A0D240B120522430C4C59
:1075C0001B05224013435B00590810BD0200210037
:1075D000153291400A000B21081AC4402403240BE1
:1075E000E6E7002300240022E2E7C0461E04000074
:1075F000FFFF0F80F0B54C00640D0B03621C5B0AAB
:10760000460F5205C90F1E43C500520D012A29DD40
:10761000374BE718FE2F1CDC002F3BDD8001431E9B
:1076200098410722F3006D0F03432B431A40002AB1
:1076300004D00F221A40042A00D004338022D2043E
:107640001A4024D00137FAB2FF2F02D09B01580A0A
:1076500001E0FF2200204002D205400AC907104382
:107660000843F0BD3543002C04D1002D0AD100227F
:107670000020F0E7002DECD08020C0033043FF2233
:10768000E9E7002400235B02580AE2B2E3E7DB08E3
:107690003C00F8E73B001733F3DB80231B04334344
:1076A0001E26F61B1F2E14DD02225242D71B1A0083
:1076B000FA401700202E04D00E4A94466444A3409A
:1076C0001D432B005D1EAB4107223B431A400027A0
:1076D000ADE7094A2800A218954093406C1EA541C9
:1076E000F04007222B4303431A4000279FE7C04680
:1076F00080FCFFFFA2FCFFFF82FCFFFF1C21012397
:107700001B04984201D3000C10391B0A984201D384
:10771000000A08391B09984201D30009043902A262
:10772000105C40187047C0460403020201010101C9
:10773000000000000000000070B500260C4D0D4C4C
:10774000641BA410A64209D1002603F025FE0A4DB1
:107750000A4C641BA410A64205D170BDB300EB58BF
:1077600098470136EEE7B300EB5898470136F2E749
:10777000980200209802002098020020A802002011
:10778000EC3000687047000010B5034B010018682A
:1077900000F08EF810BDC046C800002010B5034BA5
:1077A0000100186800F03AF810BDC046C80000207B
:1077B00082B0002900D101A9101E06D0002B06D0EE
:1077C00013780B601078431E984102B07047022076
:1077D0004042FAE7002310B59A4200D110BDCC5CBC
:1077E000C4540133F8E710B5884202D98B18984287
:1077F00003D3002307E08B5C8354013AFBD210BD16
:10780000CC5CC45401339A42FAD1F8E70300121851
:10781000934200D1704719700133F9E770B5050044
:10782000002910D00C1F2368002B00DAE418280070
:1078300002F0E3FF1D4A1368002B05D1636014605A
:10784000280002F0DBFF70BDA34209D9216860184F
:107850008342F3D118685B6841182160EEE713009A
:107860005A68002A01D0A242F9D919685818A042D2
:107870000BD120680918581819608242E0D11068AD
:107880005268411819605A60DAE7A04202D90C2305
:107890002B60D5E721686018824203D110685268D6
:1078A0004118216062605C60CAE7C0463C6B002002
:1078B000032370B5CD1C9D43083506000C2D1ED248
:1078C0000C25A9421DD8300002F097FF254A146804
:1078D0002100002919D1244C2368002B03D130004A
:1078E00000F0A0FE20602900300000F09BFE431C49
:1078F0002BD10C233000336002F080FF03E0002D19
:10790000DFDA0C233360002070BD0B685B1B19D4D9
:107910000B2B03D90B60CC18256003E04B688C421D
:107920000DD11360300002F069FF200007220B30F8
:10793000231D9043C31AE7D05A42E250E4E7636044
:107940000C00EFE70C004968C3E70323C41C9C4309
:10795000A042E1D0211A300000F064FE431CDBD1CC
:10796000C7E7C0463C6B0020406B0020F0B58BB0F1
:1079700014001D1E129953DA802424061B191D00C1
:1079800014002D230B702023149E03229E43462EA9
:1079900007D03300453B59424B411099013ACB186F
:1079A000109309AB049308AB0393139B00920293CB
:1079B000109B220001932B0001F0F4FD0700472EDD
:1079C00002D1119BDB0724D5109BFB180793462E91
:1079D00014D13B78302B0CD1002200232000290049
:1079E000FEF758F8002804D10123109A9B1A139A25
:1079F0001360139B079A1B68D31807930022002378
:107A000020002900FEF746F8302200280DD0079B01
:107A100009933800099B159ADB1B13600BB0F0BD6E
:107A20000023AFE7591C09911A70099B07998B42F3
:107A3000F8D3EEE7F0B5831C85B0019306000C0087
:107A400002702B23002901DA2D234C427370092C7C
:107A500022DD02ABDD1D20000A21FEF705F86F1EB6
:107A60003031397020000A21FDF718FF0400092881
:107A70000BDC023D3034019B2C7002AA0732180047
:107A8000AA4204D8801B05B0F0BD3D00E3E72A7888
:107A900001351A700133F0E73023E418B370301D5C
:107AA000F470EFE7F0B595B00C000A920B931A9DB5
:107AB000099002F08BFE036818000C9300F0E8FDBB
:107AC0000023129323680E900D930D99277E2B6847
:107AD0000722C90545D59B1893431A0008322A602E
